:100000000C941E0D0C944B0D0C944B0D0C944B0D3D
:100010000C944B0D0C944B0D0C944B0D0C944B0D00
:100020000C944B0D0C944B0D0C944B0D0C944B0DF0
:100030000C944B0D0C944B0D0C944B0D0C944B0DE0
:100040000C944B0D0C94BF9F0C944B0D0C944B0DCA
:100050000C944B0D0C944B0D0C9458A80C949D29AA
:100060000C944B0D0C94093C0C944B0D0C944B0DC3
:100070000C944B0D0C944B0D0C944B0D0C944B0DA0
:100080000C944B0D0C944B0D0C944B0D0C944B0D90
:100090000C944B0D0C944B0D0C944B0D0C944B0D80
:1000A0000C944B0D0C944B0D0C944B0D0C944B0D70
:1000B0000C944B0D0C944B0D0C944B0D0C944B0D60
:1000C0000C944B0D0C944B0D0C944B0D0C944B0D50
:1000D0000C944B0D0C944B0D0C944B0D0C944B0D40
:1000E0000C944B0D084AD73B3BCE016E84BCBFFD40
:1000F000C12F3D6C74319ABD56833DDA3D00C77FF8
:1001000011BED9E4BB4C3E916BAAAABE0000008090
:100110003F05A84CCDB2D44EB93836A9020C50B91F
:10012000918688083CA6AAAA2ABE000000803F004B
:10013000002100240027002A002D00300033000198
:10014000010000040107010A010000220025002827
:10015000002B002E003100340002010000050108D0
:10016000010B01000020002300260029002C002F95
:100170000032000001000003010601090105050528
:1001800005070508080808020202020A0A0808040E
:10019000040404010101010101010103030303033C
:1001A000030303040707070C0C0C0C0C0C0C0C02CB
:1001B00002020206060606060606060B0B0B0B0BD2
:1001C0000B0B0B01021020200808102040102040CB
:1001D000800201020108040201010204081020400B
:1001E0008080402010080402018004020180402029
:1001F0001008040201080402010102040810204052
:100200008001020408102040800000090A02080B47
:100210000C0D0706030401000000000000000000B0
:1002200000000000000000000000000000000000CE
:10023000000000000011100F00000000000000008E
:100240000000000000000000000000000000006549
:1002500063686F3A0053746F7265642073657474D9
:10026000696E6773207265747265697665643A00B9
:100270002044002049002020204D33303120500000
:100280005049442073657474696E67733A00205A4C
:100290000020590020204D323036205800486F6D24
:1002A00065206F666673657420286D6D293A00209D
:1002B0004500205A002058002042002054002020F1
:1002C0004D323035205300416476616E63656420A1
:1002D0007661726961626C65733A20533D4D696E57
:1002E00020666565647261746520286D6D2F7329C1
:1002F0002C20543D4D696E2074726176656C2066C9
:100300006565647261746520286D6D2F73292C20DA
:10031000423D6D696E696D756D207365676D656EC3
:10032000742074696D6520286D73292C20583D6DEB
:100330006178696D756D207859206A65726B202827
:100340006D6D2F73292C20205A3D6D6178696D7574
:100350006D205A206A65726B20286D6D2F732900FD
:1003600020540020204D3230342053004163636517
:100370006C65726174696F6E3A20533D61636365A9
:100380006C65726174696F6E2C20543D7265747275
:1003900061637420616363656C65726174696F6E1B
:1003A00000204500205A0020590020204D323031D5
:1003B0002058004D6178696D756D20416363656CEF
:1003C00065726174696F6E20286D6D2F7332293AE2
:1003D00000204500205A0020590020204D323033A3
:1003E0002058004D6178696D756D20666565647291
:1003F0006174657320286D6D2F73293A00204500C4
:10040000205A0020590020204D39322058005374C2
:100410006570732070657220756E69743A0053655B
:100420007474696E67732053746F7265640041A0C1
:1004300042A1E045A3A4A5A64BA74D484FA8504311
:1004400054A9AA58E1ABACE2ADAE62AFB0B161B2B3
:10045000B3B4E365B6B7B8B9BABBBCBD6FBE706321
:10046000BF79E478E5C0C1E6C2C3C4C5C6C7656349
:10047000686F3A004572726F723A0053544F505091
:1004800045442E20005072696E7465722073746F3B
:10049000707065642064756520746F206572726F7A
:1004A00072732E2046697820746865206572726FB9
:1004B0007220616E6420757365204D39393920745E
:1004C0006F20726573746172742E202854656D708C
:1004D00065726174757265206973207265736574E5
:1004E0002E205365742069742061667465722072D1
:1004F000657374617274696E6729004B494C4C4591
:10050000442E20005072696E7465722068616C74AC
:1005100065642E206B696C6C28292063616C6C65A6
:100520006421006F6B00526573656E643A2000228F
:1005300000556E6B6E6F776E20636F6D6D616E64CC
:100540003A2022007A5F6D61783A20007A5F6D6907
:100550006E3A2000795F6D61783A2000795F6D69AD
:100560006E3A2000785F6D61783A2000785F6D699F
:100570006E3A20005A3A00593A0020436F756E7463
:1005800020583A2000453A005A3A00593A00583A61
:10059000004649524D574152455F4E414D453A4DF7
:1005A00061726C696E2056313B20537072696E74B3
:1005B00065722F6772626C206D617368757020665A
:1005C0006F722067656E36204649524D574152453D
:1005D0005F55524C3A687474703A2F2F6669726D89
:1005E000776172652E756C74696D616B65722E63CF
:1005F0006F6D2050524F544F434F4C5F56455253EE
:10060000494F4E3A312E30204D414348494E455FC7
:10061000545950453A556C74696D616B657220454B
:10062000585452554445525F434F554E543A310A3F
:100630000042656420646F6E652E0020423A0020FF
:10064000453A00543A004265642048656174696E19
:10065000672E0048656174696E6720646F6E652E51
:100660000020573A0020453A00543A00486561742A
:10067000696E672E2E2E002042403A0020403A003C
:10068000202F0020423A00202F006F6B20543A00A8
:100690002569206D696E2C202569207365630045EE
:1006A0006E642066696C65206C69737400426567CE
:1006B000696E2066696C65206C697374004E6F20EA
:1006C0006D6F76652E00526573756D696E6720706B
:1006D00072696E74005761697420666F7220757359
:1006E00065722E2E2E00536C6565702E2E2E000026
:1006F00000000000000000000000000000000000FA
:100700000000000000000000004D4300004D4300C9
:1007100000484300004D4300004D430000484300A3
:1007200000A0400000A0400000803FFFFFFF2569BF
:1007300020686F757273202569206D696E75746508
:100740007300446F6E65207072696E74696E672005
:1007500066696C650053544F505045442E2000503C
:1007600072696E7465722073746F70706564206452
:10077000756520746F206572726F72732E204669E2
:100780007820746865206572726F7220616E6420D3
:10079000757365204D39393920746F207265737413
:1007A0006172742E202854656D7065726174757263
:1007B000652069732072657365742E2053657420FB
:1007C00069742061667465722072657374617274F5
:1007D000696E6729006F6B004E6F204C696E652053
:1007E0004E756D6265722077697468206368656311
:1007F0006B73756D2C204C617374204C696E653A77
:1008000020004E6F20436865636B73756D207769B8
:100810007468206C696E65206E756D6265722C203F
:100820004C617374204C696E653A2000636865639F
:100830006B73756D206D69736D617463682C204CEA
:10084000617374204C696E653A20004C696E6520B6
:100850004E756D626572206973206E6F74204C61F5
:100860007374204C696E65204E756D6265722B3114
:100870002C204C617374204C696E653A20004D3118
:10088000313000446F6E6520736176696E67206653
:10089000696C652E006F6B004D3239002020506C62
:1008A000616E6E65724275666665724279746573D3
:1008B0003A20002046726565204D656D6F72793A69
:1008C00020004A616E203130203230313300436FD6
:1008D0006D70696C65643A20002844617669642013
:1008E000427261616D2900207C20417574686F72CD
:1008F0003A20004A616E20313020323031332031CD
:10090000353A35373A353200204C617374205570D2
:1009100064617465643A2000556C74696D616B653F
:10092000723A2031332E3031205243312028426137
:1009300073696329004D61726C696E200020536FEA
:100940006674776172652052657365740020576123
:10095000746368646F672052657365740020427227
:100960006F776E206F757420526573657400204533
:10097000787465726E616C20526573657400506F97
:100980007765725570007374617274002200656E31
:10099000717565696E672022002200656E7175654C
:1009A000696E672022007C3C3E5E2B3D3F2F5B5DE5
:1009B0003B2C2A225C000D0A004D38342058205967
:1009C000205A2045006563686F3A0043616E6E6F80
:1009D0007420656E746572207375626469723A2062
:1009E000004D3234004D3233202573006175746F31
:1009F00025692E67004572726F723A006572726FD8
:100A0000722077726974696E6720746F2066696CF2
:100A100065004E6F74205344207072696E74696E65
:100A200067002F005344207072696E74696E6720EE
:100A30006279746520002E0044656C6574696F6E80
:100A4000206661696C65642C2046696C653A2000FB
:100A500046696C652064656C657465643A002E00B7
:100A60006F70656E206661696C65642C2046696CE8
:100A7000653A200057726974696E6720746F20664A
:100A8000696C653A20002E006F70656E20666169A2
:100A90006C65642C2046696C653A20002E006F70EE
:100AA000656E206661696C65642C2046696C653AE8
:100AB000200046696C652073656C6563746564002D
:100AC0002053697A653A200046696C65206F70652D
:100AD0006E65643A20002E006F70656E2066616955
:100AE0006C65642C2046696C653A20005344206391
:100AF000617264206F6B006F70656E526F6F74204F
:100B00006661696C656400766F6C756D652E696EE3
:100B10006974206661696C656400534420696E697C
:100B200074206661696C006563686F3A0020746FB9
:100B30006F206C6F6E6720657874727573696F6E65
:100B40002070726576656E7465640020636F6C64F6
:100B500020657874727573696F6E20707265766542
:100B60006E7465640045313A200045303A20005AE1
:100B70003A2000593A2000583A20004D53312C4D6C
:100B800053322050696E730A0024F404D9201BC428
:100B90000C5C0E9804C4095F0265077101F405F945
:100BA00000FB04B30048048700C1036900580355E3
:100BB0000003034500BE023A008402310053022ABA
:100BC000002902250004022000E4011C00C80119CC
:100BD00000AF011700980114008401130071011087
:100BE000006101100051010E0043010D0036010BA0
:100BF000002B010B0020010B00150109000C01095D
:100C00000003010800FB000800F3000800EB0007E8
:100C100000E4000600DE000600D8000600D2000650
:100C200000CC000500C7000500C2000500BD00049F
:100C300000B9000400B5000400B1000400AD0004D8
:100C400000A9000400A5000300A20003009F000407
:100C5000009B00030098000300950002009300032E
:100C600000900003008D0002008B0003008800024A
:100C7000008600020084000300810002007F000261
:100C8000007D0002007B0002007900020077000175
:100C90000076000200740002007200010071000280
:100CA000006F0002006D0001006C0002006A00018C
:100CB0000069000200670001006600010065000194
:100CC0000064000200620001006100010060000198
:100CD000005F0002005D0001005C0001005B00019C
:100CE000005A00010059000100580001005700019E
:100CF000005600010055000100540001005300009F
:100D00000053000100520001005100010050000199
:100D1000004F0001004E0000004E0001004D000198
:100D2000004C0001004B0000004B0001004A000194
:100D30000049000100480000004800010047000190
:100D4000004600000046000100450000004500018B
:100D50000044000100430000004300010042000085
:100D6000004200010041000000410001004000017C
:100D7000003F0000003F0001003E0000003E000177
:100D8000003D0000003D0001003C0000003C000070
:100D9000003C0001003B0000003B0001003A000065
:100DA000003A00010039000000390001003800005D
:100DB0000038000000380001003700000037000153
:100DC000003600000036000000360001003500004B
:100DD0000035000000350001003400000034000040
:100DE0000034000100330000003300000033000134
:100DF000003200000032000000320001003100002B
:100E0000003100000031000100300000003000001F
:100E100000300001002F0000002F0000002F000014
:100E2000002F0001002E0000002E0000002E000107
:100E3000002D0000002D0000002D0000002D0001FD
:100E4000002C0000002C0000002C0000002C0001F1
:100E5000002B0000002B0000002B0000002B0001E5
:100E6000002A0000002A0000002A0000002A0001D9
:100E700000290000002900000029000000290000CE
:100E800000290001002800000028000000280000C0
:100E900000280000002800010027000000270000B3
:100EA00000270000002700000027000100260000A6
:100EB0000026000000260000002600000026000199
:100EC000002500000025000000250000002500008E
:100ED000002500000025000100240000002400007F
:100EE0000024000000240000002400010023000072
:100EF0000023000000230000002300000023000066
:100F00000023000000230001002200000022000056
:100F10000022000000220000002200000022000148
:100F2000002100000021000000210000002100003D
:100F3000002100000021000000210001002000002D
:100F40000020000000200000002000000020000021
:100F5000002000000020000000200001001F000011
:100F6000001F0000001F0000001F0000001F000005
:100F7000001F0000001F0001001E0000001E0000F6
:100F8000001E0000001E00000024F4D43050C38E68
:100F900020C2A24017828B7011127A910D816CD9F8
:100FA0000AA861E108C7586607615143061E4B5DF8
:100FB00005C145A7041A411104093D98037139314F
:100FC000034036DB0265339102D4305402802E1D7B
:100FD00002632CEE01752AC501B028A001102781FB
:100FE000018F2564012B244B01E0223401AC211F29
:100FF000018D200D01801FFC00841EED00971DDF78
:1010000000B81CD200E61BC600201BBC00641AB24C
:1010100000B219A8000A19A0006A189900D1179106
:101020000040178B00B516840031167E00B3157989
:10103000003A157300C7146F0058146A00EE136667
:10104000008813630025135E00C7125B006C125703
:101050000015125400C111510070114F0021114BA5
:1010600000D61049008D104700461044000210427F
:1010700000C00F4000800F3E00420F3C00060F3BB7
:1010800000CB0E3800930E37005C0E3500270E346F
:1010900000F30D3200C10D3100900D3000600D2EB7
:1010A00000320D2D00050D2C00D90C2B00AE0C29A3
:1010B00000850C29005C0C2700350C27000E0C263F
:1010C00000E80B2400C40B2400A00B23007D0B239D
:1010D000005A0B2100390B2100180B2000F80A1FC1
:1010E00000D90A1E00BB0A1E009D0A1D00800A1DB1
:1010F00000630A1C00470A1B002C0A1B00110A1A75
:1011000000F7091A00DD091900C4091900AB091913
:1011100000920917007B091800630917004C091693
:101120000036091600200916000A091500F50815F1
:1011300000E0081400CC081400B8081400A4081437
:1011400000900813007D0812006B08130058081265
:10115000004608120034081100230811001208117B
:101160000001081100F0071000E0071000D0071080
:1011700000C0071000B0070F00A107100091070E74
:101180000083070F0074070F0065070E0057070E56
:101190000049070E003B070D002E070E0020070D2B
:1011A0000013070D0006070D00F9060C00ED060DF3
:1011B00000E0060C00D4060C00C8060C00BC060CAF
:1011C00000B0060C00A4060B0099060C008D060B5F
:1011D0000082060B0077060B006C060B0061060A06
:1011E0000057060B004C060A0042060A0038060AA1
:1011F000002E060A0024060A001A060A0010060934
:101200000007060A00FD050900F4050900EB0509C1
:1012100000E2050900D9050900D0050900C7050944
:1012200000BE050900B5050800AD050800A50509C3
:10123000009C050800940508008C0508008405083A
:10124000007C050800740508006C050700650508AA
:10125000005D050700560508004E05070047050715
:10126000004005080038050700310507002A05077A
:1012700000230507001C050600160507000F0507DB
:10128000000805060002050700FB040600F5040738
:1012900000EE040600E8040600E2040700DB040692
:1012A00000D5040600CF040600C9040600C30406E6
:1012B00000BD040600B7040600B1040500AC040636
:1012C00000A6040600A00405009B04060095040582
:1012D00000900406008A04050085040500800406C9
:1012E000007A04050075040500700405006B040510
:1012F0000066040500610405005C04050057040550
:1013000000520405004D040500480405004304058F
:10131000003E0404003A04050035040500300404CE
:10132000002C04050027040400230405001E040407
:10133000001A04040016040500110404000D04043E
:1013400000090405000404040000040400FC030474
:1013500000F8030400F4030400F0030400EC0304A9
:1013600000E8030400E4030400E0030400DC0304D9
:1013700000D8030400D4030400D0030400CC030409
:1013800000C8030300C50303006563686F3A006586
:101390006E6473746F7073206869743A205A002009
:1013A0005A3A00656E6473746F7073206869743A9A
:1013B00020590020593A00656E6473746F70732071
:1013C0006869743A20580020583A00656E64737456
:1013D0006F7073206869743A20004572726F723AB8
:1013E000004572723A204D415854454D50204245B7
:1013F000440054656D70657261747572652068652E
:1014000061746564206265642073776974636865DC
:1014100064206F66662E204D415854454D5020740F
:101420007269676765726564202121004572723AAE
:10143000204D494E54454D50003A20457874727500
:10144000646572207377697463686564206F66668B
:101450002E204D494E54454D502074726967676582
:101460007265642021004572723A204D41585445FE
:101470004D50003A20457874727564657220737718
:10148000697463686564206F66662E204D41585408
:10149000454D50207472696767657265642021004C
:1014A000202D20496E76616C6964206578747275B0
:1014B000646572206E756D626572202100656368D7
:1014C0006F3A0048656174696E67206661696C6592
:1014D0006400504944204175746F74756E652066D0
:1014E000696E6973686564202120506C61636520B2
:1014F000746865204B702C204B6920616E64204B12
:101500006420636F6E7374616E747320696E2074EF
:10151000686520636F6E66696775726174696F6E66
:101520002E6800504944204175746F74756E6520B3
:101530006661696C6564212074696D656F757400FE
:1015400020403A006F6B20543A006F6B20423A0003
:10155000504944204175746F74756E6520666169E9
:101560006C6564212054656D706572617475726577
:1015700020746F206869676800204B643A2000205F
:101580004B693A2000204B703A200020436C617375
:1015900069632050494420002054753A2000204BB4
:1015A000753A2000206D61783A2000206D696E3A0E
:1015B000200020643A200020626961733A20002DE7
:1015C0002D3A2D2D002D2D2D0053440020590001C2
:1015D00020004E6F20436172640043617264204DAD
:1015E000656E750053746F70205072696E7400528E
:1015F0006573756D65205072696E74005061757306
:1016000065205072696E7400436F6E74726F6C0067
:10161000507265706172650054756E650057617433
:10162000636800052E2E004D61696E004D32340056
:101630004D3233202573004D383420582059205A1C
:101640002045004669726D77617265207665727318
:10165000696F6E00526573746F7265204661696CC4
:1016600073616665004C6F6164206D656D6F7279A2
:101670000053746F7265206D656D6F7279004D6FE8
:1016800074696F6E0054656D706572617475726512
:10169000004D61696E004A616E2031302032303178
:1016A000332031353A35373A353500426173696355
:1016B00000556C74696D616B65723A2031332E3060
:1016C0003120524331004669726D77617265207630
:1016D000657273696F6E004573746570732F6D6DFD
:1016E000004573746570732F6D6D005A7374657067
:1016F000732F6D6D005A73746570732F6D6D005983
:1017000073746570732F6D6D005973746570732FEA
:101710006D6D005873746570732F6D6D0058737420
:101720006570732F6D6D00412D7265747261637405
:1017300000412D7265747261637400416D6178209F
:101740006500416D6178206500416D6178207A0007
:10175000416D6178207A00416D6178207900416D9A
:101760006178207900416D6178207800416D617861
:101770002078005654726176206D696E005654725E
:101780006176206D696E00566D696E00566D696EEA
:1017900000566D6178206500566D617820650056B1
:1017A0006D6178207A00566D6178207A00566D61FF
:1017B00078207900566D6178207900566D61782027
:1017C0007800566D61782078005678792D6A6572B8
:1017D0006B005678792D6A65726B00416363656CA6
:1017E00000416363656C00436F6E74726F6C0050F0
:1017F0007265686561742041425320436F6E6600D4
:101800005072656865617420504C4120436F6E666C
:10181000005049442D43005049442D430050494451
:101820002D44005049442D44005049442D49005056
:1018300049442D49005049442D50005049442D50F1
:101840000046616E2073706565640046616E2073AA
:1018500070656564004E6F7A7A6C65004E6F7A7AB7
:101860006C6500436F6E74726F6C0053746F7265B9
:10187000206D656D6F7279004E6F7A7A6C65004EDF
:101880006F7A7A6C650046616E20737065656400DE
:1018900046616E2073706565640054656D70657295
:1018A00061747572650053746F7265206D656D6F3C
:1018B0007279004E6F7A7A6C65004E6F7A7A6C6539
:1018C0000046616E2073706565640046616E20732A
:1018D000706565640054656D7065726174757265DC
:1018E000004D6F76652041786973004D31303420AA
:1018F00053300A4D31343020533000436F6F6C64E5
:101900006F776E00507265686561742041425300C4
:101910005072656865617420504C41004732380050
:101920004175746F20486F6D65004D38340044690F
:101930007361626C65205374657070657273004DDD
:1019400061696E004D6F766520302E316D6D004DF2
:101950006F766520316D6D004D6F76652031306D8D
:101960006D005072657061726500457874727564BF
:101970006572004D6F7665205A004D6F766520596F
:10198000004D6F76652058004D6F7665204178696F
:1019900073004578747275646572005A0059005876
:1019A00000466C6F7700466C6F770046616E20735F
:1019B000706565640046616E207370656564004EF5
:1019C0006F7A7A6C65004E6F7A7A6C650053706539
:1019D0006564005370656564004D61696E00436124
:1019E00072642072656D6F76656400436172642075
:1019F000696E73657274656400494E46494E495478
:101A0000594E414ECDCCCC3D0AD7233C17B7D138E7
:101A100077CC2B329595E6241FB14F0A0000204168
:101A20000000C84200401C4620BCBE4CCA1B0E5AD7
:101A3000AEC59D74BC3C1E406AE3174011241FBE16
:101A4000CFEFD1E2DEBFCDBF00E00CBF14E0A0E0DD
:101A5000B2E0E8E0FBED01E00BBF02C007900D92A1
:101A6000AA38B107D9F71BBE10E1AAE8B4E001C05B
:101A70001D92A638B107E1F71AE1CAE3DAE104C022
:101A80002297FE010E9473EDC433D107C9F70E946B
:101A900078290C94DA110C940000CF93DF93BC01E9
:101AA0008230910510F462E070E0A0918210B09154
:101AB0008310ED01E0E0F0E040E050E021C08881DB
:101AC00099818617970769F48A819B81309719F06D
:101AD0009383828304C09093831080938210FE01CD
:101AE00034C06817790738F44115510519F0841787
:101AF000950708F4AC01FE018A819B819C01E901F4
:101B00002097E9F641155105A9F1CA01861B970BEB
:101B1000049708F4BA01E0E0F0E02AC08D919C91AE
:101B2000119784179507F9F46417750781F41296D5
:101B30008D919C911397309719F09383828304C001
:101B40009093831080938210FD0132964CC0CA019D
:101B5000861B970BFD01E80FF91F619371930297A4
:101B60008D939C9340C0FD01828193819C01D9019A
:101B70001097A1F68091801090918110892B41F4EB
:101B80008091470390914803909381108093801037
:101B90004091490350914A034115510541F44DB715
:101BA0005EB78091450390914603481B590B2091E5
:101BB000801030918110CA01821B930B8617970702
:101BC00080F0AB014E5F5F4F8417950750F0420FD6
:101BD000531F5093811040938010F90161937193CA
:101BE00002C0E0E0F0E0CF01DF91CF910895CF9304
:101BF000DF93009709F450C0EC0122971B821A82F0
:101C0000A0918210B0918310109709F140E050E04C
:101C1000AC17BD0708F1BB83AA83FE012191319166
:101C2000E20FF31FAE17BF0779F48D919C911197C6
:101C3000280F391F2E5F3F4F3983288312968D91CD
:101C40009C9113979B838A834115510571F4D0931E
:101C50008310C093821020C012968D919C9113978F
:101C6000AD01009711F0DC01D3CFFA01D383C28319
:101C700021913191E20FF31FCE17DF0769F48881BC
:101C80009981280F391F2E5F3F4FFA01318320833E
:101C90008A819B8193838283DF91CF910895A0E015
:101CA000B0E0E5E5FEE00C943CED6C01009729F412
:101CB000CB010E944D0D6C01C1C08EEF882E8FEFBD
:101CC000982E8C0C9D1C8601060F171F08151905F0
:101CD00008F4B2C0F401A081B181A617B707B8F02B
:101CE000A530B10508F4AAC0CD010497861797075F
:101CF00008F4A4C01297A61BB70BF801A193B193E7
:101D0000D4016D937C93CF010E94F70D97C07B01A6
:101D1000EA1AFB0AEEEFFFEFEE0EFF1E36016A0E27
:101D20007B1EC0918210D091831044245524AA2494
:101D3000BB244AC0C615D705E1F5488159814E1527
:101D40005F05B8F1CA0104978E159F05B0F412968D
:101D5000A40FB51FF401B183A0832A813B814114F4
:101D6000510431F0D20113963C932E93129766C022
:101D7000309383102093821061C08A819B81F80187
:101D800093838283425050404E195F0951834083B0
:101D90004114510431F0D20113961C930E93129703
:101DA00004C01093831000938210F4017183608348
:101DB00045C088819981A816B90608F45C012E01F6
:101DC0008A819B819C01E901209709F0B3CF809122
:101DD00080109091811086159705E9F4A616B70634
:101DE000D0F42091490330914A032115310541F483
:101DF0002DB73EB78091450390914603281B390BC0
:101E000002171307C8F41093811000938010D401B7
:101E10006D937C9313C0CB010E944D0DEC01009794
:101E200059F0F40140815181B6010E943212C6017D
:101E30000E94F70D6E0102C0CC24DD24C601CDB78F
:101E4000DEB7E0E10C9458EDA0E0B0E0EAE2FFE09C
:101E50000C9440EDEC015B016115710519F0FB017B
:101E600091838083F9908F2D90E00E9410E8892B58
:101E7000C9F7FDE2FF1621F4F990EE24E39405C0C2
:101E80002BE2F21609F4F990EE248E010150104075
:101E9000C80169EF79E143E050E00E94E411892B29
:101EA00001F58E010E5F1F4FC8016CEF79E145E02F
:101EB00050E00E94E411892B19F48E01095F1F4F35
:101EC000A114B10419F0F50111830083E0FC04C0F2
:101ED00070E090E080E814C070E090E080E86FEF80
:101EE00008C1C80161E07AE143E050E00E94E411DA
:101EF000892B69F4A114B10429F470E090E080EC1E
:101F00006FE7F7C02296F501D183C083F6CF88240E
:101F1000992440E050E060E070E0EF2DE053EA30BB
:101F2000A0F5F2E0EF2A8E2D90E09C012870307031
:101F3000E2FE06C0232B79F50894811C911C2BC06E
:101F4000232B19F0089481089108DB01CA0112E0E3
:101F5000880F991FAA1FBB1F1A95D1F7480F591F49
:101F60006A1F7B1F440F551F661F771F4E0F511DA1
:101F7000611D711D483929E9520729E9620729E1E4
:101F8000720748F084E0E82A06C0EE3F31F4E3FC33
:101F900039C098E0E92AF990C0CFE53311F0E53176
:101FA00089F529912D3219F4E0E1EE2A05C02B3292
:101FB00019F081E090E003C0299182E090E0E22FE7
:101FC000E053EA3018F0C81BD90B1CC020E030E009
:101FD000FCE020383F075CF4C901880F991F880F87
:101FE000991F280F391F220F331F2E0F311DE99122
:101FF000E053EA3068F3E4FE03C0309521953F4F8B
:10200000820E931ECE2CDD24E1FE07C0A114B10484
:1020100021F02197F501D183C083CB01BA010E9441
:10202000A2E97B018C01F3E0CF22DD2423E0C2167C
:10203000D10421F417FB109517F910955701680189
:10204000C801B70120E030E040E050E00E9402E922
:10205000882309F44AC097FE0DC028E1E22E2AE148
:10206000F22E9094819491089394C0E2D0E000E025
:1020700010E012C090E3E92E9AE1F92EF6CFF701B5
:102080002591359145915491C601B5010E94E2EB2D
:102090005B016C018C1A9D0A8C169D0684F7D59500
:1020A000C7950F5F1F4F0630110529F08CEF9FEF8A
:1020B000E80EF91EF1CFC501D6017C018D018C2DF2
:1020C000880F8D2D881F8F3F51F0C601B50120E08C
:1020D00030E040E050E00E9402E9882331F482E2DF
:1020E00090E090938510809384107E2D9F2D802FFB
:1020F000612F272F392F482F562FB901CA01CDB78D
:10210000DEB7ECE00C945CED2F923F925F926F9201
:102110007F928F929F92AF92BF92CF92DF92EF9277
:10212000FF920F931F93CF93DF938C011B01EA0162
:102130006115710519F0FB0191838083209749F0A7
:10214000CE010297839728F020E030E040E050E095
:10215000F6C0F801A1908F018A2D90E00E9410E84E
:10216000892BB9F7FDE2AF1631F4F801A1908F0188
:102170005524539407C0FBE2AF1619F4F801A1905F
:102180008F015524209719F0C031D105C1F4F0E337
:10219000AF1679F4F8018081883711F0883549F459
:1021A000F801A1800E5F1F4FF2E05F2AC0E1D0E08E
:1021B00006C0209721F480E3A816E9F427C0C830B0
:1021C000D10531F1C930D10524F4C230D10531F542
:1021D0000CC0CA30D10589F0C031D105F9F4C12C49
:1021E000D12CE12CB8E0FB2E28C0C12CD12CE12C45
:1021F000A0E4FA2E22C0CAE0D0E0FCECCF2EFCEC2A
:10220000DF2EFCECEF2EFCE0FF2E17C0C8E0D0E084
:10221000C12CD12CE12CE0E1FE2E0FC09E01442701
:1022200037FD4095542F60E070E080E090E80E9418
:10223000FDECC901DA016C017D0120E030E040E0F5
:1022400050E060E03E01882477FC8094982C70ED8B
:10225000B72EBA0CE9E0EB1570F48A2D81548A315F
:1022600018F499ECB92E06C08A2D81568A3150F5A2
:1022700089EAB82EBA0C8B2D90E08C179D0714F5C7
:102280006F3FE1F0C216D306E406F506B0F0CA01CE
:10229000B901A40193010E94B7EC9B01AC012B0D85
:1022A000311D411D511D2130F0E03F07F0E04F0787
:1022B000F0E85F0710F461E001C06FEFF801A19052
:1022C0008F01C5CF2114310481F0662331F0015014
:1022D0001040F1011183008308C051FE1AC0025062
:1022E0001040F1011183008314C067FF12C050FC3D
:1022F00005C02FEF3FEF4FEF5FE704C020E030E075
:1023000040E050E882E290E0909385108093841042
:1023100016C050FE08C050954095309521953F4F0E
:102320004F4F5F4F0CC057FF0AC082E290E090937E
:102330008510809384102FEF3FEF4FEF5FE7B901D7
:10234000CA01DF91CF911F910F91FF90EF90DF9025
:10235000CF90BF90AF909F908F907F906F905F9045
:102360003F902F9008951F93FC0199278827BC0167
:10237000E89411911032E9F3193010F01E30C8F3CF
:102380001B3251F01D3249F4689406C00E940A13B2
:10239000610F711D811D911D119110531A30B0F301
:1023A0003EF490958095709561957F4F8F4F9F4F2C
:1023B0001F910895F8940C9477EDFB01DC010590D2
:1023C0000D920020E1F70895FB01DC0141505040DF
:1023D00088F08D9181341CF08B350CF4805E659112
:1023E00061341CF06B350CF4605E861B611171F377
:1023F000990B0895881BFCCFFB01DC014150504034
:1024000048F005900D920020C9F701C01D9241507F
:102410005040E0F70895FB0155915523A9F0BF0105
:10242000DC014D9145174111E1F759F4CD010590BB
:10243000002049F04D9140154111C9F3FB014111B4
:10244000EFCF81E090E001970895FB01DC0104C02B
:102450008D910190801921F441505040C8F7881B9C
:10246000990B0895FB01DC0102C001900D924150CF
:102470005040D8F708956817790768F4FB01DC012C
:10248000E40FF51FA40FB51F02C002900E92415039
:102490005040D8F708950C943212FB01DC010D90E6
:1024A0000020E9F7119701900D920020E1F70895BF
:1024B000FC018191861721F08823D9F79927089587
:1024C0003197CF010895FB01DC018D9101908019B6
:1024D0000110D9F3990B0895FB01DC0101900D92D5
:1024E0000020E1F70895FB01DC014150504030F03D
:1024F0008D910190801919F40020B9F7881B990B70
:102500000895FB01DC014150504048F001900D92CC
:102510000020C9F701C01D9241505040E0F70895D6
:10252000FC0181E090E00190061609F4CF01002043
:10253000D1F701970895FB0151915523A9F0BF01EF
:10254000DC014D9145174111E1F759F4CD0101909E
:10255000002049F04D9140154111C9F3FB01411193
:10256000EFCF81E090E001970895FB019F01E8948F
:102570004230C4F04532B4F44A3029F497FB1EF4DB
:10258000909581959F4F642F77270E94D6EC805DB0
:102590008A330CF0895D8193CB010097A1F716F483
:1025A0005DE251931082C9010C947115FA01CF9329
:1025B000FF93EF93223044F1253234F5C22FE89493
:1025C000CA3049F497FB3EF49095809570956195DB
:1025D0007F4F8F4F9F4F2C2F332744275527FF9333
:1025E000EF930E94FDECEF91FF91605D6A330CF078
:1025F000695D6193B901CA016050704080409040AC
:1026000051F716F4CDE2C19310828F919F91CF9133
:102610000C947115592F482F372F262F660F771FCF
:10262000881F991F660F771F881F991F620F731FDE
:10263000841F951F660F771F881F991F0895FA0141
:10264000CF93FF93EF932230CCF02532BCF4C22F0E
:102650002C2F332744275527FF93EF930E94FDEC3F
:10266000EF91FF91605D6A330CF0695D6193B90190
:10267000CA01605070408040904051F710828F91A5
:102680009F91CF910C947115FB019F01423074F022
:10269000453264F4642F77270E94D6EC805D8A333C
:1026A0000CF0895D8193CB010097A1F71082C901DD
:1026B0000C947115AEE0B0E0E0E6F3E10C9448ED67
:1026C0000E891F898EE08C831A8309838FEF9FE721
:1026D0009E838D839E01265E3F4FCE010196688DBD
:1026E000798DA9010E947E132F813885020F131F57
:1026F000F80110822E96E4E00C9464EDABE0B0E0BB
:10270000E4E8F3E10C943AED3C012B015A01FC01A1
:1027100017821682838181FD03C06FEF7FEFC6C1F0
:102720009AE0892E1E010894211C311CF30123819B
:10273000F20123FD859123FF81912F01882309F464
:10274000B2C1853239F423FD859123FF81912F0198
:10275000853229F490E0B3010E948115E7CF982FCC
:10276000FF24EE249924FFE1FF15D0F09B3269F09D
:102770009C3228F4903259F0933291F40EC09D327D
:1027800049F0903369F441E024C052E0F52A84E036
:10279000F82A28C098E0F92A25C0E0E1FE2A22C0E4
:1027A000F7FC29C0892F80538A3070F4F6FE05C0EB
:1027B000989C902C1124980E15C0E89CE02C1124B4
:1027C000E80EF0E2FF2A0EC09E3229F4F6FC6BC13F
:1027D00040E4F42A07C09C3619F450E8F52A02C0F8
:1027E000983649F4F20123FD959123FF91912F0131
:1027F000992309F0B8CF892F8554833018F080527F
:10280000833038F444E050E0A40EB51E5FE35983F2
:102810000FC0933631F0933779F0933509F056C0F5
:1028200020C0F5018081898342E050E0A40EB51EEE
:10283000610101E010E012C0F501C080D180F6FC1A
:1028400003C06FEF7FEF02C0692D70E042E050E0FF
:10285000A40EB51EC6010E9466158C015FE7F52225
:1028600014C0F501C080D180F6FC03C06FEF7FEF8C
:1028700002C0692D70E042E050E0A40EB51EC60112
:102880000E945B158C0150E8F52AF3FE07C01AC0C0
:1028900080E290E0B3010E948115EA948E2D90E0D1
:1028A00008171907A8F30EC0F601F7FC8591F7FE8B
:1028B00081916F0190E0B3010E948115E110EA94CB
:1028C000015010400115110579F7EAC0943611F056
:1028D000993669F5F7FE08C0F50120813181428102
:1028E000538184E090E00AC0F501808191819C01D0
:1028F000442737FD4095542F82E090E0A80EB91E82
:102900009FE6F92257FF09C05095409530952195D3
:102910003F4F4F4F5F4FE0E8FE2ACA01B901A101C6
:102920002AE030E00E94AD15D82ED21840C095376D
:1029300029F41F2D1F7E2AE030E01DC01F2D197FB6
:102940009F3661F0903720F4983509F0ACC00FC085
:10295000903739F0983709F0A6C004C028E030E07D
:102960000AC0106114FD146020E130E004C014FDC1
:10297000166020E132E017FF08C0F5016081718127
:102980008281938144E050E008C0F501808191810B
:10299000BC0180E090E042E050E0A40EB51EA10131
:1029A0000E94AD15D82ED2188FE7F82EF122F6FE30
:1029B0000BC05EEFF522D91438F4F4FE07C0F2FC28
:1029C00005C08FEEF82202C01D2D01C0192DF4FEA6
:1029D0000DC0FE01ED0DF11D8081803319F499EEDB
:1029E000F92208C01F5FF2FE05C003C08F2D867854
:1029F00009F01F5F0F2DF3FC14C0F0FE0FC01E1571
:102A000010F09D2C0BC09D2C9E0C911A1E2D06C003
:102A100080E290E0B3010E9481151F5F1E15C0F394
:102A200004C01E1510F4E11A01C0EE2404FF0FC00B
:102A300080E390E0B3010E94811502FF1DC001FDFB
:102A400003C088E790E00EC088E590E00BC0802FBF
:102A5000867891F001FF02C08BE201C080E2F7FCB2
:102A60008DE290E0B3010E94811506C080E390E002
:102A7000B3010E9481159A94D914C0F3DA94F1013C
:102A8000ED0DF11D808190E0B3010E948115DD20E4
:102A9000A9F706C080E290E0B3010E948115EA9494
:102AA000EE20C1F743CEF30166817781CB012B96EF
:102AB000E2E10C9456EDFC0105906150704001106C
:102AC000D8F7809590958E0F9F1F0895FC01615057
:102AD000704001900110D8F7809590958E0F9F1F40
:102AE0000895DC01FC01672F71917723E1F732979C
:102AF00004C07C916D9370836291AE17BF07C8F3D9
:102B000008950F931F93CF93DF938C01EB018B817B
:102B100081FF1BC082FF0DC02E813F818C819D8172
:102B20002817390764F4E881F9810193F983E88370
:102B300006C0E885F985802F1995892B31F48E819F
:102B40009F8101969F838E8302C00FEF1FEFC80104
:102B5000DF91CF911F910F910895FA01AA27283094
:102B600051F1203181F1E8946F936E7F6E5F7F4F5A
:102B70008F4F9F4FAF4FB1E03ED0B4E03CD0670FD6
:102B8000781F891F9A1FA11D680F791F8A1F911D29
:102B9000A11D6A0F711D811D911DA11D20D009F479
:102BA00068943F912AE0269F11243019305D3193BB
:102BB000DEF6CF010895462F4770405D4193B3E0A4
:102BC0000FD0C9F7F6CF462F4F70405D4A3318F04B
:102BD000495D31FD4052419302D0A9F7EACFB4E0FC
:102BE000A6959795879577956795BA95C9F70097B4
:102BF0006105710508959B01AC010A2E0694579555
:102C0000479537952795BA95C9F7620F731F841FAB
:102C1000951FA01D08950F931F938C01FC018681C1
:102C200060E00E94A82C81E090E00E94722AF801E6
:102C3000868161E00E94A82C81E090E00E94722AC7
:102C4000F801868160E00E94A82C84E690E00E9452
:102C5000722A1F910F910895CF92DF92EF92FF9207
:102C60000F931F93CF93DF93D82EC92E282F392F80
:102C7000C9018C01C0E0D0E0E62EFF24F801878175
:102C800061E00E94F52BB7010C2E02C07595679587
:102C90000A94E2F76170F80187810E94A82C2196BE
:102CA0000F5F1F4FC830D10549F78D2D9C2D0E9415
:102CB0000B16DF91CF911F910F91FF90EF90DF9056
:102CC000CF900895CF92DF92EF92FF920F931F93D0
:102CD000CF93DF93D82EC92E282F392FC9018C010D
:102CE000C0E0D0E0E62EFF24F801878161E00E9479
:102CF000F52BB7010C2E02C0759567950A94E2F783
:102D00006170F80187810E94A82C21960F5F1F4FE8
:102D1000C430D10549F78D2D9C2D0E940B16DF91F3
:102D2000CF911F910F91FF90EF90DF90CF9008957A
:102D30001F93CF93DF93EC01162F8C81642F0E9499
:102D4000A82C8D818F3F19F060E00E94A82C8F8500
:102D500084FF05C0CE01612F0E942C160EC0612F8A
:102D600070E084E0759567958A95E1F7CE010E9441
:102D70006216CE01612F0E946216DF91CF911F91E2
:102D8000089541E00E94981681E090E0089540E0A7
:102D90000E9498160895EF92FF920F931F93CF937E
:102DA000DF938C017A016770660F660F660F6064AF
:102DB0000E94C716C0E0D0E0D801ED91FC91D70188
:102DC000AC0FBD1F0190F081E02DC8016C911995E9
:102DD0002196C830D10581F7DF91CF911F910F91D6
:102DE000FF90EF900895FC0161896E7F618B6460B4
:102DF0000E94C7160895FC016189862F8160818B2E
:102E00006560CF010E94C7160895FC0161896D7F3E
:102E1000618B64600E94C7160895FC016189862F4A
:102E20008260818B6660CF010E94C71608956CE1B5
:102E30000E94C716089568E10E94C7160895FC0114
:102E40006089862F8160808B6960CF010E94C716E0
:102E50000895FC0160896E7F608B68600E94C716D0
:102E60000895FC016089862F8260808B6A60CF01A3
:102E70000E94C7160895FC0160896D7F608B6860B1
:102E80000E94C7160895FC016089862F8460808B9C
:102E90006C60CF010E94C7160895FC0160896B7FAA
:102EA000608B68600E94C7160895DF93CF93CDB7FB
:102EB000DEB728970FB6F894DEBF0FBECDBF9C01DA
:102EC000FE013196A3EBB3E088E00D9001928150B2
:102ED000E1F7F9018389481710F0482F4150E42F9A
:102EE000F0E0EE0FFF1FEC0FFD1F8181680F60689F
:102EF000C9010E94C71628960FB6F894DEBF0FBE10
:102F0000CDBFCF91DF91089562E00E94C71680ED9A
:102F100097E00E94722A089561E00E94C71680ED32
:102F200097E00E94722A0895CF93DF93EC0142301C
:102F300018F08F8588608F874B8B1C8A222329F09D
:102F4000413019F48F8584608F8780E593EC0E946F
:102F5000722A8C8160E00E94A82C8E8160E00E9421
:102F6000A82C8D818F3F19F060E00E94A82C6F85FE
:102F700064FD1DC0CE0163E00E94621684E991E108
:102F80000E94722ACE0163E00E94621684E991E1F8
:102F90000E94722ACE0163E00E94621686E990E0E8
:102FA0000E94722ACE0162E00E94621616C0606220
:102FB000CE010E94C71684E991E10E94722A6F85B2
:102FC0006062CE010E94C71686E990E00E94722AD4
:102FD0006F856062CE010E94C7166F856062CE0168
:102FE0000E94C71684E0888BCE010E944317CE0151
:102FF0000E948C1782E0898BCE0166E00E94C71682
:10300000DF91CF9108956F927F928F92AF92CF927E
:10301000EF920F931F93DF93CF93CDB7DEB73C01B1
:10302000162F842FF301448325830683E782C0860D
:10303000A18682869E8593879F85948798899587A8
:103040009989968761E00E94F52BF30185818F3F76
:1030500019F061E00E94F52BF301868161E00E9486
:10306000F52B112319F0F301178603C080E1F3015A
:103070008787C30160E141E020E00E949417CF916F
:10308000DF911F910F91EF90CF90AF908F907F9035
:103090006F9008958F92AF92CF92EF920F931F93FC
:1030A000CF93DF93DC01362F542F722F102FAE2CCD
:1030B0008C2C13961C921E9212978FEA93E0119615
:1030C0009C938E9300D00F92EDB7FEB73196CDB79B
:1030D000DEB71982118212821382CD0161E0432F83
:1030E0002FEF052FE72EC12E0E9403180F900F908F
:1030F0000F900F90DF91CF911F910F91EF90CF9094
:10310000AF908F9008958F92AF92CF92EF920F93DE
:103110001F93CF93DF93DC01362F542F722F102F84
:10312000AE2C8C2C13961C921E9212978FEA93E071
:1031300011969C938E9300D00F92EDB7FEB7319607
:10314000CDB7DEB71982118212821382CD0161E000
:10315000432F2FEF052FE72EC12E0E9403180F904B
:103160000F900F900F90DF91CF911F910F91EF90E3
:10317000CF90AF908F9008958F92AF92CF92DF92C1
:10318000EF92FF920F931F93CF93DF93DC01362FC3
:10319000542F722F102FFE2CDC2C8A2C13961C928D
:1031A0001E9212978FEA93E011969C938E9300D013
:1031B0000F92EDB7FEB73196CDB7DEB71982118207
:1031C00012821382CD0161E0432F252F072FE12EBC
:1031D000CF2CAD2C0E9403180F900F900F900F90E2
:1031E000DF91CF911F910F91FF90EF90DF90CF90E3
:1031F000AF908F9008958F92AF92CF92DF92EF921F
:10320000FF920F931F93CF93DF93DC01362F542F40
:10321000722F102FFE2CDC2C8A2C13961C921E92DF
:1032200012978FEA93E011969C938E9300D00F92A1
:10323000EDB7FEB73196CDB7DEB719821182128293
:103240001382CD0161E0432F252F072FE12ECF2CD4
:10325000AD2C0E9403180F900F900F900F90DF91EC
:10326000CF911F910F91FF90EF90DF90CF90AF9093
:103270008F9008956F927F928F92AF92CF92DF924C
:10328000EF92FF920F931F93DF93CF93CDB7DEB7EB
:10329000DC01362F542F722F102FFE2CDC2C1396AE
:1032A0001C921E9212978FEA93E011969C938E9334
:1032B00000D00F926DB67EB60894611C711CEDB7FC
:1032C000FEB7A182F3018182888982838989838301
:1032D000CD0160E0432F2FEF052FE72EC12EAF2C3D
:1032E0008D2C0E9403180F900F900F900F90CF918C
:1032F000DF911F910F91FF90EF90DF90CF90AF90F3
:103300008F907F906F9008956F927F928F92AF927F
:10331000CF92DF92EF92FF920F931F93DF93CF93A1
:10332000CDB7DEB7DC01362F542F722F102FFE2CB5
:10333000DC2C13961C921E9212978FEA93E0119642
:103340009C938E9300D00F926DB67EB60894611C4C
:10335000711CEDB7FEB7A182F30181828889828357
:1033600089898383CD0160E0432F2FEF052FE72E5E
:10337000C12EAF2C8D2C0E9403180F900F900F9030
:103380000F90CF91DF911F910F91FF90EF90DF9001
:10339000CF90AF908F907F906F9008956F927F92B3
:1033A0008F92AF92BF92CF92DF92EF92FF920F93E4
:1033B0001F93DF93CF93CDB7DEB7DC01362F542FA9
:1033C000722F102FFE2CDC2CBA2C13961C921E92FE
:1033D00012978FEA93E011969C938E9300D00F92F0
:1033E0006DB67EB60894611C711CEDB7FEB7818284
:1033F0008989F30181838A8982838B898383CD01C3
:1034000060E0432F252F072FE12ECF2CAD2C8B2CE6
:103410000E9403180F900F900F900F90CF91DF91A3
:103420001F910F91FF90EF90DF90CF90BF90AF90E2
:103430008F907F906F9008956F927F928F92AF924E
:10344000BF92CF92DF92EF92FF920F931F93DF9381
:10345000CF93CDB7DEB7DC01362F542F722F102F4C
:10346000FE2CDC2CBA2C13961C921E9212978FEA1B
:1034700093E011969C938E9300D00F926DB67EB61A
:103480000894611C711CEDB7FEB781828989F30134
:1034900081838A8982838B898383CD0160E0432F76
:1034A000252F072FE12ECF2CAD2C8B2C0E9403183B
:1034B0000F900F900F900F90CF91DF911F910F9170
:1034C000FF90EF90DF90CF90BF90AF908F907F9064
:1034D0006F900895CF92DF92EF92FF920F931F9318
:1034E000CF93DF937C016B018A01C0E0D0E00FC075
:1034F000D6016D916D01D701ED91FC910190F081A4
:10350000E02DC7011995C80FD91F015010400115B2
:10351000110571F7CE01DF91CF911F910F91FF90AF
:10352000EF90DF90CF900895EF92FF920F931F934B
:10353000CF93DF937C018B01C0E0D0E0F8010F5FF7
:103540001F4F6491662359F0D701ED91FC910190D2
:10355000F081E02DC7011995C80FD91FEFCFCE011B
:10356000DF91CF911F910F91FF90EF900895DC01B3
:10357000ED91FC910190F081E02D199508959C0149
:10358000DB01ED91FC910190F081E02DCB01B901BF
:1035900019950895EF92FF920F931F938C01DC0110
:1035A000ED91FC910190F081E02D6DE019957C0189
:1035B000D801ED91FC910190F081E02DC8016AE005
:1035C00019959C012E0D3F1DC9011F910F91FF9070
:1035D000EF900895EF92FF920F931F937C010E944A
:1035E000941A8C01C7010E94CA1A9C01200F311F36
:1035F000C9011F910F91FF90EF900895EF92FF92F4
:103600000F931F937C01DC01ED91FC910190F081FF
:10361000E02D19958C01C7010E94CA1A080F191FC5
:10362000C8011F910F91FF90EF900895EF92FF92C4
:103630000F931F937C01DB01ED91FC910190F081D0
:10364000E02DCB01B70119958C01C7010E94CA1A60
:10365000080F191FC8011F910F91FF90EF90089557
:10366000CF93DF93DB010D900020E9F71197A61BA4
:10367000B70BEC01E881F9810280F381E02DAD0107
:103680001995DF91CF9108954F925F927F928F921B
:103690009F92AF92BF92CF92DF92EF92FF920F93E1
:1036A0001F93DF93CF93CDB7DEB7A1970FB6F894F2
:1036B000DEBF0FBECDBF2C01742ECB01223008F42B
:1036C0002AE019A231E2C32ED12CCC0EDD1E822EAF
:1036D0009924AA24BB24672D752FA50194010E946B
:1036E000FDEC79018A01C801B701A50194010E948E
:1036F000B7EC472D461B0894C108D1084A3010F496
:10370000405D01C0495CF6014083E114F10401050C
:10371000110521F07E2C5F2DC801DDCFC201B6015D
:103720000E94301BA1960FB6F894DEBF0FBECDBF2E
:10373000CF91DF911F910F91FF90EF90DF90CF908D
:10374000BF90AF909F908F907F905F904F90089523
:10375000DC012115310541F4ED91FC910190F081DE
:10376000E02D642F199508950E94441B0895EF924F
:10377000FF920F931F937C010E94A81B8C01C7012D
:103780000E94CA1A9C01200F311FC9011F910F917D
:10379000FF90EF900895EF92FF920F931F939A017D
:1037A0007B0100E010E0B801A7010E94A81B1F9157
:1037B0000F91FF90EF900895CF92DF92EF92FF92DA
:1037C0000F931F936C017B019A0100E010E0B80198
:1037D000A7010E94A81B8C01C6010E94CA1A080FEB
:1037E000191FC8011F910F91FF90EF90DF90CF90AC
:1037F0000895EF92FF920F931F939A01E62EFF24F4
:1038000000E010E0B801A7010E94A81B1F910F91D2
:10381000FF90EF900895CF92DF92EF92FF920F9377
:103820001F936C01E62E9A01FF2400E010E0B8011E
:10383000A7010E94A81B8C01C6010E94CA1A080F8A
:10384000191FC8011F910F91FF90EF90DF90CF904B
:103850000895CF92DF92EF92FF920F931F93CF9331
:10386000DF93EC016A017B012115310541F4E88108
:10387000F9810190F081E02D642F19951FC02A3045
:103880003105D1F477FF17C0E881F9810190F0810B
:10389000E02D6DE219958C0144275527BA014C198A
:1038A0005D096E097F09CE012AE00E94441B980140
:1038B000280F391F04C02AE00E94441B9C01C90143
:1038C000DF91CF911F910F91FF90EF90DF90CF90FC
:1038D0000895EF92FF920F931F937C010E94291C81
:1038E0008C01C7010E94CA1A9C01200F311FC90117
:1038F0001F910F91FF90EF900895EF92FF920F9319
:103900001F937B019A010027F7FC0095102FB80147
:10391000A7010E94291C1F910F91FF90EF9008951D
:10392000CF92DF92EF92FF920F931F936C017B0176
:103930009A010027F7FC0095102FB801A7010E94FB
:10394000291C8C01C6010E94CA1A080F191FC80140
:103950001F910F91FF90EF90DF90CF9008950E94FC
:10396000301B08957F928F929F92AF92BF92CF9219
:10397000DF92EF92FF920F931F93CF93DF934C014F
:103980007A018B01722ECB01BA0120E030E040E0D9
:1039900050E00E9402E987FD03C0C0E0D0E00EC005
:1039A000D401ED91FC910190F081E02DC4016DE214
:1039B0001995EC0117FB109517F9109520E030E0F0
:1039C00040E05FE3AA240BC0CA01B90120E030E067
:1039D00040E251E40E9409E99B01AC01A394A714C1
:1039E00098F3C801B7010E9429E85B016C010E94AD
:1039F00076E97B018C01C401B801A7012AE030E01F
:103A00000E94A81BC80FD91F772039F0C40160E0BD
:103A100072E00E94301BC80FD91FC801B7010E9475
:103A2000A2E99B01AC01C601B5010E9428E824C0AF
:103A300020E030E040E251E40E94E2EB7B018C01A7
:103A40000E9471E95B016C01CC24B7FCC094DC2CB2
:103A5000C401B601A5012AE030E00E94291CC80F6C
:103A6000D91FC601B5010E94A4E99B01AC01C801A0
:103A7000B7010E9428E87A947720D1F6CE01DF9131
:103A8000CF911F910F91FF90EF90DF90CF90BF905B
:103A9000AF909F908F907F9008950E94B21C0895E0
:103AA000EF92FF920F931F937C010E94B21C8C0136
:103AB000C7010E94CA1A080F191FC8011F910F9150
:103AC000FF90EF900895EF92FF920F931F937C0168
:103AD0000E94301B8C01C7010E94CA1A080F191FCF
:103AE000C8011F910F91FF90EF900895AF92BF9280
:103AF000CF92DF92EF92FF920F931F93CF93DF93BA
:103B00005C016B01C0E0D0E0EE24FF2410C0D501C1
:103B1000ED91FC9100811181C601BE010E949A20A5
:103B2000682FC501F8011995E80EF91E2196F601D6
:103B300084819581C817D90750F3C701DF91CF91D0
:103B40001F910F91FF90EF90DF90CF90BF90AF90BB
:103B50000895EF92FF920F931F937C010E94761DB0
:103B60008C01C7010E94CA1A9C01200F311FC90194
:103B70001F910F91FF90EF900895FC0144835583AE
:103B8000668377830895CF93DF93EC010E94E52944
:103B9000688779878A879B87E881F9810084F18526
:103BA000E02DCE0119959C0197FF15C00E94E529D3
:103BB000288539854A855B85621B730B840B950BC1
:103BC0002C813D814E815F816217730784079507C1
:103BD00018F32FEF3FEFC901DF91CF910895CF93F5
:103BE000DF93EC01CE010E94C31D9C0197FD0EC026
:103BF0008D32910559F0C0970A9740F0E881F9811C
:103C00000680F781E02DCE011995ECCFC901DF9137
:103C1000CF9108956F927F928F929F92AF92BF92B1
:103C2000CF92DF92EF92FF920F931F93CF93DF9388
:103C3000EC01662E0E94EF1D982E77248824EE2436
:103C4000FF2487010F2EF0E0AF2EF0E0BF2EF0E84A
:103C5000CF2EFFE3DF2EF02D961491F18DE2981612
:103C600019F4772473942CC09EE2991619F48824D1
:103C7000839426C0892D80538A3010F5C801B7017E
:103C80002AE030E040E050E00E94B7EC7B018C017C
:103C9000E90CF11C011D111D80ED9FEFAFEFBFEF8F
:103CA000E80EF91E0A1F1B1F882051F0C601B5013E
:103CB0002DEC3CEC4CEC5DE30E94E2EB5B016C0113
:103CC000E881F9810680F781E02DCE011995CE01BA
:103CD0000E94C31D982F982E80538A3008F4BCCFC1
:103CE0009E3209F4B9CF961509F4B6CF772041F08A
:103CF00010950095F094E094E11CF11C011D111D3C
:103D0000882049F0C801B7010E94A4E9A6019501E5
:103D10000E94E2EB04C0C801B7010E94A4E9DF9150
:103D2000CF911F910F91FF90EF90DF90CF90BF90B8
:103D3000AF909F908F907F906F90089561E00E9468
:103D40000A1E08959F92AF92BF92CF92DF92EF9298
:103D5000FF920F931F93CF93DF936C01B62E0E94B7
:103D6000EF1DEC0197FF04C0EE24FF2487014AC039
:103D70009924EE24FF248701AB2CBB24CA15DB0554
:103D800029F1CD32D10519F4992493941FC0CE01A5
:103D9000C0970A97D8F4C801B7012AE030E040E0A4
:103DA00050E00E94B7EC7B018C01CE01AA2797FD61
:103DB000A095BA2FE80EF91E0A1F1B1F80ED9FEF7A
:103DC000AFEFBFEFE80EF91E0A1F1B1FD601ED91E2
:103DD000FC910680F781E02DC6011995C6010E946D
:103DE000C31DEC01C0970A9748F2CA15DB0531F2F2
:103DF000992041F010950095F094E094E11CF11C9D
:103E0000011D111DB701C801DF91CF911F910F91C5
:103E1000FF90EF90DF90CF90BF90AF909F9008956C
:103E200061E00E94A21E0895CF93DF93EC010E94EF
:103E3000E529688779878A879B87E881F9810680E9
:103E4000F781E02DCE0119959C0197FF15C00E94C6
:103E5000E529288539854A855B85621B730B840BB0
:103E6000950B2C813D814E815F816217730784071A
:103E7000950718F32FEF3FEFC901DF91CF91089518
:103E8000CF92DF92FF920F931F93CF93DF93082F70
:103E9000F92E6B01142F62E072E00E947B26C601AE
:103EA0000E94141FBC01C12FD0E008C0802F9F2D9D
:103EB0000E948425C6010E94141FBC0177FD03C027
:103EC0006C177D0799F7802F9F2DDF91CF911F9160
:103ED0000F91FF90DF90CF9008950F931F93CF9392
:103EE000DF93182F092FEB0162E072E00E947B261E
:103EF00004C0812F902F0E948425CE010E94141FA0
:103F0000BC0197FFF6CF812F902FDF91CF911F91AA
:103F10000F910895AF92BF92CF92DF92EF92FF92EE
:103F20000F931F93CF93DF935C017A0189012115D1
:103F3000310519F4C0E0D0E014C0C0E0D0E0C62ED6
:103F4000DD240CC0C5010E94141F97FD0AC08C150A
:103F50009D0539F0F70181937F012196C017D107A4
:103F600088F3CE01DF91CF911F910F91FF90EF90D9
:103F7000DF90CF90BF90AF900895CF92DF92EF92F5
:103F8000FF920F931F93CF93DF936C018B017A0104
:103F9000C0E0D0E009C0C6010E94141F97FD07C011
:103FA000F80181938F012196CE15DF05A0F3CE0194
:103FB000DF91CF911F910F91FF90EF90DF90CF9005
:103FC00008956F927F928F929F92AF92BF92CF92FD
:103FD000DF92EF92FF920F931F93CF93DF933C01F9
:103FE0007B014A0159016801FB0180818823A1F10D
:103FF000C0E0D0E027C0F701EC0FFD1F808190E00A
:104000002817390711F0C0E0D0E0F701EC0FFD1FD1
:10401000808190E02817390721F42196C815D90529
:10402000D8F4C114D10471F0F501E00FF11F8081C3
:1040300090E02817390731F40F5F1F4F0C151D054D
:1040400018F00CC000E010E0C3010E94141F9C0196
:104050001816190684F202C081E001C080E0DF91E9
:10406000CF911F910F91FF90EF90DF90CF90BF9075
:10407000AF909F908F907F906F9008950F931F93B4
:104080009A01DB010D900020E9F7AD01415050404D
:10409000461B570BD9010D900020E9F71197A21B81
:1040A000B30B8D010E94E11F1F910F91089540E015
:1040B00050E00E943E2008950F931F9320E030E0CF
:1040C00000E010E00E94E11F1F910F910895FC0194
:1040D000848195816817790748F40190F081E02D7B
:1040E000309721F0E60FF71F8081089580E0089552
:1040F000FC01848195816817790730F40190F08183
:10410000E02DE60FF71F40830895FC019B01848199
:1041100095816817790728F46081718161157105AF
:1041200029F410928A046AE874E002C0620F731FD7
:10413000CB010895FC01848195816817790748F4C3
:104140000190F081E02D309721F0E60FF71F80817C
:10415000089580E00895FC010190F081E02D3097F2
:1041600029F40895861709F44083319680818823C5
:10417000C9F70895FC0180819181009729F420E01E
:1041800030E040E050E004C00E94B3119B01AC015C
:10419000B901CA010895DC01ED91FC9111973097A6
:1041A00089F014968D919C911597009759F08E0F78
:1041B0009F1F8E1B9F0B15969C938E931497E80F51
:1041C000F91F10820895CF93DF93FC01C081D18144
:1041D000209729F407C090E00E9420E88993888105
:1041E0008823C9F7DF91CF910895CF93DF93FC0126
:1041F000C081D181209729F407C090E00E9418E87F
:10420000899388818823C9F7DF91CF910895EF9230
:10421000FF920F931F93CF93DF93FC01DB0186176F
:10422000970719F12481358114968D919C911597EA
:1042300028173907E1F4232BC1F0E080F180CD91FC
:10424000DC910FC090E00E9418E88C01888190E01A
:104250000E9418E80817190751F40894E11CF11C92
:104260002196F7018081882369F781E001C080E011
:10427000DF91CF911F910F91FF90EF900895AF9232
:10428000BF92CF92DF92EF92FF920F931F93CF9343
:10429000DF93FC015B017A01DB0114962D913C91C7
:1042A00015972115310559F184819581009739F1D0
:1042B0008217930720F14817590720F07C010894D2
:1042C000E108F10800811181C801CFEFDFEF68013B
:1042D000CE0CDF1C10C0F501608171810E949B1221
:1042E0009C01009771F0801B910BE816F90608F00D
:1042F000EC01C9010196C816D90668F702C0CFEFD4
:10430000DFEFCE01DF91CF911F910F91FF90EF90E2
:10431000DF90CF90BF90AF900895FC01DB01448106
:10432000558114968D919C911597481B590BCF017F
:104330000E943F210895CF93DF93FC01DB0184812C
:1043400095814817590760F4C081D1816D917C91A6
:10435000CE01840F951F0E949B129C01009719F4B7
:104360002FEF3FEF02C02C1B3D0BC901DF91CF9116
:10437000089540E050E00E949B210895DF92EF9263
:10438000FF920F931F93CF93DF93EC018C819D815C
:1043900048175907B8F47A010894E11CF11CE88128
:1043A000F981EE0DFF1DD080108208811981C801AE
:1043B00070E00E9490129C010E0D1F1DF801D0822A
:1043C000009719F4EFEFFFEF05C088819981F9019B
:1043D000E81BF90BCF01DF91CF911F910F91FF9057
:1043E000EF90DF900895FC01448155814150504089
:1043F0000E94BE210895CF93DF93FC0184819581B3
:104400004817590758F4C081D181CE01840F951FF8
:1044100070E00E9458129C01009719F42FEF3FEFB3
:1044200002C02C1B3D0BC901DF91CF91089540E0E4
:1044300050E00E94FB2108950F931F93CF93DF93C9
:10444000FC018B0141155105F9F061157105E1F091
:10445000848195812817390718F0FB01108214C058
:1044600041505040EC01C21BD30B4C175D0708F4C0
:10447000EA0160817181620F731FC801AE010E9461
:104480008112C00FD11F1882DF91CF911F910F9120
:104490000895FC01DB012481358114964D915C91D6
:1044A000159724173507A8F080819181009789F02E
:1044B0006D917C916115710561F0241B350B820FA4
:1044C000931F0E9463129C0180E0232B19F481E06A
:1044D000089580E00895DC01FB0114968D919C9174
:1044E0001597892B31F461157105A9F090E0808151
:1044F00008C00D90BC91A02D6115710529F490E0C4
:104500008C91882349F407C0CD010E9463129C015D
:1045100090E0232B09F491E0892F0895CF93DF9346
:104520009C01FB01EC01A881B981109729F0608101
:10453000718161157105D1F4C081D181209759F045
:1045400084819581892B39F0888190E02227332757
:10455000281B390B12C0109771F0F90184819581E5
:10456000892B49F08C91282F30E007C0CD010E94A3
:1045700063129C0102C020E030E0C901DF91CF91BD
:1045800008950E948E22892F8095881F8827881F72
:1045900008950E948E2220E0181619060CF021E0E2
:1045A000822F08950E948E2220E0181619060CF41E
:1045B00021E0822F08950E948E22892F881F88274C
:1045C000881F0895FC01DB012481358114968D91AB
:1045D0009C9115972817390711F020E007C0CF01EB
:1045E0000E948E2220E0892B09F421E0822F089579
:1045F000FC01DB0114962D913C91159784819581E6
:10460000821B930B84179507A0F0808191810097FE
:1046100081F06D917C916115710559F0840F951FA2
:10462000A9010E9473129C0180E0232B19F481E000
:10463000089580E00895FC01DB0124813581149602
:104640008D919C9115972817390710F480E00895F3
:10465000CF0140E050E00E94F82208950F931F938D
:10466000CF93DF93EC018B016F5F7F4F888199813E
:104670000E944F0E009711F480E005C09983888353
:104680001B830A8381E0DF91CF911F910F910895E1
:104690002F923F924F925F926F927F928F929F9252
:1046A000AF92BF92CF92DF92EF92FF920F931F9340
:1046B000CF93DF935C012B014A01DC0114960D912D
:1046C0001C9115970115110509F4D4C0FB01C48094
:1046D000D580C114D10409F4CDC0DA0114966D90CF
:1046E0007C9015976C187D08FC01E080F1806114C6
:1046F000710491F01BC0D4016C9111967C911197BB
:1047000014964D915C9115978C2F0E943212F401F2
:10471000E480F580EC0EFD1ED2016D917C91C70105
:104720000E949B12EC01009731F7A4C077FE02C0F3
:1047300067012EC0FB0120803180E8013CC08E0162
:104740000E191F09C601B701A8010E9432120C0DF3
:104750001D1DD4016C9111967C91119714964D9169
:104760005C911597C8010E943212F401C480D58073
:10477000C00ED11ED2011496ED90FC901597EC0E50
:10478000FD1EF50184819581860D971D9583848397
:10479000D2016D917C91C7010E949B12EC010097A0
:1047A00071F6C601B7010E946C1264C07B01EC0C6B
:1047B000FD1CC60DD71DC701B1010E949B12BC0193
:1047C0000097A1F7C017D10709F454C0F501828101
:1047D00093818C179D0708F044C0C501BE010E945B
:1047E0002E238823F1F546C0C501B201A9010E941C
:1047F0003F21EC0197FD3EC0D5016D917C91119751
:10480000F201848195818C0F9D1F680F791F14968A
:104810004D915C911597481B590BCB01860D971D47
:104820000E943B12D50114968D919C911597860D8F
:10483000971D15969C938E931497ED91FC9111976B
:10484000E80FF91F10822D913C912C0F3D1FF401B0
:104850006081718144815581C9010E9432129E019B
:1048600005C0D50114962D913C91159721503040EB
:1048700037FFBACFDF91CF911F910F91FF90EF904B
:10488000DF90CF90BF90AF909F908F907F906F9070
:104890005F904F903F902F900895CF93DF93EC015E
:1048A00088819981892B29F08A819B8186179707B6
:1048B00060F4CE010E942E23882341F08C819D81DB
:1048C000892B19F4E881F981108281E0DF91CF9181
:1048D0000895EF92FF920F931F93CF93DF93EC0114
:1048E0007B016C817D81E114F104C1F0411551051A
:1048F00099F08A01060F171FB8010E944D248823E2
:1049000069F0888199812C813D81820F931FB701C5
:104910000E946C121D830C8381E001C080E0DF9156
:10492000CF911F910F91FF90EF900895EF92FF921A
:104930000F931F93DF93CF93CDB7DEB72B970FB6AF
:10494000F894DEBF0FBECDBF7C01CB01BA018E0152
:104950000F5F1F4FA8012AE030E00E941F13F801EB
:1049600001900020E9F73197E01BF10BC701B80176
:10497000AF010E9469242B960FB6F894DEBF0FBEDC
:10498000CDBFCF91DF911F910F91FF90EF900895D0
:10499000EF92FF920F931F93DF93CF93CDB7DEB7C4
:1049A0002C970FB6F894DEBF0FBECDBF7C01CB01B4
:1049B000BA018E010F5F1F4FA8012AE030E00E946C
:1049C000D612F80101900020E9F73197E01BF10BB6
:1049D000C701B801AF010E9469242C960FB6F89464
:1049E000DEBF0FBECDBFCF91DF911F910F91FF9022
:1049F000EF900895EF92FF920F931F93DF93CF9361
:104A000000D000D0CDB7DEB77C01CB018E010F5FA7
:104A10001F4FB8014AE050E00E944413F801019092
:104A20000020E9F73197E01BF10BC701B801AF0196
:104A30000E94692426960FB6F894DEBF0FBECDBF44
:104A4000CF91DF911F910F91FF90EF900895EF921A
:104A5000FF920F931F93DF93CF93CDB7DEB72797C6
:104A60000FB6F894DEBF0FBECDBF7C01CB018E0127
:104A70000F5F1F4FB8014AE050E00E94B512F801E5
:104A800001900020E9F73197E01BF10BC701B80155
:104A9000AF010E94692427960FB6F894DEBF0FBEBF
:104AA000CDBFCF91DF911F910F91FF90EF900895AF
:104AB000EF92FF920F931F93DF93CF9300D00F924B
:104AC000CDB7DEB77C01862F90E08E010F5F1F4FC0
:104AD000B8014AE050E00E94B512F80101900020B0
:104AE000E9F73197E01BF10BC701B801AF010E9454
:104AF00069240F900F900F900F90CF91DF911F912D
:104B00000F91FF90EF900895DF93CF930F920F9244
:104B1000CDB7DEB769831A82BE016F5F7F4F41E078
:104B200050E00E9469240F900F90CF91DF9108957B
:104B30006115710511F480E00895DB010D900020EE
:104B4000E9F71197A61BB70BAD010E9469240895E0
:104B5000FB0160817181448155810E94692408951F
:104B6000CF93DF93EC0188819981009711F00E9427
:104B7000F70D198218821D821C821B821A82DF9116
:104B8000CF9108950F931F93182F092F0E949624F9
:104B9000882321F4812F902F0E94B025812F902F00
:104BA0001F910F9108950F931F93182F092F0E94A3
:104BB000C824882321F4812F902F0E94B025812FB3
:104BC000902F1F910F9108950F931F93182F092F66
:104BD0000E94FA24882321F4812F902F0E94B0256F
:104BE000812F902F1F910F9108950F931F93182FCE
:104BF000092F0E942725882321F4812F902F0E94BE
:104C0000B025812F902F1F910F9108950F931F931F
:104C1000182F092F0E945825882321F4812F902FC7
:104C20000E94B025812F902F1F910F9108950F930F
:104C30001F93182F092F0E948425882321F4812F88
:104C4000902F0E94B025812F902F1F910F910895D2
:104C50000F931F93182F092F6115710561F0DB0168
:104C60000D900020E9F71197A61BB70BAD010E942C
:104C70006924882321F4812F902F0E94B025812F51
:104C8000902F1F910F9108950F931F93182F092FA5
:104C9000FB0160817181448155810E9469248823D0
:104CA00021F4812F902F0E94B025812F902F1F91EA
:104CB0000F910895EF92FF920F931F93CF93DF937D
:104CC000EC017B018A01BA010E944D24882321F462
:104CD000CE010E94B02507C01D830C838881998175
:104CE000B7010E946C12CE01DF91CF911F910F91FD
:104CF000FF90EF900895CF93DF93EC011982188213
:104D00001B821A821D821C821E826115710551F060
:104D1000DB010D900020E9F71197A61BB70BAD0141
:104D20000E945A26DF91CF910895CF93DF93EC0133
:104D3000198218821B821A821D821C821E826115B2
:104D4000710551F0DB010D900020E9F71197A61BCA
:104D5000B70BAD010E945A26DF91CF9108950F93B2
:104D60001F93182F092F6115710559F0DB010D9064
:104D70000020E9F71197A61BB70BAD010E945A2638
:104D800002C00E94B025812F902F1F910F9108958E
:104D9000EF92FF920F931F93DF93CF93CDB7DEB7C0
:104DA000A1970FB6F894DEBF0FBECDBF8C01FC01FA
:104DB0001182108213821282158214821682CB0114
:104DC000BA017E010894E11CF11CA70130E00E94A9
:104DD0001F13C801B7010E94AF26A1960FB6F89421
:104DE000DEBF0FBECDBFCF91DF911F910F91FF901E
:104DF000EF900895EF92FF920F931F93DF93CF935D
:104E0000CDB7DEB7A1970FB6F894DEBF0FBECDBF0A
:104E10008C01FC011182108213821282158214828D
:104E20001682CB01BA017E010894E11CF11CA70196
:104E300030E00E941F13C801B7010E94AF26A1965F
:104E40000FB6F894DEBF0FBECDBFCF91DF911F919B
:104E50000F91FF90EF900895EF92FF920F931F93A1
:104E6000DF93CF93CDB7DEB7A2970FB6F894DEBF2E
:104E70000FBECDBF8C01FC01118210821382128201
:104E8000158214821682CB01BA017E010894E11CBE
:104E9000F11CA70130E00E94D612C801B7010E94A0
:104EA000AF26A2960FB6F894DEBF0FBECDBFCF914E
:104EB000DF911F910F91FF90EF900895EF92FF9275
:104EC0000F931F93DF93CF93CDB7DEB7A2970FB6A3
:104ED000F894DEBF0FBECDBF8C01FC0111821082A1
:104EE00013821282158214821682CB01BA017E01CE
:104EF0000894E11CF11CA70130E00E94D612C80101
:104F0000B7010E94AF26A2960FB6F894DEBF0FBE7F
:104F1000CDBFCF91DF911F910F91FF90EF9008953A
:104F2000EF92FF920F931F93DF93CF93CDB7DEB72E
:104F300061970FB6F894DEBF0FBECDBF8C01CB01D9
:104F4000F801118210821382128215821482168255
:104F50007E010894E11CF11CB70150E00E9444134B
:104F6000C801B7010E94AF2661960FB6F894DEBF64
:104F70000FBECDBFCF91DF911F910F91FF90EF90AA
:104F80000895EF92FF920F931F93DF93CF93CDB7C6
:104F9000DEB761970FB6F894DEBF0FBECDBF8C01B0
:104FA000CB01F801118210821382128215821482C1
:104FB00016827E010894E11CF11CB70150E00E94AA
:104FC0004413C801B7010E94AF2661960FB6F8944A
:104FD000DEBF0FBECDBFCF91DF911F910F91FF902C
:104FE000EF900895EF92FF920F931F93DF93CF936B
:104FF000CDB7DEB762970FB6F894DEBF0FBECDBF58
:105000008C01CB01F8011182108213821282158269
:10501000148216827E010894E11CF11CB70150E055
:105020000E94B512C801B7010E94AF2662960FB662
:10503000F894DEBF0FBECDBFCF91DF911F910F91CE
:10504000FF90EF900895EF92FF920F931F93DF93DD
:10505000CF93CDB7DEB762970FB6F894DEBF0FBE21
:10506000CDBF8C01CB01F801118210821382128214
:105070001582148216827E010894E11CF11CB7018E
:1050800050E00E94B512C801B7010E94AF26629697
:105090000FB6F894DEBF0FBECDBFCF91DF911F9149
:1050A0000F91FF90EF900895EF92FF920F931F934F
:1050B000DF93CF93CDB7DEB729970FB6F894DEBF55
:1050C0000FBECDBF8C01862FF80111821082138292
:1050D000128215821482168290E07E010894E11CEF
:1050E000F11CB70150E00E944413C801B7010E94AF
:1050F000AF2629960FB6F894DEBF0FBECDBFCF9175
:10510000DF911F910F91FF90EF900895EF92FF9222
:105110000F931F93DF93CF93CDB7DEB729970FB6C9
:10512000F894DEBF0FBECDBF8C01862FF80111822F
:1051300010821382128215821482168290E07E0100
:105140000894E11CF11CB70150E00E944413C8010F
:10515000B7010E94AF2629960FB6F894DEBF0FBEA6
:10516000CDBFCF91DF911F910F91FF90EF900895E8
:10517000DF93CF930F920F92CDB7DEB7FC01118270
:1051800010821382128215821482168269831A8217
:10519000BE016F5F7F4F0E94AF260F900F90CF919F
:1051A000DF910895DF93CF930F920F92CDB7DEB7C3
:1051B000FC011182108213821282158214821682DF
:1051C00069831A82BE016F5F7F4F0E94AF260F90E6
:1051D0000F90CF91DF910895BF92CF92DF92EF921F
:1051E000FF920F931F93CF93DF93082FB92E6B017C
:1051F0007A01E9012417350710F4EA017901802FBB
:105200009B2D63E072E00E947B26D60114968D915F
:105210009C9115978E159F05D0F08C179D0708F46B
:10522000EC01D601ED91FC911197EC0FFD1F10815F
:1052300010826D917C916E0D7F1D802F9B2D0E94A1
:10524000AF26D601ED91FC91EC0FFD1F1083802F4E
:105250009B2DDF91CF911F910F91FF90EF90DF90E9
:10526000CF90BF9008950F931F938C01FB01248171
:1052700035810E94EC28C8011F910F910895CF93AA
:10528000DF93EC01FB018617970761F06081718164
:105290006115710529F0448155810E945A2602C08A
:1052A0000E94B025CE01DF91CF910895FC011182BB
:1052B0001082138212821582148216820E943F2964
:1052C0000895FC01118210821382128215821482C9
:1052D00016820E943F290895FC01808191810E94DD
:1052E000F70D0895FC01808191810E94F70D0895CA
:1052F000CF93DF930E947C2A0E948D5BC0E0D0E0B8
:105300000E94075B2097E1F30E940000F9CFFC01A7
:1053100020E030E08081882311F421E030E0C901F1
:105320000895FC0181E080830895089508950E9406
:10533000F70D08950E944D0D08951F920F920FB61C
:105340000F9211242F933F938F939F93AF93BF930B
:1053500080918F0490919004A0919104B091920457
:10536000309193040196A11DB11D232F2D5F2D3780
:1053700020F02D570196A11DB11D20939304809319
:105380008F0490939004A0939104B0939204809121
:105390008B0490918C04A0918D04B0918E040196A1
:1053A000A11DB11D80938B0490938C04A0938D0458
:1053B000B0938E04BF91AF919F918F913F912F91A8
:1053C0000F900FBE0F901F9018958FB7F8942091F3
:1053D0008F043091900440919104509192048FBFBA
:1053E000B901CA0108959FB7F89420918B043091B8
:1053F0008C0440918D0450918E0486B5A89B06C004
:105400008F3F21F02F5F3F4F4F4F5F4F9FBF542F74
:10541000432F322F2227280F311D411D511D82E0BD
:10542000220F331F441F551F8A95D1F7B901CA01B6
:1054300008959B01AC017FB7F89480918B04909103
:105440008C04A0918D04B0918E0466B5A89B05C014
:105450006F3F19F00196A11DB11D7FBFBA2FA92F73
:10546000982F8827860F911DA11DB11D62E0880F1E
:10547000991FAA1FBB1F6A95D1F7BC012DC0FFB7AA
:10548000F89480918B0490918C04A0918D04B0913C
:105490008E04E6B5A89B05C0EF3F19F00196A11D4B
:1054A000B11DFFBFBA2FA92F982F88278E0F911DEE
:1054B000A11DB11DE2E0880F991FAA1FBB1FEA952D
:1054C000D1F7861B970B885E9340C8F2215030407D
:1054D0004040504068517C4F211531054105510530
:1054E00071F60895019739F0880F991F880F991F59
:1054F00002970197F1F70895789484B5826084BD8E
:1055000084B5816084BD85B5826085BD85B58160C7
:1055100085BDEEE6F0E0808181608083E1E8F0E027
:105520001082808182608083808181608083E0E856
:10553000F0E0808181608083E1EBF0E08081846035
:105540008083E0EBF0E0808181608083E1E9F0E03E
:10555000808182608083808181608083E0E9F0E0E7
:10556000808181608083E1EAF0E0808182608083D5
:10557000808181608083E0EAF0E0808181608083C7
:10558000E1E2F1E0808182608083808181608083BC
:10559000E0E2F1E0808181608083EAE7F0E08081F1
:1055A0008460808380818260808380818160808349
:1055B0008081806880831092C100089580934B039E
:1055C0000895382F863308F0365320917B00832FBF
:1055D00086958695869590E08170907043E0880F5F
:1055E000991F4A95E1F7277F282B20937B0037707E
:1055F00080914B038295880F880F807C832B80934A
:105600007C0080917A00806480937A0080917A0097
:1056100086FDFCCF2091780040917900942F80E0A6
:1056200030E0282B392BC90108951F93CF93DF93C6
:10563000182FEB0161E00E94F52B209709F4CAC0F6
:10564000CF3FD10509F4C9C0E12FF0E0E75FFD4F7E
:105650008491893009F466C08A30B0F48430F1F165
:10566000853040F4823059F1833070F5813009F093
:10567000AEC020C0873009F443C0883008F048C06D
:10568000863009F0A4C034C08D3009F478C08E3063
:1056900038F48B3009F45AC08C3008F066C04CC026
:1056A000803109F480C0813109F487C08F3009F05E
:1056B0008EC06FC084B5806884BDC7BD92C084B5FC
:1056C000806284BDC8BD8DC0809180008068809359
:1056D0008000D0938900C093880083C080918000AF
:1056E000806280938000D0938B00C0938A0079C041
:1056F0008091B00080688093B000C093B30071C007
:105700008091B00080628093B000C093B40069C003
:1057100080919000806880939000D0939900C0930E
:1057200098005FC080919000806280939000D09339
:105730009B00C0939A0055C0809190008860809330
:105740009000D0939D00C0939C004BC08091A0001E
:1057500080688093A0008091A0008F7B8093A00040
:10576000D093A900C093A8003CC08091A0008062A3
:105770008093A000D093AB00C093AA0032C0809168
:10578000A00088608093A000D093AD00C093AC00CF
:1057900028C080912001806880932001D093290146
:1057A000C09328011EC08091200180628093200157
:1057B000D0932B01C0932A0114C0809120018860EE
:1057C00080932001D0932D01C0932C010AC0C038D2
:1057D000D1051CF4812F60E002C0812F61E00E949E
:1057E000A82CDF91CF911F910895CF93DF93482F7D
:1057F00050E0CA018D539E4FFC01349143585E4FD7
:10580000FA018491882369F190E0880F991FFC01C7
:10581000E15DFE4FA591B491FC01E75BFE4FC591A0
:10582000D491662351F42FB7F8948C91932F9095CF
:1058300089238C93888189230BC0623061F42FB750
:10584000F8948C91932F909589238C938881832B46
:1058500088832FBF06C09FB7F8948C91832B8C93BD
:105860009FBFDF91CF910895893009F449C08A30F4
:10587000A0F4843051F1853040F4823079F18330E6
:1058800000F5813009F063C026C0873079F1883097
:1058900098F5863009F05BC025C08D3009F442C010
:1058A0008E3028F48B30B1F18C30C0F52DC08031B2
:1058B00009F442C0813109F445C08F3009F047C076
:1058C00037C0809180008F7703C0809180008F7DEA
:1058D00080938000089584B58F7702C084B58F7D52
:1058E00084BD08958091B0008F7703C08091B0008F
:1058F0008F7D8093B0000895809190008F7707C0CE
:10590000809190008F7D03C080919000877F80936D
:10591000900008958091A0008F7707C08091A0002B
:105920008F7D03C08091A000877F8093A0000895A1
:10593000809120018F7703C0809120018F7D80931B
:105940002001089580912001877F80932001089590
:10595000FF920F931F93F62E482F50E0CA01875FE6
:105960009D4FFC012491CA018D539E4FFC0114915F
:1059700043585E4FFA0104910023C9F0222319F025
:10598000822F0E94342CE02FF0E0EE0FFF1FE75B28
:10599000FE4FA591B4919FB7F894FF2021F48C910C
:1059A0001095812302C08C91812B8C939FBF1F91F6
:1059B0000F91FF9008950F931F93482F50E0CA0155
:1059C000875F9D4FFC012491CA018D539E4FFC01BE
:1059D000049143585E4FFA011491112319F420E009
:1059E00030E015C0222319F0822F0E94342C812F21
:1059F00090E0880F991F8D599E4FFC01A591B4919D
:105A00008C9120E030E0802311F021E030E0C901EA
:105A10001F910F9108958F929F92AF92BF92CF9254
:105A2000DF92EF92FF920F931F93CF93DF93A82FF4
:105A3000B0E0CD018D539E4FFC018490A358BE4F22
:105A4000FD018491662311F4992401C0982C6FEF15
:105A5000A62E6FEFB62E6FEFC62E6FE0D62EA222C7
:105A6000B322C422D522682F70E0660F771F6D59CC
:105A70007E4FEE24FF248701FB01A591B4910BC05A
:105A8000EA14FB040C051D0509F44EC00894E11C42
:105A9000F11C011D111D8C918821891589F30CC001
:105AA000EA14FB040C051D0509F43EC00894E11C32
:105AB000F11C011D111D03C0FB01A591B4918C9136
:105AC0008821891569F720E030E040E050E0FB01D3
:105AD000C591D4910FC0DA01C9018E0D9F1DA01F81
