:100000000C94180D0C94F0150C9421160C945216A7
:100010000C9483160C94B4160C94E5160C941617D5
:100020000C9447170C94450D0C94450D0C94450DFC
:100030000C94450D0C94450D0C94450D0C94450DF8
:100040000C94450D0C94D4610C94450D0C94450D05
:100050000C94450D0C94450D0C946E6A0C940F1382
:100060000C94450D0C9438380C94450D0C94450DAA
:100070000C94450D0C94450D0C94450D0C94450DB8
:100080000C94450D0C94450D0C94450D0C94450DA8
:100090000C94450D0C94450D0C94450D0C94450D98
:1000A0000C94450D0C94450D0C94450D0C94450D88
:1000B0000C94450D0C94450D0C94450D0C94450D78
:1000C0000C94450D0C94450D0C94450D0C94450D68
:1000D0000C94450D0C94450D0C94450D0C94450D58
:1000E0000C94450D084AD73B3BCE016E84BCBFFD46
:1000F000C12F3D6C74319ABD56833DDA3D00C77FF8
:1001000011BED9E4BB4C3E916BAAAABE0000008090
:100110003F05A84CCDB2D44EB93836A9020C50B91F
:10012000918688083CA6AAAA2ABE000000803F004B
:10013000002100240027002A002D00300033000198
:10014000010000040107010A010000220025002827
:10015000002B002E003100340002010000050108D0
:10016000010B01000020002300260029002C002F95
:100170000032000001000003010601090105050528
:1001800005070508080808020202020A0A0808040E
:10019000040404010101010101010103030303033C
:1001A000030303040707070C0C0C0C0C0C0C0C02CB
:1001B00002020206060606060606060B0B0B0B0BD2
:1001C0000B0B0B01021020200808102040102040CB
:1001D000800201020108040201010204081020400B
:1001E0008080402010080402018004020180402029
:1001F0001008040201080402010102040810204052
:100200008001020408102040800000090A02080B47
:100210000C0D0706030401000000000000000000B0
:1002200000000000000000000000000000000000CE
:10023000000000000011100F00000000000000008E
:100240000000000000000000000000000000006549
:1002500063686F3A004572726F723A0053544F50A0
:100260005045442E20005072696E7465722073747C
:100270006F707065642064756520746F206572729C
:100280006F72732E204669782074686520657272DB
:100290006F7220616E6420757365204D3939392085
:1002A000746F20726573746172742E202854656DAA
:1002B000706572617475726520697320726573650B
:1002C000742E2053657420697420616674657220F1
:1002D00072657374617274696E6729004B494C4C86
:1002E00045442E20005072696E7465722068616CFE
:1002F0007465642E206B696C6C28292063616C6CBA
:10030000656421006F6B00526573656E643A20006E
:100310002200556E6B6E6F776E20636F6D6D616E30
:10032000643A202200486F74656E64206F666673BD
:100330006574733A007A5F6D61783A20007A5F6D78
:10034000696E3A2000795F6D61783A2000795F6DBF
:10035000696E3A2000785F6D61783A2000785F6DB1
:10036000696E3A20005A3A00593A0020436F756E80
:100370007420583A2000453A005A3A00593A005839
:100380003A004649524D574152455F4E414D453A1C
:100390004D61726C696E2056313B20537072696EEC
:1003A0007465722F6772626C206D6173687570205E
:1003B000666F722067656E36204649524D5741522E
:1003C000455F55524C3A687474703A2F2F666972C3
:1003D0006D776172652E756C74696D616B65722ED7
:1003E000636F6D2050524F544F434F4C5F564552F0
:1003F00053494F4E3A312E30204D414348494E45E6
:100400005F545950453A556C74696D616B65722043
:1004100045585452554445525F434F554E543A3215
:100420000A0042656420646F6E652E0020423A0027
:1004300020453A00543A0042656420486561746979
:100440006E672E0048656174696E6720646F6E6523
:100450002E0020573A0020453A00543A0048656182
:1004600074696E672E2E2E002042403A0020403ADA
:1004700000202F0020423A00202F006F6B20543ABA
:10048000002569206D696E2C202569207365630045
:10049000456E642066696C65206C69737400426502
:1004A00067696E2066696C65206C697374004E6FB5
:1004B000206D6F76652E00526573756D696E6720CD
:1004C0007072696E74005761697420666F7220756E
:1004D0007365722E2E2E00536C6565702E2E2E00C5
:1004E000000000000000000000000000000000000C
:1004F000000000000000000000004D4300004D43DC
:100500000000484300004D4300004D4300004843B5
:100510000000A0400000A0400000803FFFFFFF253A
:100520006920686F757273202569206D696E757416
:10053000657300446F6E65207072696E74696E67D2
:100540002066696C650053544F505045442E20007E
:100550005072696E7465722073746F707065642078
:1005600064756520746F206572726F72732E2046F9
:10057000697820746865206572726F7220616E649C
:1005800020757365204D39393920746F2072657379
:10059000746172742E202854656D70657261747573
:1005A00072652069732072657365742E20536574BB
:1005B000206974206166746572207265737461725B
:1005C00074696E6729006F6B004E6F204C696E6511
:1005D000204E756D62657220776974682063686566
:1005E000636B73756D2C204C617374204C696E6560
:1005F0003A20004E6F20436865636B73756D2077FA
:10060000697468206C696E65206E756D6265722C08
:10061000204C617374204C696E653A2000636865F4
:10062000636B73756D206D69736D617463682C20E5
:100630004C617374204C696E653A20004C696E659C
:10064000204E756D626572206973206E6F74204C48
:10065000617374204C696E65204E756D6265722BF6
:10066000312C204C617374204C696E653A20004D2A
:1006700031313000446F6E6520736176696E67209A
:1006800066696C652E006F6B004D3239002020507A
:100690006C616E6E657242756666657242797465EC
:1006A000733A20002046726565204D656D6F727942
:1006B0003A20004D61722020312032303133004326
:1006C0006F6D70696C65643A2000284461766964D6
:1006D00020427261616D2900207C20417574686F31
:1006E000723A20004D6172202031203230313320A7
:1006F00031323A33343A353500204C617374205529
:100700007064617465643A2000556C74696D616B46
:1007100065723A2031332E30332028313135323072
:10072000305F6475616C29004D61726C696E2000E8
:1007300020536F667477617265205265736574002B
:10074000205761746368646F672052657365740035
:100750002042726F776E206F7574205265736574D6
:10076000002045787465726E616C20526573657403
:1007700000506F7765725570007374617274002257
:1007800000656E717565696E672022002200656ED6
:10079000717565696E672022007C3C3E5E2B3D3F93
:1007A0002F5B5D3B2C2A225C006563686F3A00205A
:1007B000746F6F206C6F6E672065787472757369E3
:1007C0006F6E2070726576656E7465640020636F6D
:1007D0006C6420657874727573696F6E20707265D1
:1007E00076656E7465640045313A200045303A20E4
:1007F000005A3A2000593A2000583A20004D53310F
:100800002C4D53322050696E730A0024F404D92011
:100810001BC40C5C0E9804C4095F0265077101F4E7
:1008200005F900FB04B30048048700C103690058C0
:1008300003550003034500BE023A00840231005311
:10084000022A002902250004022000E4011C00C83D
:10085000011900AF01170098011400840113007101
:100860000110006101100051010E0043010D00361E
:10087000010B002B010B0020010B00150109000CDE
:1008800001090003010800FB000800F3000800EB69
:10089000000700E4000600DE000600D8000600D2D3
:1008A000000600CC000500C7000500C2000500BD21
:1008B000000400B9000400B5000400B1000400AD5C
:1008C000000400A9000400A5000300A20003009F8B
:1008D0000004009B000300980003009500020093B1
:1008E000000300900003008D0002008B00030088CD
:1008F0000002008600020084000300810002007FE5
:100900000002007D0002007B0002007900020077F7
:100910000001007600020074000200720001007104
:100920000002006F0002006D0001006C0002006A0E
:100930000001006900020067000100660001006517
:10094000000100640002006200010061000100601B
:100950000001005F0002005D0001005C0001005B1F
:100960000001005A00010059000100580001005721
:100970000001005600010055000100540001005321
:10098000000000530001005200010051000100501E
:100990000001004F0001004E0000004E0001004D1C
:1009A0000001004C0001004B0000004B0001004A18
:1009B0000001004900010048000000480001004714
:1009C000000100460000004600010045000000450F
:1009D0000001004400010043000000430001004208
:1009E0000000004200010041000000410001004001
:1009F0000001003F0000003F0001003E0000003EFB
:100A00000001003D0000003D0001003C0000003CF2
:100A10000000003C0001003B0000003B0001003AE8
:100A20000000003A000100390000003900010038E0
:100A300000000038000000380001003700000037D7
:100A400000010036000000360000003600010035CD
:100A500000000035000000350001003400000034C3
:100A600000000034000100330000003300000033B8
:100A700000010032000000320000003200010031AD
:100A800000000031000000310001003000000030A3
:100A9000000000300001002F0000002F0000002F98
:100AA0000000002F0001002E0000002E0000002E8C
:100AB0000001002D0000002D0000002D0000002D81
:100AC0000001002C0000002C0000002C0000002C75
:100AD0000001002B0000002B0000002B0000002B69
:100AE0000001002A0000002A0000002A0000002A5D
:100AF0000001002900000029000000290000002951
:100B00000000002900010028000000280000002843
:100B10000000002800000028000100270000002736
:100B20000000002700000027000000270001002629
:100B3000000000260000002600000026000000261D
:100B40000001002500000025000000250000002510
:100B50000000002500000025000100240000002402
:100B600000000024000000240000002400010023F5
:100B700000000023000000230000002300000023E9
:100B800000000023000000230001002200000022DA
:100B900000000022000000220000002200000022CD
:100BA00000010021000000210000002100000021C0
:100BB00000000021000000210000002100010020B1
:100BC00000000020000000200000002000000020A5
:100BD0000000002000000020000000200001001F95
:100BE0000000001F0000001F0000001F0000001F89
:100BF0000000001F0000001F0001001E0000001E7A
:100C00000000001E0000001E00000024F4D430503C
:100C1000C38E20C2A24017828B7011127A910D816F
:100C20006CD90AA861E108C7586607615143061EDE
:100C30004B5D05C145A7041A411104093D98037194
:100C40003931034036DB0265339102D430540280DF
:100C50002E1D02632CEE01752AC501B028A00110DB
:100C60002781018F2564012B244B01E0223401AC44
:100C7000211F018D200D01801FFC00841EED0097B7
:100C80001DDF00B81CD200E61BC600201BBC0064A0
:100C90001AB200B219A8000A19A0006A189900D166
:100CA00017910040178B00B516840031167E00B3F3
:100CB0001579003A157300C7146F0058146A00EED6
:100CC0001366008813630025135E00C7125B006C77
:100CD00012570015125400C111510070114F00211C
:100CE000114B00D61049008D1047004610440002F9
:100CF000104200C00F4000800F3E00420F3C000633
:100D00000F3B00CB0E3800930E37005C0E350027EA
:100D10000E3400F30D3200C10D3100900D30006033
:100D20000D2E00320D2D00050D2C00D90C2B00AE20
:100D30000C2900850C29005C0C2700350C27000EBF
:100D40000C2600E80B2400C40B2400A00B23007D1C
:100D50000B23005A0B2100390B2100180B2000F83F
:100D60000A1F00D90A1E00BB0A1E009D0A1D008032
:100D70000A1D00630A1C00470A1B002C0A1B0011F5
:100D80000A1A00F7091A00DD091900C4091900AB95
:100D9000091900920917007B091800630917004C14
:100DA00009160036091600200916000A091500F573
:100DB000081500E0081400CC081400B8081400A4BA
:100DC000081400900813007D0812006B08130058E7
:100DD00008120046081200340811002308110012FE
:100DE00008110001081100F0071000E0071000D002
:100DF000071000C0071000B0070F00A107100091F6
:100E0000070E0083070F0074070F0065070E0057D9
:100E1000070E0049070E003B070D002E070E0020AD
:100E2000070D0013070D0006070D00F9060C00ED75
:100E3000060D00E0060C00D4060C00C8060C00BC31
:100E4000060C00B0060C00A4060B0099060C008DE1
:100E5000060B0082060B0077060B006C060B006188
:100E6000060A0057060B004C060A0042060A003824
:100E7000060A002E060A0024060A001A060A0010B6
:100E800006090007060A00FD050900F4050900EB44
:100E9000050900E2050900D9050900D0050900C7C8
:100EA000050900BE050900B5050800AD050800A547
:100EB0000509009C050800940508008C05080084BD
:100EC0000508007C050800740508006C050700652E
:100ED0000508005D050700560508004E0507004798
:100EE0000507004005080038050700310507002AFE
:100EF000050700230507001C050600160507000F5F
:100F00000507000805060002050700FB040600F5BA
:100F1000040700EE040600E8040600E2040700DB14
:100F2000040600D5040600CF040600C9040600C369
:100F3000040600BD040600B7040600B1040500ACB9
:100F4000040600A6040600A00405009B0406009504
:100F5000040500900406008A04050085040500804D
:100F60000406007A04050075040500700405006B92
:100F700004050066040500610405005C04050057D3
:100F8000040500520405004D040500480405004313
:100F90000405003E0404003A040500350405003051
:100FA0000404002C04050027040400230405001E8B
:100FB0000404001A04040016040500110404000DC2
:100FC000040400090405000404040000040400FCF7
:100FD000030400F8030400F4030400F0030400EC2D
:100FE000030400E8030400E4030400E0030400DC5D
:100FF000030400D8030400D4030400D0030400CC8D
:10100000030400C8030300C50303006563686F3A67
:1010100000656E6473746F7073206869743A205A47
:1010200000205A3A00656E6473746F7073206869AB
:10103000743A20590020593A00656E6473746F70D9
:1010400073206869743A20580020583A00656E642D
:1010500073746F7073206869743A20004572726F00
:10106000723A004572723A204D415854454D502015
:101070004245440054656D706572617475726520F7
:101080006865617465642062656420737769746360
:10109000686564206F66662E204D415854454D505A
:1010A000207472696767657265642021210045724A
:1010B000723A204D494E54454D50003A20457874BF
:1010C0007275646572207377697463686564206FF4
:1010D00066662E204D494E54454D50207472696706
:1010E00067657265642021004572723A204D41584F
:1010F00054454D50003A20457874727564657220ED
:101100007377697463686564206F66662E204D414D
:101110005854454D50207472696767657265642044
:101120002100202D20496E76616C696420657874F9
:101130007275646572206E756D626572202100653E
:1011400063686F3A0048656174696E67206661691B
:101150006C656400504944204175746F74756E6508
:101160002066696E6973686564202120506C616334
:101170006520746865204B702C204B6920616E647B
:10118000204B6420636F6E7374616E747320696E9C
:101190002074686520636F6E666967757261746933
:1011A0006F6E2E6800504944204175746F74756EDF
:1011B00065206661696C6564212074696D656F7571
:1011C000740020403A006F6B20543A006F6B20424D
:1011D0003A00504944204175746F74756E652066FD
:1011E00061696C6564212054656D70657261747508
:1011F000726520746F206869676800204B643A202C
:1012000000204B693A2000204B703A200020436CAC
:10121000617369632050494420002054753A2000CE
:10122000204B753A2000206D61783A2000206D69CE
:101230006E3A200020643A200020626961733A20EF
:10124000004D383420582059205A204500656368E5
:101250006F3A0043616E6E6F7420656E7465722024
:101260007375626469723A20004D3234004D323336
:10127000202573006175746F25692E6700457272B1
:101280006F723A006572726F722077726974696E5C
:101290006720746F2066696C65004E6F742053443C
:1012A000207072696E74696E67002F00534420705D
:1012B00072696E74696E67206279746520002E0011
:1012C00044656C6574696F6E206661696C65642C39
:1012D0002046696C653A200046696C652064656C3F
:1012E000657465643A002E006F70656E20666169F2
:1012F0006C65642C2046696C653A200057726974ED
:10130000696E6720746F2066696C653A20002E0054
:101310006F70656E206661696C65642C2046696C2F
:10132000653A20002E006F70656E206661696C65FD
:10133000642C2046696C653A200046696C65207310
:10134000656C6563746564002053697A653A2000B2
:1013500046696C65206F70656E65643A20002E00EA
:101360006F70656E206661696C65642C2046696CDF
:10137000653A200053442063617264206F6B006FF4
:1013800070656E526F6F74206661696C656400767B
:101390006F6C756D652E696E6974206661696C6528
:1013A0006400534420696E6974206661696C00654D
:1013B00063686F3A0053746F726564207365747468
:1013C000696E6773207265747265697665643A0048
:1013D0002044002049002020204D3330312050008F
:1013E0005049442073657474696E67733A00205ADB
:1013F0000020590020204D323036205800486F6DB3
:1014000065206F666673657420286D6D293A00202B
:101410004500205A0020580020420020540020207F
:101420004D323035205300416476616E636564202F
:101430007661726961626C65733A20533D4D696EE5
:1014400020666565647261746520286D6D2F73294F
:101450002C20543D4D696E2074726176656C206657
:101460006565647261746520286D6D2F73292C2069
:10147000423D6D696E696D756D207365676D656E52
:10148000742074696D6520286D73292C20583D6D7A
:101490006178696D756D207859206A65726B2028B6
:1014A0006D6D2F73292C20205A3D6D6178696D7503
:1014B0006D205A206A65726B20286D6D2F7329008C
:1014C00020540020204D32303420530041636365A6
:1014D0006C65726174696F6E3A20533D6163636538
:1014E0006C65726174696F6E2C20543D7265747204
:1014F00061637420616363656C65726174696F6EAA
:1015000000204500205A0020590020204D32303163
:101510002058004D6178696D756D20416363656C7D
:1015200065726174696F6E20286D6D2F7332293A70
:1015300000204500205A0020590020204D32303331
:101540002058004D6178696D756D2066656564721F
:101550006174657320286D6D2F73293A0020450052
:10156000205A0020590020204D3932205800537451
:101570006570732070657220756E69743A005365EA
:101580007474696E67732053746F726564002D2DD7
:101590003A2D2D002D2D2D005344002059000120FF
:1015A000000120004E6F2043617264004361726449
:1015B000204D656E750053746F70205072696E74A3
:1015C00000526573756D65205072696E74005061CC
:1015D000757365205072696E7400436F6E74726F1C
:1015E0006C00507265706172650054756E650057CD
:1015F0006174636800052E2E004D61696E004D32E6
:1016000034004D3233202573004D38342058205992
:10161000205A2045004669726D77617265207665B3
:101620007273696F6E00526573746F7265204661E4
:10163000696C73616665004C6F6164206D656D6FE8
:1016400072790053746F7265206D656D6F727900E9
:101650004D6F74696F6E0054656D7065726174755D
:101660007265004D61696E004D617220203120323B
:101670003031332031323A33353A30300031313580
:101680003230305F6475616C00556C74696D616BEC
:1016900065723A2031332E3033004669726D7761BE
:1016A00072652076657273696F6E0045737465703C
:1016B000732F6D6D004573746570732F6D6D005AD7
:1016C00073746570732F6D6D005A73746570732F2A
:1016D0006D6D005973746570732F6D6D005973745F
:1016E0006570732F6D6D005873746570732F6D6D19
:1016F000005873746570732F6D6D00412D726574A1
:101700007261637400412D7265747261637400418B
:101710006D6178206500416D6178206500416D61E3
:1017200078207A00416D6178207A00416D617820DF
:101730007900416D6178207900416D6178207800F1
:10174000416D61782078005654726176206D696E23
:10175000005654726176206D696E00566D696E0098
:10176000566D696E00566D6178206500566D617822
:10177000206500566D6178207A00566D6178207A78
:1017800000566D6178207900566D61782079005699
:101790006D6178207800566D6178207800567879F0
:1017A0002D6A65726B005678792D6A65726B0041FF
:1017B0006363656C00416363656C00436F6E7472B4
:1017C0006F6C00507265686561742041425320431C
:1017D0006F6E66005072656865617420504C4120E0
:1017E000436F6E66005049442D43005049442D43D9
:1017F000005049442D44005049442D440050494470
:101800002D49005049442D49005049442D50005065
:1018100049442D500046616E207370656564004632
:10182000616E207370656564004E6F7A7A6C653204
:10183000004E6F7A7A6C6532004E6F7A7A6C650072
:101840004E6F7A7A6C6500436F6E74726F6C0053E2
:10185000746F7265206D656D6F7279004E6F7A7A64
:101860006C65004E6F7A7A6C650046616E2073700D
:101870006565640046616E2073706565640054653B
:101880006D70657261747572650053746F72652056
:101890006D656D6F7279004E6F7A7A6C65004E6F70
:1018A0007A7A6C650046616E2073706565640046E7
:1018B000616E2073706565640054656D706572615A
:1018C00074757265004D6F76652041786973004DBF
:1018D0003130342053300A4D3134302053300043FE
:1018E0006F6F6C646F776E0050726568656174200D
:1018F000414253005072656865617420504C41004C
:10190000473238004175746F20486F6D65004D385F
:10191000340044697361626C65205374657070654E
:101920007273004D61696E004D6F766520302E3107
:101930006D6D004D6F766520316D6D004D6F766574
:101940002031306D6D0050726570617265004578B0
:10195000747275646572004D6F7665205A004D6F24
:1019600076652059004D6F76652058004D6F76657D
:101970002041786973004578747275646572005A05
:101980000059005800466C6F7700466C6F77004630
:10199000616E2073706565640046616E20737065CA
:1019A0006564004E6F7A7A6C6532004E6F7A7A6C9D
:1019B0006532004E6F7A7A6C65004E6F7A7A6C658C
:1019C000005370656564005370656564004D61691E
:1019D0006E00436172642072656D6F7665640043CA
:1019E00061726420696E73657274656400494E4665
:1019F000494E4954594E414ECDCCCC3D0AD7233C9B
:101A000017B7D13877CC2B329595E6241FB14F0A02
:101A1000000020410000C84200401C4620BCBE4CD3
:101A2000CA1B0E5AAEC59D746E18CC3856BC6718CA
:101A300011241FBECFEFD1E2DEBFCDBF00E00CBF4F
:101A400014E0A0E0B2E0E2EEFCE801E00BBF02C06F
:101A500007900D92AE38B107D9F71BBE10E1AEE882
:101A6000B4E001C01D92A23DB107E1F71AE1CEE258
:101A7000DAE104C02297FE010E9416C6C832D107DF
:101A8000C9F70E94F6C00C9464C60C940000A0E054
:101A9000B0E0EDE4FDE00C9433C6EC015B016115B0
:101AA000710519F0FB0191838083F9908F2D90E0EF
:101AB0000E941AC6892BC9F7FDE2FF1621F4F9909E
:101AC000EE24E39405C02BE2F21609F4F990EE241B
:101AD0008E0101501040C8016DEE79E143E050E005
:101AE0000E94DD0F892B01F58E010E5F1F4FC8018B
:101AF00060EF79E145E050E00E94DD0F892B19F499
:101B00008E01095F1F4FA114B10419F0F501118373
:101B10000083E0FC04C070E090E080E814C070E056
:101B200090E080E86FEF08C1C80165EF79E143E01C
:101B300050E00E94DD0F892B69F4A114B10429F44F
:101B400070E090E080EC6FE7F7C02296F501D1835A
:101B5000C083F6CF8824992440E050E060E070E034
:101B6000EF2DE053EA30A0F5F2E0EF2A8E2D90E061
:101B70009C0128703070E2FE06C0232B79F5089492
:101B8000811C911C2BC0232B19F00894810891080B
:101B9000DB01CA0112E0880F991FAA1FBB1F1A950B
:101BA000D1F7480F591F6A1F7B1F440F551F661F2F
:101BB000771F4E0F511D611D711D483929E95207CC
:101BC00029E9620729E1720748F084E0E82A06C0A3
:101BD000EE3F31F4E3FC39C098E0E92AF990C0CF38
:101BE000E53311F0E53189F529912D3219F4E0E161
:101BF000EE2A05C02B3219F081E090E003C0299154
:101C000082E090E0E22FE053EA3018F0C81BD90BD5
:101C10001CC020E030E0FCE020383F075CF4C90144
:101C2000880F991F880F991F280F391F220F331F04
:101C30002E0F311DE991E053EA3068F3E4FE03C052
:101C4000309521953F4F820E931ECE2CDD24E1FE70
:101C500007C0A114B10421F02197F501D183C083FD
:101C6000CB01BA010E947FC27B018C01F3E0CF223D
:101C7000DD2423E0C216D10421F417FB109517F9D7
:101C8000109557016801C801B70120E030E040E03D
:101C900050E00E94DFC1882309F44AC097FE0DC0BE
:101CA0002CE0E22E2AE1F22E9094819491089394F4
:101CB000C0E2D0E000E010E012C094E2E92E9AE128
:101CC000F92EF6CFF7012591359145915491C60132
:101CD000B5010E94BFC45B016C018C1A9D0A8C1671
:101CE0009D0684F7D595C7950F5F1F4F06301105E8
:101CF00029F08CEF9FEFE80EF91EF1CFC501D60158
:101D00007C018D018C2D880F8D2D881F8F3F51F008
:101D1000C601B50120E030E040E050E00E94DFC1A4
:101D2000882331F482E290E09093D1108093D01018
:101D30007E2D9F2D802F612F272F392F482F562F33
:101D4000B901CA01CDB7DEB7ECE00C944FC62F92B3
:101D50003F925F926F927F928F929F92AF92BF92CB
:101D6000CF92DF92EF92FF920F931F93CF93DF9367
:101D70008C011B01EA016115710519F0FB019183CA
:101D80008083209749F0CE010297839728F020E0C6
:101D900030E040E050E0F6C0F801A1908F018A2DBC
:101DA00090E00E941AC6892BB9F7FDE2AF1631F414
:101DB000F801A1908F015524539407C0FBE2AF16A0
:101DC00019F4F801A1908F015524209719F0C03122
:101DD000D105C1F4F0E3AF1679F4F80180818837BA
:101DE00011F0883549F4F801A1800E5F1F4FF2E031
:101DF0005F2AC0E1D0E006C0209721F480E3A81656
:101E0000E9F427C0C830D10531F1C930D10524F437
:101E1000C230D10531F50CC0CA30D10589F0C031CE
:101E2000D105F9F4C12CD12CE12CB8E0FB2E28C04F
:101E3000C12CD12CE12CA0E4FA2E22C0CAE0D0E0C3
:101E4000FCECCF2EFCECDF2EFCECEF2EFCE0FF2EAA
:101E500017C0C8E0D0E0C12CD12CE12CE0E1FE2E6F
:101E60000FC09E01442737FD4095542F60E070E07D
:101E700080E090E80E94D7C5C901DA016C017D01BC
:101E800020E030E040E050E060E03E01882477FC54
:101E90008094982C70EDB72EBA0CE9E0EB1570F435
:101EA0008A2D81548A3118F499ECB92E06C08A2DF6
:101EB00081568A3150F589EAB82EBA0C8B2D90E004
:101EC0008C179D0714F56F3FE1F0C216D306E406A8
:101ED000F506B0F0CA01B901A40193010E9491C5B1
:101EE0009B01AC012B0D311D411D511D2130F0E036
:101EF0003F07F0E04F07F0E85F0710F461E001C032
:101F00006FEFF801A1908F01C5CF2114310481F04A
:101F1000662331F001501040F1011183008308C0A5
:101F200051FE1AC002501040F1011183008314C009
:101F300067FF12C050FC05C02FEF3FEF4FEF5FE788
:101F400004C020E030E040E050E882E290E090936E
:101F5000D1108093D01016C050FE08C05095409507
:101F6000309521953F4F4F4F5F4F0CC057FF0AC030
:101F700082E290E09093D1108093D0102FEF3FEF4A
:101F80004FEF5FE7B901CA01DF91CF911F910F9128
:101F9000FF90EF90DF90CF90BF90AF909F908F9089
:101FA0007F906F905F903F902F900895FB01DC0130
:101FB00005900D920020E1F70895FB01DC014150EE
:101FC000504088F08D9181341CF08B350CF4805E8C
:101FD000659161341CF06B350CF4605E861B6111F9
:101FE00071F3990B0895881BFCCFFB01DC01415074
:101FF000504048F005900D920020C9F701C01D9295
:1020000041505040E0F70895FB0155915523A9F048
:10201000BF01DC014D9145174111E1F759F4CD01A4
:102020000590002049F04D9140154111C9F3FB0185
:102030004111EFCF81E090E001970895FB01DC01B1
:1020400004C08D910190801921F441505040C8F78F
:10205000881B990B0895FB01DC0102C001900D92D1
:1020600041505040D8F70895FB01DC010D9000204D
:10207000E9F7119701900D920020E1F70895FC0116
:102080008191861721F08823D9F7992708953197F0
:10209000CF010895FB01DC0101900D920020E1F7D2
:1020A0000895FB01DC014150504030F08D910190CA
:1020B000801919F40020B9F7881B990B0895FB01CA
:1020C000DC014150504048F001900D920020C9F7CA
:1020D00001C01D9241505040E0F70895AEE0B0E0DD
:1020E000E4E7F0E10C943BC60E891F898EE08C83F7
:1020F0001A8309838FEF9FE79E838D839E01265E5F
:102100003F4FCE010196688D798DA9010E949210F2
:102110002F813885020F131FF80110822E96E4E0FC
:102120000C9457C6ABE0B0E0E8E9F0E10C942DC6A2
:102130003C012B015A01FC0117821682838181FD2B
:1021400003C06FEF7FEFC6C19AE0892E1E0108948D
:10215000211C311CF3012381F20123FD859123FF12
:1021600081912F01882309F4B2C1853239F423FD0E
:10217000859123FF81912F01853229F490E0B301ED
:102180000E948512E7CF982FFF24EE249924FFE1C7
:10219000FF15D0F09B3269F09C3228F4903259F050
:1021A000933291F40EC09D3249F0903369F441E0CE
:1021B00024C052E0F52A84E0F82A28C098E0F92AE1
:1021C00025C0E0E1FE2A22C0F7FC29C0892F8053F8
:1021D0008A3070F4F6FE05C0989C902C1124980E5D
:1021E00015C0E89CE02C1124E80EF0E2FF2A0EC096
:1021F0009E3229F4F6FC6BC140E4F42A07C09C36F9
:1022000019F450E8F52A02C0983649F4F20123FD8A
:10221000959123FF91912F01992309F0B8CF892F30
:102220008554833018F08052833038F444E050E015
:10223000A40EB51E5FE359830FC0933631F0933778
:1022400079F0933509F056C020C0F501808189836B
:1022500042E050E0A40EB51E610101E010E012C0A2
:10226000F501C080D180F6FC03C06FEF7FEF02C0A4
:10227000692D70E042E050E0A40EB51EC6010E9438
:102280007A128C015FE7F52214C0F501C080D1807D
:10229000F6FC03C06FEF7FEF02C0692D70E042E0F3
:1022A00050E0A40EB51EC6010E946F128C0150E8CA
:1022B000F52AF3FE07C01AC080E290E0B3010E9445
:1022C0008512EA948E2D90E008171907A8F30EC026
:1022D000F601F7FC8591F7FE81916F0190E0B30163
:1022E0000E948512E110EA94015010400115110579
:1022F00079F7EAC0943611F0993669F5F7FE08C00F
:10230000F501208131814281538184E090E00AC04F
:10231000F501808191819C01442737FD4095542F20
:1023200082E090E0A80EB91E9FE6F92257FF09C08F
:1023300050954095309521953F4F4F4F5F4FE0E8C6
:10234000FE2ACA01B901A1012AE030E00E94B112BF
:10235000D82ED21840C0953729F41F2D1F7E2AE0B1
:1023600030E01DC01F2D197F9F3661F0903720F49B
:10237000983509F0ACC00FC0903739F0983709F0A4
:10238000A6C004C028E030E00AC0106114FD14604B
:1023900020E130E004C014FD166020E132E017FFB8
:1023A00008C0F501608171818281938144E050E031
:1023B00008C0F50180819181BC0180E090E042E09D
:1023C00050E0A40EB51EA1010E94B112D82ED21861
:1023D0008FE7F82EF122F6FE0BC05EEFF522D9143E
:1023E00038F4F4FE07C0F2FC05C08FEEF82202C0FC
:1023F0001D2D01C0192DF4FE0DC0FE01ED0DF11DC6
:102400008081803319F499EEF92208C01F5FF2FE33
:1024100005C003C08F2D867809F01F5F0F2DF3FCD8
:1024200014C0F0FE0FC01E1510F09D2C0BC09D2C8B
:102430009E0C911A1E2D06C080E290E0B3010E940E
:1024400085121F5F1E15C0F304C01E1510F4E11A9B
:1024500001C0EE2404FF0FC080E390E0B3010E94AE
:10246000851202FF1DC001FD03C088E790E00EC089
:1024700088E590E00BC0802F867891F001FF02C0C4
:102480008BE201C080E2F7FC8DE290E0B3010E9494
:10249000851206C080E390E0B3010E9485129A94F1
:1024A000D914C0F3DA94F101ED0DF11D808190E0B3
:1024B000B3010E948512DD20A9F706C080E290E0FA
:1024C000B3010E948512EA94EE20C1F743CEF301D6
:1024D00066817781CB012B96E2E10C9449C6FC0121
:1024E0000590615070400110D8F7809590958E0F3F
:1024F0009F1F0895FC016150704001900110D8F7B2
:10250000809590958E0F9F1F08950F931F93CF93E3
:10251000DF938C01EB018B8181FF1BC082FF0DC01B
:102520002E813F818C819D812817390764F4E881D1
:10253000F9810193F983E88306C0E885F985802F46
:102540001995892B31F48E819F8101969F838E830B
:1025500002C00FEF1FEFC801DF91CF911F910F91C4
:102560000895FA01AA27283051F1203181F1E89429
:102570006F936E7F6E5F7F4F8F4F9F4FAF4FB1E076
:102580003ED0B4E03CD0670F781F891F9A1FA11D71
:10259000680F791F8A1F911DA11D6A0F711D811D72
:1025A000911DA11D20D009F468943F912AE0269F37
:1025B00011243019305D3193DEF6CF010895462F96
:1025C0004770405D4193B3E00FD0C9F7F6CF462F77
:1025D0004F70405D4A3318F0495D31FD40524193E0
:1025E00002D0A9F7EACFB4E0A6959795879577959D
:1025F0006795BA95C9F700976105710508959B0124
:10260000AC010A2E06945795479537952795BA95AC
:10261000C9F7620F731F841F951FA01D08951F9295
:102620000F920FB60F9211242F933F938F939F9386
:10263000AF93BF938091920490919304A0919404DE
:10264000B0919504309196040196A11DB11D232FE0
:102650002D5F2D3720F02D570196A11DB11D209320
:1026600096048093920490939304A0939404B0935F
:10267000950480918E0490918F04A0919004B09164
:1026800091040196A11DB11D80938E0490938F0437
:10269000A0939004B0939104BF91AF919F918F91BB
:1026A0003F912F910F900FBE0F901F9018958FB7ED
:1026B000F8942091920430919304409194045091A5
:1026C00095048FBFB901CA0108959B01AC017FB782
:1026D000F89480918E0490918F04A0919004B09111
:1026E000910466B5A89B05C06F3F19F00196A11D26
:1026F000B11D7FBFBA2FA92F982F8827860F911D54
:10270000A11DB11D62E0880F991FAA1FBB1F6A950A
:10271000D1F7BC012DC0FFB7F89480918E04909141
:102720008F04A0919004B0919104E6B5A89B05C0D8
:10273000EF3F19F00196A11DB11DFFBFBA2FA92FC0
:10274000982F88278E0F911DA11DB11DE2E0880FE3
:10275000991FAA1FBB1FEA95D1F7861B970B885EAE
:102760009340C8F2215030404040504068517C4F67
:10277000211531054105510571F60895019739F08C
:10278000880F991F880F991F02970197F1F70895F5
:10279000789484B5826084BD84B5816084BD85B53C
:1027A000826085BD85B5816085BDEEE6F0E0808103
:1027B00081608083E1E8F0E0108280818260808324
:1027C000808181608083E0E8F0E0808181608083A7
:1027D000E1EBF0E0808184608083E0EBF0E08081D9
:1027E00081608083E1E9F0E0808182608083808184
:1027F00081608083E0E9F0E0808181608083E1EAAC
:10280000F0E0808182608083808181608083E0EA63
:10281000F0E0808181608083E1E2F1E0808182608C
:102820008083808181608083E0E2F1E0808181604B
:102830008083EAE7F0E08081846080838081826029
:102840008083808181608083808180688083109212
:10285000C10008951F93CF93DF93182FEB0161E020
:102860000E940A15209709F4CAC0CF3FD10509F488
:10287000C9C0E12FF0E0E75FFD4F8491893009F492
:1028800066C08A30B0F48430F1F1853040F4823093
:1028900059F1833070F5813009F0AEC020C0873027
:1028A00009F443C0883008F048C0863009F0A4C05D
:1028B00034C08D3009F478C08E3038F48B3009F490
:1028C0005AC08C3008F066C04CC0803109F480C01A
:1028D000813109F487C08F3009F08EC06FC084B594
:1028E000806884BDC7BD92C084B5806284BDC8BD08
:1028F0008DC080918000806880938000D093890093
:10290000C093880083C080918000806280938000A3
:10291000D0938B00C0938A0079C08091B00080680A
:102920008093B000C093B30071C08091B00080620A
:102930008093B000C093B40069C08091900080681B
:1029400080939000D0939900C09398005FC08091CD
:102950009000806280939000D0939B00C0939A0077
:1029600055C080919000886080939000D0939D0026
:10297000C0939C004BC08091A00080688093A00011
:102980008091A0008F7B8093A000D093A900C0937A
:10299000A8003CC08091A00080628093A000D093EA
:1029A000AB00C093AA0032C08091A00088608093E1
:1029B000A000D093AD00C093AC0028C0809120014E
:1029C000806880932001D0932901C09328011EC004
:1029D00080912001806280932001D0932B01C093CD
:1029E0002A0114C080912001886080932001D09337
:1029F0002D01C0932C010AC0C038D1051CF4812FD1
:102A000060E002C0812F61E00E94BD15DF91CF918F
:102A10001F910895CF93DF93482F50E0CA018D5343
:102A20009E4FFC01349143585E4FFA0184918823F4
:102A300069F190E0880F991FFC01E15DFE4FA591BF
:102A4000B491FC01E75BFE4FC591D491662351F42C
:102A50002FB7F8948C91932F909589238C9388812C
:102A600089230BC0623061F42FB7F8948C91932FB7
:102A7000909589238C938881832B88832FBF06C0F0
:102A80009FB7F8948C91832B8C939FBFDF91CF914C
:102A90000895893009F449C08A30A0F4843051F196
:102AA000853040F4823079F1833000F5813009F0CF
:102AB00063C026C0873079F1883098F5863009F0F8
:102AC0005BC025C08D3009F442C08E3028F48B30B5
:102AD000B1F18C30C0F52DC0803109F442C0813194
:102AE00009F445C08F3009F047C037C0809180009D
:102AF0008F7703C0809180008F7D80938000089540
:102B000084B58F7702C084B58F7D84BD0895809190
:102B1000B0008F7703C08091B0008F7D8093B000AC
:102B20000895809190008F7707C0809190008F7DED
:102B300003C080919000877F8093900008958091DA
:102B4000A0008F7707C08091A0008F7D03C0809187
:102B5000A000877F8093A0000895809120018F7747
:102B600003C0809120018F7D809320010895809182
:102B70002001877F809320010895FF920F931F9378
:102B8000F62E482F50E0CA01875F9D4FFC0124912B
:102B9000CA018D539E4FFC01149143585E4FFA01B8
:102BA00004910023C9F0222319F0822F0E944915B5
:102BB000E02FF0E0EE0FFF1FE75BFE4FA591B49111
:102BC0009FB7F894FF2021F48C911095812302C0C7
:102BD0008C91812B8C939FBF1F910F91FF90089533
:102BE0001F920F920FB60F920BB60F9211242F93D4
:102BF0003F934F935F936F937F938F939F93AF9385
:102C0000BF93EF93FF9380919B0490919C04892B39
:102C100029F0E0919B04F0919C041995FF91EF91AC
:102C2000BF91AF919F918F917F916F915F914F91E4
:102C30003F912F910F900BBE0F900FBE0F901F90E2
:102C400018951F920F920FB60F920BB60F92112488
:102C50002F933F934F935F936F937F938F939F93A4
:102C6000AF93BF93EF93FF9380919D0490919E0447
:102C7000892B29F0E0919D04F0919E041995FF9114
:102C8000EF91BF91AF919F918F917F916F915F91E4
:102C90004F913F912F910F900BBE0F900FBE0F9051
:102CA0001F9018951F920F920FB60F920BB60F92AE
:102CB00011242F933F934F935F936F937F938F9341
:102CC0009F93AF93BF93EF93FF9380919F04909155
:102CD000A004892B29F0E0919F04F091A00419959C
:102CE000FF91EF91BF91AF919F918F917F916F91E4
:102CF0005F914F913F912F910F900BBE0F900FBEA0
:102D00000F901F9018951F920F920FB60F920BB64F
:102D10000F9211242F933F934F935F936F937F9361
:102D20008F939F93AF93BF93EF93FF938091A104F1
:102D30009091A204892B29F0E091A104F091A204C2
:102D40001995FF91EF91BF91AF919F918F917F91D5
:102D50006F915F914F913F912F910F900BBE0F900C
:102D60000FBE0F901F9018951F920F920FB60F92E3
:102D70000BB60F9211242F933F934F935F936F9352
:102D80007F938F939F93AF93BF93EF93FF93809124
:102D9000970490919804892B29F0E0919704F09181
:102DA00098041995FF91EF91BF91AF919F918F91E9
:102DB0007F916F915F914F913F912F910F900BBE3B
:102DC0000F900FBE0F901F9018951F920F920FB685
:102DD0000F920BB60F9211242F933F934F935F9353
:102DE0006F937F938F939F93AF93BF93EF93FF93D3
:102DF0008091990490919A04892B29F0E09199048B
:102E0000F0919A041995FF91EF91BF91AF919F9125
:102E10008F917F916F915F914F913F912F910F9083
:102E20000BBE0F900FBE0F901F9018951F920F9220
:102E30000FB60F920BB60F9211242F933F934F931F
:102E40005F936F937F938F939F93AF93BF93EF9312
:102E5000FF938091A3049091A404892B29F0E09121
:102E6000A304F091A4041995FF91EF91BF91AF9144
:102E70009F918F917F916F915F914F913F912F9192
:102E80000F900BBE0F900FBE0F901F9018951F92C2
:102E90000F920FB60F920BB60F9211242F933F9300
:102EA0004F935F936F937F938F939F93AF93BF9352
:102EB000EF93FF938091A5049091A604892B29F0AC
:102EC000E091A504F091A6041995FF91EF91BF91AF
:102ED000AF919F918F917F916F915F914F913F91B2
:102EE0002F910F900BBE0F900FBE0F901F90189553
:102EF000CF92DF92EF92FF920F931F93CF93DF93C6
:102F00007C016B018A01C0E0D0E00FC0D6016D9159
:102F10006D01D701ED91FC910190F081E02DC70189
:102F20001995C80FD91F015010400115110571F7EF
:102F3000CE01DF91CF911F910F91FF90EF90DF9025
:102F4000CF900895DC01ED91FC910190F081E02D8E
:102F500019950895CF93DF93EC016115710519F46C
:102F600020E030E00FC0DB010D900020E9F7119761
:102F7000A61BB70BE881F9810280F381E02DAD013A
:102F800019959C01C901DF91CF9108950E94AA175C
:102F9000089508958091F005089567707070E82F86
:102FA000F0E0E75FFD4F84918B3028F48830A0F487
:102FB000863090F106C08E30D0F08F50833060F5AF
:102FC00021C08091B100887F8093B1008091B100D1
:102FD000862B8093B100089580919100887F809323
:102FE000910080919100862B8093910008958091AB
:102FF000A100887F8093A1008091A100862B8093FF
:10300000A100089580912101887F80932101809102
:103010002101862B8093210108958130910549F487
:103020006F5F7F4F09F052C087EA94E00E94C57637
:103030000895892B09F04AC06F5F7F4F09F046C0A1
:1030400083E094E0909377058093760580917D05E9
:10305000882321F08AE795E00E94B13E83E094E066
:10306000909335058093340580913B05882321F0AA
:1030700088E395E00E94B13E83E094E090931605CA
:103080008093150580911C05882321F089E195E046
:103090000E94B13E83E094E09093F7048093F6049D
:1030A0008091FD04882321F08AEF94E00E94B13ED4
:1030B00083E094E09093D6048093D5048091DC045F
:1030C000882321F089ED94E00E94B13E089580E0CC
:1030D00090E06FEF7FEF0E940D18089581E090E07F
:1030E0006FEF7FEF0E940D1808950E94D2698091C2
:1030F000F005882309F03AC081E08093F0058091C3
:10310000F2059091F305A091F405B091F505809337
:10311000F6059093F705A093F805B093F905E5E55A
:10312000F2E0949108C08091C00085FFFCCF90939D
:10313000C600319694919923B1F7E6E6F2E09491B6
:1031400008C08091C00085FFFCCF9093C6003196E7
:1031500094919923B1F78091C00085FFFCCF8AE05C
:103160008093C6008CE592E00E9469BC0895F894B3
:103170000E94D269159A179A429AA09A8FB7F8942A
:1031800090910B01926090930B018FBF8CE060E0F7
:103190000E940A15E5E5F2E0949108C08091C00014
:1031A00085FFFCCF9093C600319694919923B1F797
:1031B000E5EEF2E0949108C08091C00085FFFCCF5D
:1031C0009093C600319694919923B1F78091C000F5
:1031D00085FFFCCF8AE08093C6008CED92E00E94D0
:1031E00078BC809A8898FFCF0E9457136093FA05A5
:1031F0007093FB058093FC059093FD05E0912306F9
:10320000F0912406EB5DF94F80818823A9F4E4E076
:10321000F3E0949108C08091C00085FFFCCF9093AB
:10322000C600319694919923B1F78091C00085FF33
:10323000FCCF8AE08093C6000895EF92FF920F932F
:103240001F930E945713E090FE05F090FF05009138
:103250000006109101062091FA053091FB0540917E
:10326000FC055091FD05621B730B840B950BE61654
:10327000F7060807190738F4E114F10401051105F0
:1032800011F00E94B71880917C0390917D03A0916A
:103290007E03B0917F030097A105B10569F10E94FB
:1032A00057132091FA053091FB054091FC05509190
:1032B000FD05621B730B840B950B20917C033091F1
:1032C0007D0340917E0350917F03261737074807FF
:1032D000590790F490918D0F80918E0F981761F49B
:1032E000159A179A429AA09A9FB7F89480910B0169
:1032F000826080930B019FBF0E9461511F910F91CB
:10330000FF90EF9008956F927F928F929F92AF926D
:10331000BF92CF92DF92EF92FF920F931F93F82EFE
:103320006091020670910306809104069091050653
:103330002091060630910706409108065091090633
:103340000E94FAC33B014C0100D000D00DB71EB75C
:103350000F5F1F4F60916C0370916D03882777FD9D
:103360008095982F0E9481C2209180033091810323
:1033700040918203509183030E94BFC420E030E05B
:1033800040E752E40E94E6C120E030E048EC52E41D
:103390000E94E6C15B016C01F80160827182828249
:1033A0009382F4828091E50585838DEA95E06EE055
:1033B00076E042E056E020E001E032E0E32E0E94B9
:1033C000924B80910E0690910F06A0911006B0913D
:1033D00011068093AD059093AE05A093AF05B09311
:1033E000B0058091120690911306A0911406B09139
:1033F00015068093B1059093B205A093B305B093E1
:10340000B4058091160690911706A0911806B09108
:1034100019068093B5059093B605A093B705B093B0
:10342000B80580911A0690911B06A0911C06B091D8
:103430001D068093B9059093BA05A093BB05B09380
:10344000BC058DB79EB706960FB6F8949EBF0FBE0B
:103450008DBF0E9457136093FA057093FB0580930C
:10346000FC059093FD051F910F91FF90EF90DF9069
:10347000CF90BF90AF909F908F907F906F90089566
:10348000CF92DF92EF92FF920F931F930E945713F8
:103490006093FA057093FB058093FC059093FD05FE
:1034A0006091AD057091AE058091AF059091B0052A
:1034B00020910E0630910F06409110065091110692
:1034C0000E94DFC1882309F07AC06091B105709134
:1034D000B2058091B3059091B40520911206309108
:1034E000130640911406509115060E94DFC18823EF
:1034F00009F065C06091800370918103809182031F
:103500009091830320E030E040E752E40E94E6C15E
:103510007B018C018EE096E062E176E046E156E0C8
:103520002AE136E0E5EECE2EE5E0DE2E0E944E5496
:1035300080910E0690910F06A0911006B091110691
:103540008093AD059093AE05A093AF05B093B00501
:103550008091120690911306A0911406B091150661
:103560008093B1059093B205A093B305B093B405D1
:103570008091160690911706A0911806B091190631
:103580008093B5059093B605A093B705B093B805A1
:1035900080911A0690911B06A0911C06B0911D0601
:1035A0008093B9059093BA05A093BB05B093BC0571
:1035B0001F910F91FF90EF90DF90CF900895609151
:1035C0006C0370916D03882777FD8095982F0E947A
:1035D00081C22091800330918103409182035091F8
:1035E00083030E94BFC420E030E040E752E40E9421
:1035F000E6C120E030E048EC52E488CF8FE398E069
:103600000E94C338E7E0F3E0949108C08091C000C5
:1036100085FFFCCF9093C600319694919923B1F722
:103620004091F2055091F3056091F4057091F50514
:103630004F5F5F4F6F4F7F4F8FE398E02AE030E09E
:103640000E9484398091C00085FFFCCF8AE080937E
:10365000C6000E94F41808952F923F924F925F92F5
:103660006F927F928F929F92AF92BF92CF92DF9292
:10367000EF92FF920F931F93DF93CF9300D000D070
:10368000CDB7DEB78C018330910508F051C13C0104
:10369000660C771C660C771C930123553A4F3A83CE
:1036A000298380E090E0A0E0B0E0F901808391837D
:1036B000A283B3838DEA95E061EB75E045EB55E0BD
:1036C00029EB35E00E94394FF301EC5FFA4F659129
:1036D000759185919491045E1A4FF801E4909301DD
:1036E000225F394F3E832D8320E030E040EC5FE3E2
:1036F0000E94BFC45B016C01FF24E7FCF0940F2D16
:103700001F2DC801B7010E9481C21B012C01C601F7
:10371000B501A20191010E94BFC4AD81BE816D932C
:103720007D938D939C931397F301E45AFC4FFC8394
:10373000EB836081718182819381609380037093B8
:103740008103809382039093830320E030E040E77D
:1037500052E40E94E6C17B018C018EE096E062E1BA
:1037600076E046E156E02AE136E0A5EECA2EA5E075
:10377000DA2E0E944E540E94B76180E090E0A0E0F3
:10378000B0E0E981FA8180839183A283B3838DEADB
:1037900095E061EB75E045EB55E029EB35E00E94E3
:1037A000394FF301E05FFA4F85909590A590B49062
:1037B000C501B4019058A20191010E94BFC4AD811E
:1037C000BE816D937D938D939C931397609180033D
:1037D00070918103809182039091830320E030E017
:1037E00040E752E40E94E6C17B018C018EE096E046
:1037F00062E176E046E156E02AE136E00E944E546E
:103800000E94B761C501B401A50194010E9406C1DF
:10381000A20191010E94BFC4ED81FE81608371838A
:1038200082839383AB81BC816D917D918D919C91BD
:1038300020E030E040E05FE30E94BFC4609380037B
:1038400070938103809382039093830320E030E0A0
:1038500040E752E40E94E6C17B018C018EE096E0D5
:1038600062E176E046E156E02AE136E00E944E54FD
:103870000E94B761F301E052FB4F6591759185910C
:103880009491F301E354FA4FA080B180C280D380B9
:10389000A60195010E9406C17B018C01CB01D801D4
:1038A000E981FA8180839183A283B383F301E45198
:1038B000FB4F6591759185919491F9EC8F2EF5E010
:1038C0009F2E860C971CA60195010E9406C1D4016B
:1038D0006D937D938D939C931397F301E850FB4F69
:1038E0006591759185919491E0E7F3E06E0E7F1EEE
:1038F000A60195010E9406C1D3016D937D938D931E
:103900009C931397C701D801ED81FE818083918339
:10391000A283B38380E090E0A0E0B0E080938003D6
:1039200090938103A0938203B09383030E94A360CA
:1039300026960FB6F894DEBF0FBECDBFCF91DF91B4
:103940001F910F91FF90EF90DF90CF90BF90AF90BD
:103950009F908F907F906F905F904F903F902F90AF
:103960000895682F209123063091240680E690E088
:10397000AC01249FC001259F900D349F900D112410
:10398000815D994F70E00E943F109C0190932E063C
:1039900080932D0680E0232B09F081E00895FC013F
:1039A000949108C08091C00085FFFCCF9093C60021
:1039B000319694919923B1F78FE398E022E030E0BB
:1039C0000E94943A0895FC01949108C08091C0002F
:1039D00085FFFCCF9093C600319694919923B1F75F
:1039E0008FE398E022E030E00E94943A0895FC01D1
:1039F000949108C08091C00085FFFCCF9093C600D1
:103A0000319694919923B1F78FE398E02AE030E062
:103A10000E946539089580912D0690912E06019699
:103A200060E070E04AE050E00E94A70E08958091A7
:103A30002D0690912E06019660E070E00E94470DE1
:103A40000895CF93DF93EC018091E5058093F10514
:103A500084E50E94B11C882309F46FC00E94171DE1
:103A60000E9453C2262F6093F105623008F465C0AE
:103A7000EFE4F2E0949108C08091C00085FFFCCF94
:103A80009093C600319694919923B1F7C936D10528
:103A900099F0CA36D10524F4C836D105F1F50FC026
:103AA000CD36D10531F0CA3DD105B9F5E0E0F2E0FF
:103AB00031C0E7E1F2E023C0EEE2F2E015C0E5E458
:103AC000F2E007C08091C00085FFFCCF3196909353
:103AD000C60090819923B1F720C08091C00085FF76
:103AE000FCCF31969093C60090819923B1F715C011
:103AF0008091C00085FFFCCF31969093C6009081E5
:103B00009923B1F70AC08091C00085FFFCCF3196A0
:103B10009093C60090819923B1F78FE398E0622FCC
:103B200040E050E00E9472398091C00085FFFCCFD8
:103B30008AE08093C60081E001C080E0DF91CF91F0
:103B40000895AF92BF92CF92DF92EF92FF920F93C0
:103B50001F93CF93DF931DEAE12E15E0F12ECEE007
:103B6000D6E000E010E0F801E554FC4F80810E94AF
:103B7000B11C882339F10E94171D5B016C01F8010B
:103B8000E955FA4F8081882311F061E002C060910D
:103B90001E0670E0882777FD8095982F0E9481C2CD
:103BA000F70120813181428153810E94BFC49B0172
:103BB000AC01C601B5010E9406C1688379838A837E
:103BC0009B8309C0F70180819181A281B3818883A1
:103BD0009983AA83BB830F5F1F4F84E090E0E80EB8
:103BE000F91E24960430110509F0BDCF86E40E9429
:103BF000B11C8823E1F00E94171D7B018C016093AA
:103C00001F0670932006809321069093220620E0E1
:103C100030E040E050E00E94EDC3181644F4E0921A
:103C20008003F09281030093820310938303DF915A
:103C3000CF911F910F91FF90EF90DF90CF90BF90A9
:103C4000AF9008950E94A11D89E40E94B11C8823B1
:103C500059F00E94171D609302067093030680932B
:103C60000406909305060CC080E090E0A0E0B0E070
:103C70008093020690930306A0930406B093050672
:103C80008AE40E94B11C882359F00E94171D60939A
:103C90000606709307068093080690930906089518
:103CA00080E090E0A0E0B0E08093060690930706E5
:103CB000A0930806B093090608952F923F924F9261
:103CC0005F926F927F928F929F92AF92BF92CF92AC
:103CD000DF92EF92FF920F931F93DF93CF93CDB7B5
:103CE000DEB76E970FB6F894DEBF0FBECDBF87E488
:103CF0000E94B11C882309F492C30E94171D0E94E0
:103D00004EC26430710509F441C06530710554F448
:103D10006230710541F1633071056CF57723CCF4A5
:103D20000C949C306A35710509F424C36B35710518
:103D300034F46C31710511F00C949C306FC06B350C
:103D4000710509F41BC36C35710511F00C949C309E
:103D50001AC38091F005882331F40E94A11D0E94AE
:103D6000401A0C94C1308091F005882321F40E9400
:103D7000221E81E007C08091F005882339F40E945B
:103D8000221E80E00E9483190C94C13087ED94E0DC
:103D90000E9469BC80E50E94B11C882321F4EE24B6
:103DA000FF24870106C00E94171D0E9453C27B0199
:103DB0008C0183E50E94B11C882361F00E94171DCD
:103DC00020E030E04AE754E40E94BFC40E9453C29E
:103DD0007B018C010E94B7610E9457135B016C014B
:103DE000AE0CBF1CC01ED11E0E9457136093FA0573
:103DF0007093FB058093FC059093FD0506C00E941F
:103E0000AC6E0E941D190E9443BD0E9457136A1593
:103E10007B058C059D0598F30C949C308091800364
:103E200090918103A0918203B0918303809329062E
:103E300090932A06A0932B06B0932C0680916C03D6
:103E400090916D039093AC058093AB0584E690E070
:103E500090936D0380936C030E9457136093FA054F
:103E60007093FB058093FC059093FD0581E00E9413
:103E7000AA608091AD059091AE05A091AF05B0917B
:103E8000B00580930E0690930F06A0931006B09392
:103E900011068091B1059091B205A091B305B09142
:103EA000B4058093120690931306A0931406B09362
:103EB00015068091B5059091B605A091B705B09112
:103EC000B8058093160690931706A0931806B09332
:103ED00019068091B9059091BA05A091BB05B091E2
:103EE000BC0580931A0690931B06A0931C06B09302
:103EF0001D0680E090E0A0E0B0E080938003909306
:103F00008103A0938203B093830388E50E94B11CD0
:103F1000882361F489E50E94B11C882339F48AE57D
:103F20000E94B11C882311F481E001C080E08093DD
:103F30008403882361F488E50E94B11C882309F476
:103F400062C189E50E94B11C882309F45CC180E04C
:103F500090E0A0E0B0E08093AD059093AE05A09313
:103F6000AF05B093B0058093B1059093B205A093CF
:103F7000B305B093B4058DEA95E061EB75E045EBD0
:103F800055E029EB35E00E94394F80E090ECA9E93B
:103F9000B3EC80930E0690930F06A0931006B09397
:103FA00011068093120690931306A0931406B09303
:103FB000150620915C0330915D0340915E035091A2
:103FC0005F032093800330938103409382035093D7
:103FD0008303E0906003F09061030091620310910D
:103FE0006303C801B7010E94DFC1882344F4E09253
:103FF0008003F09281030093820310938303609106
:10400000800370918103809182039091830320E06B
:1040100030E040E752E40E94E6C17B018C018EE073
:1040200096E062E176E046E156E02AE136E0B5EE60
:10403000CB2EB5E0DB2E0E944E540E94B761E0EE1D
:10404000F4E065917591859194912091BD05309131
:10405000BE054091BF055091C0050E9406C1609306
:10406000AD057093AE058093AF059093B005ECEE6F
:10407000F4E065917591859194912091BD05309101
:10408000BE054091BF055091C0050E9406C16093D6
:10409000C9057093CA058093CB059093CC05E8EFD2
:1040A000F4E065917591859194912091BD053091D1
:1040B000BE054091BF055091C0050E9406C16093A6
:1040C0007003709371038093720390937303E4EE13
:1040D000F4E065917591859194912091C10530919D
:1040E000C2054091C3055091C4050E9406C160936A
:1040F000B1057093B2058093B3059093B405E0EFDA
:10410000F4E065917591859194912091C10530916C
:10411000C2054091C3055091C4050E9406C1609339
:10412000CD057093CE058093CF059093D005ECEF2D
:10413000F4E065917591859194912091C10530913C
:10414000C2054091C3055091C4050E9406C1609309
:1041500074037093750380937603909377038DEACD
:1041600095E061EB75E045EB55E029EB35E00E9409
:10417000394F8091AD059091AE05A091AF05B091FA
:10418000B00580930E0690930F06A0931006B0938F
:1041900011068091B1059091B205A091B305B0913F
:1041A000B4058093120690931306A0931406B0935F
:1041B0001506609180037091810380918203909134
:1041C000830320E030E040E752E40E94E6C17B0137
:1041D0008C018EE096E062E176E046E156E02AE16D
:1041E00036E00E944E5480E090E0A0E0B0E0809382
:1041F000800390938103A0938203B09383030E9472
:10420000B7610E94A36080918403882329F488E524
:104210000E94B11C882321F080E090E00E942C1BBA
:1042200080918403882329F489E50E94B11C8823A6
:1042300021F081E090E00E942C1B80918403882370
:1042400029F48AE50E94B11C882321F082E090E0E5
:104250000E942C1B88E50E94B11C8823D9F00E9483
:104260000B1D6115710581059105A1F00E94171DB7
:104270002091BD053091BE054091BF055091C0050C
:104280000E9406C16093AD057093AE058093AF05A3
:104290009093B00589E50E94B11C8823D9F00E9453
:1042A0000B1D6115710581059105A1F00E94171D77
:1042B0002091C1053091C2054091C3055091C405BC
:1042C0000E9406C16093B1057093B2058093B30557
:1042D0009093B4058AE50E94B11C8823D9F00E940E
:1042E0000B1D6115710581059105A1F00E94171D37
:1042F0002091C5053091C6054091C7055091C8056C
:104300000E9406C16093B5057093B6058093B7050A
:104310009093B8058DEA95E061EB75E045EB55E0CB
:1043200029EB35E00E94394F8091290690912A06A9
:10433000A0912B06B0912C0680938003909381036B
:10434000A0938203B09383038091AB059091AC0559
:1043500090936D0380936C030E9457136093FA054A
:104360007093FB058093FC059093FD050E94A3606C
:104370000C949C3010921E060C949C3081E080932B
:104380001E060C949C3085E40E94B11C882311F415
:104390000E94B761ADEAEA2EA5E0FA2EFDEBCF2E22
:1043A000F5E0DF2E00E010E0F801E554FC4F8081DD
:1043B0000E94B11C882331F1033061F40E94171D63
:1043C000F701608371838283938389EB95E00E9478
:1043D0001B4F18C00E94171DF601208131814281B8
:1043E00053810E9406C1F7016083718382839383A6
:1043F0008DEA95E061EB75E045EB55E029EB35E0A2
:104400000E94394F0F5F1F4F24E030E0E20EF31E91
:10441000C20ED31E0430110539F60C949C308DE485
:104420000E94B11C882311F40C94462F0E94171D82
:104430000E944EC26B36710509F4F5C66C367105E3
:104440000CF084C06C31710509F427C26D3171051F
:10445000C4F56531710509F4C1C166317105BCF45B
:104460006131710509F47FC16231710534F4623044
:10447000710510F00C949C3017C16231710509F47C
:10448000E8C66431710511F00C949C307AC1683132
:10449000710509F4C7C16931710554F466317105BC
:1044A00009F4A2C16731710511F00C949C30A2C1CE
:1044B0006A31710509F4CCC16B3171050CF0E7C1AB
:1044C000C1C16335710509F4C0C664357105FCF4DA
:1044D0006A32710509F4E4C26B32710554F46E312D
:1044E000710509F416C26F31710511F00C949C30FE
:1044F00055C26135710509F4A0C6623571050CF02D
:10450000A1C66035710511F00C949C3092C66C35D3
:10451000710509F40DC76D35710554F464357105E5
:1045200009F497C66535710511F00C949C30EAC604
:104530006936710509F427C36A3671050CF042C665
:104540006836710511F00C949C30ECC26D3C71051D
:1045500011F40C94AA2C6E3C71050CF046C068371F
:10456000710511F40C94332B69377105DCF4633752
:10457000710509F462C76437710554F46D3671052D
:1045800009F4D3C36237710511F00C949C307AC7DB
:104590006537710509F460C76737710511F00C9430
:1045A0009C307EC06E3B710509F451C56F3B7105AF
:1045B0005CF46937710511F40C94352B6C38710576
:1045C00011F00C949C30CEC26B3C710511F40C942C
:1045D0006C2C6C3C710514F00C948A2C693C7105B0
:1045E00011F00C949C300C94322C31E06F32730734
:1045F00011F40C94E02E41E0603374073CF56C3DFF
:10460000710511F40C94D12D6D3D710564F46E3C6F
:10461000710511F40C94082D6A3D710511F00C948C
:104620009C300C94262D51E06D32750711F40C94DA
:10463000EF2D81E06E32780714F00C94DC2E6D3D86
:10464000710511F00C949C300C94E02D91E0653FC5
:10465000790711F40C94262FE1E0663F7E076CF495
:10466000F1E060397F0711F40C94202F645F7140F2
:1046700011F00C949C300C94232F31E0673F7307AA
:1046800011F40C942C2F41E0673F740714F40C9440
:10469000292F675E734011F00C949C300C942F2FDF
:1046A000ECE5F2E00C94402B86EC94E00E9469BCAF
:1046B00080E50E94B11C882321F4AA24BB24650153
:1046C00006C00E94171D0E9453C25B016C0183E566
:1046D0000E94B11C882361F00E94171D20E030E089
:1046E0004AE754E40E94BFC40E9453C25B016C01BC
:1046F0000E94B7610E9457136093FA057093FB05FF
:104700008093FC059093FD05A114B104C104D1046C
:1047100001F10E9457137B018C01EA0CFB1C0C1D5C
:104720001D1D0E9457136E157F0580079107A8F481
:1047300080919A1082FD11C00E94AC6E0E941D19DA
:104740000E9443BDEECF0E94AC6E0E941D190E94D4
:1047500043BD80919A1082FFF6CF87EB94E00E94D0
:1047600069BC0C949C308EEA94E00E9469BC159858
:1047700017984298A0989FB7F89480910B018D7F6D
:10478000BDC5EEE9F4E0949108C08091C00085FFBA
:10479000FCCF9093C600319694919923B1F7809104
:1047A000C00085FFFCCF8AE08093C60087EA94E0D2
:1047B0000E942F80E0E9F4E0949108C08091C0004D
:1047C00085FFFCCF9093C600319694919923B1F761
:1047D0008091C00085FFFCCF0C94993087EA94E06B
:1047E0000E94917B0C949C3087EA94E00E948F7524
:1047F0000C949C3080912D0690912E0604966AE2CE
:1048000070E00E943F10FC01009711F03197108278
:1048100060912D0670912E066C5F7F4F87EA94E0C1
:1048200041E073C087EA94E00E9493750E94571399
:104830006093E8057093E9058093EA059093EB0592
:104840000C949C3087EA94E00E949A750C949C30FA
:104850008091A904882311F40C949C3083E50E9474
:10486000B11C882311F40C949C300E940B1DAB01E9
:10487000BC0140939D0550939E0580939F057093C6
:10488000A0058AE795E00E94973D0C949C3087EA4A
:1048900094E00E94A2770C949C3080912D06909118
:1048A0002E0604966AE270E00E943F108C01009789
:1048B00019F1209123063091240680E690E0FC0156
:1048C0002E9FC0012F9F900D3E9F900D1124815D62
:1048D000994F6EE470E00E943F1060E270E00E9429
:1048E0003F109C012F5F3F4F30932E0620932D06E3
:1048F00001501040F801108260912D0670912E0633
:104900006C5F7F4F87EA94E040E00E946E790C94E0
:104910009C308091A904882311F40C949C3087EA80
:1049200094E00E94B07680912D0690912E06049618
:104930006AE270E00E943F108C01009719F120910B
:1049400023063091240680E690E0AC01249FC0014C
:10495000259F900D349F900D1124815D994F6EE439
:1049600070E00E943F1060E270E00E943F109C01E6
:104970002F5F3F4F30932E0620932D06015010409D
:10498000F801108260912D0670912E066C5F7F4FAA
:1049900087EA94E00E94FC770C949C300E945713A5
:1049A0006093EC057093ED058093EE059093EF0511
:1049B0002091E8053091E9054091EA055091EB0519
:1049C000621B730B840B950B28EE33E040E050E044
:1049D0000E94D7C5F22EE32ED42EC52E2DB73EB79A
:1049E000285030400FB6F8943EBF0FBE2DBF0DB714
:1049F0001EB70F5F1F4FCE010196EDB7FEB7928332
:104A0000818381E894E0F801938382836F2D7E2D6A
:104A1000842F952F2CE330E040E050E00E94D7C572
:104A2000F801358324836F2D7E2D8D2D9C2D2CE355
:104A300030E040E050E00E94D7C5F80177836683FC
:104A40000E946E10EFE4F2E094912DB73EB7285F1C
:104A50003F4F0FB6F8943EBF0FBE2DBF08C08091E8
:104A6000C00085FFFCCF9093C600319694919923A6
:104A7000B1F7FE01319607C08091C00085FFFCCFE1
:104A800031969093C60090819923B1F78091C00030
:104A900085FFFCCF8AE08093C600CE010196EFC46B
:104AA00083E50E94B11C882311F40C949C300E9471
:104AB000171D0E944EC27B018C016B0180E50E9494
:104AC000B11C882369F0F7FC0BC03FEFE316F1043B
:104AD00009F034F40E94171D0E944EC28B0102C0DF
:104AE0000DE010E0EFEBF3E08081918180179107FA
:104AF00011F40C949C30329644E0EF33F407A1F7A4
:104B000017FF02C00C949C30802F61E00E940A15B0
:104B1000802F6C2D0E94BD15802FB6010E942A1493
:104B20000C949C3088E690E00E94211D882311F0AF
:104B30000C949C3083E50E94B11C882379F00E947C
:104B4000171D2091F105022F10E0000F111F0351D6
:104B5000104F0E944EC2F801718360830E94E26B85
:104B60000C949C3083E50E94B11C882311F40C94B2
:104B70009C300E94171D0E944EC27093F20F6093EA
:104B8000F10F0C949C3089E690E00E94211D88234F
:104B900011F00C949C30EBE7F4E0949108C0809104
:104BA000C00085FFFCCF9093C60031969491992365
:104BB000B1F7E091F105F0E0EE0FFF1FEE0FFF1FE0
:104BC000E950F04F40815181628173818FE398E019
:104BD00021E030E00E94943AE8E7F4E0949108C0C4
:104BE0008091C00085FFFCCF9093C60031969491D0
:104BF0009923B1F7E091F105F0E0EE0FFF1FE351CB
:104C0000F04F60817181882777FD8095982F0E94F1
:104C100081C2AB01BC018FE398E021E030E00E944B
:104C2000943AE4E7F4E0949108C08091C00085FFD5
:104C3000FCCF9093C600319694919923B1F740919F
:104C400001105091021060910310709104108FE3D5
:104C500098E021E030E00E94943AE1E7F4E094919A
:104C600008C08091C00085FFFCCF9093C6003196AC
:104C700094919923B1F76091F10F7091F20F882709
:104C800077FD8095982F0E9481C2AB01BC018FE314
:104C900098E021E030E00E94943AEDE6F4E094914F
:104CA00008C08091C00085FFFCCF9093C60031966C
:104CB00094919923B1F78091F1050E94C769BC01D5
:104CC0008FE398E04AE050E00E94B939E8E6F4E06A
:104CD000949108C08091C00085FFFCCF9093C600DE
:104CE000319694919923B1F78FEF9FEF0E94C76996
:104CF000BC018FE398E04AE050E00E94B939E5E753
:104D0000F2E007C08091C00085FFFCCF3196909300
:104D1000C60090819923B1F78091C00085FFFCCF38
:104D20008AE08093C6000C94C1308DE690E00E942A
:104D3000211D882311F00C949C308DE594E00E9495
:104D400069BC83E50E94B11C882379F00E94171D7D
:104D50002091F105022F10E0000F111F0351104F99
:104D60000E944EC2F801718360830E94E26B0E9430
:104D700057134B015C012091F105022F10E07724BD
:104D8000000F111FF801E351F04F608171818827F6
:104D900077FD8095982F0E9481C2000F111F095046
:104DA000104FF80120813181428153810E94EDC36F
:104DB000181614F477247394CC24CA94DC2C76014E
:104DC000EAE5F4E04490E6E5F4E05490E2E5F4E04E
:104DD00064900AE0302E2EC1942DEAE5F4E008C07C
:104DE0008091C00085FFFCCF9093C60031969491CE
:104DF0009923B1F7E091F105F0E0EE0FFF1FEE0F00
:104E0000FF1FE950F04F40815181628173818FE330
:104E100098E021E030E00E94943A952DE6E5F4E038
:104E200008C08091C00085FFFCCF9093C6003196EA
:104E300094919923B1F76091F1058FE398E070E0C8
:104E40004AE050E00E94B939962DE2E5F4E008C04E
:104E50008091C00085FFFCCF9093C600319694915D
:104E60009923B1F7F7FE03C0E6E7F2E028C00E94FD
:104E70005713A70196012854344F4F4F5F4F261BFD
:104E8000370B480B590BCA01B90128EE33E040E05B
:104E900050E00E94D7C58FE398E0BA01A9012AE04B
:104EA00030E00E9465398091C00085FFFCCF0EC0C4
:104EB0008091C00085FFFCCF31969093C600908111
:104EC0009923B1F78091C00085FFFCCF3092C600D6
:104ED0000E9457134B015C010E94AC6E0E941D1989
:104EE0000E9443BDFFEFCF16FFEFDF06FFEFEF0697
:104EF000FFEFFF0609F050C0E091F105772031F196
:104F0000F0E08F01000F111F000F111F0950104F0B
:104F1000EE0FFF1FE351F04F60817181882777FD0D
:104F20008095982F0E9481C220E030E040E85FE346
:104F30000E9405C19B01AC01F801608171818281F1
:104F400093810E94EDC387FF58C05EC0F0E08F01DF
:104F5000000F111F000F111F0950104FEE0FFF1F00
:104F6000E351F04F60817181882777FD8095982FFC
:104F70000E9481C220E030E040E85FE30E9406C169
:104F80009B01AC01F80160817181828193810E9453
:104F9000DFC1181694F538C0F7FC36C0E091F10572
:104FA000F0E08F01000F111F000F111F0950104F6B
:104FB000EE0FFF1FE351F04F60817181882777FD6D
:104FC0008095982F0E9481C29B01AC01F8016081FD
:104FD0007181828193810E9405C10E944EC297FF18
:104FE00007C090958095709561957F4F8F4F9F4F2B
:104FF00064307105810591053CF00E945713AC01A6
:10500000CB01DA016C017D01FFEFCF16FFEFDF0668
:10501000FFEFEF06FFEFFF0669F0F7FE02C00C940A
:105020009F300E9457136C197D09685B7B4010F01C
:105030000C949F300E945713681979098A099B09BB
:10504000695E73408040904008F0C6CE45CF87E34C
:1050500094E00E9469BC83E50E94B11C882341F062
:105060000E94171D0E944EC27093F20F6093F10FC1
:105070000E9457137B018C01E4E3F4E0B490E0E379
:10508000F4E0C490ECE2F4E0D4903AE0A32E7DC0CA
:105090000E9457136E197F09800B910B695E734054
:1050A0008040904008F46BC0E091E505F0E0EE0F21
:1050B000FF1FEE0FFF1FE950F04F408151816281C9
:1050C00073819B2DE4E3F4E008C08091C00085FF6C
:1050D000FCCF9093C600319694919923B1F78FE35A
:1050E00098E022E030E00E94943A9C2DE0E3F4E066
:1050F00008C08091C00085FFFCCF9093C600319618
:1051000094919923B1F76091E5058FE398E070E001
:105110004AE050E00E94B9399D2DECE2F4E008C06D
:105120008091C00085FFFCCF9093C600319694918A
:105130009923B1F740910110509102106091031032
:10514000709104108FE398E021E030E00E94943ADF
:10515000E5E7F2E007C08091C00085FFFCCF319603
:105160009093C60090819923B1F78091C00085FF8C
:10517000FCCFA092C6000E9457137B018C010E94B5
:10518000AC6E0E941D190E9443BD6091F10F709199
:10519000F20F882777FD8095982F0E9481C2209179
:1051A00001103091021040910310509104100E94A0
:1051B000EDC318160CF46CCF82E294E00E9469BC37
:1051C0000C94AD3083E50E94B11C882321F10E942C
:1051D000171D20E030E040E050E00E94DFC188234E
:1051E0001CF460E070E011C00E94171D20E030E068
:1051F0004FE753E40E94EDC318161CF46FEF70E004
:1052000004C00E94171D0E944EC27093E705609370
:10521000E6050C949C308FEF90E09093E705809327
:10522000E6050C949C301092E7051092E6050C946C
:105230009C30269A2E980C949C300E94B761809ADC
:1052400088987AC71092AA0577C781E08093AA054B
:1052500073C783E50E94B11C882399F00E94171D33
:1052600020E030E04AE754E40E94BFC40E9453C2E9
:1052700060937C0370937D0380937E0390937F0300
:105280005BC788E50E94B11C882309F071C789E5D6
:105290000E94B11C882309F06BC78AE50E94B11CEB
:1052A000882309F065C785E40E94B11C882309F0B2
:1052B0005FC70E94B761A09A9FB7F89480910B01D5
:1052C000826080930B019FBF0E94C56135C7159A0C
:1052D00089E50E94B11C8111179A8AE50E94B11CD0
:1052E0008111429A85E40E94B11C882309F424C7E5
:1052F000A09A9FB7F89480910B01826080930B0174
:105300009FBF1AC783E50E94B11C0E94171D20E0B1
:1053100030E04AE754E40E94BFC40E9453C2609345
:10532000FE057093FF05809300069093010604C765
:1053300091E6692E9AE0792E81E5282E8AE0382EB2
:105340000DE9402E0AE0502E88249924F401E554FA
:10535000FC4F80810E94B11C882309F45DC053E09A
:10536000851609F052C00E94171D5B016C0120E0F8
:1053700030E040EA51E40E94DFC188230CF03FC0D6
:10538000F3016081718182819381A60195010E9460
:10539000E6C17B018C016091950A7091960A80911B
:1053A000970A9091980AA80197010E94BFC4609340
:1053B000950A7093960A8093970A9093980AF10140
:1053C0006081718182819381A80197010E94BFC48D
:1053D000F1016083718382839383F2016081718123
:1053E000828193810E947FC2A80197010E94BFC45D
:1053F0000E9453C2F2016083718382839383F3011D
:10540000A082B182C282D38207C00E94171DF3011D
:1054100060837183828393830894811C911C24E0B0
:1054200030E0620E731E220E331E420E531E34E015
:105430008316910409F08ACF7FC6E2E8F3E09491E5
:1054400008C08091C00085FFFCCF9093C6003196C4
:1054500094919923B1F770C680912D0690912E06F4
:1054600005966AE270E00E943F10FC01009711F07F
:105470003197108280912D0690912E0605960E94FC
:105480008CBC5AC6EFE7F3E0949108C08091C0004D
:1054900085FFFCCF9093C600319694919923B1F784
:1054A0004091AD055091AE056091AF057091B0058A
:1054B0008FE398E022E030E00E94943AECE7F3E0DA
:1054C000949108C08091C00085FFFCCF9093C600E6
:1054D000319694919923B1F74091B1055091B2055D
:1054E0006091B3057091B4058FE398E022E030E05D
:1054F0000E94943AE9E7F3E0949108C08091C000DB
:1055000085FFFCCF9093C600319694919923B1F713
:105510004091B5055091B6056091B7057091B805F9
:105520008FE398E022E030E00E94943AE6E7F3E06F
:10553000949108C08091C00085FFFCCF9093C60075
:10554000319694919923B1F74091B9055091BA05DC
:105550006091BB057091BC058FE398E022E030E0DC
:105560000E94943AEBE6F3E0949108C08091C00069
:1055700085FFFCCF9093C600319694919923B1F7A3
:1055800080E00E9482610E9481C22091610A309174
:10559000620A4091630A5091640A0E94E6C1AB011D
:1055A000BC018FE398E022E030E00E94943AE8E604
:1055B000F3E0949108C08091C00085FFFCCF9093E8
:1055C000C600319694919923B1F781E00E948261DF
:1055D0000E9481C22091650A3091660A4091670A53
:1055E0005091680A0E94E6C1AB01BC018FE398E0CC
:1055F00022E030E00E94943AE5E6F3E0949108C09E
:105600008091C00085FFFCCF9093C60031969491A5
:105610009923B1F782E00E9482610E9481C22091A9
:10562000690A30916A0A40916B0A50916C0A0E9493
:10563000E6C1AB01BC018FE398E022E030E00E94BC
:10564000943AE5E7F2E007C08091C00085FFFCCF07
:1056500031969093C60090819923B1F78091C00054
:1056600085FFFCCF66C580E001C081E00E94AA6092
:1056700063C58091C00085FFFCCF31969093C60032
:1056800090819923B1F78091C00085FFFCCF8AE01B
:105690008093C600EDE5F3E0949108C08091C000CE
:1056A00085FFFCCF9093C600319694919923B1F772
:1056B000009B03C0E8E7F2E00AC0EDE7F2E007C0B4
:1056C0008091C00085FFFCCF31969093C6009081F9
:1056D0009923B1F78091C00085FFFCCF8AE08093C9
:1056E000C600E5E5F3E0949108C08091C00085FF15
:1056F000FCCF9093C600319694919923B1F7029B09
:1057000003C0E8E7F2E00AC0EDE7F2E007C08091ED
:10571000C00085FFFCCF31969093C60090819923FD
:10572000B1F78091C00085FFFCCF8AE08093C6006E
:10573000EDE4F3E0949108C08091C00085FFFCCFB8
:105740009093C600319694919923B1F7049B03C0BE
:10575000E8E7F2E00AC0EDE7F2E007C08091C000A0
:1057600085FFFCCF31969093C60090819923B1F7C5
:105770008091C00085FFFCCF8AE08093C600E5E4FD
:10578000F3E0949108C08091C00085FFFCCF909316
:10579000C600319694919923B1F7069B03C0E8E7C0
:1057A000F2E00AC0EDE7F2E007C08091C00085FF9B
:1057B000FCCF31969093C60090819923B1F78091E8
:1057C000C00085FFFCCF8AE08093C600EDE3F3E0E4
:1057D000949108C08091C00085FFFCCF9093C600D3
:1057E000319694919923B1F7379B03C0E8E7F2E033
:1057F0000AC0EDE7F2E007C08091C00085FFFCCF52
:1058000031969093C60090819923B1F78091C000A2
:1058100085FFFCCF8AE08093C600E5E3F3E0949136
:1058200008C08091C00085FFFCCF9093C6003196E0
:1058300094919923B1F7359B03C0E8E7F2E00AC0E1
:10584000EDE7F2E007C08091C00085FFFCCF319604
:105850009093C60090819923B1F78091C00085FF95
:10586000FCCF67C41BEBC12E13E0D12EEE24FF2426
:10587000F60180810E94B11C882309F10E94171D46
:1058800087010F58154F0E9453C2F801608371833E
:10589000828393830E94171D87010356154FF701DA
:1058A000EF59F54F20813181428153810E94BFC45D
:1058B0000E9453C2F80160837183828393830894AA
:1058C000C11CD11C24E030E0E20EF31E3FEBC316F6
:1058D00033E0D30669F630C40BEB13E0B1E5EB2EF1
:1058E000BAE0FB2EF80180810E94B11C882339F0B8
:1058F0000E94171DF70160837183828393830F5F7A
:105900001F4F24E030E0E20EF31E33E00F3B13079D
:1059100049F712C483E50E94B11C882351F00E940C
:10592000171D6093850A7093860A8093870A909367
:10593000880A84E50E94B11C882309F4FDC30E94F3
:10594000171D6093890A70938A0A80938B0A90933B
:105950008C0AF2C383E50E94B11C882351F00E9497
:10596000171D6093810A7093820A8093830A909333
:10597000840A84E50E94B11C882351F00E94171DFF
:105980006093990A70939A0A80939B0A90939C0A59
:1059900082E40E94B11C882361F00E94171D0E94BE
:1059A00053C260934D0A70934E0A80934F0A9093AE
:1059B000500A88E50E94B11C882351F00E94171DEF
:1059C00060938D0A70938E0A80938F0A9093900A49
:1059D0008AE50E94B11C882351F00E94171D609334
:1059E000910A7093920A8093930A9093940A85E4A3
:1059F0000E94B11C882309F49FC30E94171D609365
:105A0000950A7093960A8093970A9093980A94C384
:105A10000BEB13E0ADEBEA2EA5E0FA2EF801808146
:105A20000E94B11C882339F00E94171DF701608382
:105A30007183828393830F5F1F4F24E030E0E20E77
:105A4000F31E33E00E3B130749F776C38AED90E06F
:105A50000E94211D882309F06FC388E50E94B11CB4
:105A6000882389F08091F105082F10E00E94171D0E
:105A7000000F111F000F111F0B521A4FF801608306
:105A800071838283938389E50E94B11C882389F006
:105A90008091F105082F10E00E94171D000F111FC3
:105AA000000F111F03521A4FF80160837183828324
:105AB0009383EFE4F2E0949108C08091C00085FFE9
:105AC000FCCF9093C600319694919923B1F7E5E20B
:105AD000F3E0949108C08091C00085FFFCCF9093C3
