:100000000C949A0E0C94A2170C94D3170C94041809
:100010000C9435180C9466180C9497180C94C81806
:100020000C94F9180C94C70E0C94C70E0C94C70EC0
:100030000C94C70E0C94AF970C94C70E0C94C70E7B
:100040000C94C70E0C94A16B0C94C70E0C94C70EA5
:100050000C94C70E0C94C70E0C9448750C94911414
:100060000C94C70E0C9498410C94C70E0C94C70EB8
:100070000C94C70E0C94C70E0C94C70E0C94C70EAC
:100080000C94C70E0C94C70E0C94C70E0C94C70E9C
:100090000C94C70E0C94C70E0C94C70E0C94C70E8C
:1000A0000C94C70E0C94C70E0C94C70E0C94C70E7C
:1000B0000C94C70E0C94C70E0C94C70E0C94C70E6C
:1000C0000C94C70E0C94C70E0C94C70E0C94C70E5C
:1000D0000C94C70E0C94C70E0C94C70E0C94C70E4C
:1000E0000C94C70E084AD73B3BCE016E84BCBFFDC3
:1000F000C12F3D6C74319ABD56833DDA3D00C77FF8
:1001000011BED9E4BB4C3E916BAAAABE0000008090
:100110003F05A84CCDB2D44EB93836A9020C50B91F
:10012000918688083CA6AAAA2ABE000000803F004B
:10013000002100240027002A002D00300033000198
:10014000010000040107010A010000220025002827
:10015000002B002E003100340002010000050108D0
:10016000010B01000020002300260029002C002F95
:100170000032000001000003010601090105050528
:1001800005070508080808020202020A0A0808040E
:10019000040404010101010101010103030303033C
:1001A000030303040707070C0C0C0C0C0C0C0C02CB
:1001B00002020206060606060606060B0B0B0B0BD2
:1001C0000B0B0B01021020200808102040102040CB
:1001D000800201020108040201010204081020400B
:1001E0008080402010080402018004020180402029
:1001F0001008040201080402010102040810204052
:100200008001020408102040800000090A02080B47
:100210000C0D0706030401000000000000000000B0
:1002200000000000000000000000000000000000CE
:10023000000000000011100F00000000000000008E
:100240000000000000000000000000000000006549
:1002500063686F3A004572726F723A0053544F50A0
:100260005045442E20005072696E7465722073747C
:100270006F707065642064756520746F206572729C
:100280006F72732E204669782074686520657272DB
:100290006F7220616E6420757365204D3939392085
:1002A000746F20726573746172742E202854656DAA
:1002B000706572617475726520697320726573650B
:1002C000742E2053657420697420616674657220F1
:1002D00072657374617274696E6729004B494C4C86
:1002E00045442E20005072696E7465722068616CFE
:1002F0007465642E206B696C6C28292063616C6CBA
:10030000656421006F6B00526573656E643A20006E
:100310002200556E6B6E6F776E20636F6D6D616E30
:10032000643A2022004368616E67652066696C61EB
:100330006D656E74005A204F6666736574203A20AE
:10034000007A5F6D61783A20007A5F6D696E3A20BD
:10035000005A204F6666736574005A204F666673B4
:100360006574206F6B00486F74656E64206F6666FD
:10037000736574733A007A5F6D61783A20007A5F32
:100380006D696E3A2000795F6D61783A2000795F7F
:100390006D696E3A2000785F6D61783A2000785F71
:1003A0006D696E3A2000205A3A0020593A002043E5
:1003B0006F756E7420583A200020453A00205A3A52
:1003C0000020593A00583A004649524D574152458B
:1003D0005F4E414D453A4D61726C696E2056313B1E
:1003E00020537072696E7465722F6772626C206D33
:1003F000617368757020666F722067656E3620467F
:1004000049524D574152455F55524C3A6874747089
:100410003A2F2F6669726D776172652E756C7469FB
:100420006D616B65722E636F6D2050524F544F4358
:100430004F4C5F56455253494F4E3A312E30204D66
:10044000414348494E455F545950453A556C74698B
:100450006D616B65722045585452554445525F4357
:100460004F554E543A3220555549443A3030303089
:10047000303030302D303030302D303030302D3085
:100480003030302D3030303030303030303030306F
:100490000A00556C74696D616B6572204F66662E3B
:1004A0000042656420646F6E652E0020423A002091
:1004B000453A00543A004265642048656174696EAB
:1004C000672E0048656174696E6720646F6E652EE3
:1004D0000020573A0020453A00543A0048656174BC
:1004E000696E672E2E2E002042403A0020403A00CE
:1004F000202F003A00205400202F0020423A0020F4
:100500002F006F6B20543A002569206D696E2C20F6
:1005100025692073656300456E642066696C6520FB
:100520006C69737400426567696E2066696C65204A
:100530006C697374004E6F206D6F76652E00526586
:1005400073756D696E67207072696E7400576169AA
:100550007420666F7220757365722E2E2E00536C98
:100560006565702E2E2E00FFFFFF00005243000035
:100570005243000052430000000000000000000051
:10058000000000000000000000000000000000006B
:10059000524300005243000052430000A0400000BC
:1005A000A04000000040256920686F757273202507
:1005B00069206D696E7574657300446F6E65207097
:1005C00072696E74696E672066696C650053544F7A
:1005D000505045442E20005072696E74657220732D
:1005E000746F707065642064756520746F20657227
:1005F000726F72732E204669782074686520657268
:10060000726F7220616E6420757365204D393939BF
:1006100020746F20726573746172742E2028546583
:100620006D7065726174757265206973207265738F
:1006300065742E2053657420697420616674657238
:100640002072657374617274696E6729006F6B0044
:100650004E6F204C696E65204E756D626572207715
:1006600069746820636865636B73756D2C204C61D9
:100670007374204C696E653A20004E6F20436865A4
:10068000636B73756D2077697468206C696E652083
:100690006E756D6265722C204C617374204C696EAE
:1006A000653A2000636865636B73756D206D6973CF
:1006B0006D617463682C204C617374204C696E65A5
:1006C0003A20004C696E65204E756D626572206936
:1006D00073206E6F74204C617374204C696E6520BA
:1006E0004E756D6265722B312C204C617374204CF9
:1006F000696E653A20004D31313000446F6E6520DF
:10070000736176696E672066696C652E006F6B0099
:100710004D3239002020506C616E6E6572427566F4
:1007200066657242797465733A2000204672656589
:10073000204D656D6F72793A200041756720323126
:10074000203230313400436F6D70696C65643A203B
:100750000028446176696420427261616D2900203D
:100760007C20417574686F723A20004175672032B1
:100770003120323031342031363A30353A3431009C
:10078000204C61737420557064617465643A200074
:10079000312E302E30004D61726C696E0020536F27
:1007A00066747761726520526573657400205761C5
:1007B000746368646F6720526573657400204272C9
:1007C0006F776E206F7574205265736574002045D5
:1007D000787465726E616C20526573657400506F39
:1007E0007765725570007374617274002200656ED3
:1007F000717565696E672022002200656E717565EE
:10080000696E672022007C3C3E5E2B3D3F2F5B5D86
:100810003B2C2A225C006563686F3A0020746F6F7E
:10082000206C6F6E6720657874727573696F6E20C7
:1008300070726576656E7465640020636F6C642009
:10084000657874727573696F6E2070726576656E07
:100850007465640045303A20005A3A2000593A2025
:1008600000583A20004D53312C4D53322050696EC0
:10087000730A0024F404D9201BC40C5C0E9804C431
:10088000095F0265077101F405F900FB04B3004834
:10089000048700C10369005803550003034500BEE7
:1008A000023A008402310053022A00290225000482
:1008B000022000E4011C00C8011900AF01170098D4
:1008C0000114008401130071011000610110005136
:1008D000010E0043010D0036010B002B010B00201F
:1008E000010B00150109000C01090003010800FBC0
:1008F000000800F3000800EB000700E4000600DE3B
:10090000000600D8000600D2000600CC000500C793
:10091000000500C2000500BD000400B9000400B5D8
:10092000000400B1000400AD000400A9000400A50B
:10093000000300A20003009F0004009B0003009836
:100940000003009500020093000300900003008D57
:100950000002008B00030088000200860002008471
:10096000000300810002007F0002007D0002007B86
:100970000002007900020077000100760002007496
:1009800000020072000100710002006F0002006DA1
:100990000001006C0002006A0001006900020067AB
:1009A00000010066000100650001006400020062B1
:1009B00000010061000100600001005F0002005DB5
:1009C0000001005C0001005B0001005A00010059B9
:1009D00000010058000100570001005600010055B9
:1009E00000010054000100530000005300010052B8
:1009F00000010051000100500001004F0001004EB5
:100A00000000004E0001004D0001004C0001004BB1
:100A10000000004B0001004A0001004900010048AD
:100A200000000048000100470001004600000046A9
:100A300000010045000000450001004400010043A2
:100A4000000000430001004200000042000100419C
:100A500000000041000100400001003F0000003F95
:100A60000001003E0000003E0001003D0000003D8E
:100A70000001003C0000003C0000003C0001003B85
:100A80000000003B0001003A0000003A000100397C
:100A90000000003900010038000000380000003874
:100AA000000100370000003700010036000000366A
:100AB0000000003600010035000000350000003560
:100AC0000001003400000034000000340001003355
:100AD000000000330000003300010032000000324B
:100AE0000000003200010031000000310000003140
:100AF0000001003000000030000000300001002F35
:100B00000000002F0000002F0000002F0001002E29
:100B10000000002E0000002E0001002D0000002D1E
:100B20000000002D0000002D0001002C0000002C12
:100B30000000002C0000002C0001002B0000002B06
:100B40000000002B0000002B0001002A0000002AFA
:100B50000000002A0000002A0001002900000029EE
:100B600000000029000000290000002900010028E1
:100B700000000028000000280000002800000028D5
:100B800000010027000000270000002700000027C8
:100B900000000027000100260000002600000026BB
:100BA00000000026000000260001002500000025AE
:100BB00000000025000000250000002500000025A1
:100BC0000001002400000024000000240000002494
:100BD0000000002400010023000000230000002387
:100BE0000000002300000023000000230000002379
:100BF000000100220000002200000022000000226C
:100C0000000000220000002200010021000000215D
:100C10000000002100000021000000210000002150
:100C20000000002100010020000000200000002042
:100C30000000002000000020000000200000002034
:100C4000000000200001001F0000001F0000001F26
:100C50000000001F0000001F0000001F0000001F18
:100C60000001001E0000001E0000001E0000001E0B
:100C700000000024F4D43050C38E20C2A24017825A
:100C80008B7011127A910D816CD90AA861E108C7A5
:100C9000586607615143061E4B5D05C145A7041AFE
:100CA000411104093D9803713931034036DB026577
:100CB000339102D4305402802E1D02632CEE017554
:100CC0002AC501B028A001102781018F2564012BBE
:100CD000244B01E0223401AC211F018D200D018045
:100CE0001FFC00841EED00971DDF00B81CD200E63B
:100CF0001BC600201BBC00641AB200B219A8000A6F
:100D000019A0006A189900D117910040178B00B5FF
:100D100016840031167E00B31579003A157300C7AA
:100D2000146F0058146A00EE1366008813630025E0
:100D3000135E00C7125B006C12570015125400C1FD
:100D400011510070114F0021114B00D61049008D38
:100D50001047004610440002104200C00F400080BF
:100D60000F3E00420F3C00060F3B00CB0E380093B5
:100D70000E37005C0E3500270E3400F30D3200C133
:100D80000D3100900D3000600D2E00320D2D00054C
:100D90000D2C00D90C2B00AE0C2900850C29005C11
:100DA0000C2700350C27000E0C2600E80B2400C48D
:100DB0000B2400A00B23007D0B23005A0B210039CC
:100DC0000B2100180B2000F80A1F00D90A1E00BBD7
:100DD0000A1E009D0A1D00800A1D00630A1C0047B0
:100DE0000A1B002C0A1B00110A1A00F7091A00DD61
:100DF000091900C4091900AB091900920917007BF1
:100E0000091800630917004C09160036091600205E
:100E10000916000A091500F5081500E0081400CCB1
:100E2000081400B8081400A4081400900813007DEA
:100E30000812006B0813005808120046081200340C
:100E4000081100230811001208110001081100F018
:100E5000071000E0071000D0071000C0071000B016
:100E6000070F00A107100091070E0083070F007401
:100E7000070F0065070E0057070E0049070E003BDD
:100E8000070D002E070E0020070D0013070D0006AA
:100E9000070D00F9060C00ED060D00E0060C00D46D
:100EA000060C00C8060C00BC060C00B0060C00A422
:100EB000060B0099060C008D060B0082060B0077CE
:100EC000060B006C060B0061060A0057060B004C6F
:100ED000060A0042060A0038060A002E060A002406
:100EE000060A001A060A001006090007060A00FD95
:100EF000050900F4050900EB050900E2050900D920
:100F0000050900D0050900C7050900BE050900B59F
:100F1000050800AD050800A50509009C050800941A
:100F20000508008C050800840508007C050800748D
:100F30000508006C050700650508005D05070056FB
:100F40000508004E05070047050700400508003862
:100F5000050700310507002A050700230507001CC7
:100F6000050600160507000F050700080506000224
:100F7000050700FB040600F5040700EE040600E880
:100F8000040600E2040700DB040600D5040600CFD7
:100F9000040600C9040600C3040600BD040600B729
:100FA000040600B1040500AC040600A6040600A077
:100FB0000405009B04060095040500900406008AC1
:100FC00004050085040500800406007A0405007508
:100FD000040500700405006B04050066040500614B
:100FE0000405005C04050057040500520405004D8B
:100FF00004050048040500430405003E0404003ACB
:1010000004050035040500300404002C0405002705
:10101000040400230405001E0404001A040400163E
:10102000040500110404000D040400090405000473
:1010300004040000040400FC030400F8030400F4AA
:10104000030400F0030400EC030400E8030400E4DC
:10105000030400E0030400DC030400D8030400D40C
:10106000030400D0030400CC030400C8030300C53C
:101070000303006563686F3A00656E6473746F7094
:1010800073206869743A205A00205A3A00656E64E9
:1010900073746F7073206869743A20590020593A4C
:1010A00000656E6473746F7073206869743A2058B9
:1010B0000020583A00656E6473746F70732068691D
:1010C000743A20004572726F723A004572723A208B
:1010D0004D415854454D50204245440054656D7073
:1010E00065726174757265206865617465642062FB
:1010F0006564207377697463686564206F66662E23
:10110000204D415854454D5020747269676765728F
:101110006564202121004572723A204D494E5445A4
:101120004D50003A2045787472756465722073776B
:10113000697463686564206F66662E204D494E545D
:10114000454D50207472696767657265642021009F
:101150004572723A204D415854454D50003A204551
:1011600078747275646572207377697463686564F6
:10117000206F66662E204D415854454D50207472A4
:1011800069676765726564202100202D20496E76AD
:10119000616C6964206578747275646572206E751F
:1011A0006D62657220210000000000300E0100C059
:1011B0000E0A00500F1400D00F1E0060102800E02F
:1011C00010320070113C00F0114600701250000007
:1011D000135A008013640000146E009014780010FD
:1011E00015820090158C00101696009016A0001025
:1011F00017AA009017B4001018BE009018C800106D
:1012000019D2009019DC00101AE600801AF00000D4
:101210001BFA00801B0401F01B0E01701C1801F06A
:101220001C2201601D2C01E01D3601501E4001D022
:101230001E4A01401F5401B01F5E0130206801A00A
:1012400020720110217C0190218601002290016012
:1012500026F401902A5802802EBC0250322003E06E
:101260003584035039E803803C4C046563686F3A69
:101270000048656174696E67206661696C65640029
:10128000504944204175746F74756E652066696EAF
:101290006973686564212050757420746865206CDA
:1012A000617374204B702C204B6920616E64204B5D
:1012B0006420636F6E7374616E74732066726F6DF9
:1012C0002061626F766520696E746F20436F6E6671
:1012D000696775726174696F6E2E680050494420A9
:1012E0004175746F74756E65206661696C65642103
:1012F0002074696D656F75740020403A006F6B2033
:10130000543A006F6B20423A0050494420417574B2
:101310006F74756E65206661696C65642120546523
:101320006D706572617475726520746F6F20686985
:10133000676800204B643A2000204B693A20002067
:101340004B703A200020436C6173736963205049ED
:101350004420002054753A2000204B753A2000208C
:101360006D61783A2000206D696E3A200020643A61
:10137000200020626961733A20004D3834205820E3
:1013800059205A2045006563686F3A0043616E6ECC
:101390006F7420656E746572207375626469723A49
:1013A00020004D3234004D323320257300617574B6
:1013B0006F25692E67004572726F723A006572720E
:1013C0006F722077726974696E6720746F20666926
:1013D0006C65004E6F74205344207072696E74699E
:1013E0006E67002F005344207072696E74696E67D7
:1013F000206279746520002E0044656C6574696F05
:101400006E206661696C65642C2046696C653A20C3
:101410000046696C652064656C657465643A002EED
:10142000006F70656E206661696C65642C2046698A
:101430006C653A200057726974696E6720746F207A
:1014400066696C653A20002E006F70656E206661DB
:10145000696C65642C2046696C653A20002E006F2B
:1014600070656E206661696C65642C2046696C65E8
:101470003A200046696C652073656C656374656429
:10148000002053697A653A200046696C65206F70C8
:10149000656E65643A20002E006F70656E2066618F
:1014A000696C65642C2046696C653A20004E6F7744
:1014B0002066726573682066696C653A20004E6F1D
:1014C0007720646F696E672066696C653A20002238
:1014D00020706F73002220706172656E743A220072
:1014E000535542524F5554494E452043414C4C2090
:1014F0007461726765743A2200747279696E67204C
:10150000746F2063616C6C207375622D67636F6408
:10151000652066696C6573207769746820746F6FE5
:10152000206D616E79206C6576656C732E204D415F
:1015300058206C6576656C2069733A0053442063CB
:10154000617264206F6B006F70656E526F6F7420F4
:101550006661696C656400766F6C756D652E696E89
:101560006974206661696C656400534420696E6922
:1015700074206661696C006563686F3A0048617247
:1015800064636F6465642044656661756C742053A0
:10159000657474696E6773204C6F61646564005391
:1015A000746F7265642073657474696E67732072FA
:1015B00065747269657665640020440020490020E6
:1015C00020204D3330312050005049442073657441
:1015D00074696E67733A00205A0020590020204D2C
:1015E000323036205800486F6D65206F666673652F
:1015F0007420286D6D293A00204500205A0020589B
:101600000020420020540020204D3230352053006D
:10161000416476616E636564207661726961626CB3
:1016200065733A20533D4D696E206665656472614D
:10163000746520286D6D2F73292C20543D4D696EE3
:101640002074726176656C2066656564726174658C
:1016500020286D6D2F73292C20423D6D696E696DB8
:10166000756D207365676D656E742074696D652096
:10167000286D73292C20583D6D6178696D756D203A
:101680005859206A65726B20286D6D2F73292C20A4
:10169000205A3D6D6178696D756D205A206A6572BA
:1016A0006B20286D6D2F73292C2020453D6D6178AE
:1016B000696D756D2045206A65726B20286D6D2FF0
:1016C00073290020540020204D3230342053004133
:1016D0006363656C65726174696F6E3A20533D6136
:1016E0006363656C65726174696F6E2C20543D7222
:1016F00065747261637420616363656C65726174A3
:10170000696F6E00204500205A0020590020204DAE
:101710003230312058004D6178696D756D2041631C
:1017200063656C65726174696F6E20286D6D2F73CF
:1017300032293A00204500205A0020590020204D2F
:101740003230332058004D6178696D756D206665C3
:101750006564726174657320286D6D2F73293A007A
:10176000204500205A0020590020204D39322058B1
:101770000053746570732070657220756E69743AD9
:101780000053657474696E67732053746F72656477
:1017900000022D2D3A2D2D002D2D2D00534400013A
:1017A00020000120000120004E6F2053442063617F
:1017B0007264005072696E742066726F6D205344BB
:1017C0000053746F70207072696E74005265737587
:1017D0006D65207072696E7400506175736520705C
:1017E00072696E7400436F6E74726F6C0050726534
:1017F000706172650054756E6500496E666F207386
:10180000637265656E00052E2E004D61696E004D98
:101810003234004D3233202573004D3834205820A7
:1018200059205A2045004669726D776172652076AD
:10183000657273696F6E00526573746F72652066AE
:1018400061696C73616665004C6F6164206D656DE4
:101850006F72790053746F7265206D656D6F727968
:10186000004D6F74696F6E0054656D7065726174C0
:10187000757265004D61696E0041756720323120D7
:10188000323031342031363A30353A34370032355F
:10189000303030305F6475616C00556C74696D6117
:1018A0006B65723A2031342E3038004669726D779C
:1018B0006172652076657273696F6E004573746539
:1018C00070732F6D6D004573746570732F6D6D00AF
:1018D0005A73746570732F6D6D005A7374657073ED
:1018E0002F6D6D005973746570732F6D6D00597392
:1018F000746570732F6D6D005873746570732F6D00
:101900006D005873746570732F6D6D00412D726595
:10191000747261637400412D726574726163740046
:10192000416D6178206500416D6178206500416DF1
:101930006178207A00416D6178207A00416D61788C
:10194000207900416D6178207900416D61782078BF
:1019500000416D61782078005654726176206D697F
:101960006E005654726176206D696E00566D696E18
:1019700000566D696E00566D6178206500566D6188
:1019800078206500566D6178207A00566D61782068
:101990007A00566D6178207900566D617820790063
:1019A000566D6178207800566D6178207800566514
:1019B0002D6A65726B0056652D6A65726B00567AEA
:1019C0002D6A65726B00567A2D6A65726B005678C7
:1019D000792D6A65726B005678792D6A65726B0095
:1019E000416363656C00416363656C00436F6E74B3
:1019F000726F6C00507265686561742041425320BB
:101A0000636F6E66005072656865617420504C416A
:101A100020636F6E66005049442D43005049442DA9
:101A200043005049442D44005049442D440050493E
:101A3000442D49005049442D49005049442D50003F
:101A40005049442D500046616E20737065656400F6
:101A500046616E207370656564004265640042658E
:101A600064004E6F7A7A6C6532004E6F7A7A6C65DC
:101A700032004E6F7A7A6C65004E6F7A7A6C650030
:101A8000436F6E74726F6C0053746F7265206D6576
:101A90006D6F72790042656400426564004E6F7A32
:101AA0007A6C65004E6F7A7A6C650046616E2073C1
:101AB000706565640046616E2073706565640054EE
:101AC000656D70657261747572650053746F7265CF
:101AD000206D656D6F727900426564004265640037
:101AE0004E6F7A7A6C65004E6F7A7A6C650046614B
:101AF0006E2073706565640046616E207370656565
:101B0000640054656D7065726174757265004D6F27
:101B10007665206178697300436F6F6C646F776ED0
:101B200000507265686561742041425300507265CF
:101B30006865617420504C41004D6F7665205A00F5
:101B40004175746F20686F6D65004D3834004469CD
:101B50007361626C65207374657070657273004D9B
:101B600061696E004D6F766520302E316D6D004DD0
:101B70006F766520316D6D004D6F76652031306D6B
:101B80006D0050726570617265004578747275649D
:101B90006572004D6F7665205A004D6F766520594D
:101BA000004D6F76652058004D6F7665206178692D
:101BB00073004578747275646572005A0059005854
:101BC000005072656865617420414253204265642B
:101BD00000507265686561742041425320416C6C0D
:101BE0000050726568656174204142532032005094
:101BF00072656865617420414253203100507265FE
:101C000070617265005072656865617420504C4166
:101C100020426564005072656865617420504C41D3
:101C200020416C6C005072656865617420504C41B5
:101C30002032005072656865617420504C4120313B
:101C40000050726570617265005A004D383420583A
:101C50003020593000473238004D3630300043686C
:101C6000616E67652066696C616D656E7400466CB7
:101C70006F77203100466C6F77203100466C6F77AC
:101C8000203000466C6F7720300046616E20737004
:101C90006565640046616E20737065656400426529
:101CA0006400426564004E6F7A7A6C6532004E6F54
:101CB0007A7A6C6532004E6F7A7A6C65004E6F7A74
:101CC0007A6C6500537065656400537065656400E7
:101CD0004D61696E00436172642072656D6F766557
:101CE00064004361726420696E7365727465640098
:101CF000494E46494E4954594E414ECDCCCC3D0AF1
:101D0000D7233C17B7D13877CC2B329595E6241FD3
:101D1000B14F0A000020410000C84200401C46208C
:101D2000BCBE4CCA1B0E5AAEC59D7400AD1A2C42E7
:101D300016D3A61A11241FBECFEFD1E2DEBFCDBF4E
:101D400000E00CBF14E0A0E0B2E0E8E4F8EC01E051
:101D50000BBF02C007900D92AA3BB107D9F71BBE7B
:101D600012E1AAEBB4E001C01D92A83CB107E1F773
:101D70001DE1C2E3DDE104C02297FE010E94C9E338
:101D8000CC32D107C9F70E94A9DE0C9417E40C9459
:101D90000000A0E0B0E0EFECFEE00C94E6E3EC0124
:101DA0005B016115710519F0FB0191838083F99046
:101DB0008F2D90E00E94CDE3892BC9F7FDE2FF163D
:101DC00021F4F990EE24E39405C02BE2F21609F415
:101DD000F990EE248E0101501040C80160EF7CE1C3
:101DE00043E050E00E945F11892B01F58E010E5FE8
:101DF0001F4FC80163EF7CE145E050E00E945F1196
:101E0000892B19F48E01095F1F4FA114B10419F039
:101E1000F50111830083E0FC04C070E090E080E8ED
:101E200014C070E090E080E86FEF08C1C80168EF6F
:101E30007CE143E050E00E945F11892B69F4A1141A
:101E4000B10429F470E090E080EC6FE7F7C02296CF
:101E5000F501D183C083F6CF8824992440E050E077
:101E600060E070E0EF2DE053EA30A0F5F2E0EF2AF9
:101E70008E2D90E09C0128703070E2FE06C0232B6E
:101E800079F50894811C911C2BC0232B19F0089420
:101E900081089108DB01CA0112E0880F991FAA1F6F
:101EA000BB1F1A95D1F7480F591F6A1F7B1F440F9C
:101EB000551F661F771F4E0F511D611D711D48393B
:101EC00029E9520729E9620729E1720748F084E00D
:101ED000E82A06C0EE3F31F4E3FC39C098E0E92A75
:101EE000F990C0CFE53311F0E53189F529912D3214
:101EF00019F4E0E1EE2A05C02B3219F081E090E000
:101F000003C0299182E090E0E22FE053EA3018F01C
:101F1000C81BD90B1CC020E030E0FCE020383F0794
:101F20005CF4C901880F991F880F991F280F391F6A
:101F3000220F331F2E0F311DE991E053EA3068F371
:101F4000E4FE03C0309521953F4F820E931ECE2CA8
:101F5000DD24E1FE07C0A114B10421F02197F501B1
:101F6000D183C083CB01BA010E9432E07B018C0196
:101F7000F3E0CF22DD2423E0C216D10421F417FBC5
:101F8000109517F9109557016801C801B70120E0B5
:101F900030E040E050E00E9492DF882309F44AC01C
:101FA00097FE0DC02FE0E22E2DE1F22E9094819449
:101FB00091089394C0E2D0E000E010E012C097E2F4
:101FC000E92E9DE1F92EF6CFF70125913591459146
:101FD0005491C601B5010E9472E25B016C018C1A3A
:101FE0009D0A8C169D0684F7D595C7950F5F1F4FE8
:101FF0000630110529F08CEF9FEFE80EF91EF1CFA6
:10200000C501D6017C018D018C2D880F8D2D881F77
:102010008F3F51F0C601B50120E030E040E050E0D4
:102020000E9492DF882331F482E290E09093C712FD
:102030008093C6127E2D9F2D802F612F272F392F41
:10204000482F562FB901CA01CDB7DEB7ECE00C948A
:1020500002E42F923F925F926F927F928F929F92B3
:10206000AF92BF92CF92DF92EF92FF920F931F93A6
:10207000CF93DF938C011B01EA016115710519F003
:10208000FB0191838083209749F0CE0102978397CB
:1020900028F020E030E040E050E0F6C0F801A190E8
:1020A0008F018A2D90E00E94CDE3892BB9F7FDE2E4
:1020B000AF1631F4F801A1908F015524539407C055
:1020C000FBE2AF1619F4F801A1908F015524209777
:1020D00019F0C031D105C1F4F0E3AF1679F4F8017D
:1020E0008081883711F0883549F4F801A1800E5FAE
:1020F0001F4FF2E05F2AC0E1D0E006C0209721F434
:1021000080E3A816E9F427C0C830D10531F1C93001
:10211000D10524F4C230D10531F50CC0CA30D10547
:1021200089F0C031D105F9F4C12CD12CE12CB8E0F3
:10213000FB2E28C0C12CD12CE12CA0E4FA2E22C009
:10214000CAE0D0E0FCECCF2EFCECDF2EFCECEF2E56
:10215000FCE0FF2E17C0C8E0D0E0C12CD12CE12C50
:10216000E0E1FE2E0FC09E01442737FD4095542F1D
:1021700060E070E080E090E80E948AE3C901DA0143
:102180006C017D0120E030E040E050E060E03E0185
:10219000882477FC8094982C70EDB72EBA0CE9E077
:1021A000EB1570F48A2D81548A3118F499ECB92E0C
:1021B00006C08A2D81568A3150F589EAB82EBA0CAC
:1021C0008B2D90E08C179D0714F56F3FE1F0C21640
:1021D000D306E406F506B0F0CA01B901A4019301E3
:1021E0000E9444E39B01AC012B0D311D411D511D8B
:1021F0002130F0E03F07F0E04F07F0E85F0710F410
:1022000061E001C06FEFF801A1908F01C5CF2114EB
:10221000310481F0662331F001501040F101118347
:10222000008308C051FE1AC002501040F101118312
:10223000008314C067FF12C050FC05C02FEF3FEFB2
:102240004FEF5FE704C020E030E040E050E882E27A
:1022500090E09093C7128093C61216C050FE08C03B
:1022600050954095309521953F4F4F4F5F4F0CC093
:1022700057FF0AC082E290E09093C7128093C61283
:102280002FEF3FEF4FEF5FE7B901CA01DF91CF9129
:102290001F910F91FF90EF90DF90CF90BF90AF9084
:1022A0009F908F907F906F905F903F902F900895B8
:1022B000FB01DC0105900D920020E1F70895FB0180
:1022C000DC014150504088F08D9181341CF08B35F9
:1022D0000CF4805E659161341CF06B350CF4605E2B
:1022E000861B611171F3990B0895881BFCCFFB01CC
:1022F000DC014150504048F005900D920020C9F794
:1023000001C01D9241505040E0F70895FB015591E6
:102310005523A9F0BF01DC014D9145174111E1F7AB
:1023200059F4CD010590002049F04D91401541111F
:10233000C9F3FB014111EFCF81E090E001970895CF
:10234000FB01DC0104C08D910190801921F4415002
:102350005040C8F7881B990B0895FB01DC0102C0AF
:1023600001900D9241505040D8F70895FB01DC01D7
:102370000D900020E9F7119701900D920020E1F7F0
:102380000895FC018191861721F08823D9F79927B8
:1023900008953197CF010895FB01DC0101900D9262
:1023A0000020E1F70895FB01DC014150504030F07E
:1023B0008D910190801919F40020B9F7881B990BB1
:1023C0000895FB01DC014150504048F001900D920E
:1023D0000020C9F701C01D9241505040E0F7089518
:1023E000AEE0B0E0E6EFF1E10C94EEE30E891F8978
:1023F0008EE08C831A8309838FEF9FE79E838D8302
:102400009E01265E3F4FCE010196688D798DA90110
:102410000E9414122F813885020F131FF8011082B9
:102420002E96E4E00C940AE4ABE0B0E0EAE1F2E1DD
:102430000C94E0E33C012B015A01FC011782168247
:10244000838181FD03C06FEF7FEFC6C19AE0892EC3
:102450001E010894211C311CF3012381F20123FD8C
:10246000859123FF81912F01882309F4B2C1853220
:1024700039F423FD859123FF81912F01853229F4C1
:1024800090E0B3010E940714E7CF982FFF24EE24B9
:102490009924FFE1FF15D0F09B3269F09C3228F4BB
:1024A000903259F0933291F40EC09D3249F090333E
:1024B00069F441E024C052E0F52A84E0F82A28C0FB
:1024C00098E0F92A25C0E0E1FE2A22C0F7FC29C0E5
:1024D000892F80538A3070F4F6FE05C0989C902CAA
:1024E0001124980E15C0E89CE02C1124E80EF0E2AF
:1024F000FF2A0EC09E3229F4F6FC6BC140E4F42A98
:1025000007C09C3619F450E8F52A02C0983649F401
:10251000F20123FD959123FF91912F01992309F059
:10252000B8CF892F8554833018F08052833038F427
:1025300044E050E0A40EB51E5FE359830FC093360C
:1025400031F0933779F0933509F056C020C0F5018A
:102550008081898342E050E0A40EB51E610101E054
:1025600010E012C0F501C080D180F6FC03C06FEF0F
:102570007FEF02C0692D70E042E050E0A40EB51E6E
:10258000C6010E94FC138C015FE7F52214C0F5011F
:10259000C080D180F6FC03C06FEF7FEF02C0692DD1
:1025A00070E042E050E0A40EB51EC6010E94F11397
:1025B0008C0150E8F52AF3FE07C01AC080E290E0D3
:1025C000B3010E940714EA948E2D90E008171907B2
:1025D000A8F30EC0F601F7FC8591F7FE81916F011B
:1025E00090E0B3010E940714E110EA9401501040FA
:1025F0000115110579F7EAC0943611F0993669F59D
:10260000F7FE08C0F501208131814281538184E0C9
:1026100090E00AC0F501808191819C01442737FD3B
:102620004095542F82E090E0A80EB91E9FE6F92253
:1026300057FF09C050954095309521953F4F4F4F1A
:102640005F4FE0E8FE2ACA01B901A1012AE030E0AB
:102650000E943314D82ED21840C0953729F41F2D6C
:102660001F7E2AE030E01DC01F2D197F9F3661F0CC
:10267000903720F4983509F0ACC00FC0903739F08E
:10268000983709F0A6C004C028E030E00AC0106105
:1026900014FD146020E130E004C014FD166020E158
:1026A00032E017FF08C0F50160817181828193815A
:1026B00044E050E008C0F50180819181BC0180E0D8
:1026C00090E042E050E0A40EB51EA1010E94331438
:1026D000D82ED2188FE7F82EF122F6FE0BC05EEF4F
:1026E000F522D91438F4F4FE07C0F2FC05C08FEED1
:1026F000F82202C01D2D01C0192DF4FE0DC0FE01EF
:10270000ED0DF11D8081803319F499EEF92208C096
:102710001F5FF2FE05C003C08F2D867809F01F5F92
:102720000F2DF3FC14C0F0FE0FC01E1510F09D2CF1
:102730000BC09D2C9E0C911A1E2D06C080E290E0CD
:10274000B3010E9407141F5F1E15C0F304C01E15BD
:1027500010F4E11A01C0EE2404FF0FC080E390E002
:10276000B3010E94071402FF1DC001FD03C088E7EA
:1027700090E00EC088E590E00BC0802F867891F045
:1027800001FF02C08BE201C080E2F7FC8DE290E025
:10279000B3010E94071406C080E390E0B3010E94D9
:1027A00007149A94D914C0F3DA94F101ED0DF11DD8
:1027B000808190E0B3010E940714DD20A9F706C0D4
:1027C00080E290E0B3010E940714EA94EE20C1F782
:1027D00043CEF30166817781CB012B96E2E10C9425
:1027E000FCE3FC010590615070400110D8F7809522
:1027F00090958E0F9F1F0895FC01615070400190CD
:102800000110D8F7809590958E0F9F1F08950F9314
:102810001F93CF93DF938C01EB018B8181FF1BC052
:1028200082FF0DC02E813F818C819D812817390741
:1028300064F4E881F9810193F983E88306C0E885AF
:10284000F985802F1995892B31F48E819F8101960E
:102850009F838E8302C00FEF1FEFC801DF91CF91DE
:102860001F910F910895FA01AA27283051F12031C4
:1028700081F1E8946F936E7F6E5F7F4F8F4F9F4F14
:10288000AF4FB1E03ED0B4E03CD0670F781F891F56
:102890009A1FA11D680F791F8A1F911DA11D6A0F24
:1028A000711D811D911DA11D20D009F468943F91D7
:1028B0002AE0269F11243019305D3193DEF6CF01D6
:1028C0000895462F4770405D4193B3E00FD0C9F79C
:1028D000F6CF462F4F70405D4A3318F0495D31FD09
:1028E0004052419302D0A9F7EACFB4E0A69597955C
:1028F000879577956795BA95C9F700976105710532
:1029000008959B01AC010A2E06945795479537957B
:102910002795BA95C9F7620F731F841F951FA01DD5
:1029200008951F920F920FB60F9211242F933F9389
:102930008F939F93AF93BF938091BE049091BF04F8
:10294000A091C004B091C1043091C2040196A11DB0
:10295000B11D232F2D5F2D3720F02D570196A11D7E
:10296000B11D2093C2048093BE049093BF04A09332
:10297000C004B093C1048091BA049091BB04A091AB
:10298000BC04B091BD040196A11DB11D8093BA0491
:102990009093BB04A093BC04B093BD04BF91AF91CE
:1029A0009F918F913F912F910F900FBE0F901F908D
:1029B00018958FB7F8942091BE043091BF044091D0
:1029C000C0045091C1048FBFB901CA0108959B0191
:1029D000AC017FB7F8948091BA049091BB04A091A8
:1029E000BC04B091BD0466B5A89B05C06F3F19F04B
:1029F0000196A11DB11D7FBFBA2FA92F982F88273F
:102A0000860F911DA11DB11D62E0880F991FAA1F9D
:102A1000BB1F6A95D1F7BC012DC0FFB7F894809118
:102A2000BA049091BB04A091BC04B091BD04E6B57A
:102A3000A89B05C0EF3F19F00196A11DB11DFFBF76
:102A4000BA2FA92F982F88278E0F911DA11DB11D78
:102A5000E2E0880F991FAA1FBB1FEA95D1F7861BDA
:102A6000970B885E9340C8F2215030404040504060
:102A700068517C4F211531054105510571F60895C6
:102A8000019739F0880F991F880F991F02970197B6
:102A9000F1F70895789484B5826084BD84B581602F
:102AA00084BD85B5826085BD85B5816085BDEEE656
:102AB000F0E0808181608083E1E8F0E01082808135
:102AC00082608083808181608083E0E8F0E08081A3
:102AD00081608083E1EBF0E0808184608083E0EBC3
:102AE000F0E0808181608083E1E9F0E080818260B4
:102AF0008083808181608083E0E9F0E08081816073
:102B00008083E1EAF0E0808182608083808181605F
:102B10008083E0EAF0E0808181608083E1E2F1E09F
:102B2000808182608083808181608083E0E2F1E047
:102B3000808181608083EAE7F0E080818460808327
:102B400080818260808380818160808380818068D1
:102B500080831092C10008951F93CF93DF93182FA5
:102B6000EB0161E00E948C16209709F4CAC0CF3FA8
:102B7000D10509F4C9C0E12FF0E0E75FFD4F849172
:102B8000893009F466C08A30B0F48430F1F18530C0
:102B900040F4823059F1833070F5813009F0AEC0D5
:102BA00020C0873009F443C0883008F048C0863020
:102BB00009F0A4C034C08D3009F478C08E3038F4E8
:102BC0008B3009F45AC08C3008F066C04CC080319C
:102BD00009F480C0813109F487C08F3009F08EC0BC
:102BE0006FC084B5806884BDC7BD92C084B5806263
:102BF00084BDC8BD8DC080918000806880938000B6
:102C0000D0938900C093880083C080918000806247
:102C100080938000D0938B00C0938A0079C080910C
:102C2000B00080688093B000C093B30071C0809101
:102C3000B00080628093B000C093B40069C08091FE
:102C40009000806880939000D0939900C093980082
:102C50005FC080919000806280939000D0939B0031
:102C6000C0939A0055C08091900088608093900036
:102C7000D0939D00C0939C004BC08091A0008068C1
:102C80008093A0008091A0008F7B8093A000D093C0
:102C9000A900C093A8003CC08091A00080628093EE
:102CA000A000D093AB00C093AA0032C08091A000D6
:102CB00088608093A000D093AD00C093AC0028C082
:102CC00080912001806880932001D0932901C093D6
:102CD00028011EC080912001806280932001D09342
:102CE0002B01C0932A0114C0809120018860809339
:102CF0002001D0932D01C0932C010AC0C038D1050A
:102D00001CF4812F60E002C0812F61E00E943F1718
:102D1000DF91CF911F910895CF93DF93482F50E01B
:102D2000CA018D539E4FFC01349143585E4FFA0106
:102D30008491882369F190E0880F991FFC01E15D7F
:102D4000FE4FA591B491FC01E75BFE4FC591D49174
:102D5000662351F42FB7F8948C91932F9095892383
:102D60008C93888189230BC0623061F42FB7F8946B
:102D70008C91932F909589238C938881832B8883C2
:102D80002FBF06C09FB7F8948C91832B8C939FBF65
:102D9000DF91CF910895893009F449C08A30A0F4B9
:102DA000843051F1853040F4823079F1833000F580
:102DB000813009F063C026C0873079F1883098F5FA
:102DC000863009F05BC025C08D3009F442C08E30DA
:102DD00028F48B30B1F18C30C0F52DC0803109F46E
:102DE00042C0813109F445C08F3009F047C037C077
:102DF000809180008F7703C0809180008F7D8093C9
:102E00008000089584B58F7702C084B58F7D84BD1E
:102E100008958091B0008F7703C08091B0008F7DBE
:102E20008093B0000895809190008F7707C08091C3
:102E300090008F7D03C080919000877F80939000E9
:102E400008958091A0008F7707C08091A0008F7DAA
:102E500003C08091A000877F8093A0000895809197
:102E600020018F7703C0809120018F7D8093200106
:102E7000089580912001877F809320010895FF921B
:102E80000F931F93F62E482F50E0CA01875F9D4F86
:102E9000FC012491CA018D539E4FFC0114914358AB
:102EA0005E4FFA0104910023C9F0222319F0822F0A
:102EB0000E94CB16E02FF0E0EE0FFF1FE75BFE4F06
:102EC000A591B4919FB7F894FF2021F48C911095AF
:102ED000812302C08C91812B8C939FBF1F910F91F6
:102EE000FF9008950F931F93482F50E0CA01875F0A
:102EF0009D4FFC012491CA018D539E4FFC0104910A
:102F000043585E4FFA011491112319F420E030E088
:102F100015C0222319F0822F0E94CB16812F90E03A
:102F2000880F991F8D599E4FFC01A591B4918C91EA
:102F300020E030E0802311F021E030E0C9011F9152
:102F40000F9108951F920F920FB60F920BB60F922A
:102F500011242F933F934F935F936F937F938F939E
:102F60009F93AF93BF93EF93FF938091C70490918A
:102F7000C804892B29F0E091C704F091C804199581
:102F8000FF91EF91BF91AF919F918F917F916F9141
:102F90005F914F913F912F910F900BBE0F900FBEFD
:102FA0000F901F9018951F920F920FB60F920BB6AD
:102FB0000F9211242F933F934F935F936F937F93BF
:102FC0008F939F93AF93BF93EF93FF938091C90427
:102FD0009091CA04892B29F0E091C904F091CA04A8
:102FE0001995FF91EF91BF91AF919F918F917F9133
:102FF0006F915F914F913F912F910F900BBE0F906A
:103000000FBE0F901F9018951F920F920FB60F9240
:103010000BB60F9211242F933F934F935F936F93AF
:103020007F938F939F93AF93BF93EF93FF93809181
:10303000CB049091CC04892B29F0E091CB04F09142
:10304000CC041995FF91EF91BF91AF919F918F9112
:103050007F916F915F914F913F912F910F900BBE98
:103060000F900FBE0F901F9018951F920F920FB6E2
:103070000F920BB60F9211242F933F934F935F93B0
:103080006F937F938F939F93AF93BF93EF93FF9330
:103090008091CD049091CE04892B29F0E091CD044C
:1030A000F091CE041995FF91EF91BF91AF919F914F
:1030B0008F917F916F915F914F913F912F910F90E1
:1030C0000BBE0F900FBE0F901F9018951F920F927E
:1030D0000FB60F920BB60F9211242F933F934F937D
:1030E0005F936F937F938F939F93AF93BF93EF9370
:1030F000FF938091C3049091C404892B29F0E0913F
:10310000C304F091C4041995FF91EF91BF91AF9161
:103110009F918F917F916F915F914F913F912F91EF
:103120000F900BBE0F900FBE0F901F9018951F921F
:103130000F920FB60F920BB60F9211242F933F935D
:103140004F935F936F937F938F939F93AF93BF93AF
:10315000EF93FF938091C5049091C604892B29F0C9
:10316000E091C504F091C6041995FF91EF91BF91CC
:10317000AF919F918F917F916F915F914F913F910F
:103180002F910F900BBE0F900FBE0F901F901895B0
:103190001F920F920FB60F920BB60F9211242F931E
:1031A0003F934F935F936F937F938F939F93AF93CF
:1031B000BF93EF93FF938091CF049091D004892B1C
:1031C00029F0E091CF04F091D0041995FF91EF918F
:1031D000BF91AF919F918F917F916F915F914F912F
:1031E0003F912F910F900BBE0F900FBE0F901F902D
:1031F00018951F920F920FB60F920BB60F921124D3
:103200002F933F934F935F936F937F938F939F93EE
:10321000AF93BF93EF93FF938091D1049091D20429
:10322000892B29F0E091D104F091D2041995FF91F6
:10323000EF91BF91AF919F918F917F916F915F912E
:103240004F913F912F910F900BBE0F900FBE0F909B
:103250001F901895CF92DF92EF92FF920F931F93DA
:10326000CF93DF937C016B018A01C0E0D0E00FC0F7
:10327000D6016D916D01D701ED91FC910190F08126
:10328000E02DC7011995C80FD91F01501040011535
:10329000110571F7CE01DF91CF911F910F91FF9032
:1032A000EF90DF90CF900895DC01ED91FC910190BB
:1032B000F081E02D19950895CF93DF93EC0161150E
:1032C000710519F420E030E00FC0DB010D90002003
:1032D000E9F71197A61BB70BE881F9810280F3810A
:1032E000E02DAD0119959C01C901DF91CF910895A1
:1032F0000E945C190895EF92FF920F931F93CF9352
:10330000DF93EC01E0908207F0908307009184073F
:1033100010918507688179818A819B81A801970135
:103320000E9492DF882324F4E882F9820A831B83B7
:10333000E0908607F0908707009188071091890731
:103340006C817D818E819F81A80197010E9492DF0F
:10335000882324F4EC82FD820E831F83E0908A0789
:10336000F0908B0700918C0710918D076885798507
:103370008A859B85A80197010E9492DF882324F407
:10338000E886F9860A871B87E0909303F090940300
:103390000091950310919603688179818A819B81C0
:1033A000A80197010E94A0E1181624F4E882F9828E
:1033B0000A831B83E0909703F09098030091990390
:1033C00010919A036C817D818E819F81A801970164
:1033D0000E94A0E1181624F4EC82FD820E831F8364
:1033E000E0909B03F0909C0300919D0310919E033D
:1033F000688579858A859B85A80197010E94A0E14F
:10340000181624F4E886F9860A871B87DF91CF9186
:103410001F910F91FF90EF9008958091B00708954C
:1034200067707070E82FF0E0E75FFD4F84918B309C
:1034300028F48830A0F4863090F106C08E30D0F0A9
:103440008F50833060F521C08091B100887F8093D8
:10345000B1008091B100862B8093B10008958091D6
:103460009100887F8093910080919100862B8093BA
:10347000910008958091A100887F8093A1008091A0
:10348000A100862B8093A100089580912101887F5F
:103490008093210180912101862B80932101089541
:1034A0000F931F93CF93DF938130910549F46F5FA2
:1034B0007F4F09F046C083ED94E00E94998D41C092
:1034C000892B09F03EC06F5F7F4FD9F580E394E010
:1034D00090939E0680939D068091A406882321F0F8
:1034E00081EA96E00E941148C9E5D6E000E314E0C5
:1034F00005C06F9785E0C332D80751F01983088360
:103500008F818823B1F3CE0104960E941148F1CF38
:1035100080E394E0998388838F81882321F0CE0112
:1035200004960E94114880E394E0909303058093F1
:10353000020580910905882321F086E095E00E942C
:103540001148DF91CF911F910F91089580E090E095
:103550006FEF7FEF0E94501A089581E090E06FEFC7
:103560007FEF0E94501A08950E9461748091B00705
:10357000882309F03AC081E08093B0078091B307B7
:103580009091B407A091B507B091B6078093B707A3
:103590009093B807A093B907B093BA07E5E5F2E0B6
:1035A000949108C08091C00085FFFCCF9093C60025
:1035B000319694919923B1F7E6E6F2E0949108C030
:1035C0008091C00085FFFCCF9093C6003196949106
:1035D0009923B1F78091C00085FFFCCF8AE08093EA
:1035E000C6008CE592E00E9453D30895F8940E949F
:1035F0006174159A10928E07179A10928F07429A4B
:1036000010929007A09A8FB7F89490910B01926056
:1036100090930B018FBFE5E5F2E0949108C0809193
:10362000C00085FFFCCF9093C600319694919923FA
:10363000B1F7E5EEF2E0949108C08091C00085FFFB
:10364000FCCF9093C600319694919923B1F7809165
:10365000C00085FFFCCF8AE08093C6008CED92E02D
:103660000E9462D3809A8898FFCF0E94D9146093F9
:10367000BB077093BC078093BD079093BE07E09192
:10368000E407F091E507EA51F84F80818823A9F417
:10369000E4E0F3E0949108C08091C00085FFFCCF86
:1036A0009093C600319694919923B1F78091C00010
:1036B00085FFFCCF8AE08093C60008950E94D9144C
:1036C0006093BB077093BC078093BD079093BE07C0
:1036D0000895EF92FF920F931F930E94D914E090E8
:1036E000BF07F090C0070091C1071091C207209159
:1036F000BB073091BC074091BD075091BE07621BCC
:10370000730B840B950BE616F7060807190738F4B8
:10371000E114F1040105110511F00E94F61A8091DF
:10372000A1039091A203A091A303B091A4030097D9
:10373000A105B10599F10E94D9142091BB073091E0
:10374000BC074091BD075091BE07621B730B840BF1
:10375000950B2091A1033091A2034091A3035091B6
:10376000A4032617370748075907C0F490914F1153
:1037700080915011981791F4159A10928E07179A0C
:1037800010928F07429A10929007A09A9FB7F894D0
:1037900080910B01826080930B019FBF0E94F25ABF
:1037A0001F910F91FF90EF9008956F927F928F92EB
:1037B0009F92AF92BF92CF92DF92EF92FF920F93C0
:1037C0001F93F82E6091C3077091C4078091C507BD
:1037D0009091C6072091C7073091C8074091C9074B
:1037E0005091CA070E94ADE13B014C0100D000D0CE
:1037F0000DB71EB70F5F1F4F609183037091840355
:10380000882777FD8095982F0E9434E02091A503AA
:103810003091A6034091A7035091A8030E9472E241
:1038200020E030E040E752E40E9499DF20E030E001
:1038300048EC52E40E9499DF5B016C01F801608260
:10384000718282829382F4828091A507858386E6C5
:1038500097E06FEC77E043EC57E020E001E032E0E6
:10386000E32E0E94F2548091CF079091D007A0914F
:10387000D107B091D2078093660790936707A09312
:103880006807B09369078091D3079091D407A091FE
:10389000D507B091D60780936A0790936B07A093E2
:1038A0006C07B0936D078091D7079091D807A091CE
:1038B000D907B091DA0780936E0790936F07A093B2
:1038C0007007B09371078091DB079091DC07A0919E
:1038D000DD07B091DE078093720790937307A09382
:1038E0007407B09375078DB79EB706960FB6F89418
:1038F0009EBF0FBE8DBF0E94D9146093BB0770930B
:10390000BC078093BD079093BE071F910F91FF9056
:10391000EF90DF90CF90BF90AF909F908F907F906F
:103920006F900895CF92DF92EF92FF920F931F93C3
:103930008FEC97E00E947B190E94D9146093BB071B
:103940007093BC078093BD079093BE076091660794
:103950007091670780916807909169072091CF0760
:103960003091D0074091D1075091D2070E9492DF49
:10397000882309F07AC060916A0770916B07809183
:103980006C0790916D072091D3073091D407409137
:10399000D5075091D6070E9492DF882309F065C0B1
:1039A0006091A5037091A6038091A7039091A8034D
:1039B00020E030E040E752E40E9499DF7B018C0177
:1039C0008FEC97E063ED77E047ED57E02BED37E0C4
:1039D000E5EACE2EE7E0DE2E0E94D95D8091CF078A
:1039E0009091D007A091D107B091D207809366073C
:1039F00090936707A0936807B09369078091D307F6
:103A00009091D407A091D507B091D60780936A070B
:103A100090936B07A0936C07B0936D078091D707C5
:103A20009091D807A091D907B091DA0780936E07DB
:103A300090936F07A0937007B09371078091DB0795
:103A40009091DC07A091DD07B091DE0780937207AB
:103A500090937307A0937407B09375071F910F910C
:103A6000FF90EF90DF90CF90089560918303709165
:103A70008403882777FD8095982F0E9434E0209159
:103A8000A5033091A6034091A7035091A8030E947B
:103A900072E220E030E040E752E40E9499DF20E04B
:103AA00030E048EC52E488CF81E09AE00E94234263
:103AB000E7E0F3E0949108C08091C00085FFFCCF5F
:103AC0009093C600319694919923B1F74091B30732
:103AD0005091B4076091B5077091B6074F5F5F4F83
:103AE0006F4F7F4F81E09AE02AE030E00E94E4428D
:103AF0008091C00085FFFCCF8AE08093C6000E94C1
:103B0000351B08952F923F924F925F926F927F9252
:103B10008F929F92AF92BF92CF92DF92EF92FF92DD
:103B20000F931F93DF93CF93CDB7DEB728970FB6D0
:103B3000F894DEBF0FBECDBF98878F838330910589
:103B400008F056C1FC01E959FA4FD4903C01660CCB
:103B5000771C660C771C93012A59384F3A832983C6
:103B600080E090E0A0E0B0E0F90180839183A2833F
:103B7000B38386E697E06AE677E04EE657E022E711
:103B800037E00E94CA58F301E659FA4FE590F590E4
:103B9000059114916D2D772767FD7095882777FD26
:103BA0008095982F0E9434E01B012C019301215332
:103BB000384F3C832B83C801B70120E030E040EC54
:103BC0005FE30E9472E2A20191010E9472E2AB8166
:103BD000BC816D937D938D939C931397F301ED5866
:103BE000FC4FFE83ED8360817181828193816093BC
:103BF000A5037093A6038093A7039093A80320E0E6
:103C000030E040E752E40E9499DF7B018C018FECA9
:103C100097E063ED77E047ED57E02BED37E0A5EA5D
:103C2000CA2EA7E0DA2E0E94D95D0E947E6B80E04A
:103C300090E0A0E0B0E0E981FA8180839183A283E3
:103C4000B38386E697E06AE677E04EE657E022E740
:103C500037E00E94CA58F301E656FA4F85909590D6
:103C6000A590B490C501B4019058A20191010E94A1
:103C700072E2AB81BC816D937D938D939C9313977E
:103C80006091A5037091A6038091A7039091A8036A
:103C900020E030E040E752E40E9499DF7B018C0194
:103CA0008FEC97E063ED77E047ED57E02BED37E0E1
:103CB0000E94D95D0E947E6BC501B401A5019401EB
:103CC0000E94B9DEA20191010E9472E2EB81FC81A7
:103CD0006083718382839383AD81BE816D917D9179
:103CE0008D919C9120E030E040E05FE30E9472E221
:103CF0006093A5037093A6038093A7039093A803F2
:103D000020E030E040E752E40E9499DF7B018C0123
:103D10008FEC97E063ED77E047ED57E02BED37E070
:103D20000E94D95D0E947E6BF301EA58FA4F6591BB
:103D3000759185919491F301EA58F84FA080B18074
:103D4000C280D380A60195010E94B9DE7B018C015F
:103D5000CB01D801E981FA8180839183A283B38367
:103D6000F301EE57FA4F6591759185919491F2E8C0
:103D70008F2EF7E09F2E860C971CA60195010E94BE
:103D8000B9DED4016D937D938D939C931397F301CA
:103D9000E257FA4F6591759185919491E3E9F3E0CB
:103DA0006E0E7F1EA60195010E94B9DED3016D93B0
:103DB0007D938D939C931397C701D801EB81FC8170
:103DC00080839183A283B38380E090E0A0E0B0E0A1
:103DD0008093A5039093A603A093A703B093A80391
:103DE0000E94646AAF81B885A257B84F81E08C9376
:103DF00028960FB6F894DEBF0FBECDBFCF91DF91EE
:103E00001F910F91FF90EF90DF90CF90BF90AF90F8
:103E10009F908F907F906F905F904F903F902F90EA
:103E20000895682F2091E4073091E50780E690E03F
:103E3000AC01249FC001259F900D349F900D11244B
:103E40008051984F70E00E94C1119C019093EF0740
:103E50008093EE0780E0232B09F081E00895FC01B8
:103E6000949108C08091C00085FFFCCF9093C6005C
:103E7000319694919923B1F781E09AE022E030E005
:103E80000E94F4430895FC01949108C08091C00001
:103E900085FFFCCF9093C600319694919923B1F79A
:103EA00081E09AE02AE030E00E94C54208958091C6
:103EB000EE079091EF07019660E070E04AE050E075
:103EC0000E94291008958091EE079091EF070196C6
:103ED00060E070E00E94C90E0895CF93DF93EC017B
:103EE0008091A5078093B20784E50E94111F882363
:103EF00009F482C00E94631F0E9406E0262F60938F
:103F0000B207623008F478C0EFE4F2E0949108C0A0
:103F10008091C00085FFFCCF9093C60031969491AC
:103F20009923B1F7CD36D105C1F0CE36D10544F491
:103F3000C836D105C1F0C936D10509F04DC010C051
:103F4000CA3DD10539F0CD3DD10509F045C0E0E0CD
:103F5000F2E03FC0E7E1F2E031C0EEE2F2E023C080
:103F6000E5E4F2E015C0ECE5F2E007C08091C000A6
:103F700085FFFCCF31969093C60090819923B1F7CD
:103F80002BC08091C00085FFFCCF31969093C60076
:103F900090819923B1F720C08091C00085FFFCCFAC
:103FA00031969093C60090819923B1F715C0809106
:103FB000C00085FFFCCF31969093C6009081992375
:103FC000B1F70AC08091C00085FFFCCF3196909375
:103FD000C60090819923B1F781E09AE0622F40E01A
:103FE00050E00E94D2428091C00085FFFCCF8AE061
:103FF0008093C60081E001C080E0DF91CF910895F9
:10400000AF92BF92CF92DF92EF92FF920F931F93E6
:10401000CF93DF9316E6E12E17E0F12ECFECD7E039
:1040200000E010E0F801E851FC4F80810E94111F70
:10403000882339F10E94631F5B016C01F801E05A8B
:10404000F84F8081882311F061E002C06091DF07A2
:1040500070E0882777FD8095982F0E9434E0F70163
:1040600020813181428153810E9472E29B01AC0127
:10407000C601B5010E94B9DE688379838A839B8378
:1040800009C0F70180819181A281B38188839983DE
:10409000AA83BB830F5F1F4F84E090E0E80EF91EF8
:1040A00024960430110509F0BDCF86E40E94111F4B
:1040B0008823E1F00E94631F7B018C016093E0077D
:1040C0007093E1078093E2079093E30720E030E0EC
:1040D00040E050E00E94A0E1181644F4E092A503ED
:1040E000F092A6030093A7031093A803DF91CF914A
:1040F0001F910F91FF90EF90DF90CF90BF90AF9006
:1041000008950E94002089E40E94111F882359F01D
:104110000E94631F6093C3077093C4078093C50711
:104120009093C6070CC080E090E0A0E0B0E08093E0
:10413000C3079093C407A093C507B093C6078AE44A
:104140000E94111F882359F00E94631F6093C707C4
:104150007093C8078093C9079093CA07089580E0B9
:1041600090E0A0E0B0E08093C7079093C807A093C9
:10417000C907B093CA0708952F923F924F925F925A
:104180006F927F928F929F92AF92BF92CF92DF9267
:10419000EF92FF920F931F93DF93CF93CDB7DEB7CC
:1041A000EE970FB6F894DEBF0FBECDBF87E40E9436
:1041B000111F882309F44EC40E94631F0E9401E06E
:1041C0006430710509F441C06530710554F4623002
:1041D000710541F1633071056CF57723CCF40C94D3
:1041E000063A6A35710509F4E0C36B35710534F49C
:1041F0006C31710511F00C94063A6FC06B35710586
:1042000009F4D7C36C35710511F00C94063AD6C386
:104210008091B007882331F40E9400200E94921CF4
:104220000C942D3A8091B007882321F40E948120BC
:1042300081E007C08091B007882339F40E94812073
:1042400080E00E94D51B0C942D3A8EE595E00E94EB
:1042500053D380E50E94111F882321F4EE24FF240C
:10426000870106C00E94631F0E9406E07B018C014B
:1042700083E50E94111F882361F00E94631F20E0E4
:1042800030E04AE754E40E9472E20E9406E07B01BB
:104290008C010E947E6B0E94D9145B016C01AE0CF4
:1042A000BF1CC01ED11E0E94D9146093BB0770931F
:1042B000BC078093BD079093BE0706C00E94C479D7
:1042C0000E94691B0E9485D30E94D9146A157B0540
:1042D0008C059D0598F30C94063A8091A503909166
:1042E000A603A091A703B091A8038093EA07909337
:1042F000EB07A093EC07B093ED07809183039091B7
:104300008403909365078093640784E690E090931C
:104310008403809383030E94D9146093BB07709336
:10432000BC078093BD079093BE0781E00E946B6A33
:104330008091660790916707A0916807B09169071F
:104340008093CF079093D007A093D107B093D20763
:1043500080916A0790916B07A0916C07B0916D07EF
:104360008093D3079093D407A093D507B093D60733
:1043700080916E0790916F07A0917007B0917107BF
:104380008093D7079093D807A093D907B093DA0703
:104390008091720790917307A0917407B09175078F
:1043A0008093DB079093DC07A093DD07B093DE07D3
:1043B00080E090E0A0E0B0E08093A5039093A60396
:1043C000A093A703B093A80388E50E94111F882338
:1043D00061F489E50E94111F882339F48AE50E945F
:1043E000111F882311F481E001C080E08093A903AC
:1043F000882361F488E50E94111F882309F41BC2F9
:1044000089E50E94111F882309F415C280E090E01D
:10441000A0E0B0E08093660790936707A0936807D9
:10442000B093690780936A0790936B07A0936C071A
:10443000B0936D07B7E68B2EB5E09B2EF401E490A8
:1044400086E697E06AE677E04EE657E022E737E057
:104450000E94CA58AAE66A2EA5E07A2EF301659159
:1044600075918591949120E030E040EC5FE30E94EB
:1044700072E25B016C01FF24E7FCF0940027F7FC7B
:104480000095102FC801B7010E9434E09B01AC01D8
:10449000C601B5010E9472E26093CF077093D00706
:1044A0008093D1079093D207F4E04F2E512C460C05
:1044B000571CF20165917591859194910894811C26
:1044C000911CF401D49020E030E040EC5FE30E94C6
:1044D00072E27B018C016D2D772767FD7095872F28
:1044E000972F0E9434E09B01AC01C801B7010E94E4
:1044F00072E26093D3077093D4078093D5079093AB
:10450000D607209173033091740340917503509145
:1045100076032093A5033093A6034093A7035093FB
:10452000A803E0907703F09078030091790310914D
:104530007A03C801B7010E9492DF882344F4E09215
:10454000A503F092A6030093A7031093A803F30119
:10455000A590B590C590D490F201E590F5900591A5
:104560001491C601B501A80197010E94A0E1181697
:104570002CF4C801B701A601950104C0C601B5011C
:10458000A80197010E9499DF9B01AC010E9472E291
:104590009B01AC01CA0120E030E040E85FE30E94EB
:1045A000B9DE0E94DFE29B01AC016091A50370912E
:1045B000A6038091A7039091A8030E9472E26093E2
:1045C000A5037093A6038093A7039093A80360911B
:1045D000A5037091A6038091A7039091A80320E002
:1045E00030E040E752E40E9499DF7B018C018FECC0
:1045F00097E063ED77E047ED57E02BED37E0E5EA34
:10460000CE2EE7E0DE2E0E94D95D0E947E6BE6E7AB
:10461000F5E065917591859194912091760730919F
:10462000770740917807509179070E94B9DE60932F
:104630006607709367078093680790936907E2E8BD
:10464000F5E065917591859194912091760730916F
:10465000770740917807509179070E94B9DE6093FF
:104660008207709383078093840790938507EEE811
:10467000F5E065917591859194912091760730913F
:10468000770740917807509179070E94B9DE6093CF
:104690009303709394038093950390939603EAE7B2
:1046A000F5E0659175918591949120917A0730910B
:1046B0007B0740917C0750917D070E94B9DE609393
:1046C0006A0770936B0780936C0790936D07E6E819
:1046D000F5E0659175918591949120917A073091DB
:1046E0007B0740917C0750917D070E94B9DE609363
:1046F0008607709387078093880790938907E2E97C
:10470000F5E0659175918591949120917A073091AA
:104710007B0740917C0750917D070E94B9DE609332
:104720009703709398038093990390939A0386E676
:1047300097E06AE677E04EE657E022E737E00E942E
:10474000CA588091660790916707A0916807B09159
:1047500069078093CF079093D007A093D107B093B8
:10476000D20780916A0790916B07A0916C07B09176
:104770006D078093D3079093D407A093D507B09388
:10478000D6076091A5037091A6038091A70390912D
:10479000A80320E030E040E752E40E9499DF7B016B
:1047A0008C018FEC97E063ED77E047ED57E02BED60
:1047B00037E00E94D95D80E090E0A0E0B0E0809317
:1047C000A5039093A603A093A703B093A8030E9408
:1047D0007E6B0E94646A8091CF079091D007A09170
:1047E000D107B091D2078093660790936707A09393
:1047F0006807B09369078091D3079091D407A0917F
:10480000D507B091D60780936A0790936B07A09362
:104810006C07B0936D078091D7079091D807A0914E
:10482000D907B091DA0780936E0790936F07A09332
:104830007007B09371078091A903882329F488E554
:104840000E94111F882321F080E090E00E94821DC9
:104850008091A903882329F489E50E94111F8823E8
:1048600021F081E090E00E94821D88E50E94111FE6
:104870008823D9F00E94571F6115710581059105A4
:10488000A1F00E94631F2091760730917707409135
:104890007807509179070E94B9DE6093660770939C
:1048A0006707809368079093690789E50E94111F45
:1048B0008823D9F00E94571F611571058105910564
:1048C000A1F00E94631F20917A0730917B074091ED
:1048D0007C0750917D070E94B9DE60936A07709350
:1048E0006B0780936C0790936D078091A9038823D1
:1048F00029F48AE50E94111F882321F082E090E0CC
:104900000E94821D8AE50E94111F8823D9F00E940F
:10491000571F6115710581059105A1F00E94631F64
:1049200020917E0730917F07409180075091810749
:104930000E94B9DE60936E0770936F0780937007D3
:104940009093710786E697E06AE677E04EE657E0D7
:1049500022E737E00E94CA5880E00E946B6A80918B
:10496000EA079091EB07A091EC07B091ED078093D7
:10497000A5039093A603A093A703B093A8038091E7
:1049800064079091650790938403809383030E944A
:10499000D9146093BB077093BC078093BD079093B5
:1049A000BE070E94646A0C94063A1092DF070C94CA
:1049B000063A81E08093DF070C94063A85E40E9472
:1049C000111F882311F40E947E6B46E6E42E47E017
:1049D000F42E36E7C32E37E0D32E00E010E0F801C6
:1049E000E851FC4F80810E94111F882331F1033070
:1049F00061F40E94631FF701608371838283938354
:104A000082E797E00E94AC5818C00E94631FF6012D
:104A100020813181428153810E94B9DEF701608398
:104A200071838283938386E697E06AE677E04EE6B9
:104A300057E022E737E00E94CA580F5F1F4F24E07B
:104A400030E0E20EF31EC20ED31E0430110539F61B
:104A50000C94063A8DE40E94111F882311F40C94E3
:104A6000AA380E94631F0E9401E06337710511F4A8
:104A70000C94362F643771050CF096C06F317105B8
:104A800009F487C3603271050CF041C066317105CD
:104A900009F4F4C167317105E4F46131710509F479
:104AA000A5C16231710534F46230710510F00C94C7
:104AB000063A3DC16431710509F4AAC16531710539
:104AC0000CF0D6C16231710511F00C94063A0C94C9
:104AD000302E6A31710509F409C26B3171054CF44D
:104AE0006831710509F4ECC1693171050CF0F8C148
:104AF000CBC16C31710509F41EC26C3171050CF427
:104B000014C26E31710511F00C94063A51C265352C
:104B1000710511F40C94992E66357105F4F4613524
:104B2000710511F40C94002E6235710554F4603255
:104B3000710509F483C26A32710511F00C94063ACA
:104B4000ADC36335710511F40C942B2E64357105DA
:104B500014F00C94302E0C94272E6A36710511F443
:104B60000C94C92D6B3671057CF46836710509F417
:104B7000DFC3693671050CF00CC46C35710511F09A
:104B80000C94063A0C94B02E6D36710509F43EC5AE
:104B90006237710511F40C945D2F6B36710511F0BD
:104BA0000C94063A0C94FA2D6D3D710511F40C9499
:104BB00070336E3D71050CF054C0683C710511F402
:104BC0000C945931693C710514F56837710511F47D
:104BD0000C945230693771055CF46537710511F436
:104BE0000C94462F6737710511F00C94063A9BC060
:104BF0006C38710509F4BCC36E3B710509F4B6C687
:104C00006937710511F00C94063A0C9457306D3CDD
:104C1000710511F40C9437326E3C71058CF46B3CC9
:104C2000710511F40C94F6316C3C710514F00C9480
:104C30001532693C710511F00C94063A0C94D3318D
:104C40006A3D710511F40C94B3326C3D710511F499
:104C50000C9461336E3C710511F00C94063A0C947F
:104C6000953231E0643F730711F40C94503541E004
:104C7000653F74074CF551E06D32750711F40C94E3
:104C8000263481E06E32780764F4623E710511F4D7
:104C90000C9497336C52714011F00C94063A0C94BA
:104CA000EF33E1E06F327E0711F40C940D35F1E043
:104CB0006F327F0714F40C94FE346059714011F088
:104CC0000C94063A0C944D3532E06835730711F4B4
:104CD0000C94613642E0693574079CF451E0663FFC
:104CE000750711F40C94563581E0663F780714F48B
:104CF0000C945335675F714011F00C94063A0C9494
:104D00005935E3E0603A7E0709F408C2F3E0673EF4
:104D10007F0711F40C9493386355734011F00C9491
:104D2000063A0C945C35E3E7F2E00C9463308DE4D2
:104D300095E00E9453D380E50E94111F882321F43F
:104D4000EE24FF24870106C00E94631F0E9406E034
:104D50007B018C0183E50E94111F882361F00E9472
:104D6000631F20E030E04AE754E40E9472E20E94B0
:104D700006E07B018C010E947E6B0E94D914609337
:104D8000BB077093BC078093BD079093BE07E114E7
:104D9000F1040105110501F10E94D9145B016C01B8
:104DA000AE0CBF1CC01ED11E0E94D9146A157B0513
:104DB0008C059D05A8F40E940C9B882389F40E9411
:104DC000C4790E94691B0E9485D3EECF0E94C479EA
:104DD0000E94691B0E9485D30E940C9B8823B1F31B
:104DE0008EE395E00E9453D30C94063A85E395E058
:104DF0000E9453D3159817984298A0989FB7F8949B
:104E000080910B018D7F80930B019FBF0C94063A1C
:104E1000E5E2F5E0949108C08091C00085FFFCCFE9
:104E20009093C600319694919923B1F78091C00078
:104E300085FFFCCF8AE08093C60083ED94E00E945A
:104E40004C8DE7E1F5E0949108C08091C00085FFAA
:104E5000FCCF9093C600319694919923B1F780913D
:104E6000C00085FFFCCF8AE08093C6000C94063A10
:104E700083ED94E00E94AB880C94063A83ED94E0B5
:104E80000E94E3800C94063A8091EE079091EF0720
:104E900004966AE270E00E94C111FC01009711F0D3
:104EA000319710826091EE077091EF076C5F7F4F32
:104EB00083ED94E041E021E00E94C1840C94063A25
:104EC00083ED94E00E94E7800E94D9146093A807C4
:104ED0007093A9078093AA079093AB070C94063AA6
:104EE00083ED94E00E94EE800C94063A8091D60403
:104EF000882311F40C94063A83E50E94111F88233D
:104F000011F40C94063A0E94571FAB01BC01409368
:104F1000560750935707809358077093590781EAB3
:104F200096E00E94F7460C94063A83ED94E00E94C6
:104F3000AC820C94063A8091EE079091EF070496AC
:104F40006AE270E00E94C1118C01009719F1209172
:104F5000E4073091E50780E690E0AC01249FC001B2
:104F6000259F900D349F900D11248051984F6EE431
:104F700070E00E94C11160E270E00E94C1119C01CA
:104F80002F5F3F4F3093EF072093EE070150104003
:104F9000F80110826091EE077091EF076C5F7F4F10
:104FA00083ED94E040E021E00E94C1840C94063A35
:104FB0008091D604882311F40C94063A83ED94E092
:104FC00060E00E941B828091EE079091EF070496AB
:104FD0006AE270E00E94C1118C01009719F12091E2
:104FE000E4073091E50780E690E0AC01249FC00122
:104FF000259F900D349F900D11248051984F6EE4A1
:1050000070E00E94C11160E270E00E94C1119C0139
:105010002F5F3F4F3093EF072093EE070150104072
:10502000F80110826091EE077091EF076C5F7F4F7F
:1050300083ED94E00E9406830C94063A8091D50497
:10504000882311F00E947E6BE090EE07F090EF074E
:1050500024E030E0E20EF31EC7016AE270E00E9435
:10506000C1118C01C70161E270E00E94C11100977B
:1050700021F07C010894E11CF11C0115110521F0BF
:1050800001501040F801108280E50E94111F182F76
:105090008091EE079091EF07E816F90608F410E00A
:1050A0008091D604882311F40C94063A21E021273C
:1050B00083ED94E0B70141E00E94C18483E50E9442
:1050C000111F8823B9F08091EE079091EF078E159C
:1050D0009F0580F40E94571FAB01BC014093560707
:1050E00050935707809358077093590781EA96E0C9
:1050F0000E94F74683ED94E00E94E780112311F0AF
:105100000C94063A0E94D9146093A8077093A907DB
:105110008093AA079093AB070C94063A8091EE0710
:105120009091EF0705966AE270E00E94C1118C0130
:10513000009719F12091E4073091E50780E690E0AF
:10514000AC01249FC001259F900D349F900D112428
:105150008051984F6EE470E00E94C11160E270E0EF
:105160000E94C1119C012F5F3F4F3093EF072093A6
:10517000EE0701501040F80110826091EE07709127
:10518000EF076B5F7F4F83ED94E00E94A2880C9441
:10519000063A0E94D9146093AC077093AD078093D0
:1051A000AE079093AF072091A8073091A9074091CF
:1051B000AA075091AB07621B730B840B950B28EE6B
:1051C00033E040E050E00E948AE3F22EE32ED42E3A
:1051D000C52E2DB73EB7285030400FB6F8943EBFCD
:1051E0000FBE2DBF0DB71EB70F5F1F4FCE018196AB
:1051F000EDB7FEB79283818388E095E0F801938351
:1052000082836F2D7E2D842F952F2CE330E040E09C
:1052100050E00E948AE3F801358324836F2D7E2DB0
:105220008D2D9C2D2CE330E040E050E00E948AE37D
:10523000F801778366830E94F011EFE4F2E0949125
:105240002DB73EB7285F3F4F0FB6F8943EBF0FBE55
:105250002DBF08C08091C00085FFFCCF9093C60091
:10526000319694919923B1F7FE01B19607C08091D0
:10527000C00085FFFCCF31969093C60090819923A2
:10528000B1F78091C00085FFFCCF8AE08093C60013
:10529000CE0181960E9476D30C94063A83E50E9453
:1052A000111F882311F40C94063A0E94631F0E9478
:1052B00001E07B018C016B0180E50E94111F8823B6
:1052C00069F0F7FC0BC03FEFE316F10409F034F48A
:1052D0000E94631F0E9401E08B0102C00DE010E0FC
:1052E000ECEEF3E0808191818017910711F40C942A
:1052F000063A329644E0EC36F407A1F70730110580
:1053000029F4D092A707C092A60704C017FF02C0D5
:105310000C94063A802F61E00E948C16802F6C2D31
:105320000E943F17802FB6010E94AC150C94063ADC
:1053300088E690E00E946D1F882311F00C94063AD5
:1053400083E50E94111F882379F00E94631F20913A
:10535000B207022F10E0000F111F00551E4E0E94D1
:1053600001E0F801718360830E94DE760C94063AB6
:1053700083E50E94111F882311F40C94063A0E94C1
:10538000631F0E9401E07093B5116093B4110C94F7
:10539000063A89E690E00E946D1F882311F00C9474
:1053A000063AE2E0F5E0949108C08091C00085FFE4
:1053B000FCCF9093C600319694919923B1F7E09178
:1053C000B207F0E0EE0FFF1FEE0FFF1FE654FE4E98
:1053D000408151816281738181E09AE021E030E077
:1053E0000E94F443EFEFF4E0949108C08091C00074
:1053F00085FFFCCF9093C600319694919923B1F725
:10540000E091B207F0E0EE0FFF1FE055FE4E608125
:105410007181882777FD8095982F0E9434E0AB0139
:10542000BC0181E09AE021E030E00E94F443EBEF20
:10543000F4E0949108C08091C00085FFFCCF909368
:10544000C600319694919923B1F74091C4115091BF
:10545000C5116091C6117091C71181E09AE021E0F9
:1054600030E00E94F443E8EFF4E0949108C08091AA
:10547000C00085FFFCCF9093C6003196949199238C
:10548000B1F76091B4117091B511882777FD8095BF
:10549000982F0E9434E0AB01BC0181E09AE021E04A
:1054A00030E00E94F44300EBC02E01E1D02E1AEB55
:1054B000E12E11E1F12E00E010E0E5EFF4E0949030
:1054C000E3EFF4E0A490E0EFF4E0B490992DE5EF81
:1054D000F4E008C08091C00085FFFCCF9093C60027
:1054E000319694919923B1F781E09AE0B8014AE0AE
:1054F00050E00E9419439A2DE3EFF4E008C0809138
:10550000C00085FFFCCF9093C600319694919923FB
:10551000B1F7F701408151816281738181E09AE0A6
:1055200021E030E00E94F4439B2DE0EFF4E008C05E
:105530008091C00085FFFCCF9093C6003196949176
:105540009923B1F7F601619171916F01882777FD79
:105550008095982F0E9434E0AB01BC0181E09AE075
:1055600021E030E00E94F4430F5F1F4F24E030E061
:10557000E20EF31E0230110509F0A8CFECEEF4E0C4
:10558000949108C08091C00085FFFCCF9093C60025
:10559000319694919923B1F78091B2070E94A67336
:1055A000BC0181E09AE04AE050E00E941943E7EE36
:1055B000F4E0949108C08091C00085FFFCCF9093E7
:1055C000C600319694919923B1F78FEF9FEF0E9417
:1055D000A673BC0181E09AE04AE050E00E941943C2
:1055E000ECE8F2E007C08091C00085FFFCCF319667
:1055F0009093C60090819923B1F78091C00085FFF8
:10560000FCCF8AE08093C6000C942D3A8DE690E0A2
:105610000E946D1F882311F00C94063A8CED94E0E3
:105620000E9453D383E50E94111F882399F00E94A2
:10563000631F2091B207022F10E0000F111F0055C9
:105640001E4E0E9401E0F8017183608381E0809327
:10565000A00316C082E50E94111F882389F00E94D2
:10566000631F2091B207022F10E0000F111F005599
:105670001E4E0E9401E0F801718360831092A00326
:105680000E94DE760E94D9144B015C012091B20782
:10569000022F10E01092B107000F111FF801E05522
:1056A000FE4E60817181882777FD8095982F0E943A
:1056B00034E0000F111F06541E4EF8012081318185
:1056C000428153810E94A0E118161CF481E080936E
:1056D000B107CC24CA94DC2C7601E9EDF4E05490B7
:1056E000E5EDF4E06490E1EDF4E074907AE0472EAB
:1056F00030C1952DE9EDF4E008C08091C00085FF30
:10570000FCCF9093C600319694919923B1F7E09124
:10571000B207F0E0EE0FFF1FEE0FFF1FE654FE4E44
:10572000408151816281738181E09AE021E030E023
:105730000E94F443962DE5EDF4E008C08091C0008E
:1057400085FFFCCF9093C600319694919923B1F7D1
:105750006091B20781E09AE070E04AE050E00E9478
:105760001943972DE1EDF4E008C08091C00085FF5A
:10577000FCCF9093C600319694919923B1F7F7FE30
:1057800003C0EDE8F2E028C00E94D914A7019601F9
:105790002854344F4F4F5F4F261B370B480B590B84
:1057A000CA01B90128EE33E040E050E00E948AE3EC
:1057B00081E09AE0BA01A9012AE030E00E94C542E6
:1057C0008091C00085FFFCCF0EC08091C00085FF96
:1057D000FCCF31969093C60090819923B1F78091C8
:1057E000C00085FFFCCF4092C6000E94D9144B0137
:1057F0005C010E94C4790E94691B0E9485D3FFEF5F
:10580000CF16FFEFDF06FFEFEF06FFEFFF0609F011
:1058100052C08091B107E091B207882331F1F0E0E6
:105820008F01000F111F000F111F06541E4EEE0FA7
:10583000FF1FE055FE4E60817181882777FD8095BE
:10584000982F0E9434E020E030E040E85FE30E94BF
:10585000B8DE9B01AC01F801608171818281938186
:105860000E94A0E187FF58C05EC0F0E08F01000FEA
:10587000111F000F111F06541E4EEE0FFF1FE055A3
:10588000FE4E60817181882777FD8095982F0E9458
:1058900034E020E030E040E85FE30E94B9DE9B01A5
:1058A000AC01F80160817181828193810E9492DF55
:1058B000181694F538C0F7FC36C0E091B207F0E056
:1058C0008F01000F111F000F111F06541E4EEE0F07
:1058D000FF1FE055FE4E60817181882777FD80951E
:1058E000982F0E9434E09B01AC01F8016081718126
:1058F000828193810E94B8DE0E9401E097FF07C079
:1059000090958095709561957F4F8F4F9F4F643034
:105910007105810591053CF00E94D914AC01CB01C1
:10592000DA016C017D01FFEFCF16FFEFDF06FFEF1D
:10593000EF06FFEFFF0669F0F7FE02C00C94093A8C
:105940000E94D9146C197D09685B7B4010F00C949F
:10595000093A0E94D914681979098A099B09695E74
:1059600073408040904008F0C4CE43CF86EB94E073
:105970000E9453D383E50E94111F882361F00E9487
:10598000631F0E9401E07093B5116093B41181E030
:105990008093A0030FC082E50E94111F882351F05D
:1059A0000E94631F0E9401E07093B5116093B411CF
:1059B0001092A0030E94D9147B018C011092B107B0
:1059C0006091B4117091B511882777FD8095982F5B
:1059D0000E9434E02091C4113091C5114091C6114C
:1059E0005091C7110E94A0E118160CF082C081E00E
:1059F0008093B1077EC00E94D9146E197F09800B75
:105A0000910B695E73408040904008F46BC0E09158
:105A1000A507F0E0EE0FFF1FEE0FFF1FE654FE4E4E
:105A200040815181628173819B2DE3EBF4E008C0DA
:105A30008091C00085FFFCCF9093C6003196949171
:105A40009923B1F781E09AE022E030E00E94F4432C
:105A50009C2DEFEAF4E008C08091C00085FFFCCFE8
:105A60009093C600319694919923B1F76091A50760
:105A700081E09AE070E04AE050E00E9419439D2DD9
:105A8000EBEAF4E008C08091C00085FFFCCF909362
:105A9000C600319694919923B1F74091C411509169
:105AA000C5116091C6117091C71181E09AE021E0A3
:105AB00030E00E94F443ECE8F2E007C08091C000BF
:105AC00085FFFCCF31969093C60090819923B1F762
:105AD0008091C00085FFFCCFA092C6000E94D9141F
