:100000000C94C11A0C94F21A0C94F21A0C94F21A71
:100010000C94F21A0C94F21A0C94F21A0C94F21A30
:100020000C94F21A0C94F21A0C94F21A0C94F21A20
:100030000C94F21A0C94F21A0C94F21A0C94F21A10
:100040000C94F21A0C94C4930C94F21A0C94F21AB5
:100050000C94F21A0C94F21A0C9483390C948D437C
:100060000C94F21A0C94F6370C94EC370C94F21AA8
:100070000C94F21A0C94F21A0C94F21A0C94F21AD0
:100080000C94F21A0C94F21A0C94F21A0C94F21AC0
:100090000C94F21A0C94F21A0C94F21A0C94F21AB0
:1000A0000C94F21A0C94F21A0C94F21A0C94F21AA0
:1000B0000C94F21A0C94F21A0C94F21A0C94F21A90
:1000C0000C94F21A0C94F21A0C94F21A0C94F21A80
:1000D0000C94F21A0C94F21A0C94F21A0C94F21A70
:1000E0000C94F21A2C383E385038613869389C38F4
:1000F0006D389C38713875389C3879387D3881383E
:100100008A389C389538219326932B9335933F93C7
:10011000B89349935193599363936D9377938693CF
:100120009093B8939A93A493AE93B7CE90CE93CE78
:10013000BACE96CE99CE9CCEA8CE9FCEB5CEA2CE2C
:10014000A5CED8CEDBCECACECECED4CE12CFDFCE89
:10015000E3CEE9CEEDCEF1CEF7CEFBCEFFCE12CF81
:1001600005CF09CF0DCF9AF1D9EF12F0D6F112F0E9
:1001700012F012F012F012F012F012F012F012F06F
:1001800012F012F012F012F012F012F012F012F05F
:1001900012F012F012F012F012F012F012F012F04F
:1001A00012F0D0F112F012F012F012F012F012F080
:1001B00012F012F0A9F112F012F012F012F012F097
:1001C00012F012F012F012F012F0EDF10FF0084AF6
:1001D000D73B3BCE016E84BCBFFDC12F3D6C74315B
:1001E0009ABD56833DDA3D00C77F11BED9E4BB4CB2
:1001F0003E916BAAAABE000000803F05A84CCDB27C
:10020000D44EB93836A9020C50B9918688083CA65C
:10021000AAAA2ABE000000803F000C94E3CE0C94F2
:10022000FE440C9471380C9490930C949AF10C94B5
:1002300009CF0C943DE30C94215B0C94BFE40C9427
:1002400024440C9456E30C94DACB0C946D380C9443
:1002500079380C9496CE0C941DCA0C9469E30C94D6
:100260008D440C946EC90C94C6E30C9462EB0C9410
:10027000D7430C94EDF10C949D6F0C94F3DE0C9429
:1002800093440C943E380C94E0440C9450380C94F5
:100290007D380C941ADF0C9479B70C940CB90C943B
:1002A00069440C941EB10C94F6CB0C94426C0C94E3
:1002B0002DBC0C9421930C943EB20C94955D0C943F
:1002C000086A0C941C5B0C94DC6D0C94F35D0C942C
:1002D00099CE0C945BBC0C942CCB0C9493CE0C94C8
:1002E000705D0C94F2CB0C9486930C94EFDE0C941E
:1002F0000B440C946FE80C9426930C94D3440C9408
:100300006F440C94EF440C94B7CE0C9487BC0C94BF
:100310006D930C94A2CE0C9412F00C9401B10C9439
:10032000FA690C9410EB0C947FB70C94ABE30C942B
:100330007B600C9495380C9412CF0C9444B20C94BE
:10034000B5CE0C94D0F10C9461B60C948FE30C9460
:100350009A930C94D1E40C94CECE0C94FACB0C94DA
:100360006B5D0C9434B20C9461430C943F930C94E9
:100370002B5B0C940FF00C9461380C94D3B00C945C
:100380008A380C949B5D0C9451930C94D8CE0C94A9
:1003900010B90C949EEB0C94C5E40C9487440C9417
:1003A000FA5E0C94CACE0C94CBE40C94EECB0C9475
:1003B000AE930C9426B10C94FA5D0C942FB20C946D
:1003C0009C380C9427CA0C94C7EA0C947BB70C9405
:1003D0003D440C9449930C940EB90C948E620C9489
:1003E00069380C94BAE30C94A5CE0C94B5B40C9473
:1003F00077B70C940EB10C94FFCE0C94F7CE0C94FE
:100400007D480C94EDCE0C94EACB0C9459930C944B
:10041000F6B00C94E6CB0C940AB90C94BACE0C94BA
:100420007CE30C94DFCE0C9408B90C94C54A0C9470
:10043000FECB0C94FBCE0C94A8CE0C948F5D0C9448
:1004400002CC0C9439B20C9481380C9414CA0C94DC
:10045000C6C90C94A4930C94A8E30C940CB10C940E
:10046000B64A0C949CCE0C94F2430C9490CE0C940F
:100470007CDF0C9463930C94A9F10C9422B10C943E
:1004800077930C947F450C942B930C94DECB0C94B7
:10049000D9EF0C94E56A0C94F1CE0C9475440C944D
:1004A00027E80C94DBCE0C94A96F0C940DCF0C9420
:1004B000D4CE0C944B390C94EA9D0C94F0DE0C9441
:1004C00035930C94B8930C9431470C9450440C948D
:1004D00024CB0C94AE5F0C947DB70C94D6F10D94A4
:1004E0003D020C949FCE0C942C380C9475380C94CF
:1004F000A15D0C9472EF0C94E9CE0C94265B0C94E5
:10050000755D0C94175B0C94AEE30C94E2CB0C94E9
:100510007B440C94ADC90C9405CF0D941F020C9430
:1005200081444E414E494E495459494E46CDCCCC5A
:100530003D0AD7233C17B7D13877CC2B329595E6B7
:10054000241FB14F0A000020410000C84200401C97
:100550004620BCBE4CCA1B0E5AAEC59D7400407AE4
:1005600010F35A00A0724E18090010A5D4E800003C
:10057000E87648170000E40B54020000CA9A3B00DA
:100580000000E1F505000080969800000040420F51
:10059000000000A08601000000102700000000E815
:1005A00003000000006400000000000A00000000DA
:1005B000000100000000002C76D888DC674F08237B
:1005C000DFC1DFAE59E1B1B796E5E3E453C63AE6E1
:1005D00051997696E8E6C28426EB898C9B62ED40C1
:1005E0007C6FFCEFBC9C9F40F2BAA56FA5F4900510
:1005F0005A2AF75C936B6CF9676DC11BFCE0E40D44
:1006000047FEF520E6B500D0ED902E030094357737
:10061000050080841E080000204E0A000000C80C5F
:10062000333333330F986E12831141EF8D211489C8
:100630003BE65516CFFEE6DB18D1844B381BF77C22
:100640001D901DA4BBE424203284725E228100C967
:10065000F124ECA1E53D27434F4D4D554E49434113
:1006600054494F4E0044525952554E004552524F34
:100670005253004543484F00536C6565702E2E2E33
:10068000004D302053746F70004D312053746F70E3
:1006900000436C69636B20746F20526573756D65E0
:1006A0002E2E2E004E6F204D6F76652E00456E6407
:1006B0002066696C65206C6973740A00426567691D
:1006C0006E2066696C65206C6973740A00526573EC
:1006D000756D696E6720534400286E6F2066696CE3
:1006E00065290043757272656E742066696C653A9F
:1006F00020002569792025696420256968202569FD
:100700006D20256973005072696E742074696D657F
:100710003A2000452025530044454255473A004DB4
:10072000313133205300424C41434B42454C54201D
:100730003344204F46462E004348414D4245525FC8
:1007400054454D504552415455524500424142593D
:100750005354455050494E470041524353004D4F6A
:1007600054494F4E5F4D4F44455300544845524DF8
:10077000414C5F50524F54454354494F4E004C4FEB
:100780004E475F46494C454E414D45004155544FFB
:100790005245504F52545F53445F53544154555344
:1007A000005344434152440050524F4D50545F5304
:1007B0005550504F525400454D455247454E4359B0
:1007C0005F50415253455200434153455F4C4947A6
:1007D00048545F4252494748544E45535300544F82
:1007E00047474C455F4C494748545300534F465484
:1007F000574152455F504F574552004255494C446E
:100800005F50455243454E54004C4556454C494E69
:10081000475F44415441005A5F50524F42450041A6
:1008200055544F4C4556454C005052494E545F4A22
:100830004F420050524F4752455353004155544F79
:100840005245504F52545F54454D5000564F4C55F1
:100850004D455452494300454550524F4D00424981
:100860004E4152595F46494C455F5452414E5346A2
:1008700045520053455249414C5F584F4E5F584FC7
:100880004646004649524D574152455F4E414D45FF
:100890003A4D61726C696E20322E302E3620666FB2
:1008A0007220424C41434B42454C54203344204239
:1008B0006F7764656E20284E6F762033302032309B
:1008C00032302031363A34343A34342920534F55BB
:1008D0005243455F434F44455F55524C3A687474E8
:1008E00070733A2F2F6769746875622E636F6D2F6E
:1008F000426C61636B42656C7433442F4D61726C62
:10090000696E2050524F544F434F4C5F56455253DF
:10091000494F4E3A312E30204D414348494E455FB4
:10092000545950453A424C41434B42454C54203374
:10093000442045585452554445525F434F554E54F8
:100940003A3120555549443A3738623030323031E7
:100950002D306666362D343164302D386630382DB2
:1009600061323538363561646563660A002F2F20A1
:10097000004D31343520533C696E6465783E206FFC
:100980007574206F662072616E67652028302D3186
:10099000290A00416363656C65726174696F6E3A20
:1009A00020500046523A0020466C6F773A200050A3
:1009B000726F7465637465642050696E0A00206408
:1009C0003A0020693A0020703A00496E76616C69FD
:1009D000642065787472756465720A0064697300D6
:1009E00043290A0061626C656420286D696E207479
:1009F000656D702000436F6C642065787472756457
:100A0000657320617265200046696C616D656E7466
:100A10002072756E6F757420004F6666736574730F
:100A2000204170706C696564004572723A20546FA1
:100A30006F206661722100546F6F206661722066BC
:100A4000726F6D207265666572656E636520706F8A
:100A5000696E740A00454550524F4D2064697361B8
:100A6000626C65640A002028302D31302900207620
:100A7000616C7565206F7574206F662072616E679A
:100A80006500416476616E6365204B3D00506F7771
:100A900065722D6C6F7373207265636F7665727902
:100AA0002000446F6E65207072696E74696E6720F5
:100AB00066696C650A004D3737004D3331007306A7
:100AC000DC0A6C0665065706554E4B4E4F574E20B6
:100AD00053544154450047434F44455F494E464FA8
:100AE000004C43445F50415553455F524553554D6B
:100AF000450046494C414D454E545F52554E4F5569
:100B0000545F434F4E54494E55450046494C414D64
:100B1000454E545F52554E4F5554004D3837362090
:100B2000526573706F6E64696E672050524F4D50FE
:100B3000545F0053544F505045442E20005072696A
:100B40006E7465722073746F70706564206475656F
:100B500020746F206572726F72732E204669782040
:100B6000746865206572726F7220616E642075739F
:100B700065204D39393920746F2072657374617244
:100B8000742E202854656D706572617475726520CD
:100B900069732072657365742E20536574206974BF
:100BA0002061667465722072657374617274696E17
:100BB00067290A004E6F20436865636B73756D206B
:100BC00077697468206C696E65206E756D626572F8
:100BD0002C204C617374204C696E653A2000636868
:100BE00065636B73756D206D69736D617463682CDB
:100BF000204C617374204C696E653A20004C696E1C
:100C000065204E756D626572206973206E6F742069
:100C10004C617374204C696E65204E756D6265720F
:100C20002B312C204C617374204C696E653A200086
:100C30004D31313000534420726561642065727219
:100C40006F720A002121204B494C4C20636175735F
:100C50006564206279204B494C4C20627574746F36
:100C60006E2F70696E0A002121204B494C4C206385
:100C7000617573656420627920746F6F206D756390
:100C80006820696E6163746976652074696D65209A
:100C90002D2063757272656E7420636F6D6D616E69
:100CA000643A2000627573793A20706175736564E7
:100CB00020666F7220696E7075740A0062757379B0
:100CC0003A2070617573656420666F722075736574
:100CD000720A00627573793A2070726F636573737C
:100CE000696E670A004D656469612052656D6F76B3
:100CF0006564004D6564696120496E736572746551
:100D000064004D31303030205300706175736500E0
:100D10004D363030002066696C616D656E745F72AF
:100D2000756E6F7574200066696C616D656E745FB9
:100D300072756E6F757420540046696C616D656ED6
:100D40007452756E6F7574205400506C65617365D4
:100D5000205265736574005052494E5445522048E4
:100D6000414C5445440025533A20255300706F7779
:100D700065726F6666004B494C4C45442E2000500E
:100D800072696E7465722068616C7465642E206B84
:100D9000696C6C28292063616C6C6564210A0025EC
:100DA000301D0C282924311C0B4527232F1B0A44F6
:100DB00043212A193F40222B1A41420902360308D7
:100DC000070203380001453100626564002C20737E
:100DD000797374656D2073746F7070656421204839
:100DE00065617465725F49443A20004865617469C1
:100DF0006E67204661696C65640048656174696E60
:100E000067206661696C6564004D3131322053683A
:100E10007574646F776E00202D20496E76616C6961
:100E200064206578747275646572206E756D626594
:100E30007220210A00544845524D414C2052554ED3
:100E40004157415900546865726D616C2052756E4E
:100E500061776179004572723A204D415854454D91
:100E600050004D415854454D502074726967676574
:100E7000726564004572723A204D494E54454D509A
:100E8000004D494E54454D50207472696767657234
:100E9000656400F006C300000CA500600E9B0030E6
:100EA000119100B0138700C0177800E01A6E00405F
:100EB0001F5F00A02255008029460060303C00C022
:100EC000353200703A2800603C1E00A03D140080BE
:100ED0003E0A00203F00000000000000000000006B
:100EE0000000000000000000000000000000000002
:100EF00000000000000000000000000000000000F2
:100F000000000000000000000000000000000000E1
:100F100000000000000000000000000000000000D1
:100F200000000000000000000000000000000000C1
:100F300000000000000000000000000000000000B1
:100F400000000000000000000000000000000000A1
:100F50000000000000000000000000000000000091
:100F60000000000000000000000000000000000081
:100F70000000000000000000000000000000000071
:100F80000000000000000000000000000000000061
:100F90000000000000000000000000000000000051
:100FA0000000000000000000000000000000000041
:100FB0000000000000000000000000000000000031
:100FC0000000000000000000000000000000000021
:100FD0000000000000000000000000000000000011
:100FE0000000000000000000000000000000000001
:100FF00000000000000000000000000000000000F1
:1010000000000000000000000000000000000000E0
:1010100000000000000000FFFFFFFFFFFFFFFFFFD9
:10102000FFFFFFFFFFFFFFFFFFFFFFFFFFFFFFFFD0
:10103000FFFFFFFFFFFFFF000000000000000000B7
:10104000000000000000003FF87C007F00FF9F1FB1
:10105000BFF83FFBF0FFFC3FFC7C00FF83FF9F1FBE
:101060003FFC7FFBF0FFFC3FFE7C00FF87FF9F3FC4
:101070003FFE7FFBF0FFFC3FFE7C00FF87FF9F7E73
:101080003FFE7FFBF0FFFC3E3E7C01FF87E01F7EC2
:101090003E3E7C03F00FC03E3E7C01F7CFC01FFCFC
:1010A0003E3E7C03F00FC03FFE7C01F7CFC01FFC2B
:1010B0003FFC7FF3F00FC03FF87C01F7CFC01FF873
:1010C0003FF87FF3F00FC03FFC7C03E3EFC01FF855
:1010D0003FFC7FF3F00FC03E7E7C03FFEFC01FFCA0
:1010E0003E7E7FF3F00FC03E3E7C03FFEFC01F7CCF
:1010F0003E3E7C03F00FC03E3E7E07FFE7E01F7ED2
:101100003E3E7C03F80FC03FFE7FF7FFF7FF9F3E98
:101110003FFE7FFBFF8FC03FFE7FF7C1F7FF9F3F82
:101120003FFE7FFBFF8FC03FFE7FF7C1F3FF9F1F96
:101130003FFE7FF9FF8FC03FFC3FF7C1F0FF9F1FCD
:10114000BFF83FF8FF8FC000000000000000000063
:1011500000000000000000FFFFFFFFFFFFFFFFFF98
:10116000FFFFFFFFFFFFFFFFFFFFFFFFFFFFFFFF8F
:10117000FFFFFFFFFFFFFF00000000000000000076
:10118000000000000000000000000000000000005F
:10119000000000000000000000000000000000004F
:1011A000000000000000000000000000000000003F
:1011B000000000000000000000000000000000002F
:1011C000000000000000000000000000000000001F
:1011D000000000000000000000000000000000000F
:1011E00000000000000000000000000000000000FF
:1011F00000000000000000000000000000000000EF
:1012000000000000000000000000000000000000DE
:1012100000000000000000000000000000000000CE
:1012200000000000000000000000000000000000BE
:1012300000000000000000000000000000000000AE
:10124000000000000000000000000000000000009E
:10125000000000000000000000000000000000008E
:10126000000000000000000000000000000000007E
:10127000000000000000000000000000000000006E
:10128000000000000000000000000000000000005E
:10129000000000000000000000000000000000004E
:1012A000000000000000000000000000000000003E
:1012B000000000000000000000000000000000002E
:1012C000000000000000000000000000000000001E
:1012D0000000000000000001FFFFFFFFFFFFFFFF15
:1012E000FFFFFFFFFF0FFFFFFFFFFFFFFFFFFFFFFE
:1012F000FFFFFF1E0000000000000000000007FFCD
:10130000FF380000000000000000000003FFFF7035
:101310000000000000000000000001FFFF6000006E
:10132000000000000000000000FFFF60000000005F
:10133000000000000000007FFFC00000000000006F
:1013400000007800003FFFC00FC0FC00000000005C
:101350007818001FFFC03FE1FF0000000000783C4C
:10136000000FFFC07FF3FF8000000000783C000703
:10137000FFC0FFFFFFC000000000783C0003FFC17A
:10138000F87F87E00000000078000001FFC1F03F17
:1013900003E00000000078000000FFC1E01E01E053
:1013A0001F0003E0783C03F07FC1E01E01E07FC036
:1013B0000FF8783C07FC3FC1E01E01E1FFE01FFC95
:1013C000783C0FFE1FC1E01E01E3FFF03FFE783CBA
:1013D0001FFE0FC1E01E01E3F3F83F3E783C3F3FA4
:1013E00007C1E01E01E7E0FC7C1F783C3E1F07C1FF
:1013F000E01E01E7C07C7C0F783C3C0F03C1E01E7F
:1014000001E7807C780F783C3C0F03C1E01E01E7C8
:10141000803C7800783C3C0F03C1E01E01E7803C33
:101420007800783C3C0F03C1E01E01E7803C780067
:10143000783C3C0F03C1E01E01E7C03C7800783CDB
:101440003C0F03C1E01E01E3E03C78007C3C3C0F14
:1014500003C1E01E01E3FF3FF8007FBC3C0F03C166
:10146000E01E01E1FF3FF8003FBFFC0F03C1E01E9B
:1014700001E0FF3FF8001FBFFC0F03C1E01E01E0C9
:101480007F3FF8000FBFFC0F03600000000000006A
:1014900000000000000007600000000000000000E5
:1014A00000000000067000000000000000000000C6
:1014B00000000E38000000000000000000000000E6
:1014C0001C1E000000000000000000000000780F5B
:1014D000FFFFFFFFFFFFFFFFFFFFFFFFF001FFFF29
:1014E000FFFFFFFFFFFFFFFFFFFF801000C902109B
:1014F000012C014001220170011801B0010E01F020
:101500000104015002FA00B002F0003003E600D0FE
:1015100003DC009004D2007005C800A006BE0000E5
:1015200008B400B009AA00D00BA000600E960060BD
:10153000118C000015820020197800C01D6E00A0DB
:10154000226400B0275A00902C500000314600E081
:10155000343C0010383200903A2800603C1E00A055
:101560003D1400803E0A00203F00006874747073D0
:101570003A2F2F6D61726C696E66772E6F726700FD
:10158000322E302E362D4242002020506C616E6E7D
:10159000657242756666657242797465733A2000B9
:1015A0002046726565204D656D6F72793A20004363
:1015B0006F6D70696C65643A204E6F762033302011
:1015C000323032300A00204C6173742055706461EF
:1015D0007465643A20323032302D30372D32372066
:1015E0007C20417574686F723A202852696B2054D0
:1015F0006865756E697373656E202F20426C616338
:101600006B62656C74203344290A00322E302E360A
:101610002D42420A004D61726C696E0020536F6664
:1016200074776172652052657365740A0020576192
:10163000746368646F672052657365740A002042A2
:10164000726F776E206F75742052657365740A002F
:101650002045787465726E616C2052657365740AFA
:1016600000506F77657255700A006175746F25635D
:101670002E67004732385859004D313030310065FF
:1016800072726F722077726974696E6720746F204E
:1016900066696C650A00446F6E6520736176696ED9
:1016A000672066696C652E0A004D323900456E640C
:1016B00073746F70730025532025632025632025E4
:1016C0006320256300656E6473746F7073206869AE
:1016D000743A20004C6F6164206D6D00556E6C6F24
:1016E0006164206D6D0046696C2E204469612E0096
:1016F0004520696E206D6DC2B300200820466163ED
:1017000074002008204D6178002008204D696E008B
:101710004175746F74656D70005654726176204D1A
:10172000696E00566D696E00566D617820450056F1
:101730006D6178205A00566D6178205900566D61B0
:101740007820580020746F6F206C6F6E672065786A
:1017500074727573696F6E2070726576656E7465EC
:10176000640A0020636F6C64206578747275736915
:101770006F6E2070726576656E7465640A004D6FD9
:1017800074696F6E004D38340054656D7065726118
:10179000747572650043616E6E6F7420656E74655A
:1017A00072207375626469723A2000022E2E004422
:1017B000697361626C652053746570706572730043
:1017C000473238004175746F20486F6D6500507264
:1017D0006568656174202420456E640050726568F8
:1017E000656174202420426564001FE020102010F1
:1017F00020101020102020102010303008400480CD
:1018000003001FE03FF03FF03FF01FE01FE03FF01C
:101810003FF03FF00FC0078003003FFFF03800703B
:1018200030FC3020FC102078102030102C00D02EFE
:1018300031D02F7BD02F7BD02E31D02C00D0203038
:101840001020781020FC1030FC303800703FFFF082
:101850003FFFF03800703186302387102787902FA4
:1018600087D02F03D020301020781020781020301F
:10187000102F03D02F87D0278790238710318630F1
:101880003800703FFFF01FFFF81FFFF80410400200
:101890000820020820041040082080104100104158
:1018A000000820800410400000001FFFF81FFFF810
:1018B0002568753A253032687500256875642025DD
:1018C000303268753A25303268750020202020209B
:1018D000202000416476616E6365642053657474F2
:1018E000696E677300436F6E74696E7565004F664D
:1018F00066004F6E00554E4C4F41442046494C41C6
:101900004D454E540046494C414D454E54204348A8
:10191000414E4745004D34323800416363656C6584
:10192000726174696F6E0056656C6F6369747900DB
:1019300053657420486F6D65204F666673657473D8
:101940000046616E20537065656400526573746F64
:1019500072652044656661756C74730050726568C9
:10196000656174202420436F6E660052756E6F753A
:10197000742053656E736F72004D373032205425DA
:1019800064004D36303020423020542564004D37FD
:101990003032203B2564004D37303120542564001F
:1019A0005075726765206D6F726500524553554DD5
:1019B00045204F5054494F4E533A005052494E54CF
:1019C000205041555345440020204E6F7A7A6C6573
:1019D0003A20006563686F3A004572726F723A0090
:1019E0002F2F616374696F6E3A00626567696E00DC
:1019F000656E640070726F6D70745F0073686F77EE
:101A00000044697361626C6552756E6F7574005045
:101A1000757267654D6F726500486F74656E6420FE
:101A2000746F6F20636F6C640A0053656E64204DA1
:101A300031303820746F20726573756D650A0052FD
:101A4000656865617420446F6E6500526568656104
:101A500074696E672E2E2E005265686561740048A9
:101A600065617465722054696D656F7574005365A6
:101A70006E64204D31303820746F206865617420A9
:101A80006E6F7A7A6C650A004E6F7A7A6C652050B8
:101A900061726B656400706175736564004D36300A
:101AA000303A20546F6F20436F6C64007265737519
:101AB0006D656400627574746F6E004C6F616420B4
:101AC00046696C616D656E74205400496E73657271
:101AD000742066696C616D656E7420616E6420733C
:101AE000656E64204D3130380A00526573756D693A
:101AF0006E6700656E7175657565696E6720220099
:101B00006F6B00526573656E643A20004265642015
:101B1000436F6F6C696E672E2E2E004265642048FD
:101B2000656174696E672E2E2E0023646566696E8A
:101B3000652044454641554C545F004B6420004BA2
:101B40006920004B702000504944204175746F7427
:101B5000756E652066696E697368656421205075CD
:101B60007420746865206C617374204B702C204B5A
:101B70006920616E64204B6420636F6E7374616EC4
:101B800074732066726F6D2062656C6F7720696E6A
:101B9000746F20436F6E66696775726174696F6EEA
:101BA0002E680A00504944204175746F74756E6543
:101BB000206661696C6564212074696D656F757458
:101BC0000A000A20436C6173736963205049442002
:101BD0000A00204B643A2000204B693A2000204B39
:101BE000703A20000A204E6F206F76657273686F1E
:101BF0006F740A002054753A2000204B753A20007B
:101C0000206D61783A2000206D696E3A20002064D2
:101C10003A200020626961733A2000504944204113
:101C200075746F74756E652073746172740A0050F8
:101C30004944204175746F74756E65206661696CE6
:101C40006564212054656D706572617475726520DC
:101C5000746F6F20686967680A00504944204175B5
:101C6000746F74756E6500504944204175746F74CB
:101C7000756E65206661696C65642120426164202F
:101C80006578747275646572206E756D6265720A2E
:101C900000202F002042403A0020403A0020573ACE
:101CA000007C3C3E5E2B3D3F2F5B5D3B2C2A225C43
:101CB00000204D393220580020204D61783A200014
:101CC00020204D696E3A2000536F667420656E6463
:101CD00073746F70733A2000496E76616C6964208A
:101CE00050696E204D6F64650A004D3234205325D3
:101CF0006C642054256C64004739322E3920452508
:101D00007300473120462564004739322E39205A66
:101D10002573004731205A30204632303000473199
:101D20002058257320592573204633303030004D1C
:101D30003130362050256920532569004D31303926
:101D400020532569004D31393020532569004D322B
:101D500030302044257300473238523058590047FC
:101D600039322E39204530205A300A47315A2573EE
:101D70000020496E76616C696420657874727564C0
:101D80006572200024F4D43050C38E20C2A24017C4
:101D9000828B7011127A910D816CD90AA861E108C9
:101DA000C7586607615143061E4B5D05C145A70430
:101DB0001A411104093D9803713931034036DB02A1
:101DC00065339102D4305402802E1D02632CEE0143
:101DD000752AC501B028A001102781018F25640153
:101DE0002B244B01E0223401AC211F018D200D0179
:101DF000801FFC00841EED00971DDF00B81CD20080
:101E0000E61BC600201BBC00641AB200B219A80071
:101E10000A19A0006A189900D117910040178B0089
:101E2000B516840031167E00B31579003A1573009B
:101E3000C7146F0058146A00EE136600881363001D
:101E400025135E00C7125B006C1257001512540078
:101E5000C111510070114F0021114B00D6104900E3
:101E60008D1047004610440002104200C00F400091
:101E7000800F3E00420F3C00060F3B00CB0E3800A7
:101E8000930E37005C0E3500270E3400F30D320040
:101E9000C10D3100900D3000600D2E00320D2D006F
:101EA000050D2C00D90C2B00AE0C2900850C290047
:101EB0005C0C2700350C27000E0C2600E80B2400D4
:101EC000C40B2400A00B23007D0B23005A0B210020
:101ED000390B2100180B2000F80A1F00D90A1E0038
:101EE000BB0A1E009D0A1D00800A1D00630A1C001B
:101EF000470A1B002C0A1B00110A1A00F7091A00D6
:101F0000DD091900C4091900AB091900920917006D
:101F10007B091800630917004C09160036091600E2
:101F2000200916000A091500F5081500E00814003C
:101F3000CC081400B8081400A4081400900813007A
:101F40007D0812006B0813005808120046081200A2
:101F500034081100230811001208110001081100B3
:101F6000F0071000E0071000D0071000C0071000B5
:101F7000B0070F00A107100091070E0083070F00A4
:101F800074070F0065070E0057070E0049070E0083
:101F90003B070D002E070E0020070D0013070D0054
:101FA00006070D00F9060C00ED060D00E0060C001A
:101FB000D4060C00C8060C00BC060C00B0060C00D1
:101FC000A4060B0099060C008D060B0082060B0080
:101FD00077060B006C060B0061060A0057060B0023
:101FE0004C060A0042060A0038060A002E060A00BD
:101FF00024060A001A060A001006090007060A004D
:10200000FD050900F4050900EB050900E2050900DA
:10201000D9050900D0050900C7050900BE0509005A
:10202000B5050800AD050800A50509009C050800D8
:10203000940508008C050800840508007C0508004C
:10204000740508006C050700650508005D050700BC
:10205000560508004E050700470507004005080023
:1020600038050700310507002A050700230507008A
:102070001C050600160507000F05070008050600E9
:1020800002050700FB040600F5040700EE04060045
:10209000E8040600E2040700DB040600D50406009D
:1020A000CF040600C9040600C3040600BD040600F0
:1020B000B7040600B1040500AC040600A60406003F
:1020C000A00405009B04060095040500900406008A
:1020D0008A04050085040500800406007A040500D2
:1020E00075040500700405006B0405006604050016
:1020F000610405005C040500570405005204050056
:102100004D04050048040500430405003E04040096
:102110003A04050035040500300404002C040500D1
:1021200027040400230405001E0404001A0404000C
:1021300016040500110404000D0404000904050040
:102140000404040000040400FC030400F803040079
:10215000F4030400F0030400EC030400E8030400AB
:10216000E4030400E0030400DC030400D8030400DB
:10217000D4030400D0030400CC030400C80303000C
:10218000C503030024F404D9201BC40C5C0E98047E
:10219000C4095F0265077101F405F900FB04B3008F
:1021A00048048700C1036900580355000303450034
:1021B000BE023A008402310053022A00290225009F
:1021C00004022000E4011C00C8011900AF0117003F
:1021D00098011400840113007101100061011000C6
:1021E00051010E0043010D0036010B002B010B00C5
:1021F00020010B00150109000C0109000301080072
:10220000FB000800F3000800EB000700E4000600F4
:10221000DE000600D8000600D2000600CC00050053
:10222000C7000500C2000500BD000400B90004009D
:10223000B5000400B1000400AD000400A9000400D2
:10224000A5000300A20003009F0004009B00030000
:102250009800030095000200930003009000030023
:102260008D0002008B00030088000200860002003F
:1022700084000300810002007F0002007D00020054
:102280007B00020079000200770001007600020066
:102290007400020072000100710002006F00020071
:1022A0006D0001006C0002006A000100690002007C
:1022B0006700010066000100650001006400020083
:1022C0006200010061000100600001005F00020087
:1022D0005D0001005C0001005B0001005A0001008C
:1022E000590001005800010057000100560001008C
:1022F000550001005400010053000000530001008C
:102300005200010051000100500001004F00010087
:102310004E0000004E0001004D0001004C00010085
:102320004B0000004B0001004A0001004900010081
:10233000480000004800010047000100460000007E
:102340004600010045000000450001004400010076
:102350004300000043000100420000004200010071
:102360004100000041000100400001003F0000006A
:102370003F0001003E0000003E0001003D00000063
:102380003D0001003C0000003C0000003C0001005A
:102390003B0000003B0001003A0000003A00010051
:1023A000390000003900010038000000380000004A
:1023B000380001003700000037000100360000003F
:1023C0003600000036000100350000003500000036
:1023D000350001003400000034000000340001002A
:1023E0003300000033000000330001003200000021
:1023F0003200000032000100310000003100000016
:102400003100010030000000300000003000010009
:102410002F0000002F0000002F0000002F000100FF
:102420002E0000002E0000002E0001002D000000F4
:102430002D0000002D0000002D0001002C000000E8
:102440002C0000002C0000002C0001002B000000DC
:102450002B0000002B0000002B0001002A000000D0
:102460002A0000002A0000002A00010029000000C4
:1024700029000000290000002900000029000100B7
:1024800028000000280000002800000028000000AC
:10249000280001002700000027000000270000009E
:1024A0002700000027000100260000002600000091
:1024B0002600000026000000260001002500000084
:1024C0002500000025000000250000002500000078
:1024D000250001002400000024000000240000006A
:1024E000240000002400010023000000230000005D
:1024F0002300000023000000230000002300000050
:102500002300010022000000220000002200000041
:102510002200000022000000220001002100000033
:102520002100000021000000210000002100000027
:102530002100000021000100200000002000000018
:10254000200000002000000020000000200000000B
:1025500020000000200001001F0000001F000000FC
:102560001F0000001F0000001F0000001F000000EF
:102570001F0001001E0000001E0000001E000000E1
:102580001E000000C23100001C260000F4190000EB
:10259000D80F0000EB080000C00400007502000026
:1025A000400100000000AA430000DC437F96184B66
:1025B0000000000000000000000000000000484291
:1025C00000004842000080400202040000A04000D9
:1025D00000000000000000FFFFFF6F70656E0054F8
:1025E00052494747455245440066696C616D656EC6
:1025F00074007A5F6D696E00795F6D696E00785F57
:102600006D696E005265706F7274696E6720656ED9
:102610006473746F70207374617475730A00486F0B
:102620006D696E67204661696C6564005761726E02
:10263000696E673A20486F6D696E672042756D70EC
:102640002044697669736F72203C20310A00205261
:102650000048617264636F646564204465666175F7
:102660006C742053657474696E6773204C6F616479
:1026700065640A003B200020204D363033200020C6
:10268000204D34313220530046696C616D656E74A3
:102690002072756E6F75742073656E736F723A0079
:1026A00020550046696C616D656E74206C6F6164C5
:1026B0002F756E6C6F6164206C656E677468733A19
:1026C0000020204D393030204B004C696E6561721E
:1026D00020416476616E63653A0020204D343133C9
:1026E000205300506F7765722D4C6F7373205265C5
:1026F000636F766572793A0020204D333034205074
:102700000020490020204D333031205000504944F2
:102710002073657474696E67733A00204600204820
:102720000020204D3134352053004D6174657269AD
:10273000616C2068656174757020706172616D658F
:10274000746572733A0020204D32303620580048AC
:102750006F6D65206F66667365743A0020204D3298
:102760003035204200416476616E6365643A2042F0
:102770003C6D696E5F7365676D656E745F74696DDE
:10278000655F75733E20533C6D696E5F6665656479
:10279000726174653E20543C6D696E5F747261763F
:1027A000656C5F66656564726174653E20583C6D5A
:1027B00061785F785F6A65726B3E20593C6D617825
:1027C0005F795F6A65726B3E205A3C6D61785F7A13
:1027D0005F6A65726B3E20453C6D61785F655F6A3C
:1027E00065726B3E0020204D323034205000416332
:1027F00063656C65726174696F6E2028756E6974AB
:10280000732F7332293A20503C7072696E745F6185
:102810006363656C3E20523C726574726163745FE1
:10282000616363656C3E20543C74726176656C5FD5
:10283000616363656C3E0020204D323031205800CA
:102840004D6178696D756D20416363656C6572617A
:1028500074696F6E2028756E6974732F7332293A0C
:102860000020204D3230332058004D6178696D755D
:102870006D206665656472617465732028756E6984
:1028800074732F73293A00537465707320706572E6
:1028900020756E69743A0020440020204D3230309B
:1028A0002053002044697361626C65640A004669C4
:1028B0006C616D656E742073657474696E67733ACC
:1028C0000020204D3134392043203B20556E69745F
:1028D0007320696E2043656C736975730A00202844
:1028E0006D6D29002020473231202020203B2055CB
:1028F0006E69747320696E206D6D000000164300D0
:1029000000164300004842000096420000C8422BD7
:10291000C7B142B85E9D430040EE43E8030000E8C3
:10292000030000F4010000F401000050455447008A
:102930006E47656E005072656865617420240041C1
:102940006476616E6365204B004E6F7A7A6C650029
:102950004D61696E00436F6F6C646F776E00466106
:102960006E205370656564207E00426162797374E5
:102970006570205A00426162797374657020590055
:102980004261627973746570205800466C6F7700FD
:1029900030292B29416D6178204500416D617820F7
:1029A0005A00416D6178205900416D6178205800CE
:1029B000412D54726176656C00412D5265747261CF
:1029C000637400416363656C0056652D4A65726BE4
:1029D00000565A2D4A65726B0056592D4A65726B26
:1029E0000056582D4A65726B0045207374657073EC
:1029F0002F6D6D005A2053746570732F6D6D0059E3
:102A00002053746570732F6D6D005820537465707A
:102A1000732F6D6D004D32332025730046696C6550
:102A20002073656C65637465640A002053697A6578
:102A30003A200046696C65206F70656E65643A20C7
:102A400000454E4420535542524F5554494E450A75
:102A5000002220706F73002220706172656E743ADC
:102A60002200535542524F5554494E452043414C44
:102A70004C207461726765743A2200537562636119
:102A80006C6C204F766572666C6F77004578636575
:102A900065646564206D617820535542524F5554EA
:102AA000494E452064657074683A310A0044656C8B
:102AB0006574696F6E206661696C65642C20466977
:102AC0006C653A200046696C652064656C657465C8
:102AD000643A005344207072696E74696E672062B4
:102AE00079746520004E6F74205344207072696EB3
:102AF00074696E670A0057726974696E6720746F33
:102B00002066696C653A2000667265736800646FC0
:102B1000696E67004E6F77200043616E6E6F7420A0
:102B20006F70656E20737562646972200053442073
:102B300063617264206F6B0A006F70656E526F6F15
:102B400074206661696C65640A00766F6C756D65EA
:102B50002E696E6974206661696C65640A004E6F47
:102B600020534420636172640A00506F77657220BD
:102B70004F757461676500436F6E66696775726152
:102B800074696F6E004D313030300053746F7020B7
:102B90005072696E7400526573756D65205072696C
:102BA0006E74003F004368616E67652046696C6122
:102BB0006D656E740050726568656174204375734D
:102BC000746F6D004261636B004D32310043686188
:102BD0006E6765204D65646961004D363030204276
:102BE00030004E6F204D656469610054756E65005C
:102BF0005061757365205072696E7400496E666F1E
:102C00002053637265656E00537461727420507254
:102C1000696E740043616E63656C005061726B692C
:102C20006E672E2E2E0000005761697420666F7249
:102C30000066696C616D656E74206368616E6765BE
:102C400000746F2073746172740057616974206638
:102C50006F720066696C616D656E7420756E6C6F65
:102C6000616400004E6F7A7A6C65206865617469F2
:102C70006E6700506C6561736520776169742E2EF4
:102C80002E0000507265737320627574746F6E004D
:102C9000746F2068656174206E6F7A7A6C650000CD
:102CA000496E736572742066696C616D656E74003F
:102CB000616E6420707265737320627574746F6ED8
:102CC00000746F20636F6E74696E7565005761697B
:102CD0007420666F720066696C616D656E74206C3D
:102CE0006F61640000507265737320427574746F75
:102CF0006E00746F20726573756D65207072696EF9
:102D00007400005761697420666F72207072696E7A
:102D10007400746F20726573756D652E2E2E000021
:102D20005761697420666F720066696C616D656ECB
:102D30007420707572676500000000210024002770
:102D4000002A002D003000330001010000040107BB
:102D5000010A0100002200250028002B002E00316E
:102D600000340002010000050108010B01000020F1
:102D7000002300260029002C002F00320000010053
:102D800000030106010901050505050705080808F6
:102D900008020202020A0A080804040404010101EC
:102DA00001010101010303030303030303040707F4
:102DB000070C0C0C0C0C0C0C0C0202020206060692
:102DC00006060606060B0B0B0B0B0B0B0B07070A75
:102DD0000A0A0A0A0A050505040404080801021083
:102DE0002020080810204010204080020102010825
:102DF00004020101020408102040808040201008D5
:102E0000040201800402018040201008040201082D
:102E1000040201010204081020408001020408108D
:102E200020408010080408801020400440801020BA
:102E300040048000000A0B02090C0D0E0807030471
:102E40000100000000000000000000000000000081
:102E50000000000000000000000000000000001260
:102E60001110000000000000000000000000000041
:102E70000000000000000000000000000000000052
:102E80000000000000000000004D6F7665202573F3
:102E90006D6D004D6F766520302E316D6D004D6F7C
:102EA000766520316D6D004D6F76652031306D6D2A
:102EB000004D6F7665204178697300486F74656EC8
:102EC0006420746F6F20636F6C6400457874727552
:102ED000646572004D6F7665205A004D6F766520EF
:102EE00059004D6F76652058005072696E742066E7
:102EF000726F6D204D65646961005072696E742057
:102F000050617573656400486F6D65202573257386
:102F100025732046697273740020453A00205A3A9E
:102F20000020593A00424C41434B42454C54203317
:102F3000442052656164792E005072696E74696E26
:102F4000672E2E2E00220A00556E6B6E6F776E2054
:102F5000636F6D6D616E643A2022006F70656E2044
:102F60006661696C65642C2046696C653A20004591
:102F700072723A207574663820666F6E74206E6FB8
:102F80007420696E697469616C697A65642E0000E9
:102F90000C0F00FE07022603BC017FFE08FE08FEA0
:102FA00005080806000040F0C888889878100508D1
:102FB00008060000C0F88888888888F80505050696
:102FC00000012030F830200508080600002070F8C5
:102FD00020202020E00509090600FF2070A8A8B8DD
:102FE00088887020050606060001E08CEA8C8A0AB3
:102FF0000509090600FFF8A88888888888A8F805C8
:103000000A0A0600FE205050505088A8A888700375
:10301000030306000340A040FFFFFFFFFFFFFFFF89
:10302000FFFFFFFFFFFFFFFFFFFFFFFFFFFF0000AE
:10303000000605FF010707060200808080808000EF
:1030400080030303060105A0A0A0050606060000F4
:1030500050F85050F8500509090600FF2070A8A04C
:103060007028A87020050707060000C8C810204077
:10307000989805070706000040A0A040A8906801A6
:1030800003030602058080800309090601FF204032
:10309000408080804040200309090601FF804040B5
:1030A00020202040408005070706000020A870204F
:1030B00070A8200505050600012020F82020020345
:1030C000030601FFC04080050101060003F802026B
:1030D00002060100C0C00507070600000810102006
:1030E000404080050707060000708898A8C88870CF
:1030F00003070706010040C040404040E0050707C5
:10310000060000708808102040F805070706000038
:10311000F8081030088870050707060000103050C6
:1031200090F81010050707060000F880F0080888DE
:1031300070050707060000304080F088887005079A
:1031400007060000F80810102020200507070600D9
:1031500000708888708888700507070600007088EE
:103160008878081060020505060100C0C000C0C0D4
:103170000206060601FFC0C000C040800305050628
:1031800001012040804020050303060002F800F8FA
:103190000305050601018040204080050707060061
:1031A00000708810202000200507070600007088A6
:1031B000B8A8B88070050707060000708888F888EE
:1031C0008888050707060000F04848704848F00561
:1031D0000707060000708880808088700507070652
:1031E0000000F04848484848F0050707060000F886
:1031F0008080F08080F8050707060000F88080F0E6
:10320000808080050707060000708880809888709D
:10321000050707060000888888F88888880307075C
:10322000060100E04040404040E00507070600007E
:10323000381010101090600507070600008890A055
:10324000C0A09088050707060000808080808080ED
:10325000F805070706000088D8A888888888050729
:10326000070600008888C8A8988888050707060010
:103270000070888888888870050707060000F08835
:1032800088F080808005070706000070888888A87D
:103290009068050707060000F08888F0A090880570
:1032A0000707060000708880700888700507070609
:1032B0000000F820202020202005070706000088B5
:1032C00088888888887005070706000088888888AD
:1032D00050502005070706000088888888A8A85055
:1032E00005070706000088885020508888050707D2
:1032F00006000088885020202020050707060000CF
:10330000F80810204080F80309090601FFE08080DA
:103310008080808080E00507070600008040402014
:103320001010080309090601FFE0202020202020BA
:1033300020E0050303060005205088050101060072
:10334000FEF803030306010580402005050506007D
:103350000070087888780507070600008080F088EC
:103360008888F005050506000070808088700507D4
:103370000706000008087888888878050505060093
:10338000007088F08070050707060000304840E0B4
:103390004040400507070600FE708888887808705E
:1033A0000507070600008080F088888888030707E3
:1033B0000601004000C0404040E00409090601FE4B
:1033C00010003010101010906005070706000080F4
:1033D000808890E09088030707060100C0404040C5
:1033E0004040E0050505060000D0A8A8A8A80505EE
:1033F00005060000B0C8888888050505060000702D
:10340000888888700507070600FEF0888888F080A5
:10341000800507070600FE78888888780808050573
:1034200005060000B0C8808080050505060000780C
:10343000807008F00507070600002020F8202020F3
:1034400018050505060000888888986805050506A2
:10345000000088888850200505050600008888A897
:10346000A85005050506000088502050880507076C
:103470000600FE888888502040800505050600006B
:10348000F8102040F80309090601FF204040408061
:10349000404040200109090602FF80808080808032
:1034A0008080800309090601FF80404040204040A1
:1034B000408005030306000248A890FF456E636C38
:1034C0006F73757265006E6F7469666963617469A4
:1034D0006F6E200063616E63656C005072696E747C
:1034E0002041626F72746564004469736D6973731F
:1034F0000055492041626F72746564004D32352079
:10350000500A4D323400526573756D65005549207F
:1035100050617573650050617573696E672E2E2E4C
:1035200000726573756D65004361703A0047322F14
:1035300047332062616420706172616D65746572E9
:10354000730A0020436F756E7420583A004D69630A
:10355000726F737465707320756E617661696C61EA
:10356000626C650A002045313A002045303A004D32
:1035700053317C327C332050696E730000006F023F
:103580008D0211241FBECFEFD1E2DEBFCDBF00E020
:103590000CBF12E0A0E0B2E0E0E1F5E202E00BBF18
:1035A00002C007900D92A03DB107D9F726E1A0ED2A
:1035B000B2E001C01D92AC30B207E1F71AE1C0ECF5
:1035C000DAE100E006C021970109802FFE010F9487
:1035D000DE0ECF3BD10780E00807A9F70E9404FB6D
:1035E0000D9476120C9400002F923F924F925F92AE
:1035F0006F927F928F929F92AF92BF92CF92DF9203
:10360000EF92FF920F931F93CF93DF93CDB7DEB767
:10361000A7970FB6F894DEBF0FBECDBF8FA3209142
:10362000DF022EA3FF24F394F092DF028091550C69
:103630008D3409F43CC2843511F40C94F72B873493
:1036400011F00C941C2C2091530C3091540C25310A
:10365000310511F40C941E2C7CF4243031053CF41B
:10366000223031050CF0EEC037FF1DC01CC22430E3
:10367000310509F4F5C017C22A35310509F459C1DD
:103680004CF42B31310509F42AC12C31310509F4F0
:1036900040C109C22B35310509F44FC12C35310524
:1036A00009F450C100C280919205813011F00C9450
:1036B0001E2C0E943F8C8DE39DE00E9405A380910B
:1036C000990B83FD83C02091740F3091750F409149
:1036D000760F5091770F6091490D70914A0D80914E
:1036E0004B0D90914C0D0F940708882309F46EC080
:1036F0008091E205811119C06091930F7091940F30
:103700008091950F9091960F0F945310209119026C
:1037100030911A026217730744F40E944B7383E6D8
:1037200097E10E94657211E001C010E02091740FD2
:103730003091750F4091760F5091770F6091490D40
:1037400070914A0D80914B0D90914C0D0F94E60EA7
:103750006B017C0120E030E0A9010F94471187FF45
:1037600004C0F7FAF094F7F8F09420911502309124
:1037700016024091170250911802C701B6010F942A
:103780006D0820E030E04AEF54E40F94471118161A
:103790003CF40E944B7384E497E10E94657202C07E
:1037A0001123A1F08091490D90914A0DA0914B0DEC
:1037B000B0914C0D8093740F9093750FA093760F7A
:1037C000B093770F89E49DE00E94969D2AE037ED43
:1037D00043E25CE3609158027091590280915A0271
:1037E00090915B020F946D086B017C0160911F0248
:1037F00070912002072E000C880B990B0F940E0875
:103800009B01AC01C701B6010F946D0869837A83EF
:103810008B839C838E010F5F1F4F29E43DE045E4BD
:103820005DE061E47DE08DE39DE00E94BD5A80E1B2
:10383000EDE3FDE0A8E6BFE001900D928A95E1F787
:103840000C941E2C80919205813011F00C941E2C4A
:103850002230310509F080E00E943DF20C941E2CCC
:1038600080E50E94E671882329F00E9430906B0168
:103870007C0103C0C12CD12C760183E50E94E67146
:10388000882361F00E94667120E030E04AE754E44A
:103890000F946D080F945A106B017C010E94779E63
:1038A00080917415811105C060E088E796E00E9460
:1038B0001EEB0E943ED2C60ED71EE81EF91E0E94C5
:1038C0003ED2DC01CB018C199D09AE09BF09B7FDC1
:1038D00002C00C941E2C80E00E947F31F0CF0E9429
:1038E00040D781110C941E2C8CE0E0E7F2E0DE0161
:1038F000119601900D928A95E1F760E070E080E505
:103900000E94CF8FBE016F5F7F4F0E94D6AC0C9498
:103910001E2C8091310E8770873011F00C94272C6B
:1039200060E08FE40E948D9281110C941E2C0C9407
:10393000272C1092830E0C941E2C8FE08093830E04
:103940000C941E2C8091520C882349F1893009F087
:10395000A6C0ECE7AE2EE2E0BE2EF8E6EF2EFFE0CA
:10396000FF2ED12C00E010E0F50181915F010E9453
:10397000E671882369F00E946671F70160837183A4
:1039800082839383133011F401E002C0DD24D394C9
:103990001F5FF4E0EF0EF11C143031F775C05CE7E7
:1039A000252E52E0352E60EAE62E6EE0F62E28E651
:1039B0003FE03DA32CA375E2C72E7EE0D72E00E0AA
:1039C00010E0F10181911F010E94E671882309F442
:1039D0004AC00E9466712B013C01133049F0F60188
:1039E00020813181428153810F94E60E2B013C01ED
:1039F000ECA1FDA12081318142815381C301B2013B
:103A00000F94E60E4B015C012DEB37E346E855EBD6
:103A10000F94471187FD0AC02DEB37E346E855E3C5
:103A2000C501B4010F9407081816ECF4133051F4D3
:103A30004092740F5092750F6092760F7092770FCC
:103A400001E011C0A5019401F701608171818281BB
:103A500093810F94E70EF7016083718382839383D0
:103A6000812F0E94B9A21F5FF4E0EF0EF11C2CA180
:103A70003DA12C5F3F4F3DA32CA334E0C30ED11CCE
:103A8000143009F09ECF05C0DD2019F00E9488A4F3
:103A900006C0002321F084E79FE00E94969D0E94CB
:103AA00096A60C941E2C0E94DDD50C941E2C009121
:103AB000530C1091540C0837110511F40C94812506
:103AC0000CF07BC10C34110509F428C50CF074C04E
:103AD0000A31110509F4A3C3DCF50431110509F419
:103AE000F8C28CF40131110509F4DFC234F402305C
:103AF000110508F490C20C94F42B0231110509F45D
:103B0000B6C60C94F42B0731110509F407C39CF4D5
:103B10000531110509F4FEC20631110511F00C94AE
:103B2000F42B0E948ABF80917912877F80628093F4
:103B300079120C941E2C0831110509F406C30931C1
:103B4000110511F00C94F42B0E94F08E0C941E2C95
:103B50000F31110509F420C484F40C31110509F466
:103B6000D3C30CF46AC30D31110509F4D5C30E316A
:103B7000110509F4D8C30C94F42B0A32110509F489
:103B8000B6C46CF40032110509F4DDC3013211052D
:103B900011F00C94F42B0E94A67F0C941E2C093477
:103BA000110509F4A8C40B34110511F00C94F42B81
:103BB0000E94C6A90C941E2C0B36110509F45AC597
:103BC000ECF50435110509F452C6FCF40135110574
:103BD00009F430C64CF40D34110511F00C94F42B9B
:103BE0000E94FFA90C941E2C0235110509F437C65A
:103BF0000335110511F00C94F42B8091830E8F7E08
:103C000080628093830E0C941E2C0836110509F4F3
:103C100089C454F40535110509F45FC60C35110546
:103C200009F47EC60C94F42B0936110509F4CBC4B3
:103C30000A36110509F4DBC40C94F42B0137110585
:103C400009F47DC5DCF40E36110509F421C55CF4D8
:103C50000C36110511F40C941E2C0D36110509F4C7
:103C600088C40C94F42B0F36110509F424C50037D1
:103C7000110511F40C941E2C0C94F42B053711052E
:103C800009F4F3C60CF08CC00237110509F4E6C63E
:103C90000337110511F00C94F42B83E898E00E948F
:103CA000657260E083E798E00E945BF760E08EE574
:103CB00098E00E945BF760E087E598E00E945BF780
:103CC00061E08CE498E00E945BF761E08CE398E0AF
:103CD0000E945BF760E083E398E00E945BF761E09D
:103CE00089E298E00E945BF760E08FE198E00E9433
:103CF0005BF761E084E19BE00E945BF760E087E1B5
:103D000098E00E945BF760E089E098E00E945BF732
:103D100061E08BEF97E00E945BF760E08CEE97E04C
:103D20000E945BF760E08EED97E00E945BF760E039
:103D300088EC97E00E945BF761E087EB97E00E94D8
:103D40005BF761E088EA97E00E945BF761E081EA57
:103D500097E00E945BF761E08CE897E00E945BF7D8
:103D600061E08EE797E00E945BF761E08BE697E009
:103D70000E945BF760E08EE597E00E945BF761E0F0
:103D800089E597E00E945BF761E08CE497E00E9490
:103D90005BF760E088E397E00E945BF70C941E2CD1
:103DA0000637110509F472C60737110511F00C9496
:103DB000F42B0E941BA70C941E2C003381E01807E3
:103DC00011F40C9485280CF082C00D3C110509F407
:103DD000CBC7D4F50B39110509F400C5E4F40D3750
:103DE000110509F423C56CF40937110511F00C9481
:103DF000F42B1092C8031092C7030E9443A70C949F
:103E00001E2C0C38110509F4C4C40139110509F43C
:103E10007FC60C94F42B093C110509F432C754F405
:103E20000E3B110509F4D6C4083C110509F4E4C69B
:103E30000C94F42B0B3C110509F446C70C3C1105FE
:103E400009F461C70C94F42B023E110511F40C9493
:103E50005C27D4F4033D110509F4AFC75CF40E3CB4
:103E6000110511F00C94F42B1CEAE12E1EE0F12E4A
:103E700010E08AC70C3D110509F4A2C70D3D1105DC
:103E800009F4C5C70C94F42B0D32E1E01E0711F4C0
:103E90000C9406286CF4023221E0120711F40C9401
:103EA000A8270C32114011F40C94F1270C94F42B38
:103EB0000E3281E0180711F40C94F8280F321140EB
:103EC00011F00C94F42B0E940F780C941E2C073FD9
:103ED000E1E01E0711F40C94B3290CF045C00C3935
:103EE00021E0120711F40C943F29DCF40F3581E036
:103EF000180711F40C94192B3CF40E35114011F4F1
:103F00000C94E42A0C94F42B0039F1E01F0711F40F
:103F10000C943C290A39114011F40C941E2C0C9479
:103F2000F42B043F31E0130711F40C94A6296CF430
:103F30000D3991E0190711F40C94962B0C3A1140AD
:103F400011F40C9449290C94F42B053FF1E01F0760
:103F500011F40C94AD29063F114011F00C94F42B90
:103F60000E946AA70C941E2C0B3833E0130711F43F
:103F70000C94A42A1CF50B3592E0190711F40C944B
:103F8000C3297CF40C30F2E01F0711F40C94BB2918
:103F90000835124011F00C94F42B0E947D900C9483
:103FA0001E2C0C3633E0130711F40C941E2C04382D
:103FB000134011F40C943B2A0C94F42B073E93E02D
:103FC000190711F40C94882BCCF40C38F3E01F077C
:103FD00011F40C94D52A003A134011F00C94F42BF0
:103FE0002091E20C3091E30C9091791292609093C1
:103FF0007912C9010E94EBC00C941E2C083E33E0DC
:10400000130711F40C94B72B093E134011F40C94D0
:10401000BA2B0C94F42B80E50E94E671882329F0DA
:104020000E9430906B017C0103C0C12CD12C760121
:1040300083E50E94E671882361F00E94667120E0AA
:1040400030E04AE754E40F946D080F945A106B0166
:104050007C010E94779E8091E20C9091E30C009786
:1040600021F061E00E94D7EB05C060E081E996E0B5
:104070000E941EEB8091530C9091540C892B19F0E7
:1040800069E876E002C061E876E020E030E045EEE5
:1040900058E182E00E94E67240E0C701B6010E944A
:1040A000AE370E94A3D60C941E2C80914E0C84FF38
:1040B00002C00C94052D8091500C87FF02C00C9417
:1040C000052D8091510C837011F00C94052D0C94EA
:1040D0001E2D8CEB96E00E94657286E992E10E94AB
:1040E000F7848BE1E6E9F2E1DE01119601900D9291
:1040F0008A95E1F760E070E0CE0101960E943FC82A
:10410000CE0101960E9415728DEA96E00E946572BA
:104110000C941E2C0E942FC20C941E2CE091E20CD9
:10412000F091E30C8081882329F0803209F4108219
:104130003196F8CF60E08091E20C9091E30C0E9400
:104140003BC11092EC0B0C941E2C83E50E94E6718F
:10415000882321F00E9456710E94768084E50E9497
:10416000E6718823A9F00E9456716B017C010E94C0
:10417000ABA9C092520DD092530DE092540DF09223
:10418000550DCD28CE28CF2819F081E08093820EDE
:104190008091750D8823F9F080E090E0A0E2B1E411
:1041A00089839A83AB83BC831C8E1D8E1E8E1F8ECB
:1041B00018A219A21AA21BA200E010E020E0AE0192
:1041C0004F5F5F4FBE01645E7F4FCE0180960E94BD
:1041D000CE730C941E2C0E942F30882381F00E94F5
:1041E0009BBF0E94C6A983EF9EE00E9440BF109231
:1041F000560C1092570C1092580C1092590C61E00A
:1042000081E295E30E94747249EE54E36DEC76E02E
:1042100085E00E94C6D60E94A3D60C941E2C8091E5
:10422000791283FD02C00C941E2C83E50E94E67176
:1042300081110C94292D0C941E2C83E40E949D71F5
:104240008823C1F183EE96E00E9465728091DD13B0
:10425000882339F1BE016F5F7F4F8AED93E10E94A1
:10426000BE838E010F5F1F4FF80181918F0188235C
:1042700019F00E945330F8CFCE0101960E94BDC0C4
:104280008091400E882389F080E20E94533000E440
:104290001EE0F80181918F01882339F00E9453308C
:1042A000F8CF89ED96E00E9465728AE00E94533053
:1042B0000C941E2C83E50E94E671882309F10E946C
:1042C0004090182F90E0CD970CF01CE31093D4028F
:1042D0000E943ED26B017C01212F30E0A8EEB3E0BA
:1042E0000F949B0EC60ED71EE81EF91EC092D00278
:1042F000D092D102E092D202F092D3020C941E2C02
:104300000E9419BF0C941E2C8091E20C9091E30C3A
:104310000E94EBC00C941E2C809179128E7F8093AA
:1043200079120C941E2C8091791283FD02C00C949A
:104330001E2C0E94C3D58091E20C9091E30C0E9448
:1043400049C00C941E2C8091791282FD0E94779EA8
:104350008091791283FD02C00C941E2C60E080E5F0
:104360000E948D92182F682F8091E20C9091E30C9F
:104370000E943BC183E50E94E671882321F00E94E0
:1043800056710E9476800E949BBF11110C941E2CC6
:104390000E94C6A90C941E2C0E9477A97B018C0157
:1043A00020E831E541E050E00F94470EC9016DE689
:1043B00071E00F94B60E4B015C01C801B70120E11A
:1043C0003EE040E050E00F94470ECA01B90128E1F9
:1043D00030E040E050E00F94470E762E672EC62E58
:1043E000D72E4CE3242E312C412C512CC801B7017F
:1043F000A20191010F94470EF62EE72ECA01B901D2
:10440000A20191010F94470ECB018E010F5F1F4F48
:104410008114910499F0EF92FF927F936F936F92C2
:104420007F92BF92AF929F928F9282EF96E09F937E
:104430008F931F930F930F949F0713C0A114B10480
:10444000B1F0EF92FF927F936F936F927F92BF9242
:10445000AF9286EF96E09F938F931F930F930F94E5
:104460009F070FB6F894DEBF0FBECDBF30C0CD287A
:1044700079F0EF92FF927F936F936F927F928AEF22
:1044800096E09F938F931F930F930F949F07E9CF0D
:10449000892B69F0EF92FF927F936F938EEF96E0F6
:1044A0009F938F931F930F930F949F07DACFEF92F1
:1044B000FF9282E097E09F938F931F930F930F9447
:1044C0009F070F900F900F900F900F900F9060E04C
:1044D000C8010E94D7EB0E944B73B80186E097E0B9
:1044E0000E9434738AE00E9453300C941E2C0E9468
:1044F000A2920C941E2C80E50E949D71882311F4D9
:104500000C941E2C0E94409090E08536910510F08E
:1045100084E690E08093EC0B0C941E2C0E94EAA998
:104520000C941E2C8091990B83FF02C00C941E2CBE
:104530000E94549087FF02C00C941E2C89E40E94B4
:10454000E671882311F40C942E2D0E94409090E087
:104550001816190614F481E090E026E0289FF00177
:10456000299FF00D1124E15AF24F808191810C9422
:10457000382D8091990B83FF02C00C941E2C0E9451
:104580005490F82E87FF02C00C941E2C89E40E94E0
:10459000E671082F882311F40C94412D0E9440905D
:1045A00090E01816190614F481E090E026E0289FA8
:1045B000F001299FF00D1124E15AF24F8081918181
:1045C00010E00C94512D0E945490182F87FD0AC0C2
:1045D00080E09BE10E946572812F0E9436898AE00B
:1045E0000E9453303EA13093DF020C94322F80E5BD
:1045F0000E9496D7F82E81E08F1510F40C941E2C93
:1046000081E40E949D71882329F06091D005062FD6
:1046100010E002C00FEF10E089E40E94E6718823E9
:1046200099F00E94409090E01816190614F481E069
:1046300090E026E0289FF001299FF00D1124E15A17
:10464000F24F0481158108C083E50E94E67188233A
:1046500019F00E9456718B01EF2DF0E0E053FA4FF4
:10466000B8010F3F110519F010F06FEF70E0608393
:104670000C941E2C80E50E9496D7823010F00C948A
:104680001E2CE82FF0E0E053FA4F10820C941E2C01
:104690008EE40E94E671882311F40C941E2C0E9473
:1046A00056716093DE0C7093DF0C8093E00C909356
:1046B000E10C0C941E2C83E50E949D71882329F047
:1046C00083E50E9496D78093990B0E944B7388E1F3
:1046D00097E00E9465728091990B882369F13EEB07
:1046E000E32E3AE0F32E00E010E020E08091990BF9
:1046F00090E0A0E0B0E0002E04C0B695A795979595
:1047000087950A94D2F780FF0EC0DD24D394D20E91
:10471000222319F08CE20E945330F7018591949185
:104720000E9465722D2D0F5F1F4F92E0E90EF11C64
:1047300005301105D9F6B9CD82E79DE0B4CD83E50A
:104740000E94E671882381F00E944090282F30E07B
:104750002D33310524F4809300020C941E2C8CE33D
:10476000809300020C941E2C0E944B73C090000298
:10477000D12CE12CF12C8FE197E00E9465724AE088
:10478000C701B6010E945A308AE00E9453300C944F
:104790001E2C8091990B83FF02C00C941E2C89E47F
:1047A0000E94E671882311F40C949A2D0E94409087
:1047B00090E01816190614F481E090E026E0289F96
:1047C000F001299FF00D1124E15AF24F62817381AB
:1047D0000C94A42D0E94B07D0C941E2C83E50E94A5
:1047E000E671882311F40C941E2C0E944090182F1F
:1047F00090E0CD970CF01CE31093D9020E943ED2BA
:104800006B017C01212F30E0A8EEB3E00F949B0EEA
:10481000C60ED71EE81EF91EC092D502D092D6024F
:10482000E092D702F092D8020C941E2C0E94F08ED7
:104830000C941E2C0E94D4390E94FFA90E94889ECD
:104840000E942A3068EE73E080E090E00E9441729E
:1048500060E086E297E00E941EEB0C941E2C809193
:10486000830E8F7D80618093830E0C941E2C83E5D4
:104870000E94E6718823E9F00E943ED26093E40C26
:104880007093E50C8093E60C9093E70C0E946671A0
:1048900020E030E04AE754E40F946D080F945A107A
:1048A00060930102709302028093030290930402CA
:1048B000C5C780914E0C84FF02C00C94B32D80912B
:1048C000500C87FF02C00C94B32D8091510C837063
:1048D00011F00C94B32D0C94E02D83E50E949D7192
:1048E000882309F4ABC70E943ED26093E40C709316
:1048F000E50C8093E60C9093E70C0E94667120E033
:1049000030E04AE754E40F946D080F945A10609316
:10491000DA027093DB028093DC029093DD028EC793
:104920000E94549087FD8AC790914E0C94FD04C05C
:104930009091500C97FF0AC09CE7C92E92E0D92EA7
:104940002AE9E22E2BE0F22E10E009C09091510CE2
:10495000937091F7682F81E00E94E28F6FC7F60194
:1049600081916F010E94E671882309F46DC01330B4
:1049700009F063C00E9466714B015C0120E030E0E9
:1049800040EA51E40F94070887FF4EC0A501940147
:104990006091BA0B7091BB0B8091BC0B9091BD0BD9
:1049A0000F94E10F2B013C019B01AC016091C80504
:1049B0007091C9058091CA059091CB050F946D083F
:1049C0006093C8057093C9058093CA059093CB0581
:1049D000A30192016091CA0B7091CB0B8091CC0B1B
:1049E0009091CD0B0F946D086093CA0B7093CB0B15
:1049F0008093CC0B9093CD0B6091B4057091B5056D
:104A00008091B6059091B7050F940C08A30192010F
:104A10000F946D080F945A106093B4057093B50508
:104A20008093B6059093B7058092BA0B9092BB0B1A
:104A3000A092BC0BB092BD0B07C00E946671F7013B
:104A4000648B758B868B978B1F5FF4E0EF0EF11CE8
:104A5000143009F084CF0E94209DF0C60E94DBD65E
:104A60008DEF91E10E9497F9E9C68091E20C909157
:104A7000E30C009741F0FC012081222321F060E04B
:104A80000E94D7EBDBC60E94A3D6D8C60091E20CE9
:104A90001091E30C94E0F12C40E0915029F1F801E1
:104AA0008081282F2B7F213421F421812133E1F4CF
:104AB00008C08035C9F4F801818180538A3048F0FC
:104AC00013C0813421F0853421F441E002C0FF2479
:104AD000F39498012E5F3F4F89012F5F3F4FF801FC
:104AE00080818032C9F3D9CF41110E944B73FF20DE
:104AF00021F08DE699E00E946572C8010E945E3146
:104B00009DC6F092C803F092C7030E9443A796C6C1
:104B100060E070E083E50E942190823038F00E94CE
:104B2000477381E799E00E94657288C68C0111275E
:104B300088E40E94E6718823E1F00E941D9084368B
:104B4000910544F00E941D908832914034F40E94F7
:104B50001D9005C084E690E002C087E291E026E067
:104B6000209FF001219FF00D1124E15AF24F918313
:104B7000808382E40E94E6718823D9F00E941D9010
:104B8000059744F00E941D908D38910534F40E94E1
:104B90001D9005C085E090E002C08CE890E026E022
:104BA000209FF001219FF00D1124E15AF24F9383D1
:104BB000828386E40E94E671882309F43FC60E943E
:104BC0001D9097FD09C00E941D908F3F910509F02F
:104BD00034F40E941D9005C080E090E002C08FEF89
:104BE00090E026E0209FF001219FF00D1124E15A72
:104BF000F24F9583848322C60E945490182F87FD1C
:104C00001DC600919F0E84E40E94E671882309F47A
:104C1000DAC70E9466716B017C0120E030E0A901D7
:104C20000F940708882339F124E01202F0011124BF
:104C3000E556F14FC082D182E282F38220E030E07B
:104C4000A90160919B0E70919C0E80919D0E909198
:104C50009E0E0F94070881110CC080E090E0A0EE3A
:104C6000BFE380939B0E90939C0EA0939D0EB093F8
:104C70009E0E01E0A8C780E080939F0E0E94EA9DEF
:104C8000DDC50E94549087FDD9C58CE7E82E82E0EF
:104C9000F82E0AE91BE0F70181917F010E949D71C6
:104CA000882359F00E9466710F945A10F8016083AE
:104CB0007183828393830E94D99C0C5F1F4FFBE01A
:104CC0000A3A1F0741F7BAC50E94549087FDB6C53E
:104CD0000CE7E02E02E0F02E0AE91BE0F7018191DB
:104CE0007F010E949D71882339F00E946671F8014E
:104CF00064A375A386A397A30C5F1F4FFBE00A3A3A
:104D00001F0761F79BC580914F0C87FD61C780919C
:104D1000500C8E7009F05CC74091CE0B5091CF0BB8
:104D20006091D00B7091D10B83E999E00E941673CA
:104D30004091D20B5091D30B6091D40B7091D50B55
:104D40008EE496E20E9416734091D60B5091D70BD9
:104D50006091D80B7091D90B88EC9AE10E94167380
:104D60008AE00E9453306AC580914E0C827109F02E
:104D700075C78091500C8C7809F070C78091510CE8
:104D8000837009F06BC75AC588E5810F0E949D7139
:104D9000882351F00E946671F701608371838283DA
:104DA0009383812F0E94B9A21F5FF4E0EF0EF11CE4
:104DB000133051F70E9496A641C50E949E913EC5B0
:104DC00083E50E94E671882331F00E941D90909344
:104DD000200280931F0280914E0C90914F0CA09165
:104DE000500CB091510C892B8A2B8B2B09F026C5C6
:104DF00060911F027091200283EA99E00E9427735C
:104E000085E20E9453308AE00E94533017C50E9409
:104E10005490F82E87FD12C583E50E94E6710F2D90
:104E20000F2C000C110B882361F10E941D90F801DA
:104E3000EE0FFF1FEE5AFD4F91838083000F111F6D
:104E4000000F111F98012B5E3D4F7901BC01990F96
:104E5000880B990B0F940E082AE037ED43E25CE3D0
:104E60000F946D08F801E35BF24F2081318142819C
:104E700053810F946D08F70160837183828393835C
:104E8000DDC40E944B7385E40E94533080E38F0D94
:104E90000E945330000F111FF801EE5AFD4F608140
:104EA000718187EA99E00E94277385E20E9453305E
:104EB0008AE00E945330C2C480E50E949D7188231D
:104EC00009F4BCC460E070E080E50E942190F82EF7
:104ED0006FEF7FEF83E50E9421908C01019603978D
:104EE00008F0ACC4F7FCAAC48F2D0E9405308823BB
:104EF00039F00E9447738FEA99E00E9465729EC460
:104F00000E94779E60E08F2D0E94C8D10F3FFFEF77
:104F10001F0731F00130110571F000E010E00DC005
:104F20008F2D0F94F60131E020E0892B09F030E05D
:104F3000032F122F02C001E010E08F2D0F94F60115
:104F40008017910709F47AC480E00E947F31F5CF81
:104F5000EAE9EE2EEBE0FE2E10E088E5810F0E94DC
:104F6000E67181110CC0123069F583E50E94E6718B
:104F7000811105C08091500C87FDE5C62AC00E94B2
:104F8000667120E030E040E050EC0F94070887FDA8
:104F9000D5C60E94667120E030E040E050E40F94F6
:104FA000471118160CF4C5C60E946671F7012489D2
:104FB0003589468957890F946D080F945310812FB6
:104FC0000E941B721F5FF4E0EF0EF11C133029F6F4
:104FD000D1CF8091510C837009F0B5C60E944B73FC
:104FE0002DC464E071E083E50E94CF8F8C0168EEF0
:104FF00073E080E50E94CF8F893823E1920710F09B
:1050000088E893E1B8010E94E3EA18C485E40E94AD
:1050100096D7811173C080E50E949D71882351F05D
:105020000E94667160939A0F70939B0F80939C0F00
:1050300090939D0F89E40E949D71882381F00E94C6
:1050400066712CEA35EC47E25EE30F946D086093DD
:105050009E0F70939F0F8093A00F9093A10F84E4F5
:105060000E949D71882381F00E9466712CEA35ECC4
:1050700047E25EE30F94E10F6093A20F7093A30FDA
:105080008093A40F9093A50F0E944B7340919A0FA9
:1050900050919B0F60919C0F70919D0F86EC99E051
:1050A0000E9416732CEA35EC47E25EE360919E0F96
:1050B00070919F0F8091A00F9091A10F0F94E10F1D
:1050C000AB01BC0182EC99E00E9416732CEA35EC2E
:1050D00047E25EE36091A20F7091A30F8091A40F4D
:1050E0009091A50F0F946D08AB01BC018EEB99E078
:1050F0000E9416738AE00E945330A0C30E94477337
:105100008AEC99E00E94657299C380E50E949D71C6
:10511000882351F00E94667160938F0E7093900EF9
:105120008093910E9093920E89E40E949D71882342
:1051300081F00E9466712CEA35EC47E25EE30F9441
:105140006D086093930E7093940E8093950E9093D8
:10515000960E84E40E949D71882381F00E946671FE
:105160002CEA35EC47E25EE30F94E10F6093970E73
:105170007093980E8093990E90939A0E0E944B73A1
:1051800040918F0E5091900E6091910E7091920E01
:1051900086EC99E00E9416732CEA35EC47E25EE358
:1051A0006091930E7091940E8091950E9091960E51
:1051B0000F94E10FAB01BC0182EC99E00E941673E1
:1051C0002CEA35EC47E25EE36091970E7091980E01
:1051D0008091990E90919A0E0F946D08AB01BC01CD
:1051E0008EEB99E00E9416738AE00E94533026C32A
:1051F00083E50E949D71182F882371F00E946671CB
:105200000F94531070931A026093190221E0672BD8
:1052100009F020E02093E20580E50E949D7188233B
:1052200059F02091190230911A02232B11F00E949B
:105230008E918093E20502C3111100C30E944B734B
:1052400085EF99E00E9465728091E205882319F04C
:1052500082E399E202C08CED99E00E946572609150
:10526000190270911A0284EE99E00E94277380EE71
:1052700099E00E946572E2C20E94779EDFC280912F
:105280004E0C87FD7BC58091500C867009F076C569
:1052900060C50E9440D78111D1C200EB15E288E6BB
:1052A0009FE09DA38CA3FE0131961F0177EDC72ED1
:1052B00075E2D72E7F01F8016591759185919491E2
:1052C000ECA1FDA181909190A190B190FDA3ECA3E0
:1052D000A50194010F94E60E2B013C01F7016083B8
:1052E00071838283938320E030E040EA51EC0F9495
:1052F000471187FD0AC020E030E040EA51E4C301D5
:10530000B2010F94070818162CF4F60184911816B0
:105310000CF454C5F70181909190A190B1907F0158
:1053200020E030E040EA51ECC501B4010F94471190
:1053300087FD4EC520E030E040EA51E4C501B401EC
:105340000F94070818160CF057C542C50E94477302
:1053500085E59AE00E94657271C20E946AA780E0AA
:105360000E94F6AD6BC261E083E50E948D928F25AD
:105370000E94F6AD63C28091791282FF5FC28064A1
:10538000809379125BC20E945490082F87FD56C209
:1053900085E50E949D718823A9F1E02E002E000C66
:1053A000FF080E9466714B015C0120E030E0A9011A
:1053B0000F94471187FF04C0B7FAB094B7F8B094C0
:1053C000C70153E0880F991F5A95E1F79C012A5AAB
:1053D000324F7901F90180829182A282B38220E06A
:1053E00030E04AEF54E4C501B4010F944711181698
:1053F0004CF480E090E0AAEFB4E4F701808391835D
:10540000A283B3838CE40E949D71882309F416C2A1
:10541000002E000C110B0E9466716B017C0120E0D4
:1054200030E0A9010F94471187FF04C0F7FAF09408
:10543000F7F8F09420E030E04AEF54E4C701B601F9
:105440000F944711980143E0220F331F4A95E1F76B
:10545000F901EA5AF24F18162CF0C482D582E6827E
:10546000F782ECC180E090E0AAEFB4E484839583F6
:10547000A683B783E3C1A090E305B090E405C09094
:10548000E505D090E6058BE40E94E671882339F1AA
:105490000E9466717B018C0120E030E0A9010F942D
:1054A000471187FD0AC020E030E040E251E4B70137
:1054B000C8010F9407081816A4F48FE30E94533014
:1054C0008BE40E9453308EE69AE00E94657286E675
:1054D0009AE00E94657286EA96E10E946572750103
:1054E00086019701A801B501C6010F94070888231A
:1054F00061F00E94779EC701D8018093E3059093E5
:10550000E405A093E505B093E60580914E0C9091DB
:105510004F0CA091500CB091510C892B8A2B8B2BE6
:1055200009F08CC10E944B734091E3055091E40552
:105530006091E5057091E60582E89AE00E94167395
:105540008AE00E9453307AC13CE7E32E32E0F32E2A
:1055500010E0F70181917F010E94E671882331F00C
:105560000E941D90BC01812F0E9476F91F5F1430AC
:1055700081F782E40E94E671882331F00E941D9039
:10558000BC0184E00E9476F983E50E94E6718823DD
:1055900009F454C110E00E941D90BC01812F0E94AB
:1055A00076F91F5F1530B9F749C160E070E083E517
:1055B0000E9421908C0160E070E080E50E942190C3
:1055C000B8010E9467F93AC183E50E949D7181117B
:1055D00006C02CE7E22E22E0F22E10E00EC010E012
:1055E0000E944090682F812F0E9446F91F5F15305E
:1055F000B9F7EFCF1F5F143071F0F70181917F0190
:105600000E949D718823B1F30E944090682F812FE2
:105610000E9446F9EFCF82E40E949D71882331F009
:105620000E944090682F84E00E9446F90E9462F830
:1056300005C183E50E94E671882309F466C00E94D3
:105640004090823049F1833009F44BC0813009F039
:105650005CC09CE7E92E92E0F92E10E0F701819101
:105660007F010E94E671882341F00E9440902FEF55
:105670004FEF682F812F0E94D0F81F5F143071F711
:1056800082E40E94E671882309F43FC00E944090A2
:105690002FEF4FEF682F21C08CE7E82E82E0F82E25
:1056A00010E0F70181917F010E94E671882341F0AB
:1056B0000E9440902FEF482F6FEF812F0E94D0F86B
:1056C0001F5F143071F782E40E94E6718823E9F0CD
:1056D0000E9440902FEF482F6FEF84E00E94D0F897
:1056E00014C00CE712E0F80181918F010E94E6716D
:1056F00081110E944090F2E000381F07A1F782E478
:105700000E94E67181110E9440900E9462F896C04A
:1057100081E0809392051092C91560E083E50E94B4
:105720008D9281118BC00E94CF8088C083E50E943A
:105730009D71882339F00E948E9180935E0D0E94A6
:10574000FB717CC00E944B738DE89AE00E946572E9
:1057500080915E0D882319F082E696E002C08FE703
:1057600098E00E9465728AE00E94533067C00E94F0
:10577000238D64C00E9477A96D3371058105910561
:1057800020F08AEB9AE00E94A5F786EB9AE00E944F
:10579000A5F784EE8093EC0B0E94F3710E94B2C0D7
:1057A00082EA9AE00E94657285E897E19093CE03C1
:1057B0008093CD0360911B0270911C026F3F2FEF0D
:1057C0007207E1F12091E70B4091E80B8BE790E63F
:1057D0000E94724A8FEF9FEF90931C0280931B02EE
:1057E00081E08093FF0D2AC00E94DDD527C0009183
:1057F000530C1091540C0E943ED26093E40C7093B1
:10580000E50C8093E60C9093E70C0023B9F00E941E
:105810004B7384E50E945330B8017727072E000CA4
:10582000880B990B0E94C73080E20E9453308AECAB
:1058300099E00E94657202C00E94DDD53FA131113E
:1058400002C00E94BF808EA18093DF020BC30E9422
:10585000779E0E943ED26093E40C7093E50C809397
:10586000E60C9093E70C8091580290915902A09118
:105870005A02B0915B028093E2029093E302A093FC
:10588000E402B093E50280911F0290912002909370
:10589000E1028093E00284E690E0909320028093FE
:1058A0001F0281E08093C8030E9443A78AE50E94FB
:1058B0009D71F82E88E50E949D71182F89E50E9440
:1058C0009D711813A0C0F11611F0012F04C001E062
:1058D00011E0FF24F3948091CA0382FD61C082E548
:1058E0000E94E671882309F45BC00E9466714B0137
:1058F0005C0120E030E0A9010F940708882309F437
:105900004FC0111103C0002309F454C020E030E05F
:10591000A901C501B4010F94E70E762E872E982EAB
:10592000A92EB090700FC090710FD090720FE090C0
:10593000730F2B2D3C2D4D2D5E2D0F94070887FDE9
:1059400003C0B72C6401EA2C80E090E0A0E8B0E44A
:105950008C8F9D8FAE8FBF8F2FE736E948E15BE4D8
:105960006B2D7C2D8D2D9E2D0F94070887FF05C074
:105970003B2D2C2D9D2D8E2D04C03FE726E998E16F
:105980008BE4432F522F692F782F49835A836B83DF
:105990007C83BE01645E7F4FCE0101960E9439A4D4
:1059A000112319F080E00E94E7A5002319F081E09F
:1059B0000E94E7A5FF2019F082E00E94E7A50E945F
:1059C00088A48091C7038093C8038091E2029091DC
:1059D000E302A091E402B091E50280935802909313
:1059E0005902A0935A02B0935B028091E002909119
:1059F000E1029093200280931F0283E0809356027D
:105A00000E9496A61BCF082F66CF88E50E949D7145
:105A10008111179889E50E949D71882311F01698CD
:105A200013988AE50E949D718111159885E40E9462
:105A30009D71882309F402CF149800CF60E084EAB6
:105A400096E00E941EEB17981698139815981498D4
:105A5000F5CE0E9456710E947680F0CE83E50E94BA
:105A6000E671882359F00E9466710F945310CB01A0
:105A70000E94268961E080E00E94BB390F94ED000E
:105A8000DDCE83E50E94E671182F811105C082E505
:105A90000E94E671882341F10E9466710F945310B1
:105AA000CB010E94268961E081E00E94BB396091B0
:105AB000970F7091980F072E000C880B990B0F947D
:105AC0000E084B015C014090930F5090940F609032
:105AD000950F7090960FA30192010F94471118161D
