:100000000C94D30A0C94000B0C94000B0C94000B72
:100010000C94000B0C94000B0C94000B0C94000B34
:100020000C94000B0C94000B0C94000B0C94000B24
:100030000C94000B0C94000B0C94000B0C94000B14
:100040000C94000B0C940E790C94000B0C94000B88
:100050000C94000B0C94000B0C9467830C94FE948E
:100060000C94000B0C94951A0C94000B0C94000B40
:100070000C94000B0C94000B0C94000B0C94000BD4
:100080000C94DE490C94000B0C94000B0C94000BA8
:100090000C94000B0C94000B0C94000B0C946993C3
:1000A0000C94000B0C94000B0C94B1490C94000BB5
:1000B0000C94000B0C94000B0C94000B0C948449D2
:1000C0000C94000B0C94000B0C94000B0C94000B84
:1000D0000C94000B0C94000B0C94000B0C94000B74
:1000E0000C94000B084AD73B3BCE016E84BCBFFD8D
:1000F000C12F3D6C74319ABD56833DDA3D00C77FF8
:1001000011BED9E4BB4C3E916BAAAABE0000008090
:100110003F05A84CCDB2D44EB93836A9020C50B91F
:10012000918688083CA6AAAA2ABE000000803F65E6
:1001300063686F3A0048617264636F646564204469
:10014000656661756C742053657474696E6773209D
:100150004C6F616465640053746F726564207365ED
:100160007474696E6773207265747269657665640C
:10017000002044002049002020204D333031205001
:10018000005049442073657474696E67733A0020A7
:100190005A0020590020204D323036205800486F38
:1001A0006D65206F666673657420286D6D293A0051
:1001B000204500205A0020580020420020540020F2
:1001C000204D323035205300416476616E636564A2
:1001D000207661726961626C65733A20533D4D69A6
:1001E0006E20666565647261746520286D6D2F737D
:1001F000292C20543D4D696E2074726176656C2007
:10020000666565647261746520286D6D2F73292C95
:1002100020423D6D696E696D756D207365676D6512
:100220006E742074696D6520286D73292C20583DEB
:100230006D6178696D756D205859206A65726B2003
:10024000286D6D2F73292C20205A3D6D6178696DC2
:10025000756D205A206A65726B20286D6D2F732989
:100260002C2020453D6D6178696D756D2045206AB3
:1002700065726B20286D6D2F73290020540020209B
:100280004D323034205300416363656C6572617494
:10029000696F6E3A20533D616363656C657261748A
:1002A000696F6E2C20543D726574726163742061B5
:1002B0006363656C65726174696F6E002045002030
:1002C0005A0020590020204D3230312058004D6115
:1002D00078696D756D20416363656C6572617469E1
:1002E0006F6E20286D6D2F7332293A002045002053
:1002F0005A0020590020204D3230332058004D61E3
:1003000078696D756D2066656564726174657320CA
:10031000286D6D2F73293A00204500205A0020597E
:100320000020204D393220580053746570732070BE
:10033000657220756E69743A0053657474696E67EE
:10034000732053746F726564006563686F3A00458B
:1003500072726F723A005072696E746572207374B3
:100360006F707065642064756520746F20657272AB
:100370006F72732E204669782074686520657272EA
:100380006F7220616E6420757365204D3939392094
:10039000746F20726573746172742E202854656DB9
:1003A000706572617475726520697320726573651A
:1003B000742E205365742069742061667465722000
:1003C00072657374617274696E6729005072696E28
:1003D0007465722068616C7465642E206B696C6C46
:1003E00028292063616C6C656421006F6B00526585
:1003F00073656E643A20002200556E6B6E6F776EE7
:1004000020636F6D6D616E643A2022005A204F6642
:1004100066736574203A20007A5F6D61783A200037
:100420007A5F6D696E3A20005A204F666673657474
:10043000005A204F6666736574206F6B007A5F6D9B
:1004400061783A20007A5F6D696E3A2000795F6DBD
:1004500061783A2000795F6D696E3A2000785F6DAF
:1004600061783A2000785F6D696E3A2000205A3A30
:100470000020593A0020436F756E7420583A2000CE
:1004800020453A00205A3A0020593A00583A00468E
:1004900049524D574152455F4E414D453A4D61726B
:1004A0006C696E2056313B20537072696E746572B0
:1004B0002F6772626C206D617368757020666F7251
:1004C0002067656E36204649524D574152455F556B
:1004D000524C3A68747470733A2F2F676974687558
:1004E000622E636F6D2F4572696B5A616C6D2F4D73
:1004F00061726C696E2F2050524F544F434F4C5FC6
:1005000056455253494F4E3A312E30204D414348C3
:10051000494E455F545950453A4D656E64656C20AF
:1005200045585452554445525F434F554E543A3105
:1005300020555549443A30303030303030302D304D
:100540003030302D303030302D303030302D3030B4
:10055000303030303030303030300A0020423A0015
:1005600020453A00543A0020573A0020453A0054BA
:100570003A002042403A0020403A00202F003A0042
:10058000205400202F0020423A00202F006F6B20C3
:10059000543A002569206D696E2C20256920736509
:1005A00063000A00205A3A200020593A20002058BF
:1005B0003A20004265640050726F62696E67206481
:1005C0006F6E65210020643A200020623A200045C9
:1005D000716E20636F656666696369656E74733AF0
:1005E00020613A2000486F6D6520582F59206265C0
:1005F000666F7265205A00FFFF010000254300006E
:10060000394300002043000000000000000000000B
:100610002043000000000000000000000000000077
:10062000254300003943000020430000A0400000A3
:10063000A040000000400A00207A3A200020793AC9
:10064000200020783A2000426564005072696E7480
:1006500065722073746F70706564206475652074B2
:100660006F206572726F72732E20466978207468ED
:1006700065206572726F7220616E642075736520EB
:100680004D39393920746F20726573746172742E1C
:10069000202854656D706572617475726520697388
:1006A0002072657365742E2053657420697420610F
:1006B000667465722072657374617274696E6729FD
:1006C000006F6B004E6F204C696E65204E756D6239
:1006D0006572207769746820636865636B73756DF4
:1006E0002C204C617374204C696E653A20004E6F6B
:1006F00020436865636B73756D2077697468206C3F
:10070000696E65206E756D6265722C204C61737424
:10071000204C696E653A2000636865636B73756D84
:10072000206D69736D617463682C204C6173742053
:100730004C696E653A20004C696E65204E756D629D
:100740006572206973206E6F74204C617374204C45
:10075000696E65204E756D6265722B312C204C617F
:100760007374204C696E653A20004D3131300020A1
:1007700020506C616E6E6572427566666572427974
:100780007465733A20002046726565204D656D6F73
:1007900072793A20004E6F76203139203230313470
:1007A00000436F6D70696C65643A200028416C6588
:1007B0007068204F626A6563747320496E632C20F1
:1007C0004D696E692D3230313451342900207C203E
:1007D000417574686F723A20004E6F76203139206F
:1007E000323031342031313A32383A313300204C12
:1007F00061737420557064617465643A2000312E11
:10080000302E30004D61726C696E0020536F66743B
:100810007761726520526573657400205761746357
:1008200068646F67205265736574002042726F7749
:100830006E206F757420526573657400204578745E
:1008400065726E616C20526573657400506F7765D8
:10085000725570007374617274002200656E717558
:1008600065696E672022002200656E717565696E8C
:10087000672022006563686F3A0020746F6F206CF8
:100880006F6E6720657874727573696F6E20707211
:100890006576656E7465640020636F6C64206578AE
:1008A00074727573696F6E2070726576656E7465AB
:1008B000640045313A200045303A20005A3A200081
:1008C000593A2000583A20004D53312C4D533220D4
:1008D00050696E730A0024F404D9201BC40C5C0E0A
:1008E0009804C4095F0265077101F405F900FB046F
:1008F000B30048048700C10369005803550003038F
:100900004500BE023A008402310053022A00290247
:10091000250004022000E4011C00C8011900AF01F9
:100920001700980114008401130071011000610187
:10093000100051010E0043010D0036010B002B0188
:100940000B0020010B00150109000C010900030137
:100950000800FB000800F3000800EB000700E400BB
:100960000600DE000600D8000600D2000600CC001B
:100970000500C7000500C2000500BD000400B90065
:100980000400B5000400B1000400AD000400A9009B
:100990000400A5000300A20003009F0004009B00C8
:1009A00003009800030095000200930003009000EC
:1009B00003008D0002008B00030088000200860007
:1009C000020084000300810002007F0002007D001D
:1009D00002007B000200790002007700010076002F
:1009E00002007400020072000100710002006F003A
:1009F00002006D0001006C0002006A000100690045
:100A0000020067000100660001006500010064004B
:100A100002006200010061000100600001005F004F
:100A200002005D0001005C0001005B0001005A0053
:100A30000100590001005800010057000100560054
:100A40000100550001005400010053000000530054
:100A500001005200010051000100500001004F0050
:100A600001004E0000004E0001004D0001004C004E
:100A700001004B0000004B0001004A00010049004A
:100A80000100480000004800010047000100460046
:100A90000000460001004500000045000100440040
:100AA000010043000000430001004200000042003A
:100AB00001004100000041000100400001003F0032
:100AC00000003F0001003E0000003E0001003D002C
:100AD00000003D0001003C0000003C0000003C0024
:100AE00001003B0000003B0001003A0000003A001A
:100AF0000100390000003900010038000000380012
:100B00000000380001003700000037000100360007
:100B100000003600000036000100350000003500FE
:100B200000003500010034000000340000003400F3
:100B300001003300000033000000330001003200E8
:100B400000003200000032000100310000003100DE
:100B500000003100010030000000300000003000D3
:100B600001002F0000002F0000002F0000002F00C8
:100B700001002E0000002E0000002E0001002D00BC
:100B800000002D0000002D0000002D0001002C00B1
:100B900000002C0000002C0000002C0001002B00A5
:100BA00000002B0000002B0000002B0001002A0099
:100BB00000002A0000002A0000002A00010029008D
:100BC0000000290000002900000029000000290081
:100BD0000100280000002800000028000000280074
:100BE0000000280001002700000027000000270067
:100BF000000027000000270001002600000026005A
:100C0000000026000000260000002600010025004C
:100C10000000250000002500000025000000250040
:100C20000000250001002400000024000000240032
:100C30000000240000002400010023000000230025
:100C40000000230000002300000023000000230018
:100C5000000023000100220000002200000022000A
:100C600000002200000022000000220001002100FC
:100C700000002100000021000000210000002100F0
:100C800000002100000021000100200000002000E1
:100C900000002000000020000000200000002000D4
:100CA000000020000000200001001F0000001F00C5
:100CB00000001F0000001F0000001F0000001F00B8
:100CC00000001F0001001E0000001E0000001E00AA
:100CD00000001E00000024F4D43050C38E20C2A2B5
:100CE0004017828B7011127A910D816CD90AA8611C
:100CF000E108C7586607615143061E4B5D05C145B3
:100D0000A7041A411104093D980371393103403693
:100D1000DB0265339102D4305402802E1D02632C15
:100D2000EE01752AC501B028A001102781018F2589
:100D300064012B244B01E0223401AC211F018D20E2
:100D40000D01801FFC00841EED00971DDF00B81C04
:100D5000D200E61BC600201BBC00641AB200B21908
:100D6000A8000A19A0006A189900D117910040172D
:100D70008B00B516840031167E00B31579003A1544
:100D80007300C7146F0058146A00EE1366008813CE
:100D9000630025135E00C7125B006C12570015122A
:100DA0005400C111510070114F0021114B00D61099
:100DB00049008D1047004610440002104200C00F49
:100DC0004000800F3E00420F3C00060F3B00CB0E60
:100DD0003800930E37005C0E3500270E3400F30DFB
:100DE0003200C10D3100900D3000600D2E00320D2B
:100DF0002D00050D2C00D90C2B00AE0C2900850C04
:100E000029005C0C2700350C27000E0C2600E80B8F
:100E10002400C40B2400A00B23007D0B23005A0BDD
:100E20002100390B2100180B2000F80A1F00D90AF5
:100E30001E00BB0A1E009D0A1D00800A1D00630AD9
:100E40001C00470A1B002C0A1B00110A1A00F70994
:100E50001A00DD091900C4091900AB09190092092B
:100E600017007B091800630917004C0916003609A2
:100E70001600200916000A091500F5081500E008FB
:100E80001400CC081400B8081400A408140090083A
:100E900013007D0812006B08130058081200460862
:100EA0001200340811002308110012081100010873
:100EB0001100F0071000E0071000D0071000C00775
:100EC0001000B0070F00A107100091070E00830764
:100ED0000F0074070F0065070E0057070E00490743
:100EE0000E003B070D002E070E0020070D00130714
:100EF0000D0006070D00F9060C00ED060D00E006DA
:100F00000C00D4060C00C8060C00BC060C00B00691
:100F10000C00A4060B0099060C008D060B0082063F
:100F20000B0077060B006C060B0061060A005706E3
:100F30000B004C060A0042060A0038060A002E067C
:100F40000A0024060A001A060A001006090007060D
:100F50000A00FD050900F4050900EB050900E2059A
:100F60000900D9050900D0050900C7050900BE051B
:100F70000900B5050800AD050800A50509009C0598
:100F80000800940508008C050800840508007C050D
:100F90000800740508006C050700650508005D057C
:100FA0000700560508004E050700470507004005E5
:100FB000080038050700310507002A05070023054A
:100FC00007001C050600160507000F0507000805A9
:100FD000060002050700FB040600F5040700EE0406
:100FE0000600E8040600E2040700DB040600D5045E
:100FF0000600CF040600C9040600C3040600BD04B1
:101000000600B7040600B1040500AC040600A604FF
:101010000600A00405009B0406009504050090044A
:1010200006008A04050085040500800406007A0491
:10103000050075040500700405006B0405006604D6
:101040000500610405005C04050057040500520416
:1010500005004D04050048040500430405003E0456
:1010600004003A04050035040500300404002C0493
:10107000050027040400230405001E0404001A04CC
:10108000040016040500110404000D040400090402
:1010900005000404040000040400FC030400F80339
:1010A0000400F4030400F0030400EC030400E8036C
:1010B0000400E4030400E0030400DC030400D8039C
:1010C0000400D4030400D0030400CC030400C803CC
:1010D0000300C50303006563686F3A00205A3A00B5
:1010E00020593A0020583A00656E6473746F70732B
:1010F000206869743A20004572726F723A00546534
:101100006D7065726174757265206865617465647F
:1011100020626564207377697463686564206F6614
:10112000662E204D415854454D50207472696767B2
:1011300065726564202121003A20457874727564D7
:101140006572207377697463686564206F66662EC4
:10115000204D494E54454D50207472696767657241
:1011600065642021003A20457874727564657220A8
:101170007377697463686564206F66662E204D41DD
:101180005854454D502074726967676572656420D4
:101190002100202D20496E76616C69642065787489
:1011A0007275646572206E756D6265722021001023
:1011B00000AD0330016A0150022B0170030A019057
:1011C00004F500B005E500D006D800F007CE001009
:1011D00009C500300ABE00500BB700700CB100907A
:1011E0000DAB00B00EA600D00FA200F0109D0010B5
:1011F000129900301395005014920070158E0090D3
:10120000168B00B0178700D0188400F019810010E9
:101210001B7E00301C7B00501D7900701E760090F4
:101220001F7300B0207000D0216E00F0226B001000
:101230002469003025660050266300702761009005
:10124000285E00B0295C00D02A5900F02B5600100F
:101250002D5400302E5100502F4E0070304B009016
:10126000314800B0324500D0334200F0343E001027
:10127000363B00303737005038330070392E00903D
:101280003A2900B03B2300D03C1B00F03D11001078
:101290003F0100F03F0000504944204175746F74D5
:1012A000756E652066696E69736865642120507586
:1012B0007420746865204B702C204B6920616E642B
:1012C000204B6420636F6E7374616E747320696E5B
:1012D000746F20436F6E66696775726174696F6EB3
:1012E0002E6800504944204175746F74756E6520F6
:1012F0006661696C6564212074696D656F75740041
:1013000020403A006F6B20543A006F6B20423A0045
:10131000504944204175746F74756E65206661692B
:101320006C6564212054656D7065726174757265B9
:1013300020746F6F206869676800204B643A200052
:10134000204B693A2000204B703A200020436C610A
:101350007369632050494420002054753A200020CE
:101360004B753A2000206D61783A2000206D696E3F
:101370003A200020643A200020626961733A20001C
:101380001000C90210012C01400122017001180156
:10139000B0010E01F00104015002FA00B002F000A9
:1013A0003003E600D003DC009004D2007005C800D2
:1013B000A006BE000008B400B009AA00D00BA0002F
:1013C000600E960060118C000015820020197800D4
:1013D000C01D6E00A0226400B0275A00902C50005F
:1013E00000314600E0343C0010383200903A2800CA
:1013F000603C1E00A03D1400803E0A00203F00001B
:101400000A0020000A00207A3A200020793A2000C1
:1014100020783A200000002100240027002A002D17
:10142000003000330001010000040107010A01003F
:10143000002200250028002B002E0031003400027D
:10144000010000050108010B010000200023002617
:101450000029002C002F00320000010000030106CB
:10146000010901050505050705080808080202022B
:10147000020A0A080804040404010101010101012F
:10148000010303030303030303040707070C0C0C06
:101490000C0C0C0C0C0202020206060606060606DE
:1014A000060B0B0B0B0B0B0B0B07070A0A0A0A0A9E
:1014B0000A05050504040408080102102020080894
:1014C00010204010204080020102010804020101A6
:1014D000020408102040808040201008040201808F
:1014E00004020180402010080402010804020101E6
:1014F00002040810204080010204081020408010DF
:10150000080408801020400440801020400480001F
:1015100000090A02080B0C0D070603040100000075
:1015200000000000000000000000000000000000BB
:10153000000000000000000000000011100F00007B
:10154000000000000000000000000000000000009B
:10155000000000000000000000000000000000008B
:101560000000000000494E46494E4954594E414E34
:10157000CDCCCC3D0AD7233C17B7D13877CC2B3212
:101580009595E6241FB14F0A000020410000C84293
:1015900000401C4620BCBE4CCA1B0E5AAEC59D74F2
:1015A000291B791DD89211241FBECFEFD1E2DEBFD7
:1015B000CDBF00E00CBF14E0A0E0B2E0EEE5FBE33D
:1015C00001E00BBF02C007900D92AA3AB107D9F70C
:1015D0001BBE1EE0AAEAB4E001C01D92A23EB10704
:1015E000E1F715E1C6EAD5E104C02297FE010E94A9
:1015F000679DC03AD107C9F70E9401980C94AD9D30
:101600000C940000CF93DF93BC018230910510F45D
:1016100062E070E0A091DE0EB091DF0EED0140E0DF
:1016200050E0E0E0F0E021C08881998186179707BB
:1016300069F48A819B81309719F09383828304C077
:101640009093DF0E8093DE0EFE0134C06817790799
:1016500038F44115510519F08417950708F4AC01C9
:10166000FE018A819B819C01E9012097E9F64115E1
:101670005105A9F1CA01861B970B049708F4BA011A
:10168000E0E0F0E02AC08D919C91119784179507B6
:10169000F9F46417750781F412968D919C91139754
:1016A000309719F09383828304C09093DF0E809368
:1016B000DE0EFD0132964CC0CA01861B970BFD0160
:1016C000E80FF91F6193719302978D939C9340C02B
:1016D000FD01828193819C01D9011097A1F680912F
:1016E000DC0E9091DD0E892B41F480917D03909169
:1016F0007E039093DD0E8093DC0E40917F0350912A
:1017000080034115510541F44DB75EB780917B03CD
:1017100090917C03481B590B2091DC0E3091DD0E1B
:10172000CA01821B930B8617970780F0AB014E5FAF
:101730005F4F8417950750F0420F531F5093DD0EF3
:101740004093DC0EF9016193719302C0E0E0F0E098
:10175000CF01DF91CF910895CF93DF93009709F4E4
:1017600050C0EC0122971B821A82A091DE0EB0912C
:10177000DF0E109709F140E050E0AC17BD0708F10B
:10178000BB83AA83FE0121913191E20FF31FAE17B3
:10179000BF0779F48D919C911197280F391F2E5F07
:1017A0003F4F3983288312968D919C9113979B8389
:1017B0008A834115510571F4D093DF0EC093DE0E7C
:1017C00020C012968D919C911397AD01009711F056
:1017D000DC01D3CFFA01D383C28321913191E20F8F
:1017E000F31FCE17DF0769F488819981280F391F0D
:1017F0002E5F3F4FFA01318320838A819B8193833F
:101800008283DF91CF910895A0E0B0E0EAE0FCE0B0
:101810000C947C9DEC015B016115710519F0FB01D5
:1018200091838083F9908F2D90E00E946B9D892B8E
:10183000C9F7FDE2FF1621F4F990EE24E39405C008
:101840002BE2F21609F4F990EE248E0101501040BB
:10185000C80165E675E143E050E062D2892BF9F4F6
:101860008E010E5F1F4FC80168E675E145E050E04C
:1018700057D2892B19F48E01095F1F4FA114B104AF
:1018800019F0F50111830083E0FC04C070E090E0E2
:1018900080E813C070E090E080E86FEF07C1C801F6
:1018A0006DE675E143E050E03BD2892B69F4A11469
:1018B000B10429F470E090E080EC6FE7F7C0229665
:1018C000F501D183C083F6CF8824992440E050E00D
:1018D00060E070E0EF2DE053EA30A0F5F2E0EF2A8F
:1018E0008E2D90E09C0128703070E2FE06C0232B04
:1018F00079F50894811C911C2BC0232B19F00894B6
:1019000081089108DB01CA0112E0880F991FAA1F04
:10191000BB1F1A95D1F7480F591F6A1F7B1F440F31
:10192000551F661F771F4E0F511D611D711D4839D0
:1019300029E9520729E9620729E1720748F084E0A2
:10194000E82A06C0EE3F31F4E3FC39C098E0E92A0A
:10195000F990C0CFE53311F0E53189F529912D32A9
:1019600019F4E0E1EE2A05C02B3219F081E090E095
:1019700003C0299182E090E0E22FE053EA3018F0B2
:10198000C81BD90B1CC020E030E0FCE020383F072A
:101990005CF4C901880F991F880F991F280F391F00
:1019A000220F331F2E0F311DE991E053EA3068F307
:1019B000E4FE03C0309521953F4F820E931ECE2C3E
:1019C000DD24E1FE07C0A114B10421F02197F50147
:1019D000D183C083CB01BA010E94D0997B018C01D5
:1019E000F3E0CF22DD2423E0C216D10421F417FB5B
:1019F000109517F9109557016801C801B70120E04B
:101A000030E040E050E00E943099882309F44AC059
:101A100097FE0DC024E8E22E25E1F22E90948194E9
:101A200091089394C0E2D0E000E010E012C09CE97D
:101A3000E92E95E1F92EF6CFF701259135914591E3
:101A40005491C601B5010E94109C5B016C018C1A77
:101A50009D0A8C169D0684F7D595C7950F5F1F4F7D
:101A60000630110529F08CEF9FEFE80EF91EF1CF3B
:101A7000C501D6017C018D018C2D880F8D2D881F0D
:101A80008F3F51F0C601B50120E030E040E050E06A
:101A90000E943099882331F482E290E09093E10E25
:101AA0008093E00E7E2D9F2D802F612F272F392FC1
:101AB000482F562FB901CA01CDB7DEB7ECE00C9420
:101AC000989D2F923F925F926F927F928F929F92FA
:101AD000AF92BF92CF92DF92EF92FF920F931F933C
:101AE000CF93DF938C011B01EA016115710519F099
:101AF000FB0191838083209749F0CE010297839761
:101B000028F020E030E040E050E0F6C0F801A1907D
:101B10008F018A2D90E00E946B9D892BB9F7FDE221
:101B2000AF1631F4F801A1908F015524539407C0EA
:101B3000FBE2AF1619F4F801A1908F01552420970C
:101B400019F0C031D105C1F4F0E3AF1679F4F80112
:101B50008081883711F0883549F4F801A1800E5F43
:101B60001F4FF2E05F2AC0E1D0E006C0209721F4C9
:101B700080E3A816E9F427C0C830D10531F1C93097
:101B8000D10524F4C230D10531F50CC0CA30D105DD
:101B900089F0C031D105F9F4C12CD12CE12CB8E089
:101BA000FB2E28C0C12CD12CE12CA0E4FA2E22C09F
:101BB000CAE0D0E0FCECCF2EFCECDF2EFCECEF2EEC
:101BC000FCE0FF2E17C0C8E0D0E0C12CD12CE12CE6
:101BD000E0E1FE2E0FC09E01442737FD4095542FB3
:101BE00060E070E080E090E80E94289DC901DA0181
:101BF0006C017D0120E030E040E050E060E03E011B
:101C0000882477FC8094982C70EDB72EBA0CE9E00C
:101C1000EB1570F48A2D81548A3118F499ECB92EA1
:101C200006C08A2D81568A3150F589EAB82EBA0C41
:101C30008B2D90E08C179D0714F56F3FE1F0C216D5
:101C4000D306E406F506B0F0CA01B901A401930178
:101C50000E94E29C9B01AC012B0D311D411D511DC9
:101C60002130F0E03F07F0E04F07F0E85F0710F4A5
:101C700061E001C06FEFF801A1908F01C5CF211481
:101C8000310481F0662331F001501040F1011183DD
:101C9000008308C051FE1AC002501040F1011183A8
:101CA000008314C067FF12C050FC05C02FEF3FEF48
:101CB0004FEF5FE704C020E030E040E050E882E210
:101CC00090E09093E10E8093E00E16C050FE08C0A5
:101CD00050954095309521953F4F4F4F5F4F0CC029
:101CE00057FF0AC082E290E09093E10E8093E00EED
:101CF0002FEF3FEF4FEF5FE7B901CA01DF91CF91BF
:101D00001F910F91FF90EF90DF90CF90BF90AF9019
:101D10009F908F907F906F905F903F902F9008954D
:101D2000FB01DC014150504088F08D9181341CF062
:101D30008B350CF4805E659161341CF06B350CF4CE
:101D4000605E861B611171F3990B0895881BFCCFAF
:101D5000FB0155915523A9F0BF01DC014D914517B9
:101D60004111E1F759F4CD010590002049F04D9162
:101D700040154111C9F3FB014111EFCF81E090E023
:101D800001970895FC018191861721F08823D9F7E6
:101D9000992708953197CF010895FB01DC018D91BA
:101DA000019080190110D9F3990B0895FB01DC0112
:101DB0004150504030F08D910190801919F400206D
:101DC000B9F7881B990B0895AEE0B0E0EAEEFEE0AB
:101DD0000C94849D0E891F898EE08C831A8309835D
:101DE0008FEF9FE79E838D839E01265E3F4FCE013E
:101DF0000196688D798DA9010AD02F813885020F4F
:101E0000131FF80110822E96E4E00C94A09DABE025
:101E1000B0E0EDE0FFE00C94769D3C012B015A010F
:101E2000FC0117821682838181FD03C06FEF7FEF73
:101E3000B9C19AE0892E1E010894211C311CF301BE
:101E40002381F20123FD859123FF81912F018823B6
:101E500009F4A5C1853239F423FD859123FF8191D1
:101E60002F01853221F490E0B301B7D1E8CF982F4C
:101E7000FF24EE249924FFE1FF15D0F09B3269F096
:101E80009C3228F4903259F0933291F40EC09D3276
:101E900049F0903369F441E024C052E0F52A84E02F
:101EA000F82A28C098E0F92A25C0E0E1FE2A22C0DD
:101EB000F7FC29C0892F80538A3070F4F6FE05C0E4
:101EC000989C902C1124980E15C0E89CE02C1124AD
:101ED000E80EF0E2FF2A0EC09E3229F4F6FC5FC144
:101EE00040E4F42A07C09C3619F450E8F52A02C0F1
:101EF000983649F4F20123FD959123FF91912F012A
:101F0000992309F0B8CF892F8554833018F0805277
:101F1000833038F444E050E0A40EB51E5FE35983EB
:101F20000FC0933631F0933779F0933509F052C0F2
:101F30001FC0F5018081898342E050E0A40EB51EE8
:101F4000610101E010E011C0F501C080D180F6FC14
:101F500003C06FEF7FEF02C0692D70E042E050E0F8
:101F6000A40EB51EC6012ED18C015FE7F52213C069
:101F7000F501C080D180F6FC03C06FEF7FEF02C097
:101F8000692D70E042E050E0A40EB51EC6010FD1ED
:101F90008C0150E8F52AF3FE06C018C080E290E0FC
:101FA000B3011BD1EA948E2D90E008171907B0F306
:101FB0000DC0F601F7FC8591F7FE81916F0190E06D
:101FC000B3010BD1E110EA94015010400115110545
:101FD00081F7E2C0943611F0993661F5F7FE08C03A
:101FE000F501208131814281538184E090E00AC073
:101FF000F501808191819C01442737FD4095542F44
:1020000082E090E0A80EB91E9FE6F92257FF09C0B2
:1020100050954095309521953F4F4F4F5F4FE0E8E9
:10202000FE2ACA01B901A1012AE030E002D1D82E6E
:10203000D2183FC0953729F41F2D1F7E2AE030E0CB
:102040001DC01F2D197F9F3661F0903720F4983501
:1020500009F0A5C00FC0903739F0983709F09FC03C
:1020600004C028E030E00AC0106114FD146020E1D3
:1020700030E004C014FD166020E132E017FF08C014
:10208000F501608171818281938144E050E008C054
:10209000F50180819181BC0180E090E042E050E058
:1020A000A40EB51EA101C5D0D82ED2188FE7F82EE8
:1020B000F122F6FE0BC05EEFF522D91438F4F4FEDF
:1020C00007C0F2FC05C08FEEF82202C01D2D01C032
:1020D000192DF4FE0DC0FE01ED0DF11D8081803340
:1020E00019F499EEF92208C01F5FF2FE05C003C083
:1020F0008F2D867809F01F5F0F2DF3FC13C0F0FEC3
:102100000EC01E1510F09D2C0AC09D2C9E0C911A1D
:102110001E2D05C080E290E0B3015FD01F5F1E1549
:10212000C8F304C01E1510F4E11A01C0EE2404FF28
:102130000EC080E390E0B30150D002FF1BC001FD50
:1021400003C088E790E00EC088E590E00BC0802FC8
:10215000867881F001FF02C08BE201C080E2F7FCCB
:102160008DE290E0B30139D005C080E390E0B30187
:1021700034D09A94D914C8F3DA94F101ED0DF11D1D
:10218000808190E0B30129D0DD20B1F705C080E265
:1021900090E0B30122D0EA94EE20C9F750CEF301CB
:1021A00066817781CB012B96E2E10C94929DFC0134
:1021B0000590615070400110D8F7809590958E0F72
:1021C0009F1F0895FC016150704001900110D8F7E5
:1021D000809590958E0F9F1F08950F931F93CF9317
:1021E000DF938C01EB018B8181FF1BC082FF0DC04F
:1021F0002E813F818C819D812817390764F4E88105
:10220000F9810193F983E88306C0E885F985802F79
:102210001995892B31F48E819F8101969F838E833E
:1022200002C00FEF1FEFC801DF91CF911F910F91F7
:102230000895FA01AA27283051F1203181F1E8945C
:102240006F936E7F6E5F7F4F8F4F9F4FAF4FB1E0A9
:102250003ED0B4E03CD0670F781F891F9A1FA11DA4
:10226000680F791F8A1F911DA11D6A0F711D811DA5
:10227000911DA11D20D009F468943F912AE0269F6A
:1022800011243019305D3193DEF6CF010895462FC9
:102290004770405D4193B3E00FD0C9F7F6CF462FAA
:1022A0004F70405D4A3318F0495D31FD4052419313
:1022B00002D0A9F7EACFB4E0A695979587957795D0
:1022C0006795BA95C9F700976105710508959B0157
:1022D000AC010A2E06945795479537952795BA95E0
:1022E000C9F7620F731F841F951FA01D0895DF9308
:1022F000CF93CDB7DEB766970FB6F894DEBF0FBEAB
:10230000CDBF8091000290910102A0910202B09194
:1023100003028F87988BA98BBA8BFE013F9644E608
:1023200050E08081F999FECF1FBA52BD41BD80BDFA
:102330000FB6F894FA9AF99A0FBE4F5F5F4F48367E
:10234000510511F03196EDCFE5ECF7E08081F99978
:10235000FECF1FBA52BD41BD80BD0FB6F894FA9AA8
:10236000F99A0FBE4F5F5F4F4837510511F0319614
:10237000EDCFE5EBF7E08081F999FECF1FBA52BDB2
:1023800041BD80BD0FB6F894FA9AF99A0FBE4F5F1F
:102390005F4F4838510511F03196EDCFE5EDF7E08C
:1023A0008081F999FECF1FBA52BD41BD80BD0FB6E5
:1023B000F894FA9AF99A0FBE4F5F5F4F483951056A
:1023C00011F03196EDCFE9EEF7E08081F999FECF7B
:1023D0001FBA52BD41BD80BD0FB6F894FA9AF99A62
:1023E0000FBE4F5F5F4F4C39510511F03196EDCF65
:1023F000EDEEF7E08081F999FECF1FBA52BD41BDE5
:1024000080BD0FB6F894FA9AF99A0FBE4F5F5F4FEE
:10241000403A510511F03196EDCFE5EEF7E08081BD
:10242000F999FECF1FBA52BD41BD80BD0FB6F894D9
:10243000FA9AF99A0FBE4F5F5F4F443A510511F077
:102440003196EDCFEDEFF7E08081F999FECF1FBA1D
:1024500052BD41BD80BD0FB6F894FA9AF99A0FBEED
:102460004F5F5F4F483A510511F03196EDCFE1EBE8
:10247000F7E08081F999FECF1FBA52BD41BD80BD02
:102480000FB6F894FA9AF99A0FBE4F5F5F4F4C3A25
:10249000510511F03196EDCFE1EFF7E08081F99928
:1024A000FECF1FBA52BD41BD80BD0FB6F894FA9A57
:1024B000F99A0FBE4F5F5F4F403B510511F03196C7
:1024C000EDCFE5EFF7E08081F999FECF1FBA52BD5D
:1024D00041BD80BD0FB6F894FA9AF99A0FBE4F5FCE
:1024E0005F4F443B510511F03196EDCFE9EFF7E036
:1024F0008081F999FECF1FBA52BD41BD80BD0FB694
:10250000F894FA9AF99A0FBE4F5F5F4F483B510516
:1025100011F03196EDCFE5E4F5E08081F999FECF39
:102520001FBA52BD41BD80BD0FB6F894FA9AF99A10
:102530000FBE4F5F5F4F443C510511F03196EDCF18
:1025400084EB90E09A83898386E490E09C838B837C
:102550002FEF30E03E832D8380EF90E098878F83CC
:1025600084E690E09A8789873C872B87FE01319625
:102570008081F999FECF1FBA52BD41BD80BD0FB613
:10258000F894FA9AF99A0FBE4F5F5F4F463C510597
:1025900071F7FE0133968081F999FECF1FBA52BDC3
:1025A00041BD80BD0FB6F894FA9AF99A0FBE4F5FFD
:1025B0005F4F483C510511F03196EDCFFE01359645
:1025C0008081F999FECF1FBA52BD41BD80BD0FB6C3
:1025D000F894FA9AF99A0FBE4F5F5F4F4A3C510543
:1025E00011F03196EDCFFE0137968081F999FECF3B
:1025F0001FBA52BD41BD80BD0FB6F894FA9AF99A40
:102600000FBE4F5F5F4F4C3C510511F03196EDCF3F
:10261000FE0139968081F999FECF1FBA52BD41BDA6
:1026200080BD0FB6F894FA9AF99A0FBE4F5F5F4FCC
:102630004E3C510511F03196EDCFFE013B96808165
:10264000F999FECF1FBA52BD41BD80BD0FB6F894B7
:10265000FA9AF99A0FBE4F5F5F4F403D510511F056
:102660003196EDCFE0E6F5E08081F999FECF1FBA13
:1026700052BD41BD80BD0FB6F894FA9AF99A0FBECB
:102680004F5F5F4F443D510511F03196EDCFE4E0CF
:10269000F4E08081F999FECF1FBA52BD41BD80BDE3
:1026A0000FB6F894FA9AF99A0FBE4F5F5F4F483D04
:1026B000510511F03196EDCFE8E0F4E08081F99911
:1026C000FECF1FBA52BD41BD80BD0FB6F894FA9A35
:1026D000F99A0FBE4F5F5F4F4C3D510511F0319697
:1026E000EDCFECE0F4E08081F999FECF1FBA52BD46
:1026F00041BD80BD0FB6F894FA9AF99A0FBE4F5FAC
:102700005F4F403E510511F03196EDCF80E290E0F1
:102710009E878D87FE013D968081F999FECF1FBA75
:1027200052BD41BD80BD0FB6F894FA9AF99A0FBE1A
:10273000413E510521F0319641EE50E0EDCF8091C0
:10274000040290910502A0910602B09107028B8BC2
:102750009C8BAD8BBE8BFE01739684E690E020814E
:10276000F999FECF1FBA92BD81BD20BD0FB6F89476
:10277000FA9AF99A0FBE8736910519F001963196AB
:10278000EECFEFE2F1E0949108C08091C00085FFA8
:10279000FCCF9093C600319694919923B1F7E9E369
:1027A000F3E0949108C08091C00085FFFCCF909326
:1027B000C600319694919923B1F78091C00085FFAE
:1027C000FCCF8AE08093C60066960FB6F894DEBF11
:1027D0000FBECDBFCF91DF910895DF93CF93CDB7DB
:1027E000DEB7E0970FB6F894DEBF0FBECDBFDE01B7
:1027F0001196E6E4F4E080E101900D928150E1F75A
:10280000DE015196E6E3F4E080E101900D92815003
:10281000E1F7DE019196E6E2F4E080E101900D92AD
:102820008150E1F789819A81AB81BC818093C50792
:102830009093C607A093C707B093C80789899A8960
:10284000AB89BC898093B5079093B607A093B7076F
:10285000B093B80789A19AA1ABA1BCA18093D50779
:102860009093D607A093D707B093D8078D819E8108
:10287000AF81B8858093C9079093CA07A093CB070F
:10288000B093CC078D899E89AF89B88D8093B907A5
:102890009093BA07A093BB07B093BC078DA19EA1EC
:1028A000AFA1B8A58093D9079093DA07A093DB076F
:1028B000B093DC0789859A85AB85BC858093CD076D
:1028C0009093CE07A093CF07B093D007898D9A8DB0
:1028D000AB8DBC8D8093BD079093BE07A093BF07BF
:1028E000B093C00789A59AA5ABA5BCA58093DD07C9
:1028F0009093DE07A093DF07B093E0078D859E8558
:10290000AF85B8898093D1079093D207A093D3075E
:10291000B093D4078D8D9E8DAF8DB8A18093C107E4
:102920009093C207A093C307B093C4078DA59EA53B
:10293000AFA5B8A98093E1079093E207A093E307BE
:10294000B093E4070E94C94E80E090E0AAEFB4E49F
:102950008093E9079093EA07A093EB07B093EC0705
:1029600080E090E8ABE3B5E48093ED079093EE0749
:10297000A093EF07B093F00720E030E040E050E094
:102980002093E5073093E6074093E7075093E80765
:1029900080E29EE4A0E0B0E08093B1079093B2079C
:1029A000A093B307B093B4072093FD073093FE07BD
:1029B0004093FF075093000880E090E0A0E4B1E46A
:1029C0008093F1079093F207A093F307B093F40775
:1029D0008DEC9CECACECBEE38093F5079093F6078E
:1029E000A093F707B093F80780E090E0A0E2B1E48D
:1029F0008093F9079093FA07A093FB07B093FC0725
:102A000020934D0530934E0540934F05509350054C
:102A10002093490530934A0540934B0550934C054C
:102A2000209345053093460540934705509348054C
:102A30008AE999E9A9EBBFE380936005909361056A
:102A4000A0936205B09363058CEE91E5A6EEB1E428
:102A50008093040490930504A0930604B0930704A4
:102A600061EE7AE784EF9FE30E94AB8260930804F3
:102A70007093090480930A0490930B046FE175E04E
:102A800089ED92E40E94B78260930C0470930D0468
:102A900080930E0490930F040E94A58180E090E043
:102AA000A0E8BFE38093100490931104A093120454
:102AB000B0931304EFE2F1E0949108C08091C0005C
:102AC00085FFFCCF9093C600319694919923B1F77E
:102AD000E5E3F1E0949108C08091C00085FFFCCF50
:102AE0009093C600319694919923B1F78091C000DC
:102AF00085FFFCCF8AE08093C600E0960FB6F8947D
:102B0000DEBF0FBECDBFCF91DF910895CF93DF938E
:102B1000CFE2D1E0FE01949108C08091C00085FF12
:102B2000FCCF9093C600319694919923B1F7E9E2D6
:102B3000F3E0949108C08091C00085FFFCCF909392
:102B4000C600319694919923B1F78091C00085FF1A
:102B5000FCCF8AE08093C600FE019491EFE2F1E0A1
:102B600008C08091C00085FFFCCF9093C6003196CD
:102B700094919923B1F74091C5075091C607609190
:102B8000C7077091C80781E293E00E940921409134
:102B9000C9075091CA076091CB077091CC078EE1AD
:102BA00093E00E9409214091CD075091CE0760919A
:102BB000CF077091D0078BE193E00E9409214091EB
:102BC000D1075091D2076091D3077091D40788E163
:102BD00093E00E940921E8E0F2E007C08091C00084
:102BE00085FFFCCF31969093C60090819923B1F771
:102BF0008091C00085FFFCCF8AE08093C600FE0173
:102C00009491EFE2F1E008C08091C00085FFFCCF15
:102C10009093C600319694919923B1F7EEEFF2E0CC
:102C2000949108C08091C00085FFFCCF9093C600AE
:102C3000319694919923B1F78091C00085FFFCCF24
:102C40008AE08093C600FE019491EFE2F1E008C0B3
:102C50008091C00085FFFCCF9093C600319694917F
:102C60009923B1F74091B5075091B6076091B70726
:102C70007091B80785EF92E00E9409214091B90751
:102C80005091BA076091BB077091BC0782EF92E048
:102C90000E9409214091BD075091BE076091BF0776
:102CA0007091C0078FEE92E00E9409214091C10708
:102CB0005091C2076091C3077091C4078CEE92E0F7
:102CC0000E940921E8E0F2E007C08091C00085FF82
:102CD000FCCF31969093C60090819923B1F78091F3
:102CE000C00085FFFCCF8AE08093C600FE0194916E
:102CF000EFE2F1E008C08091C00085FFFCCF909327
:102D0000C600319694919923B1F7EEECF2E09491DC
:102D100008C08091C00085FFFCCF9093C60031961B
:102D200094919923B1F78091C00085FFFCCF8AE090
:102D30008093C600FE019491EFE2F1E008C080911B
:102D4000C00085FFFCCF9093C600319694919923E3
:102D5000B1F74091D5075091D6076091D707709190
:102D6000D80785EC92E00E941B214091D907509131
:102D7000DA076091DB077091DC0782EC92E00E9439
:102D80001B214091DD075091DE076091DF077091B4
:102D9000E0078FEB92E00E941B214091E1075091E8
:102DA000E2076091E3077091E4078CEB92E00E94E8
:102DB0001B21E8E0F2E007C08091C00085FFFCCF56
:102DC00031969093C60090819923B1F78091C0000D
:102DD00085FFFCCF8AE08093C600FE019491EFE26C
:102DE000F1E008C08091C00085FFFCCF9093C60041
:102DF000319694919923B1F7E7E8F2E0949108C0F5
:102E00008091C00085FFFCCF9093C60031969491CD
:102E10009923B1F78091C00085FFFCCF8AE08093B1
:102E2000C600FE019491EFE2F1E008C08091C0007D
:102E300085FFFCCF9093C600319694919923B1F70A
:102E40004091E9075091EA076091EB077091EC0718
:102E50008EE792E00E9409214091ED075091EE0724
:102E60006091EF077091F0078BE792E00E940921D3
:102E7000E8E0F2E007C08091C00085FFFCCF31960A
:102E80009093C60090819923B1F78091C00085FF8F
:102E9000FCCF8AE08093C600FE019491EFE2F1E05E
:102EA00008C08091C00085FFFCCF9093C60031968A
:102EB00094919923B1F7E8ECF1E0949108C08091E6
:102EC000C00085FFFCCF9093C60031969491992362
:102ED000B1F78091C00085FFFCCF8AE08093C600E7
:102EE000FE019491EFE2F1E008C08091C00085FFFF
:102EF000FCCF9093C600319694919923B1F74091FD
:102F0000E5075091E6076091E7077091E8078FEBBE
:102F100091E00E9409214091FD075091FE076091C8
:102F2000FF07709100088CEB91E00E94092140910D
:102F3000B1075091B2076091B3077091B40789EB64
:102F400091E00E941B214091F1075091F20760919E
:102F5000F3077091F40786EB91E00E9409214091FC
:102F6000F5075091F6076091F7077091F80783EB2A
:102F700091E00E9409214091F9075091FA07609170
:102F8000FB077091FC0780EB91E00E940921E8E0CB
:102F9000F2E007C08091C00085FFFCCF319690938E
:102FA000C60090819923B1F78091C00085FFFCCFC6
:102FB0008AE08093C600FE019491EFE2F1E008C040
:102FC0008091C00085FFFCCF9093C600319694910C
:102FD0009923B1F7EEE9F1E0949108C08091C00027
:102FE00085FFFCCF9093C600319694919923B1F759
:102FF0008091C00085FFFCCF8AE08093C600FE016F
:103000009491EFE2F1E008C08091C00085FFFCCF11
:103010009093C600319694919923B1F7409145055C
:1030200050914605609147057091480585E991E00A
:103030000E9409214091490550914A0560914B0534
:1030400070914C0582E991E00E94092140914D0563
:1030500050914E0560914F05709150058FE891E0B9
:103060000E940921E8E0F2E007C08091C00085FFDE
:10307000FCCF31969093C60090819923B1F780914F
:10308000C00085FFFCCF8AE08093C600FE019491CA
:10309000EFE2F1E008C08091C00085FFFCCF909383
:1030A000C600319694919923B1F7E1E8F1E094914B
:1030B00008C08091C00085FFFCCF9093C600319678
:1030C00094919923B1F78091C00085FFFCCF8AE0ED
:1030D0008093C600FE019491EFE2F1E008C0809178
:1030E000C00085FFFCCF9093C60031969491992340
:1030F000B1F7409104045091050460910604709169
:10310000070487E791E00E9409216091080470910B
:10311000090480910A0490910B040E94B182AB01D2
:10312000BC0184E791E00E94092160910C04709138
:103130000D0480910E0490910F040E94BD82AB019A
:10314000BC0181E791E00E940921E8E0F2E007C0BC
:103150008091C00085FFFCCF31969093C60090818E
:103160009923B1F78091C00085FFFCCF8AE080935E
:10317000C600DF91CF9108950F931F93DF93CF93F4
:10318000CDB7DEB766970FB6F894DEBF0FBECDBFE2
:103190008091040290910502A0910602B09107026D
:1031A0008B8B9C8BAD8BBE8BFE013F9604E610E0B3
:1031B000F999FECF12BD01BDF89A80B580830F5FEB
:1031C0001F4F0836110511F03196F2CFCE0143960C
:1031D000BE01615F7F4F43E050E00E94D60E009732
:1031E00009F096C1E5ECF7E0F999FECF12BD01BDFB
:1031F000F89A80B580830F5F1F4F0837110511F0D3
:103200003196F2CFE5EBF7E0F999FECF12BD01BDA3
:10321000F89A80B580830F5F1F4F0838110511F0B1
:103220003196F2CFE5EDF7E0F999FECF12BD01BD81
:10323000F89A80B580830F5F1F4F0839110511F090
:103240003196F2CF0E94C94EE9EEF7E0F999FECF30
:1032500012BD01BDF89A80B580830F5F1F4F0C39F6
:10326000110511F03196F2CFEDEEF7E0F999FECFAE
:1032700012BD01BDF89A80B580830F5F1F4F003AE1
:10328000110511F03196F2CFE5EEF7E0F999FECF96
:1032900012BD01BDF89A80B580830F5F1F4F043ABD
:1032A000110511F03196F2CFEDEFF7E0F999FECF6D
:1032B00012BD01BDF89A80B580830F5F1F4F083A99
:1032C000110511F03196F2CFE1EBF7E0F999FECF5D
:1032D00012BD01BDF89A80B580830F5F1F4F0C3A75
:1032E000110511F03196F2CFE1EFF7E0F999FECF39
:1032F00012BD01BDF89A80B580830F5F1F4F003B60
:10330000110511F03196F2CFE5EFF7E0F999FECF14
:1033100012BD01BDF89A80B580830F5F1F4F043B3B
:10332000110511F03196F2CFE9EFF7E0F999FECFF0
:1033300012BD01BDF89A80B580830F5F1F4F083B17
:10334000110511F03196F2CFE5E4F5E0F999FECFE1
:1033500012BD01BDF89A80B580830F5F1F4F043CFA
:10336000110511F03196F2CFFE013196F999FECF99
:1033700012BD01BDF89A80B580830F5F1F4F063CD8
:10338000110599F7FE013396F999FECF12BD01BDE3
:10339000F89A80B580830F5F1F4F083C110511F02C
:1033A0003196F2CFFE013596F999FECF12BD01BDDF
:1033B000F89A80B580830F5F1F4F0A3C110511F00A
:1033C0003196F2CFFE013796F999FECF12BD01BDBD
:1033D000F89A80B580830F5F1F4F0C3C110511F0E8
:1033E0003196F2CFFE013996F999FECF12BD01BD9B
:1033F000F89A80B580830F5F1F4F0E3C110511F0C6
:103400003196F2CFFE013B96F999FECF12BD01BD78
:10341000F89A80B580830F5F1F4F003D110511F0B2
:103420003196F2CFE0E6F5E0F999FECF12BD01BD8D
:10343000F89A80B580830F5F1F4F043D110511F08E
:103440003196F2CFE4E0F4E0F999FECF12BD01BD70
:10345000F89A80B580830F5F1F4F083D110511F06A
:103460003196F2CFE8E0F4E0F999FECF12BD01BD4C
:10347000F89A80B580830F5F1F4F0C3D110511F046
:103480003196F2CFECE0F4E0F999FECF12BD01BD28
:10349000F89A80B580830F5F1F4F003E110511F031
:1034A0003196F2CFFE013D96F999FECF12BD01BDD6
:1034B000F89A80B58083013E110521F0319601EE26
:1034C00010E0F2CF0E94A581EFE2F1E0949108C0F4
:1034D0008091C00085FFFCCF9093C60031969491F7
:1034E0009923B1F7E7E5F1E0949108C08091C0001D
:1034F00085FFFCCF9093C600319694919923B1F744
:103500008091C00085FFFCCF8AE08093C60001C097
:1035100064D9FCDA66960FB6F894DEBF0FBECDBF55
:10352000CF91DF911F910F9108951F920F920FB6C7
:103530000F920BB60F9211242F933F934F938F93BB
:103540009F93EF93FF934091C600E0912A05F0917D
:103550002B0531969F012F773070319780912C0584
:1035600090912D052817390739F0E655FB4F408318
:1035700030932B0520932A05FF91EF919F918F9116
:103580004F913F912F910F900BBE0F900FBE0F9058
:103590001F9018959A01AB01203081EE380780E02A
:1035A000480780E0580749F182E08093C00060E05E
:1035B00079E08DE390E00E944A9D215030404040E8
:1035C0005040CA01B90122E030E040E050E00E94E2
:1035D0004A9D3093C5002093C4008091C100806152
:1035E0008093C1008091C10088608093C100809168
:1035F000C10080688093C10008951092C00020E14E
:1036000030E0E7CF20912C0530912D0580912A05DF
:1036100090912B058217930719F42FEF3FEF0EC0FF
:10362000F901E655FB4F80812F5F3F4F2F773070B8
:1036300030932D0520932C05282F30E0C9010895E3
:1036400080912C0590912D0590932B0580932A0550
:10365000089508952F923F924F925F926F927F92BA
:103660008F929F92AF92BF92CF92DF92EF92FF9292
:103670000F931F93DF93CF93CDB7DEB7A0970FB60D
:10368000F894DEBF0FBECDBF1C016A017B0141155E
:1036900051056105710541F440E350E060E070E0E0
:1036A00020E030E08BD055C0882499245401422E6C
:1036B00055246624772401E010E00C0F1D1F080D2F
:1036C000191DC701B601A30192010E94289DF801AE
:1036D00060830894811C911CA11CB11CC701B60118
:1036E000A30192010E94289DC901DA016C017D01AC
:1036F000C114D104E104F104F1F681E0E82EF12CCB
:10370000EC0EFD1EE80CF91C3E010894611C711CB6
:10371000D501C4010197A109B1096C01C818D908E4
:1037200015C0F601EE0DFF1D40814A3010F4405DDA
:1037300001C0495C552747FD5095652F752FC10184
:1037400020E030E03BD00894E108F1086E147F04DB
:1037500041F7A0960FB6F894DEBF0FBECDBFCF9154
:10376000DF911F910F91FF90EF90DF90CF90BF906E
:10377000AF909F908F907F906F905F904F903F9011
:103780002F9008952115310539F48091C00085FFEF
:10379000FCCF4093C60008955DCFEF92FF920F9348
:1037A0001F939A01E62EFF2400E010E0B801A70164
:1037B000E9DF1F910F91FF90EF900895EF92FF9234
:1037C0000F931F93CF93DF93EC017A018B012115A7
:1037D000310539F48091C00085FFFCCFE092C6002E
:1037E00019C02A303105A9F477FF0FC04DE250E02F
:1037F00060E070E020E030E0E1DF10950095F094AB
:10380000E094E11CF11C011D111DCE01B801A701BE
:103810002AE020DFDF91CF911F910F91FF90EF9071
:103820000895EF92FF920F931F937B019A01002757
:10383000F7FC0095102FB801A701C0DF1F910F9171
:10384000FF90EF9008950F931F938C014DE050E08F
:1038500060E070E020E030E0B1DFC8014AE050E015
:1038600060E070E020E030E0A9DF1F910F91089543
:10387000CF92DF92EF92FF920F931F938C019A01E8
:103880006B01EE24FF24B701A6017CDFC801DBDF5A
:103890001F910F91FF90EF90DF90CF9008959F922E
:1038A000AF92BF92CF92DF92EF92FF920F931F934E
:1038B000CF93DF93EC017A018B01922ECB01BA01F9
:1038C00020E030E040E050E00E943099882364F42A
:1038D000CE014DE250E060E070E020E030E06EDFCD
:1038E00017FB109517F9109520E030E040E05FE3FA
:1038F000AA240BC0CA01B90120E030E040E251E443
:103900000E9437999B01AC01A394A91498F3C801B4
:10391000B7010E9457987B018C010E94A4995B011A
:103920006C010E94D0999B01AC01C801B7010E94B3
:1039300056987B018C01CE01B601A5012AE030E04A
:1039400021DF992099F1E9E0F2E007C08091C00001
:1039500085FFFCCF31969093C60090819923B1F7F3
:1039600025C0C801B70120E030E040E251E40E94E8
:10397000109C7B018C010E949F995B016C01CC24FF
:10398000B7FCC094DC2CCE01B601A5012AE030E0E2
:1039900015DFC601B5010E94D2999B01AC01C80197
:1039A000B7010E9456987B018C019A949920C9F620
:1039B000DF91CF911F910F91FF90EF90DF90CF900B
:1039C000BF90AF909F9008956ACF0895EF92FF92B5
:1039D0000F931F93CF93DF93EC01E0909B03F09044
:1039E0009C0300919D0310919E03688179818A81D7
:1039F0009B81A80197010E943E9B181624F4E8823F
:103A0000F9820A831B83E0909F03F090A00300914A
:103A1000A1031091A2036C817D818E819F81A801F9
:103A200097010E943E9B181624F4EC82FD820E83BF
:103A30001F83E090A303F090A4030091A5031091CD
:103A4000A603688579858A859B85A80197010E94D0
:103A50003E9B181624F4E886F9860A871B87DF91B7
:103A6000CF911F910F91FF90EF9008958091720573
:103A7000089567707070E82FF0E0E15FFA4E84916E
:103A80008B3028F48830A0F4863090F106C08E3058
:103A9000D0F08F50833060F521C08091B100887FD5
:103AA0008093B1008091B100862B8093B10008957E
:103AB00080919100887F8093910080919100862B66
:103AC0008093910008958091A100887F8093A10048
:103AD0008091A100862B8093A100089580912101FF
:103AE000887F8093210180912101862B8093210181
:103AF000089583E795E00C9492470E948E8280910E
:103B00007205882309F036C081E0809372058091A8
:103B1000780590917905A0917A05B0917B05809305
:103B20007C0590937D05A0937E05B0937F05EFE41F
:103B3000F3E0949108C08091C00085FFFCCF909382
:103B4000C600319694919923B1F7E6E5F3E094919C
:103B500008C08091C00085FFFCCF9093C6003196CD
:103B600094919923B1F78091C00085FFFCCF8AE042
:103B70008093C6000895F8940E948E82179A10923E
:103B80005D05169A10925E05159A10925F05149ABB
:103B900084E060E00E940F96EFE4F3E0949108C0A7
:103BA0008091C00085FFFCCF9093C6003196949120
:103BB0009923B1F7ECECF3E0949108C08091C00038
:103BC00085FFFCCF9093C600319694919923B1F76D
:103BD0008091C00085FFFCCF8AE08093C600FFCFB4
:103BE0000E944695609382057093830580938405B7
:103BF00090938505EBEEF3E0949108C08091C000AE
:103C000085FFFCCF9093C600319694919923B1F72C
:103C10008091C00085FFFCCF8AE08093C6000895A4
:103C20006F927F928F929F92AF92BF92CF92DF92CC
:103C3000EF92FF920F931F93F82E60918A05709177
:103C40008B0580918C0590918D0520918E0530918A
:103C50008F0540919005509191050E944B9B3B012F
:103C60004C0100D000D00DB71EB70F5F1F4F609101
:103C7000910370919203882777FD8095982F0E9479
:103C8000D2992091BE033091BF034091C00350915F
:103C9000C1030E94109C20E030E040E752E40E9403
:103CA000379920E030E048EC52E40E9437995B01FC
:103CB0006C01F8016082718282829382F482809129
:103CC0006405858385E395E066E975E04AE855E09B
:103CD00020E001E032E0E32E0E940B4A809196053D
:103CE00090919705A0919805B0919905809335051D
:103CF00090933605A0933705B093380580919A05C7
:103D000090919B05A0919C05B0919D0580933905EC
:103D100090933A05A0933B05B0933C0580919E0596
:103D200090919F05A091A005B091A10580933D05BC
:103D300090933E05A0933F05B09340058091A20566
:103D40009091A305A091A405B091A505809341058C
:103D500090934205A0934305B09344058DB79EB759
:103D600006960FB6F8949EBF0FBE8DBF0E94469573
:103D700060938205709383058093840590938505F5
:103D80001F910F91FF90EF90DF90CF90BF90AF9079
:103D90009F908F907F906F9008954F925F926F9257
:103DA0007F928F929F92AF92BF92CF92DF92EF92CB
:103DB000FF920F931F93DF93CF9300D00F92CDB755
:103DC000DEB7E0909B03F0909C0300919D0310915F
:103DD0009E0360919605709197058091980590914A
:103DE0009905A80197010E943E9B181644F4E092A1
:103DF0009605F09297050093980510939905E09029
:103E00009F03F090A0030091A1031091A203609181
:103E10009A0570919B0580919C0590919D05A80144
:103E200097010E943E9B181644F4E0929A05F09286
:103E30009B0500939C0510939D05E090A303F090D3
:103E4000A4030091A5031091A60360919E057091B3
:103E50009F058091A0059091A105A80197010E945E
:103E60003E9B181644F4E0929E05F0929F05009345
:103E7000A0051093A1050E9446956093820570935A
:103E80008305809384059093850580919605909194
:103E90009705A0919805B091990589839A83AB8382
:103EA000BC836091350570913605809137059091FE
:103EB000380529813A814B815C810E9430998823A1
:103EC00009F09EC040909A0550909B0560909C051B
:103ED00070909D056091390570913A0580913B0580
:103EE00090913C05A30192010E943099882309F02A
:103EF00087C00F920F92CDB6DEB60894C11CD11CBC
:103F0000E0909E05F0909F050091A0051091A105FD
:103F10006091BE037091BF038091C0039091C10373
:103F200020E030E040E752E40E9437994B015C0109
:103F300084E695E0D6018D939C9369817A818B818B
:103F40009C81A3019201E2EACE2EE5E0DE2E0E94E2
:103F500025550F900F908091960590919705A0910F
:103F60009805B09199058093350590933605A093F7
:103F70003705B093380580919A0590919B05A091E3
:103F80009C05B0919D058093390590933A05A093C7
:103F90003B05B0933C0580919E0590919F05A091B3
:103FA000A005B091A10580933D0590933E05A09397
:103FB0003F05B09340058091A2059091A305A09183
:103FC000A405B091A5058093410590934205A09367
:103FD0004305B09344050F900F900F900F90CF9131
:103FE000DF911F910F91FF90EF90DF90CF90BF90E6
:103FF000AF909F908F907F906F905F904F900895BB
:104000000F920F92CDB6DEB60894C11CD11C409021
:104010009A0550909B0560909C0570909D05E090DE
:104020009E05F0909F050091A0051091A10560915B
:10403000910370919203882777FD8095982F0E94B5
:10404000D2992091BE033091BF034091C00350919B
:10405000C1030E94109C20E030E040E752E40E943F
:10406000379920E030E048EC52E40E9437994B0148
:104070005C0184E695E0F601918380835ECF8EE259
:1040800095E0DEDAEEEEF3E0949108C08091C00096
:1040900085FFFCCF9093C600319694919923B1F798
:1040A000409178055091790560917A0570917B0572
:1040B0004F5F5F4F6F4F7F4F8EE295E02AE030E019
:1040C0007DDB8091C00085FFFCCF8AE08093C60035
:1040D00087CD4F925F926F927F928F929F92AF9215
:1040E000BF92CF92DF92EF92FF920F931F93409077
:1040F000BE035090BF036090C0037090C1030F2EA9
:10410000F0E0AF2EF0EABF2EFCE8CF2EF6E4DF2E73
:10411000F02DA092BE03B092BF03C092C003D09214
:10412000C1036093350570933605809337059093EE
:1041300038052093390530933A0540933B05509359
:104140003C05E0923D05F0923E0500933F0510933B
:1041500040050F920F92E4E6F5E0ADB7BEB71296B8
:10416000FC93EE931197F1E4CF2EF5E0DF2E0F2EA6
:10417000F0E08F2EF0E09F2EF6E9AF2EF3E4BF2E95
:10418000F02D0E9425550F900F900E94F6784092D6
:10419000BE035092BF036092C0037092C1031F918F
:1041A0000F91FF90EF90DF90CF90BF90AF909F90D6
:1041B0008F907F906F905F904F9008958091BE0395
:1041C0009091BF03A091C003B091C1038093AB0550
:1041D0009093AC05A093AD05B093AE05809191038B
:1041E00090919203909334058093330584E690E098
:1041F00090939203809391030E9446956093820569
:1042000070938305809384059093850581E00C94D9
:104210002D76FC01949108C08091C00085FFFCCFF1
:104220009093C600319694919923B1F78EE295E070
:1042300022E030E0C9CBFC01949108C08091C0001D
:1042400085FFFCCF9093C600319694919923B1F7E6
:104250008EE295E02AE030E095CA4091B105509198
:10426000B20520E630E0B901469F9001479F300D2E
:10427000569F300D1124682F772767FD7095C9016F
:104280008D549A4F0E94C20E9C019093B00580936A
:10429000AF0580E0232B09F081E008952F923F9233
:1042A0004F925F926F927F928F929F92AF92BF9246
:1042B000CF92DF92EF92FF920F931F93DF93CF93F2
:1042C000CDB7DEB76C970FB6F894DEBF0FBECDBF8B
:1042D0009E838D838330910508F04AC2FC01E9502A
:1042E000FA4FB4904C01880C991C880C991CF4016D
:1042F000EB5CFA4F80E090E0A0E0B0E08083918337
:10430000A283B3836091350570913605809137059E
:10431000909138052091390530913A0540913B053F
:1043200050913C05E0903D05F0903E0500913F0521
:1043300010914005E1E4CE2EE5E0DE2E0E94114F03
:10434000ED81FE81EE0FFF1FE955FC4F0190F081DA
:10435000E02DF7FD10C0CF01880F991F8E0F9F1F12
:104360002DEA33E0820E931ED4016D917C918D581D
:104370009A4F0E945B482D803E80220C331C220CF9
:10438000331CF101E650FA4FE590F5900591149138
:104390006B2D772767FD7095882777FD8095982F7F
:1043A0000E94D29969837A838B839C83F101EA56B8
:1043B000FA4FFC8FEB8FC801B70120E030E040ECF2
:1043C0005FE30E94109C29813A814B815C810E94AD
:1043D000109CAB8DBC8D6D937D938D939C931397A7
:1043E000F101EF57FC4FF887EF8360817181828183
:1043F00093816093BE037093BF038093C003909337
:10440000C1030F920F92CDB6DEB60894C11CD11C29
:10441000409096055090970560909805709099058A
:1044200020919A0530919B0540919C0550919D05E6
:1044300029873A874B875C87E0909E05F0909F051F
:104440000091A0051091A10520E030E040E752E482
:104450000E9437994B015C01E4E6F5E0D601ED934B
:10446000FC93C301B20129853A854B855C85B2EA8C
:10447000CB2EB5E0DB2E0E9425550F900F900E94A9
:10448000F67891012B5C3A4F3E872D8780E090E0D3
:10449000A0E0B0E0F90180839183A283B3836091AF
:1044A000350570913605809137059091380520913A
:1044B000390530913A0540913B0550913C05E0901B
:1044C0003D05F0903E0500913F0510914005A1E4A7
:1044D000CA2EA5E0DA2E0E94114FF101E65DF94FD8
:1044E0004590559065907490C301B2019058298110
:1044F0003A814B815C810E94109CAB8DBC8D6D9389
:104500007D938D939C9313970F920F92CDB6DEB649
:104510000894C11CD11C20919605309197054091BB
:104520009805509199052F87388B498B5A8B80912C
:104530009A0590919B05A0919C05B0919D058B8B50
:104540009C8BAD8BBE8BE0909E05F0909F050091FB
:10455000A0051091A1056091BE037091BF038091E9
:10456000C0039091C10320E030E040E752E40E9494
:1045700037994B015C01E4E6F5E0D601ED93FC933D
:104580006F85788989899A892B893C894D895E89CB
:10459000F2EACF2EF5E0DF2E0E9425550F900F9006
:1045A0000E94F678C301B201A30192010E945798BC
:1045B00029813A814B815C810E94109CAB8DBC8D1E
:1045C0006D937D938D939C931397EF81F885608114
:1045D00071818281938120E030E040E05FE30E94BE
:1045E000109C6093BE037093BF038093C0039093AD
:1045F000C1030F920F92CDB6DEB60894C11CD11C38
:104600004090960550909705609098057090990598
:1046100020919A0530919B0540919C0550919D05F4
:104620002F8B388F498F5A8FE0909E05F0909F0511
:104630000091A0051091A10520E030E040E752E490
:104640000E9437994B015C01E4E6F5E0D601ED9359
:10465000FC93C301B2012F89388D498D5A8DE2EA4E
:10466000CE2EE5E0DE2E0E9425550F900F900E9481
:10467000F678F101EA5FF94F659175918591949112
:10468000F101EB5BFA4FA080B180C280D380A6011C
:1046900095010E9457987B018C01CB01D801ED85D3
:1046A000FE8580839183A283B383F101EE5EF94F8F
:1046B000659175918591949121E5822E25E0922E48
:1046C000820C931CA60195010E945798D4016D930A
:1046D0007D938D939C931397F101E25EF94F659161
:1046E000759185919491EBE9F3E02E0E3F1EA601A2
:1046F00095010E945798D1016D937D938D939C9362
:104700001397C701D801EB8DFC8D80839183A28321
:10471000B38320E030E040E050E02093BE033093CC
:10472000BF034093C0035093C1030E942676ED81DE
:10473000FE81E35AFA4F81E08083AD81BE81AA0FEA
:10474000BB1FFD01E955FC4F0190F081E02DF7FD05
:104750000FC0CF01880F991F8E0F9F1FAA0FBB1F7D
:10476000A155BC4F6D917C918D589A4F0E945B482A
:104770006C960FB6F894DEBF0FBECDBFCF91DF9120
:104780001F910F91FF90EF90DF90CF90BF90AF906F
:104790009F908F907F906F905F904F903F902F9061
:1047A00008950F931F93CF93DF93C7EAD3E00FEAE7
:1047B00013E02881398137FD0CC0C901880F991F8A
:1047C000820F931FF801608171818D589A4F0E946A
:1047D0005B4822960C5F1F4FF3E0CD3ADF0749F7A5
:1047E000DF91CF911F910F9108952F923F924F9299
:1047F0005F926F927F928F929F92AF92BF92CF9271
:10480000DF92EF92FF920F931F93DF93CF93CDB779
:10481000DEB72E970FB6F894DEBF0FBECDBF83EC88
:1048200093E00E949C8F6091890370918A0380912C
:104830008B0390918C036093BE037093BF038093AE
:10484000C0039093C1030F920F92CDB6DEB60894C9
:10485000C11CD11CE0903505F0903605009137055C
:10486000109138054090390550903A0560903B050D
:1048700070903C05B1E42B2EB5E03B2E20E030E0FB
:1048800040E752E40E9437994B015C01E4E6F5E011
:10489000D601ED93FC93C801B701A30192010F2E3D
:1048A000F0E0EF2EF0E0FF2EF0E20F2FF1EC1F2FE3
:1048B000F02D61010E9425550F900F900E94F6780F
:1048C00082E00E9493764B015C0160913505709106
:1048D0003605809137059091380520913905309142
:1048E0003A0540913B0550913C05850174010E94B9
:1048F000114F22E336E0F90185919591A591B4918C
:1049000089839A83AB83BC83C501B40129813A8131
:104910004B815C810E9457986D837E838F8398873B
:104920000F920F92CDB6DEB60894C11CD11CE09058
:104930003505F09036050091370510913805409007
:10494000390550903A0560903B0570903C056091A8
:10495000BE037091BF038091C0039091C10320E01A
:1049600030E040E752E40E9437994B015C01E4E6F5
:10497000F5E0D601ED93FC93C801B701A3019201C4
:10498000ED80FE800F81188561010E9425550F90F2
:104990000F900E94F6786091890370918A0380914C
:1049A0008B0390918C0320E030E040E252E40E94BF
:1049B00037995B016C016093BE037093BF038093D2
:1049C000C0039093C1030F920F928DB79EB70196CB
:1049D0009E878D874090350550903605609037054D
:1049E000709038058091390590913A05A0913B056A
:1049F000B0913C0589879A87AB87BC8769817A81AA
:104A00008B819C8120E030E040E050EC0E94109CC3
:104A10009B01AC016D817E818F8198850E945798A2
:104A20007B018C01C601B50120E030E040E752E493
:104A30000E9437994B015C01E4E6F5E0AD85BE8547
:104A4000ED93FC93C301B20129853A854B855C85C2
:104A500061010E9425550F900F900E94F67882E028
:104A60000E9493767B018C0160933D0570933E0517
:104A700080933F0590934005609135057091360510
:104A800080913705909138052091390530913A058C
:104A900040913B0550913C050E94114F2E960FB658
:104AA000F894DEBF0FBECDBFCF91DF911F910F9164
:104AB000FF90EF90DF90CF90BF90AF909F908F903E
:104AC0007F906F905F904F903F902F9008956F92DE
:104AD0007F928F929F92AF92BF92CF92DF92EF928E
:104AE000FF920F931F935B016C0139014A016091A2
:104AF00035057091360580913705909138052091E4
:104B0000390530913A0540913B0550913C05E1DA79
:104B1000E0903D05F0903E0500913F051091400565
:104B2000C601B501A4019301D4DA2091AB03309101
:104B3000AC0337FD0DC0C901880F991F820F931F69
:104B40006091B5037091B6038D589A4F0E945B48EF
:104B50004CDE10913D0500913E05F0903F05E09040
:104B600040052091AB033091AC0337FD0DC0C90166
:104B7000880F991F820F931F6091B7037091B8033C
:104B80008D589A4F0E945B48E7E4F6E0949108C084
:104B90008091C00085FFFCCF9093C6003196949120
:104BA0009923B1F7E2E4F6E0949108C08091C00047
:104BB00085FFFCCF9093C600319694919923B1F76D
:104BC0008EE295E0B601A50122E030E00E94E41CEF
:104BD000EDE3F6E0949108C08091C00085FFFCCF22
:104BE0009093C600319694919923B1F78EE295E0A7
:104BF000B401A30122E030E00E94E41CE8E3F6E007
:104C0000949108C08091C00085FFFCCF9093C600AE
:104C1000319694919923B1F78EE295E0212F302FB0
:104C2000EF2DFE2DA901BF0122E030E00E94E41C1F
:104C3000E6E3F6E0949108C08091C00085FFFCCFC8
:104C40009093C600319694919923B1F7212F302F7C
:104C50004F2D5E2DB901CA011F910F91FF90EF906A
:104C6000DF90CF90BF90AF909F908F907F906F908C
:104C700008958091AF059091B005019660E070E0D5
:104C80004AE050E00C94610D8091AF059091B00521
:104C9000019660E070E00C94040CCF93DF93EC017C
:104CA000809164058093770584E5D7DA882309F439
:104CB00081C0EADF0E94A499262F609377056623BE
:104CC00009F478C0E9E4F3E0949108C08091C00051
:104CD00085FFFCCF9093C600319694919923B1F74C
:104CE000CD36D105C1F0CE36D10544F4C836D10554
:104CF000C1F0C936D10509F04DC010C0CA3DD1057B
:104D000039F0CD3DD10509F045C0EBE0F2E03FC000
:104D1000E2E2F2E031C0E9E3F2E023C0E0E5F2E0F4
:104D200015C0E7E6F2E007C08091C00085FFFCCF28
:104D300031969093C60090819923B1F72BC0809152
:104D4000C00085FFFCCF31969093C60090819923D7
:104D5000B1F720C08091C00085FFFCCF31969093C1
:104D6000C60090819923B1F715C08091C00085FFDE
:104D7000FCCF31969093C60090819923B1F70AC079
:104D80008091C00085FFFCCF31969093C600908142
:104D90009923B1F78EE295E0622F40E050E00E9447
:104DA000CD1B8091C00085FFFCCF8AE08093C600B8
:104DB00081E001C080E0DF91CF910895AF92BF9272
:104DC000CF92DF92EF92FF920F931F93CF93DF93D7
:104DD00065E3E62E65E0F62EC6E9D5E000E010E0DA
:104DE000F801EA5AFB4F808138DA882331F14CDF31
:104DF0005B016C01F801E15DFA4F8081882311F0BD
:104E000061E002C06091A60570E0882777FD80957B
:104E1000982F0E94D299F7012081318142815381DC
:104E20000E94109C9B01AC01C601B5010E945798DD
:104E3000688379838A839B8309C0F701808191818C
:104E4000A281B38188839983AA83BB830F5F1F4F9D
:104E500084E090E0E80EF91E24960430110509F074
:104E6000BFCF86E4FAD98823D9F00EDF7B018C010D
:104E70006093A7057093A8058093A9059093AA0550
:104E800020E030E040E050E00E943E9B181644F4E1
:104E9000E092BE03F092BF030093C0031093C103DE
:104EA000DF91CF911F910F91FF90EF90DF90CF9006
:104EB000BF90AF90089582DF89E4CFD9882351F065
:104EC000E3DE60938A0570938B0580938C05909345
:104ED0008D050CC080E090E0A0E0B0E080938A05F2
:104EE00090938B05A0938C05B0938D058AE4B5D97A
:104EF000882351F0C9DE60938E0570938F058093EF
:104F0000900590939105089580E090E0A0E0B0E0D6
:104F100080938E0590938F05A0939005B093910593
:104F200008958F929F92AF92BF92CF92DF92EF92AD
:104F3000FF920F931F93CF93DF93E0E6CE2ED12CF9
:104F4000EBE4F6E0A4907AE0972EE1ECF6E0B49082
:104F50008824839421C22D3071F02A3321F480916A
:104F60003407882341F080913507909136078F35BB
:104F700091050CF4EDC1E0913507F09136073097BB
:104F800019F41092340741C2A0913707B091380745
:104F9000AC9D8001AD9D100DBC9D100D1124E00F46
:104FA000F11FED54FA4F108280913407882309F0E5
:104FB000CAC110923407A75CB84F1C92E801CD54C7
:104FC000DA4FCE016EE470E00E94C20E9C010097A1
:104FD00009F4F7C09093B0058093AF052F5F3F4F62
:104FE0002C1B3D0B200F311FC9018D549A4F60E0DF
:104FF00070E04AE050E00E94610D60933D077093BD
:105000003E0780933F0790934007E0907805F0902B
:10501000790500917A0510917B05A80197012F5F12
:105020003F4F4F4F5F4F621773078407950709F48F
:10503000D2C180913707909138079C012C9DC00107
:105040002D9D900D3C9D900D11248D549A4F6AE634
:1050500077E00E94A80E892B09F0BDC1EFE4F3E0D0
:10506000949108C08091C00085FFFCCF9093C6004A
:10507000319694919923B1F7E7E3F7E0949108C052
:105080008091C00085FFFCCF9093C600319694912B
:105090009923B1F78EE295E0B801A7012AE030E04C
:1050A0000E94DE1B8091C00085FFFCCF73C01E27CD
:1050B0004F5FFC01E40FF11DED54FA4FE081EA323D
:1050C000B1F73093B0052093AF05C901019660E0B8
:1050D00070E00E94040C0E949F99212F30E0261757
:1050E000370709F45DC0EFE4F3E0949108C08091C4
:1050F000C00085FFFCCF9093C60031969491992310
:10510000B1F7E8E1F7E0949108C08091C00085FF15
:10511000FCCF9093C600319694919923B1F74091BA
:1051200078055091790560917A0570917B058EE242
:1051300095E02AE030E00E94DE1B8091C00085FFF0
:10514000FCCF28C0EFE4F3E0949108C08091C00048
:1051500085FFFCCF9093C600319694919923B1F7C7
:10516000EEEEF6E0949108C08091C00085FFFCCF80
:105170009093C600319694919923B1F78EE295E011
:10518000B801A7012AE030E00E94DE1B8091C00038
:1051900085FFFCCF8AE08093C6000E943F204AC072
:1051A00080913D0790913E07A0913F07B091400745
:1051B0008093780590937905A0937A05B0937B0549
:1051C0003EC0CE016AE270E00E94C20E009709F470
:1051D00036C0EFE4F3E0949108C08091C00085FFF1
:1051E000FCCF9093C600319694919923B1F7E4ECEB
:1051F000F6E0949108C08091C00085FFFCCF9093A9
:10520000C600319694919923B1F740917805509159
:10521000790560917A0570917B058EE295E02AE030
:1052200030E00E94DE1B8091C00085FFFCCF8AE049
:105230008093C6001092360710923507E6C0809121
:105240003707909138078C9D80018D9D100D9C9D96
:10525000100D1124E801CD54DA4FCE0167E470E05F
:105260000E94C20E9C01009709F441C09093B005C2
:105270008093AF052F5F3F4F2C1B3D0B200F311F3D
:10528000C9018D549A4F60E070E00E94040C0E94A6
:105290009F996430710558F580917205882399F4BF
:1052A0009B2DE1ECF6E008C08091C00085FFFCCFAB
:1052B0009093C600319694919923B1F78091C000E4
:1052C00085FFFCCF12C09A2DEBE4F6E008C0809178
:1052D000C00085FFFCCF9093C6003196949199232E
:1052E000B1F78091C00085FFFCCF9092C6008091FD
:1052F0003707909138079C012C9DC0012D9D900D82
:105300003C9D900D11248D549A4F6EE772E00E94DF
:10531000CD0E009711F40E94BB1D8091370790912C
:105320003807019664E070E00E94159D909338075D
:105330008093370780918005909181050196909325
:10534000810580938005109236071092350724C09E
:105350002B3311F480923407809134078823E1F4D1
:1053600020913507309136078091370790913807A3
:105370008C9DF0018D9DF00D9C9DF00D1124E20F90
:10538000F31FED54FA4F8091330780832F5F3F4F17
:10539000309336072093350780912A0590912B058D
:1053A00020912C0530912D05821B930B8F779070E7
:1053B000892B59F1809180059091810504972CF5F6
:1053C0008EE295E00E94021B282F809333078A30DB
:1053D00009F0C1CDD0CD80913707909138078C9DD1
:1053E000E0018D9DD00D9C9DD00D1124CE018D54DA
:1053F0009A4F6AE270E00E94C20E9C01009709F485
:10540000A1CE40E010E0CE0154CEDF91CF911F91AC
:105410000F91FF90EF90DF90CF90BF90AF909F9053
:105420008F900895EF92FF920F931F9380918005C4
:105430009091810503970CF474DD0E944695E090ED
:105440008605F090870500918805109189052091C7
:105450008205309183054091840550918505621B3A
:10546000730B840B950BE616F7060807190738F43B
:10547000E114F1040105110511F00E94BB1D80919A
:10548000BA039091BB03A091BC03B091BD030097F8
:10549000A105B10559F10E944695209182053091F0
:1054A00083054091840550918505621B730B840B25
:1054B000950B2091BA033091BB034091BC035091EE
:1054C000BD03261737074807590780F49091320D1E
:1054D0008091330D981751F4179A10925D05169A22
:1054E00010925E05159A10925F05149A0E9402525E
:1054F0001F910F91FF90EF9008952F923F924F923E
:105500005F926F927F928F929F92AF92BF92CF9253
:10551000DF92EF92FF920F931F93DF93CF93CDB75C
:10552000DEB7CB5CD0400FB6F894DEBF0FBECDBF68
:1055300087E40E942D21882311F40C94E933A4DB25
:105540000E949F996C31710509F493C06D3171050A
:105550009CF462307105C9F16330710524F477233E
:105560004CF50C946B4563307105C1F164307105E5
:1055700011F00C946B453EC06A35710511F40C9422
:105580007A336B35710554F46D31710509F485C4B6
:105590006E31710511F00C946B45DAC76B357105EE
:1055A00011F40C947E336C35710511F00C946B453D
:1055B0000C94833380917205882311F00C946B4511
:1055C000FDDB0E94CD1E0C948E45809172058823D0
:1055D00011F00C946B456FDC81E008C0809172057E
:1055E000882311F00C946B4566DC80E00E94101E4D
:1055F0000C948E4580E50E942D21882321F4EE2411
:10560000FF24870105C040DB0E94A4997B018C0127
:1056100083E50E942D21882359F036DB20E030E01D
:105620004AE754E40E94109C0E94A4997B018C01DB
:105630000E94F6780E9446955B016C01AE0CBF1C7F
:10564000C01ED11E0E94469560938205709383050B
:10565000809384059093850503C00E94E286E2DE74
:105660000E9446956A157B058C059D05B0F30C9448
:105670006B4583EC93E00E949C8F84E190E09093D3
:10568000FE038093FD038091BE039091BF03A09120
:10569000C003B091C1038093AB059093AC05A09378
:1056A000AD05B093AE0580919103909192039093D4
:1056B00034058093330584E690E0909392038093C1
:1056C00091030E94469560938205709383058093B1
:1056D00084059093850581E00E942D7680913505A3
:1056E00090913605A0913705B091380580939605C5
:1056F00090939705A0939805B093990580913905EB
:1057000090913A05A0913B05B0913C0580939A0594
:1057100090939B05A0939C05B0939D0580913D05BA
:1057200090913E05A0913F05B091400580939E0564
:1057300090939F05A093A005B093A105809141058A
:1057400090914205A0914305B09144058093A20534
:105750009093A305A093A405B093A50580E090E0E5
:10576000A0E0B0E08093BE039093BF03A093C0037A
:10577000B093C10388E50E942D21882361F489E557
:105780000E942D21882339F48AE50E942D21882347
:1057900011F481E001C080E08093C203882329F4E2
:1057A0008AE50E942D21882321F082E090E00E946A
:1057B0004E218091C203882361F488E50E942D2147
:1057C000882309F483C289E50E942D21882309F4E6
:1057D0007DC280E090E0A0E0B0E08093350590933A
:1057E0003605A0933705B09338058093390590931B
:1057F0003A05A0933B05B0933C05F7EF6F2EF5E01B
:105800007F2EF3018490E0903D05F0903E050091DD
:105810003F0510914005BC01CD019B01AC01E1E4C5
:10582000CE2EE5E0DE2E0E94114FBAEF4B2EB5E0F2
:105830005B2EF201659175918591949120E030E0A5
:1058400040EC5FE30E94109C7B018C01992487FC53
:105850009094AA2497FCA094BA2CC501B4010E948C
:10586000D2999B01AC01C801B7010E94109C6093C2
:105870009605709397058093980590939905A4E0F9
:105880008A2E912C840C951CF4016591759185915B
:1058900094910894611C711CF301D49020E030E0D5
:1058A00040EC5FE30E94109C7B018C016D2D7727FB
:1058B00067FD7095872F972F0E94D2999B01AC01AD
:1058C000C801B7010E94109C60939A0570939B05D4
:1058D00080939C0590939D052091810330918203D4
:1058E00040918303509184032093BE033093BF0300
:1058F0004093C0035093C103E0908503F09086036A
:105900000091870310918803C801B7010E94309964
:10591000882344F4E092BE03F092BF030093C003D7
:105920001093C103F201A590B590C590D490F401F5
:10593000E590F59005911491C601B501A801970174
:105940000E943E9B18162CF4C801B701A6019501D0
:1059500004C0C601B501A80197010E9437999B01B7
:10596000AC010E94109C9B01AC01CA0120E030E018
:1059700040E85FE30E9457980E947D9C9B01AC0128
:105980006091BE037091BF038091C0039091C103E9
:105990000E94109C6093BE037093BF038093C0036A
:1059A0009093C1030F920F92CDB6DEB60894C11C3E
:1059B000D11C409096055090970560909805709086
:1059C000990580919A0590919B05A0919C05B091B5
:1059D0009D05C054DF4F88839983AA83BB83C05C35
:1059E000D040E0909E05F0909F050091A005109199
:1059F000A1056091BE037091BF038091C003909197
:105A0000C10320E030E040E752E40E9437994B01A7
:105A10005C01F4E62F2EF5E03F2ED6012D923C924C
:105A2000C301B201C054DF4F288139814A815B81B3
:105A3000C05CD040E2EACE2EE5E0DE2E0E94255585
:105A40000F900F900E94F678E6E0F6E06591759170
:105A500085919491209145053091460540914705E7
:105A6000509148050E9457983B014C0160933505C1
:105A7000709336058093370590933805E2E1F6E0A0
:105A800065917591859194912091450530914605D8
:105A900040914705509148050E94579860935105E1
:105AA000709352058093530590935405EEE1F6E010
:105AB00065917591859194912091450530914605A8
:105AC00040914705509148050E94579860939B0369
:105AD00070939C0380939D0390939E03EAE0F6E00D
