:100000000C94B41A0C94E51A0C94E51A0C94E51AA5
:100010000C94E51A0C94E51A0C94E51A0C94E51A64
:100020000C94E51A0C94E51A0C94E51A0C94E51A54
:100030000C94E51A0C94E51A0C94E51A0C94E51A44
:100040000C94E51A0C943B8C0C94E51A0C94E51A6C
:100050000C94E51A0C94E51A0C94446A0C946140D3
:100060000C94E51A0C94E9370C94DF370C94E51ADC
:100070000C94E51A0C94E51A0C94E51A0C94E51A04
:100080000C94E51A0C94E51A0C94E51A0C94E51AF4
:100090000C94E51A0C94E51A0C94E51A0C94E51AE4
:1000A0000C94E51A0C94E51A0C94E51A0C94E51AD4
:1000B0000C94E51A0C94E51A0C94E51A0C94E51AC4
:1000C0000C94E51A0C94E51A0C94E51A0C94E51AB4
:1000D0000C94E51A0C94E51A0C94E51A0C94E51AA4
:1000E0000C94E51A1F383138433854385C388F384F
:1000F00060388F38643868388F386C3870387438A6
:100100007D388F388838919D969D9B9DA59DAF9D8C
:10011000289EB99DC19DC99DD39DDD9DE79DF69DFE
:10012000009E289E0A9E149E1E9E02CFDBCEDECE2F
:1001300005CFE1CEE4CEE7CEF3CEEACE00CFEDCED2
:10014000F0CE23CF26CF15CF19CF1FCF5DCF2ACF2B
:100150002ECF34CF38CF3CCF42CF46CF4ACF5DCF22
:1001600050CF54CF58CFE5F124F05DF021F25DF08F
:100170005DF05DF05DF05DF05DF05DF05DF05DF017
:100180005DF05DF05DF05DF05DF05DF05DF05DF007
:100190005DF05DF05DF05DF05DF05DF05DF05DF0F7
:1001A0005DF01BF25DF05DF05DF05DF05DF05DF027
:1001B0005DF05DF0F4F15DF05DF05DF05DF05DF03F
:1001C0005DF05DF05DF05DF05DF038F25AF0084AE8
:1001D000D73B3BCE016E84BCBFFDC12F3D6C74315B
:1001E0009ABD56833DDA3D00C77F11BED9E4BB4CB2
:1001F0003E916BAAAABE000000803F05A84CCDB27C
:10020000D44EB93836A9020C50B9918688083CA65C
:10021000AAAA2ABE000000803F000C94C7E30C94F9
:1002200047510C9419CF0C94E1CE0C94E7CE0C946A
:100230005BB90C94653A0C942ACF0C9438F20C9468
:1002400086650C9458CF0C9424F00C9425CC0C9417
:1002500000CF0C94F8C90C9459B90C940A9E0C94D4
:1002600054380C94C2B70C94D75F0C9442CF0C94C2
:10027000BDEF0C9458560C94F6E30C94E79D0C9447
:10028000F0CE0C94C8B70C9469B10C94DD9D0C941D
:10029000C4B70C9472E80C947D380C94D7540C9429
:1002A0005AF00C945BEB0C94C6B70C942ECF0C94C4
:1002B0003ADF0C9478BC0C94F9E30C943A3A0C9421
:1002C00056520C94B9630D94BE020C944ACF0C9410
:1002D000F4F10C9405CF0C94F69D0C948F380C948B
:1002E0001F380C94E4CE0C94EACE0C9465DF0C9489
:1002F000983C0C943EDF0C9431CC0C94E8390C946F
:10030000D0390C9415CF0C94AF9D0C9472390C9489
:10031000E5F10C94B9C90C941EB10C9457B90C9426
:10032000A5540C9402CF0C94BF540C9421F20C945D
:1003300051520C94ACB60C9447520C94CAB70C941E
:100340008FB20C94C99D0C9464380C941F620C9469
:1003500053B90C94E55F0C94C5540C948B550C94D4
:1003600059B10C94B7390C9405E40C942C400C94BE
:10037000149E0C946B580C94F3CE0C9410E50C94D2
:10038000DAE30C943DCC0C94F3E30C941CE50C9450
:1003900012EB0C9429CC0C94349E0C94E9EB0C9445
:1003A00035400C941BF20C9400B50C945FCA0C946D
:1003B0009B540C943CCF0C947A650C9457B10C94DC
:1003C00055B90C944DCC0C94C7DF0C94A59D0C949E
:1003D000969D0C9411CA0C942DCC0C9460380C94FE
:1003E000EE390C946DB10C947AB20D94DC020C943D
:1003F00068CA0C9434CF0C9450CF0C9416E50C942E
:1004000041CC0C9454CF0C94D1540C9477CB0C94D5
:10041000289E0C94A6BC0C9445CC0C94D39D0C94B3
:10042000DC390C941D400C9449CC0C948B390C9401
:1004300039CC0C941E9E0C94E63A0C945DCF0C942F
:100440006C380C94A4390C9468380C94DBCE0C9462
:100450000AE50C94ADEB0C94F4390C94A6670C945B
:1004600038CF0C94DECE0C943BDF0C9472CA0C9403
:1004700011E40C94B99D0C944C520C9446CF0C94FE
:10048000E43D0C94009E0C9489B20C945DF00C94A5
:100490007FB20C94D2BC0C94D6390C94A1E30C948A
:1004A000C19D0C9459390C945B520C94FA390C94FC
:1004B000BAE80C94473A0C9431380C949B9D0C94F8
:1004C00043380C946FCB0C943E390C94919D0C9452
:1004D000563A0C9435CC0C94A0540C944CB10C941A
:1004E00088380C9426CF0C9423CF0C9471B10C94C3
:1004F000CB540C94C2600C9440510C9484B20C9474
:1005000041B10C9470380C9474380C94EDCE0C946A
:100510005C380C941FCF0C9488E30C94E2390C9453
:10052000B4E34E414E494E495459494E46CDCCCC88
:100530003D0AD7233C17B7D13877CC2B329595E6B7
:10054000241FB14F0A000020410000C84200401C97
:100550004620BCBE4CCA1B0E5AAEC59D7400407AE4
:1005600010F35A00A0724E18090010A5D4E800003C
:10057000E87648170000E40B54020000CA9A3B00DA
:100580000000E1F505000080969800000040420F51
:10059000000000A08601000000102700000000E815
:1005A00003000000006400000000000A00000000DA
:1005B000000100000000002C76D888DC674F08237B
:1005C000DFC1DFAE59E1B1B796E5E3E453C63AE6E1
:1005D00051997696E8E6C28426EB898C9B62ED40C1
:1005E0007C6FFCEFBC9C9F40F2BAA56FA5F4900510
:1005F0005A2AF75C936B6CF9676DC11BFCE0E40D44
:1006000047FEF520E6B500D0ED902E030094357737
:10061000050080841E080000204E0A000000C80C5F
:10062000333333330F986E12831141EF8D211489C8
:100630003BE65516CFFEE6DB18D1844B381BF77C22
:100640001D901DA4BBE424203284725E228100C967
:10065000F124ECA1E53D27434F4D4D554E49434113
:1006600054494F4E0044525952554E004552524F34
:100670005253004543484F00536C6565702E2E2E33
:10068000004D302053746F70004D312053746F70E3
:1006900000436C69636B20746F20526573756D65E0
:1006A0002E2E2E004E6F204D6F76652E00456E6407
:1006B0002066696C65206C6973740A00426567691D
:1006C0006E2066696C65206C6973740A00526573EC
:1006D000756D696E6720534400286E6F2066696CE3
:1006E00065290043757272656E742066696C653A9F
:1006F00020002569792025696420256968202569FD
:100700006D20256973005072696E742074696D657F
:100710003A2000452025530044454255473A004DB4
:10072000313133205300424C41434B42454C54201D
:100730003344204F46462E004348414D4245525FC8
:1007400054454D504552415455524500424142593D
:100750005354455050494E470041524353004D4F6A
:1007600054494F4E5F4D4F44455300544845524DF8
:10077000414C5F50524F54454354494F4E004C4FEB
:100780004E475F46494C454E414D45004155544FFB
:100790005245504F52545F53445F53544154555344
:1007A000005344434152440050524F4D50545F5304
:1007B0005550504F525400454D455247454E4359B0
:1007C0005F50415253455200434153455F4C4947A6
:1007D00048545F4252494748544E45535300544F82
:1007E00047474C455F4C494748545300534F465484
:1007F000574152455F504F574552004255494C446E
:100800005F50455243454E54004C4556454C494E69
:10081000475F44415441005A5F50524F42450041A6
:1008200055544F4C4556454C005052494E545F4A22
:100830004F420050524F4752455353004155544F79
:100840005245504F52545F54454D5000564F4C55F1
:100850004D455452494300454550524F4D00424981
:100860004E4152595F46494C455F5452414E5346A2
:1008700045520053455249414C5F584F4E5F584FC7
:100880004646004649524D574152455F4E414D45FF
:100890003A4D61726C696E20322E302E3620666FB2
:1008A0007220424C41434B42454C54203344202853
:1008B0004F637420313620323032302031303A31BB
:1008C000343A31352920534F555243455F434F4405
:1008D000455F55524C3A68747470733A2F2F6769AC
:1008E000746875622E636F6D2F426C61636B426535
:1008F0006C7433442F4D61726C696E2050524F54AA
:100900004F434F4C5F56455253494F4E3A312E306C
:10091000204D414348494E455F545950453A424C59
:1009200041434B42454C5420334420455854525582
:100930004445525F434F554E543A31205555494432
:100940003A37386230303230312D306666362D34E9
:100950003164302D386630382D61323538363561A6
:10096000646563660A002F2F20004D313435205313
:100970003C696E6465783E206F7574206F662072E6
:10098000616E67652028302D31290A004163636557
:100990006C65726174696F6E3A20500046523A007D
:1009A00020466C6F773A200050726F7465637465EF
:1009B000642050696E0A0020643A0020693A0020E1
:1009C000703A00496E76616C69642065787472755E
:1009D0006465720A006469730043290A0061626CED
:1009E000656420286D696E2074656D702000436F0A
:1009F0006C6420657874727564657320617265201B
:100A00000046696C616D656E742072756E6F7574E9
:100A100020004F666673657473204170706C696561
:100A200064004572723A20546F6F20666172210033
:100A3000546F6F206661722066726F6D20726566FA
:100A40006572656E636520706F696E740A00454556
:100A500050524F4D2064697361626C65640A0020D6
:100A600028302D313029002076616C7565206F7536
:100A700074206F662072616E676500416476616EF6
:100A80006365204B3D00506F7765722D6C6F7373FB
:100A9000207265636F766572792000446F6E652001
:100AA0007072696E74696E672066696C650A004DC4
:100AB0003737004D3331007306D50A6C066506578B
:100AC00006554E4B4E4F574E205354415445004708
:100AD000434F44455F494E464F004C43445F5041AD
:100AE0005553455F524553554D450046494C414D80
:100AF000454E545F52554E4F55545F434F4E5449E7
:100B00004E55450046494C414D454E545F52554E59
:100B10004F5554004D38373620526573706F6E64F0
:100B2000696E672050524F4D50545F0053544F50E0
:100B30005045442E20005072696E746572207374A3
:100B40006F707065642064756520746F20657272C3
:100B50006F72732E20466978207468652065727202
:100B60006F7220616E6420757365204D39393920AC
:100B7000746F20726573746172742E202854656DD1
:100B80007065726174757265206973207265736532
:100B9000742E205365742069742061667465722018
:100BA00072657374617274696E67290A004E6F20F2
:100BB000436865636B73756D2077697468206C6931
:100BC0006E65206E756D6265722C204C61737420A9
:100BD0004C696E653A2000636865636B73756D20C0
:100BE0006D69736D617463682C204C617374204C63
:100BF000696E653A20004C696E65204E756D6265C0
:100C000072206973206E6F74204C617374204C697C
:100C10006E65204E756D6265722B312C204C6173B0
:100C200074204C696E653A20004D313130005344D8
:100C30002072656164206572726F720A0021212042
:100C40004B494C4C20636175736564206279204B7D
:100C5000494C4C20627574746F6E2F70696E0A0077
:100C60002121204B494C4C206361757365642062DF
:100C70007920746F6F206D75636820696E6163748D
:100C80006976652074696D65202D206375727265C3
:100C90006E7420636F6D6D616E643A2000627573CF
:100CA000793A2070617573656420666F7220696E91
:100CB0007075740A00627573793A20706175736596
:100CC0006420666F7220757365720A0062757379AD
:100CD0003A2070726F63657373696E670A004D65C1
:100CE0006469612052656D6F766564004D65646965
:100CF0006120496E736572746564004D3130303027
:100D00002053007061757365004D363030002066E9
:100D1000696C616D656E745F72756E6F75742000BD
:100D200066696C616D656E745F72756E6F75742047
:100D3000540046696C616D656E7452756E6F7574A2
:100D4000205400506C6561736520526573657400B2
:100D50005052494E5445522048414C544544002578
:100D6000533A20255300706F7765726F6666004BAB
:100D7000494C4C45442E20005072696E74657220B7
:100D800068616C7465642E206B696C6C2829206323
:100D9000616C6C6564210A0025301D0C2829243102
:100DA0001C0B4527222B1A0A4443212A193F4023B2
:100DB0002F1B414209023603080702033800014C89
:100DC0006F6164206D6D00556E6C6F6164206D6D98
:100DD0000046696C2E204469612E004520696E2012
:100DE0006D6DC2B3002008204661637400200820A6
:100DF0004D6178002008204D696E004175746F7454
:100E0000656D70005654726176204D696E00566DA6
:100E1000696E00566D6178204500566D6178205AE4
:100E200000566D6178205900566D61782058000099
:100E300000000000000000000000000000000000B2
:100E400000000000000000000000000000000000A2
:100E50000000000000000000000000000000000092
:100E60000000000000000000000000000000000082
:100E70000000000000000000000000000000000072
:100E80000000000000000000000000000000000062
:100E90000000000000000000000000000000000052
:100EA0000000000000000000000000000000000042
:100EB0000000000000000000000000000000000032
:100EC0000000000000000000000000000000000022
:100ED0000000000000000000000000000000000012
:100EE0000000000000000000000000000000000002
:100EF00000000000000000000000000000000000F2
:100F000000000000000000000000000000000000E1
:100F100000000000000000000000000000000000D1
:100F200000000000000000000000000000000000C1
:100F300000000000000000000000000000000000B1
:100F400000000000000000000000000000000000A1
:100F50000000000000000000000000000000000091
:100F6000000000000000000000000000000000FF82
:100F7000FFFFFFFFFFFFFFFFFFFFFFFFFFFFFFFF81
:100F8000FFFFFFFFFFFFFFFFFFFFFFFFFFFFFF0070
:100F90000000000000000000000000000000003F12
:100FA000F87C007F00FF9F1FBFF83FFBF0FFFC3F76
:100FB000FC7C00FF83FF9F1F3FFC7FFBF0FFFC3F9B
:100FC000FE7C00FF87FF9F3F3FFE7FFBF0FFFC3F63
:100FD000FE7C00FF87FF9F7E3FFE7FFBF0FFFC3E15
:100FE0003E7C01FF87E01F7E3E3E7C03F00FC03E4B
:100FF0003E7C01F7CFC01FFC3E3E7C03F00FC03F9C
:10100000FE7C01F7CFC01FFC3FFC7FF3F00FC03F19
:10101000F87C01F7CFC01FF83FF87FF3F00FC03F17
:10102000FC7C03E3EFC01FF83FFC7FF3F00FC03EF2
:101030007E7C03FFEFC01FFC3E7E7FF3F00FC03EBF
:101040003E7C03FFEFC01F7C3E3E7C03F00FC03EA2
:101050003E7E07FFE7E01F7E3E3E7C03F80FC03F69
:10106000FE7FF7FFF7FF9F3E3FFE7FFBFF8FC03FF6
:10107000FE7FF7C1F7FF9F3F3FFE7FFBFF8FC03F23
:10108000FE7FF7C1F3FF9F1F3FFE7FF9FF8FC03F39
:10109000FC3FF7C1F0FF9F1FBFF83FF8FF8FC00074
:1010A000000000000000000000000000000000FF41
:1010B000FFFFFFFFFFFFFFFFFFFFFFFFFFFFFFFF40
:1010C000FFFFFFFFFFFFFFFFFFFFFFFFFFFFFF002F
:1010D0000000000000000000000000000000000010
:1010E0000000000000000000000000000000000000
:1010F00000000000000000000000000000000000F0
:1011000000000000000000000000000000000000DF
:1011100000000000000000000000000000000000CF
:1011200000000000000000000000000000000000BF
:1011300000000000000000000000000000000000AF
:10114000000000000000000000000000000000009F
:10115000000000000000000000000000000000008F
:10116000000000000000000000000000000000007F
:10117000000000000000000000000000000000006F
:10118000000000000000000000000000000000005F
:10119000000000000000000000000000000000004F
:1011A000000000000000000000000000000000003F
:1011B000000000000000000000000000000000002F
:1011C000000000000000000000000000000000001F
:1011D000000000000000000000000000000000000F
:1011E00000000000000000000000000000000000FF
:1011F00000000000000000000000000000000000EF
:1012000000000000000000000000000000000000DE
:1012100000000000000000000000000000000000CE
:1012200000000000000000000000000000000001BD
:10123000FFFFFFFFFFFFFFFFFFFFFFFFFF0FFFFFAE
:10124000FFFFFFFFFFFFFFFFFFFFFF1E000000008B
:1012500000000000000007FFFF3800000000000051
:101260000000000003FFFF7000000000000000000D
:10127000000001FFFF60000000000000000000000F
:1012800000FFFF6000000000000000000000007F81
:10129000FFC000000000000000007800003FFFC019
:1012A0000FC0FC00000000007818001FFFC03FE1E5
:1012B000FF0000000000783C000FFFC07FF3FF80BC
:1012C00000000000783C0007FFC0FFFFFFC00000E7
:1012D0000000783C0003FFC1F87F87E000000000B9
:1012E00078000001FFC1F03F03E00000000078003B
:1012F0000000FFC1E01E01E01F0003E0783C03F0A6
:101300007FC1E01E01E07FC00FF8783C07FC3FC1C1
:10131000E01E01E1FFE01FFC783C0FFE1FC1E01E54
:1013200001E3FFF03FFE783C1FFE0FC1E01E01E32A
:10133000F3F83F3E783C3F3F07C1E01E01E7E0FC89
:101340007C1F783C3E1F07C1E01E01E7C07C7C0F7C
:10135000783C3C0F03C1E01E01E7807C780F783CAD
:101360003C0F03C1E01E01E7803C7800783C3C0F55
:1013700003C1E01E01E7803C7800783C3C0F03C1CC
:10138000E01E01E7803C7800783C3C0F03C1E01E82
:1013900001E7C03C7800783C3C0F03C1E01E01E34C
:1013A000E03C78007C3C3C0F03C1E01E01E3FF3FC2
:1013B000F8007FBC3C0F03C1E01E01E1FF3FF800D5
:1013C0003FBFFC0F03C1E01E01E0FF3FF8001FBF5D
:1013D000FC0F03C1E01E01E07F3FF8000FBFFC0FD0
:1013E0000360000000000000000000000000076033
:1013F0000000000000000000000000000670000077
:10140000000000000000000000000E380000000096
:1014100000000000000000001C1E00000000000092
:10142000000000000000780FFFFFFFFFFFFFFFFF3D
:10143000FFFFFFFFF001FFFFFFFFFFFFFFFFFFFFC9
:10144000FFFF80180152031E01F4015B01E001A9B6
:1014500001CC011102B8019002A401440390013BA8
:10146000047C01680568010007540133094001202C
:101470000C2C01E40F1801A3140401BE1AF000564D
:1014800021DC006828C800262FB400C434A000FB6B
:10149000388C00E93B7800CC3D6400E93E50007C8C
:1014A0003F3C00D43F1E00E03F1900F03F140068AD
:1014B000747470733A2F2F6D61726C696E66772E3B
:1014C0006F726700322E302E362D42764400202077
:1014D000506C616E6E6572427566666572427974B3
:1014E00065733A20002046726565204D656D6F7208
:1014F000793A2000436F6D70696C65643A204F63E0
:101500007420313620323032300A00204C6173743E
:1015100020557064617465643A20323032302D3069
:10152000372D3237207C20417574686F723A20283D
:10153000416C646F20486F6562656E202F2066697C
:10154000656C644F66566965772E636F6D290A0076
:10155000322E302E362D4276440A004D61726C696F
:101560006E0020536F6674776172652052657365F3
:10157000740A00205761746368646F672052657352
:1015800065740A002042726F776E206F7574205266
:10159000657365740A002045787465726E616C200D
:1015A00052657365740A00506F77657255700A0052
:1015B0006175746F25632E67004732385859004DA6
:1015C00031303031006572726F72207772697469E0
:1015D0006E6720746F2066696C650A00446F6E65E3
:1015E00020736176696E672066696C652E0A004D0E
:1015F000323900456E6473746F7073002553202573
:101600006320256320256320256300656E64737461
:101610006F7073206869743A200020746F6F206CBB
:101620006F6E6720657874727573696F6E20707263
:101630006576656E7465640A0020636F6C6420656E
:101640007874727573696F6E2070726576656E74EA
:1016500065640A004D6F74696F6E004D3834005434
:10166000656D70657261747572650043616E6E6F51
:101670007420656E746572207375626469723A20B5
:1016800000022E2E0044697361626C6520537465FC
:10169000707065727300473238004175746F20486E
:1016A0006F6D650050726568656174202420456E19
:1016B000640050726568656174202420426564008E
:1016C0001FE02010201020101020102020102010CB
:1016D00030300840048003001FE03FF03FF03FF04F
:1016E0001FE01FE03FF03FF03FF00FC00780030016
:1016F0003FFFF038007030FC3020FC1020781020C4
:1017000030102C00D02E31D02F7BD02F7BD02E311B
:10171000D02C00D020301020781020FC1030FC306D
:101720003800703FFFF03FFFF03800703186302303
:1017300087102787902F87D02F03D0203010207854
:10174000102078102030102F03D02F87D0278790BB
:101750002387103186303800703FFFF01FFFF81FDD
:10176000FFF804104002082002082004104008205E
:10177000801041001041000820800410400000004B
:101780001FFFF81FFFF82568753A2530326875008D
:10179000256875642025303268753A2530326875C1
:1017A000002020202020202000416476616E6365A7
:1017B000642053657474696E677300436F6E746957
:1017C0006E7565004F6666004F6E00554E4C4F417A
:1017D000442046494C414D454E540046494C414DEC
:1017E000454E54204348414E4745004D3432380061
:1017F000416363656C65726174696F6E0056656CF8
:101800006F636974790053657420486F6D65204F6C
:101810006666736574730046616E20537065656417
:1018200000526573746F72652044656661756C74EF
:10183000730050726568656174202420436F6E6682
:101840000052756E6F75742053656E736F72004D24
:1018500037303220542564004D363030204230205D
:10186000542564004D373032203B2564004D37301D
:101870003120542564005075726765206D6F726564
:1018800000524553554D45204F5054494F4E533A01
:10189000005052494E542050415553454400202099
:1018A0004E6F7A7A6C653A200048656174696E679C
:1018B000204661696C65640048656174696E6720E3
:1018C0006661696C6564004D31313220536875740E
:1018D000646F776E00202D20496E76616C696420FC
:1018E0006578747275646572206E756D62657220BC
:1018F000210A00544845524D414C2052554E415703
:10190000415900546865726D616C2052756E617743
:101910006179004572723A204D415854454D50004E
:101920004D415854454D5020747269676765726522
:1019300064004572723A204D494E54454D50004D59
:10194000494E54454D5020747269676765726564ED
:1019500000F006C300000CA500600E9B0030119142
:1019600000B0138700C0177800E01A6E00401F5FB8
:1019700000A02255008029460060303C00C035326E
:1019800000703A2800603C1E00A03D1400803E0A12
:1019900000203F00006563686F3A004572726F7205
:1019A0003A002F2F616374696F6E3A006265676950
:1019B0006E00656E640070726F6D70745F007368A6
:1019C0006F770044697361626C6552756E6F7574F0
:1019D0000050757267654D6F726500486F74656E73
:1019E0006420746F6F20636F6C640A0053656E64CB
:1019F000204D31303820746F20726573756D650A23
:101A00000052656865617420446F6E6500526568B8
:101A1000656174696E672E2E2E005265686561746B
:101A2000004865617465722054696D656F75740056
:101A300053656E64204D31303820746F20686561C5
:101A400074206E6F7A7A6C650A004E6F7A7A6C65D4
:101A5000205061726B656400706175736564004D40
:101A60003630303A20546F6F20436F6C64007265DB
:101A700073756D656400627574746F6E004C6F6190
:101A8000642046696C616D656E74205400496E7304
:101A90006572742066696C616D656E7420616E6438
:101AA0002073656E64204D3130380A0052657375BD
:101AB0006D696E6700202F002042403A0020403AB6
:101AC0000020573A007C3C3E5E2B3D3F2F5B5D3B48
:101AD0002C2A225C00656E7175657565696E6720DC
:101AE00022006F6B00526573656E643A2000426598
:101AF0006420436F6F6C696E672E2E2E0042656402
:101B00002048656174696E672E2E2E002364656619
:101B1000696E652044454641554C545F004B642036
:101B2000004B6920004B70200050494420417574DF
:101B30006F74756E652066696E69736865642120CF
:101B400050757420746865206C617374204B702C20
:101B5000204B6920616E64204B6420636F6E737448
:101B6000616E74732066726F6D2062656C6F772092
:101B7000696E746F20436F6E666967757261746910
:101B80006F6E2E680A00504944204175746F747559
:101B90006E65206661696C6564212074696D656F8E
:101BA00075740A000A20436C61737369632050499D
:101BB00044200A00204B643A2000204B693A200060
:101BC000204B703A20000A204E6F206F76657273AA
:101BD000686F6F740A002054753A2000204B753AE4
:101BE0002000206D61783A2000206D696E3A200057
:101BF00020643A200020626961733A200050494411
:101C0000204175746F74756E652073746172740A07
:101C100000504944204175746F74756E652066618B
:101C2000696C6564212054656D70657261747572AC
:101C30006520746F6F20686967680A005049442006
:101C40004175746F74756E65005049442041757418
:101C50006F74756E65206661696C656421204261F0
:101C600064206578747275646572206E756D626546
:101C7000720A0024F4D43050C38E20C2A2401782CE
:101C80008B7011127A910D816CD90AA861E108C795
:101C9000586607615143061E4B5D05C145A7041AEE
:101CA000411104093D9803713931034036DB026567
:101CB000339102D4305402802E1D02632CEE017544
:101CC0002AC501B028A001102781018F2564012BAE
:101CD000244B01E0223401AC211F018D200D018035
:101CE0001FFC00841EED00971DDF00B81CD200E62B
:101CF0001BC600201BBC00641AB200B219A8000A5F
:101D000019A0006A189900D117910040178B00B5EF
:101D100016840031167E00B31579003A157300C79A
:101D2000146F0058146A00EE1366008813630025D0
:101D3000135E00C7125B006C12570015125400C1ED
:101D400011510070114F0021114B00D61049008D28
:101D50001047004610440002104200C00F400080AF
:101D60000F3E00420F3C00060F3B00CB0E380093A5
:101D70000E37005C0E3500270E3400F30D3200C123
:101D80000D3100900D3000600D2E00320D2D00053C
:101D90000D2C00D90C2B00AE0C2900850C29005C01
:101DA0000C2700350C27000E0C2600E80B2400C47D
:101DB0000B2400A00B23007D0B23005A0B210039BC
:101DC0000B2100180B2000F80A1F00D90A1E00BBC7
:101DD0000A1E009D0A1D00800A1D00630A1C0047A0
:101DE0000A1B002C0A1B00110A1A00F7091A00DD51
:101DF000091900C4091900AB091900920917007BE1
:101E0000091800630917004C09160036091600204E
:101E10000916000A091500F5081500E0081400CCA1
:101E2000081400B8081400A4081400900813007DDA
:101E30000812006B081300580812004608120034FC
:101E4000081100230811001208110001081100F008
:101E5000071000E0071000D0071000C0071000B006
:101E6000070F00A107100091070E0083070F0074F1
:101E7000070F0065070E0057070E0049070E003BCD
:101E8000070D002E070E0020070D0013070D00069A
:101E9000070D00F9060C00ED060D00E0060C00D45D
:101EA000060C00C8060C00BC060C00B0060C00A412
:101EB000060B0099060C008D060B0082060B0077BE
:101EC000060B006C060B0061060A0057060B004C5F
:101ED000060A0042060A0038060A002E060A0024F6
:101EE000060A001A060A001006090007060A00FD85
:101EF000050900F4050900EB050900E2050900D910
:101F0000050900D0050900C7050900BE050900B58F
:101F1000050800AD050800A50509009C050800940A
:101F20000508008C050800840508007C050800747D
:101F30000508006C050700650508005D05070056EB
:101F40000508004E05070047050700400508003852
:101F5000050700310507002A050700230507001CB7
:101F6000050600160507000F050700080506000214
:101F7000050700FB040600F5040700EE040600E870
:101F8000040600E2040700DB040600D5040600CFC7
:101F9000040600C9040600C3040600BD040600B719
:101FA000040600B1040500AC040600A6040600A067
:101FB0000405009B04060095040500900406008AB1
:101FC00004050085040500800406007A04050075F8
:101FD000040500700405006B04050066040500613B
:101FE0000405005C04050057040500520405004D7B
:101FF00004050048040500430405003E0404003ABB
:1020000004050035040500300404002C04050027F5
:10201000040400230405001E0404001A040400162E
:10202000040500110404000D040400090405000463
:1020300004040000040400FC030400F8030400F49A
:10204000030400F0030400EC030400E8030400E4CC
:10205000030400E0030400DC030400D8030400D4FC
:10206000030400D0030400CC030400C8030300C52C
:1020700003030024F404D9201BC40C5C0E9804C490
:10208000095F0265077101F405F900FB04B300481C
:10209000048700C10369005803550003034500BECF
:1020A000023A008402310053022A0029022500046A
:1020B000022000E4011C00C8011900AF01170098BC
:1020C000011400840113007101100061011000511E
:1020D000010E0043010D0036010B002B010B002007
:1020E000010B00150109000C01090003010800FBA8
:1020F000000800F3000800EB000700E4000600DE23
:10210000000600D8000600D2000600CC000500C77B
:10211000000500C2000500BD000400B9000400B5C0
:10212000000400B1000400AD000400A9000400A5F3
:10213000000300A20003009F0004009B000300981E
:102140000003009500020093000300900003008D3F
:102150000002008B00030088000200860002008459
:10216000000300810002007F0002007D0002007B6E
:10217000000200790002007700010076000200747E
:1021800000020072000100710002006F0002006D89
:102190000001006C0002006A000100690002006793
:1021A0000001006600010065000100640002006299
:1021B00000010061000100600001005F0002005D9D
:1021C0000001005C0001005B0001005A00010059A1
:1021D00000010058000100570001005600010055A1
:1021E00000010054000100530000005300010052A0
:1021F00000010051000100500001004F0001004E9D
:102200000000004E0001004D0001004C0001004B99
:102210000000004B0001004A000100490001004895
:102220000000004800010047000100460000004691
:10223000000100450000004500010044000100438A
:102240000000004300010042000000420001004184
:1022500000000041000100400001003F0000003F7D
:102260000001003E0000003E0001003D0000003D76
:102270000001003C0000003C0000003C0001003B6D
:102280000000003B0001003A0000003A0001003964
:10229000000000390001003800000038000000385C
:1022A0000001003700000037000100360000003652
:1022B0000000003600010035000000350000003548
:1022C000000100340000003400000034000100333D
:1022D0000000003300000033000100320000003233
:1022E0000000003200010031000000310000003128
:1022F0000001003000000030000000300001002F1D
:102300000000002F0000002F0000002F0001002E11
:102310000000002E0000002E0001002D0000002D06
:102320000000002D0000002D0001002C0000002CFA
:102330000000002C0000002C0001002B0000002BEE
:102340000000002B0000002B0001002A0000002AE2
:102350000000002A0000002A0001002900000029D6
:1023600000000029000000290000002900010028C9
:1023700000000028000000280000002800000028BD
:1023800000010027000000270000002700000027B0
:1023900000000027000100260000002600000026A3
:1023A0000000002600000026000100250000002596
:1023B0000000002500000025000000250000002589
:1023C000000100240000002400000024000000247C
:1023D000000000240001002300000023000000236F
:1023E0000000002300000023000000230000002361
:1023F0000001002200000022000000220000002254
:102400000000002200000022000100210000002145
:102410000000002100000021000000210000002138
:10242000000000210001002000000020000000202A
:10243000000000200000002000000020000000201C
:10244000000000200001001F0000001F0000001F0E
:102450000000001F0000001F0000001F0000001F00
:102460000001001E0000001E0000001E0000001EF3
:10247000000000C23100001C260000F4190000D842
:102480000F0000EB080000C00400007502000040CF
:10249000010000204D393220580020204D61783A4B
:1024A000200020204D696E3A2000536F667420652D
:1024B0006E6473746F70733A2000496E76616C6954
:1024C000642050696E204D6F64650A004D323420DF
:1024D00053256C642054256C64004739322E392012
:1024E00045257300473120462564004739322E398F
:1024F000205A2573004731205A30204632303000B0
:102500004731205825732059257320463330303009
:10251000004D3130362050256920532569004D315A
:10252000303920532569004D313930205325690059
:102530004D323030204425730047323852305859DC
:10254000004739322E39204530205A300A47315A57
:1025500025730020496E76616C6964206578747219
:102560007564657220000000AA430000DC437F967A
:10257000184B0000000000000000000000000000F8
:10258000484200004842000080400202040000A0CF
:10259000400000000000000000FFFFFF6F70656E4C
:1025A000005452494747455245440066696C616D85
:1025B000656E74007A5F6D696E00795F6D696E009B
:1025C000785F6D696E005265706F7274696E672016
:1025D000656E6473746F70207374617475730A0030
:1025E000486F6D696E67204661696C65640057616C
:1025F000726E696E673A20486F6D696E672042752A
:102600006D702044697669736F72203C20310A0036
:1026100020520048617264636F646564204465669B
:1026200061756C742053657474696E6773204C6FA8
:10263000616465640A003B200020204D3630332061
:102640000020204D34313220530046696C616D65A5
:102650006E742072756E6F75742073656E736F7211
:102660003A0020550046696C616D656E74206C6F90
:1026700061642F756E6C6F6164206C656E67746841
:10268000733A0020204D393030204B004C696E6584
:10269000617220416476616E63653A0020204D349A
:1026A0003133205300506F7765722D4C6F73732058
:1026B0005265636F766572793A0020204D3330346D
:1026C00020500020490020204D3330312050005050
:1026D00049442073657474696E67733A002046003C
:1026E00020480020204D3134352053004D61746561
:1026F0007269616C206865617475702070617261C7
:102700006D65746572733A0020204D323036205862
:1027100000486F6D65206F66667365743A0020200F
:102720004D323035204200416476616E6365643A13
:1027300020423C6D696E5F7365676D656E745F7492
:10274000696D655F75733E20533C6D696E5F6665AC
:102750006564726174653E20543C6D696E5F74728D
:102760006176656C5F66656564726174653E20586C
:102770003C6D61785F785F6A65726B3E20593C6D95
:1027800061785F795F6A65726B3E205A3C6D617853
:102790005F7A5F6A65726B3E20453C6D61785F656C
:1027A0005F6A65726B3E0020204D3230342050004D
:1027B000416363656C65726174696F6E2028756E24
:1027C0006974732F7332293A20503C7072696E74A9
:1027D0005F616363656C3E20523C72657472616335
:1027E000745F616363656C3E20543C74726176650E
:1027F0006C5F616363656C3E0020204D3230312098
:1028000058004D6178696D756D20416363656C6535
:10281000726174696F6E2028756E6974732F7332DC
:10282000293A0020204D3230332058004D6178691C
:102830006D756D20666565647261746573202875B9
:102840006E6974732F73293A005374657073207026
:10285000657220756E69743A0020440020204D3264
:1028600030302053002044697361626C65640A0053
:1028700046696C616D656E742073657474696E670A
:10288000733A0020204D3134392043203B20556ECF
:1028900069747320696E2043656C736975730A00EF
:1028A00020286D6D29002020473231202020203B38
:1028B00020556E69747320696E206D6D00000016DE
:1028C000430000164300004842000096420000C842
:1028D000422BC7B142B85E9D43008010442C0100DA
:1028E000002C010000F4010000F4010000504554E8
:1028F00047006E47656E00507265686561742024FC
:1029000000416476616E6365204B004E6F7A7A6C8D
:1029100065004D61696E00436F6F6C646F776E0088
:1029200046616E205370656564207E004261627965
:1029300073746570205A0042616279737465702007
:1029400059004261627973746570205800466C6F5B
:102950007700F228ED28416D6178204500416D61D6
:1029600078205A00416D6178205900416D617820CE
:102970005800412D54726176656C00412D5265748A
:102980007261637400416363656C0056652D4A652E
:10299000726B00565A2D4A65726B0056592D4A6566
:1029A000726B0056582D4A65726B00452073746532
:1029B00070732F6D6D005A2053746570732F6D6D99
:1029C00000592053746570732F6D6D005820537437
:1029D0006570732F6D6D004D32332025730046698D
:1029E0006C652073656C65637465640A00205369C7
:1029F0007A653A200046696C65206F70656E656483
:102A00003A2000454E4420535542524F5554494EAA
:102A1000450A002220706F73002220706172656E7B
:102A2000743A2200535542524F5554494E45204363
:102A3000414C4C207461726765743A220053756290
:102A400063616C6C204F766572666C6F77004578B9
:102A5000636565646564206D617820535542524F0B
:102A60005554494E452064657074683A310A0044F3
:102A7000656C6574696F6E206661696C65642C2095
:102A800046696C653A200046696C652064656C6532
:102A90007465643A005344207072696E74696E679D
:102AA000206279746520004E6F7420534420707248
:102AB000696E74696E670A0057726974696E67207F
:102AC000746F2066696C653A2000667265736800F1
:102AD000646F696E67004E6F77200043616E6E6FA2
:102AE00074206F70656E2073756264697220005384
:102AF000442063617264206F6B0A006F70656E52D0
:102B00006F6F74206661696C65640A00766F6C751E
:102B10006D652E696E6974206661696C65640A0072
:102B20004E6F20534420636172640A00506F7765D2
:102B300072204F757461676500436F6E66696775D3
:102B4000726174696F6E004D313030300053746FB4
:102B500070205072696E7400526573756D652050F7
:102B600072696E74003F004368616E676520466954
:102B70006C616D656E7400507265686561742043A8
:102B80007573746F6D004261636B004D32310043A9
:102B900068616E6765204D65646961004D3630304F
:102BA000204230004E6F204D656469610054756E9F
:102BB00065005061757365205072696E7400496ECE
:102BC000666F2053637265656E0053746172742082
:102BD0005072696E740043616E63656C005061727F
:102BE0006B696E672E2E2E00000057616974206697
:102BF0006F720066696C616D656E74206368616EEA
:102C0000676500746F207374617274005761697432
:102C100020666F720066696C616D656E7420756EFA
:102C20006C6F616400004E6F7A7A6C652068656134
:102C300074696E6700506C656173652077616974B3
:102C40002E2E2E0000507265737320627574746F9F
:102C50006E00746F2068656174206E6F7A7A6C659F
:102C60000000496E736572742066696C616D656EF3
:102C70007400616E64207072657373206275747481
:102C80006F6E00746F20636F6E74696E75650057A8
:102C900061697420666F720066696C616D656E743F
:102CA000206C6F616400005072657373204275740C
:102CB000746F6E00746F20726573756D652070722D
:102CC000696E7400005761697420666F72207072BB
:102CD000696E7400746F20726573756D652E2E2E8B
:102CE00000005761697420666F720066696C616DDF
:102CF000656E742070757267650000000021002405
:102D00000027002A002D00300033000101000004DC
:102D10000107010A0100002200250028002B002ED7
:102D2000003100340002010000050108010B010020
:102D30000020002300260029002C002F0032000074
:102D40000100000301060109010505050507050845
:102D5000080808020202020A0A080804040404011E
:102D60000101010101010103030303030303030440
:102D70000707070C0C0C0C0C0C0C0C0202020206D0
:102D8000060606060606060B0B0B0B0B0B0B0B07BA
:102D9000070A0A0A0A0A0A050505040404080801C4
:102DA000021020200808102040102040800201025C
:102DB0000108040201010204081020408080402024
:102DC000100804020180040201804020100804025F
:102DD00001080402010102040810204080010204DD
:102DE0000810204080100804088010204004408013
:102DF000102040048000000A0B02090C0D0E080789
:102E000003040100000000000000000000000000BA
:102E100000000000000000000000000000000000B2
:102E2000001211100000000000000000000000006F
:102E30000000000000000000000000000000000092
:102E400000000000000000000000004D6F766520CB
:102E500025736D6D004D6F766520302E316D6D00E0
:102E60004D6F766520316D6D004D6F766520313088
:102E70006D6D004D6F7665204178697300486F7401
:102E8000656E6420746F6F20636F6C6400457874A6
:102E90007275646572004D6F7665205A004D6F76CD
:102EA000652059004D6F76652058005072696E7428
:102EB0002066726F6D204D65646961005072696EA5
:102EC000742050617573656400486F6D65202573CB
:102ED000257325732046697273740020453A0020DB
:102EE0005A3A0020593A00424C41434B42454C5417
:102EF0002033442052656164792E005072696E74EB
:102F0000696E672E2E2E00220A00556E6B6E6F774B
:102F10006E20636F6D6D616E643A2022006F706584
:102F20006E206661696C65642C2046696C653A2088
:102F3000004572723A207574663820666F6E742090
:102F40006E6F7420696E697469616C697A65642E4C
:102F500000000C0F00FE07022603BC017FFE08FEE6
:102F600008FE05080806000040F0C8888898781018
:102F7000050808060000C0F88888888888F80505D4
:102F8000050600012030F830200508080600002062
:102F900070F820202020E00509090600FF2070A815
:102FA000A8B888887020050606060001E08CEA8C27
:102FB0008A0A0509090600FFF8A88888888888A871
:102FC000F8050A0A0600FE205050505088A8A8882C
:102FD0007003030306000340A040FFFFFFFFFFFF55
:102FE000FFFFFFFFFFFFFFFFFFFFFFFFFFFFFFFFF1
:102FF0000000000605FF01070706020080808080B0
:10300000800080030303060105A0A0A005060606B4
:10301000000050F85050F8500509090600FF2070D4
:10302000A8A07028A87020050707060000C8C810CF
:103030002040989805070706000040A0A040A890EF
:10304000680103030602058080800309090601FF69
:103050002040408080804040200309090601FF8015
:10306000404020202040408005070706000020A89F
:10307000702070A8200505050600012020F82020FA
:103080000203030601FFC04080050101060003F8AA
:10309000020202060100C0C0050707060000081072
:1030A0001020404080050707060000708898A8C8D7
:1030B000887003070706010040C040404040E0051B
:1030C0000707060000708808102040F8050707066B
:1030D0000000F80810300888700507070600001087
:1030E000305090F81010050707060000F880F0082F
:1030F000088870050707060000304080F088887057
:10310000050707060000F808101020202005070713
:103110000600007088887088887005070706000020
:1031200070888878081060020505060100C0C0009C
:10313000C0C00206060601FFC0C000C040800305F3
:10314000050601012040804020050303060002F827
:1031500000F80305050601018040204080050707AF
:1031600006000070881020200020050707060000D8
:103170007088B8A8B88070050707060000708888B6
:10318000F8888888050707060000F0484870484816
:10319000F0050707060000708880808088700507AA
:1031A00007060000F04848484848F00507070600B1
:1031B00000F88080F08080F8050707060000F8809E
:1031C00080F0808080050707060000708880809866
:1031D0008870050707060000888888F888888803B3
:1031E0000707060100E04040404040E005070706B1
:1031F00000003810101010906005070706000088C6
:1032000090A0C0A0908805070706000080808080FD
:103210008080F805070706000088D8A88888888875
:103220000507070600008888C8A89888880507074A
:1032300006000070888888888870050707060000E7
:10324000F08888F080808005070706000070888875
:1032500088A89068050707060000F08888F0A0900D
:1032600088050707060000708880700888700507C9
:1032700007060000F8202020202020050707060070
:103280000088888888888870050707060000888875
:10329000888850502005070706000088888888A87D
:1032A000A850050707060000888850205088880528
:1032B0000707060000888850202020200507070601
:1032C0000000F80810204080F80309090601FFE01B
:1032D00080808080808080E00507070600008040B5
:1032E00040201010080309090601FFE020202020DB
:1032F000202020E005030306000520508805010179
:103300000600FEF8030303060105804020050505BD
:10331000060000700878887805070706000080809E
:10332000F0888888F00505050600007080808870A8
:1033300005070706000008087888888878050505CD
:103340000600007088F0807005070706000030480E
:1033500040E04040400507070600FE7088888878F6
:1033600008700507070600008080F08888888803B9
:1033700007070601004000C0404040E0040909067C
:1033800001FE1000301010101090600507070600B5
:103390000080808890E09088030707060100C04005
:1033A00040404040E0050505060000D0A8A8A8A8B8
:1033B000050505060000B0C88888880505050600D3
:1033C0000070888888700507070600FEF0888888E6
:1033D000F080800507070600FE788888887808084E
:1033E000050505060000B0C88080800505050600BB
:1033F0000078807008F00507070600002020F820FC
:1034000020201805050506000088888898680505AD
:1034100005060000888888502005050506000088FC
:1034200088A8A8500505050600008850205088058A
:1034300007070600FE88888850204080050505069D
:103440000000F8102040F80309090601FF20404061
:103450004080404040200109090602FF80808080B2
:1034600080808080800309090601FF804040402061
:103470004040408005030306000248A890FF456EC7
:10348000636C6F73757265006E6F746966696361F2
:1034900074696F6E200063616E63656C00507269C1
:1034A0006E742041626F72746564004469736D6963
:1034B00073730055492041626F72746564004D3228
:1034C0003520500A4D323400526573756D650055D4
:1034D000492050617573650050617573696E672E80
:1034E0002E2E00726573756D650020436F756E74C6
:1034F00020583A004D6963726F737465707320755C
:103500006E617661696C61626C650A002045313AD2
:10351000002045303A004D53317C327C33205069D5
:103520006E7300453100626564002C2073797374FA
:10353000656D2073746F70706564212048656174D7
:1035400065725F49443A2000004361703A00473297
:103550002F47332062616420706172616D6574650C
:1035600072730A00F501630111241FBECFEFD1E28F
:10357000DEBFCDBF00E00CBF12E0A0E0B2E0EEE4A1
:10358000F6E202E00BBF02C007900D92A03DB1072A
:10359000D9F726E1A0EDB2E001C01D92A131B2073A
:1035A000E1F71AE1C3EBDAE100E006C02197010977
:1035B000802FFE010F947D0FC23BD10780E00807EA
:1035C000A9F70E94ADFB0D9415130C9400002F92E7
:1035D0003F924F925F926F927F928F929F92AF92A3
:1035E000BF92CF92DF92EF92FF920F931F93CF93F0
:1035F000DF93CDB7DEB7A7970FB6F894DEBF0FBE47
:10360000CDBF8FA32091DF022EA3FF24F394F0926D
:10361000DF0280915E0C8D3409F43CC2843511F4D4
:103620000C94EA2B873411F00C940F2C20915C0C35
:1036300030915D0C2531310511F40C94112C7CF482
:10364000243031053CF4223031050CF0EEC037FF58
:103650001DC01CC22430310509F4F5C017C22A353B
:10366000310509F459C14CF42B31310509F42AC153
:103670002C31310509F440C109C22B35310509F45B
:103680004FC12C35310509F450C100C2809133057A
:10369000813011F00C94112C0E94AF9681E49DE0D2
:1036A0000E944FA38091390B83FD83C02091780F36
:1036B0003091790F40917A0F50917B0F60914D0DB1
:1036C00070914E0D80914F0D9091500D0F94A60862
:1036D000882309F46EC080918205811119C0609120
:1036E000970F7091980F8091990F90919A0F0F9466
:1036F000F21020911502309116026217730744F4FC
:103700000E943B7389E396E10E94557211E001C06B
:1037100010E02091780F3091790F40917A0F5091FD
:103720007B0F60914D0D70914E0D80914F0D9091DA
:10373000500D0F94850F6B017C0120E030E0A90152
:103740000F94E61187FF04C0F7FAF094F7F8F094AD
:1037500020911102309112024091130250911402F3
:10376000C701B6010F940C0920E030E04AEF54E4A1
:103770000F94E61118163CF40E943B738AE196E11F
:103780000E94557202C01123A1F080914D0D9091BD
:103790004E0DA0914F0DB091500D8093780F9093E6
:1037A000790FA0937A0FB0937B0F8DE49DE00E9478
:1037B00042962AE037ED43E25CE360915802709153
:1037C000590280915A0290915B020F940C096B018F
:1037D0007C0160911B0270911C02072E000C880B6B
:1037E000990B0F94AD089B01AC01C701B6010F9472
:1037F0000C0969837A838B839C838E010F5F1F4F33
:103800002DE43DE049E45DE065E47DE081E49DE098
:103810000E949A5080E1E1E4FDE0ACE6BFE0019057
:103820000D928A95E1F70C94112C8091330581302B
:1038300011F00C94112C2230310509F080E00E9427
:10384000B0F40C94112C80E50E94D671882329F0E5
:103850000E94A09A6B017C0103C0C12CD12C76017F
:1038600083E50E94D671882361F00E94567120E0A2
:1038700030E04AE754E40F940C090F94F9106B01FF
:103880007C010E94C19E80917815811105C060E085
:1038900088E796E00E9469EB0E9489D2C60ED71E87
:1038A000E81EF91E0E9489D2DC01CB018C199D090A
:1038B000AE09BF09B7FD02C00C94112C80E00E9434
:1038C0007231F0CF0E948BD781110C94112C8CE0B7
:1038D000E0E7F2E0DE01119601900D928A95E1F7A2
:1038E00060E070E080E50E943F9ABE016F5F7F4F0D
:1038F0000E9421AD0C94112C8091350E8770873079
:1039000011F00C941A2C60E08FE40E94FD9C811150
:103910000C94112C0C941A2C1092870E0C94112CD0
:103920008FE08093870E0C94112C80915B0C882380
:1039300049F1893009F0A6C0ECE7AE2EE2E0BE2ED8
:10394000FCE6EF2EFFE0FF2ED12C00E010E0F501A9
:1039500081915F010E94D671882369F00E9456719F
:10396000F7016083718382839383133011F401E044
:1039700002C0DD24D3941F5FF4E0EF0EF11C14307D
:1039800031F775C05CE7252E52E0352E64EAE62E4D
:103990006EE0F62E2CE63FE03DA32CA379E2C72E85
:1039A0007EE0D72E00E010E0F10181911F010E941E
:1039B000D671882309F44AC00E9456712B013C013C
:1039C000133049F0F60120813181428153810F94F7
:1039D000850F2B013C01ECA1FDA1208131814281A9
:1039E0005381C301B2010F94850F4B015C012DEB94
:1039F00037E346E855EB0F94E61187FD0AC02DEB3F
:103A000037E346E855E3C501B4010F94A60818163C
:103A1000ECF4133051F44092780F5092790F609289
:103A20007A0F70927B0F01E011C0A5019401F7019C
:103A300060817181828193810F94860FF701608389
:103A4000718382839383812F0E9403A31F5FF4E01D
:103A5000EF0EF11C2CA13DA12C5F3F4F3DA32CA3E9
:103A600034E0C30ED11C143009F09ECF05C0DD2018
:103A700019F00E94D2A406C0002321F088E79FE03D
:103A80000E9442960E94E0A60C94112C0E9428D617
:103A90000C94112C00915C0C10915D0C08371105F1
:103AA00011F40C9474250CF07BC10C34110509F44D
:103AB00028C50CF074C00A31110509F4A3C3DCF564
:103AC0000431110509F4F8C28CF40131110509F42F
:103AD000DFC234F40230110508F490C20C94E72BD5
:103AE0000231110509F4B6C60C94E72B0731110514
:103AF00009F407C39CF40531110509F4FEC206312F
:103B0000110511F00C94E72B0E94D5BF80917D1216
:103B1000877F806280937D120C94112C08311105EF
:103B200009F406C30931110511F00C94E72B0E942A
:103B300060990C94112C0F31110509F420C484F400
:103B40000C31110509F4D3C30CF46AC30D3111050E
:103B500009F4D5C30E31110509F4D8C30C94E72B31
:103B60000A32110509F4B6C46CF40032110509F4E7
:103B7000DDC30132110511F00C94E72B0E94CC88B3
:103B80000C94112C0934110509F4A8C40B34110547
:103B900011F00C94E72B0E9411AA0C94112C0B36F7
:103BA000110509F45AC5ECF50435110509F452C69E
:103BB000FCF40135110509F430C64CF40D3411053F
:103BC00011F00C94E72B0E944AAA0C94112C023598
:103BD000110509F437C60335110511F00C94E72BD4
:103BE0008091870E8F7E80628093870E0C94112CBB
:103BF0000836110509F489C454F40535110509F492
:103C00005FC60C35110509F47EC60C94E72B093606
:103C1000110509F4CBC40A36110509F4DBC40C9470
:103C2000E72B0137110509F47DC5DCF40E361105CB
:103C300009F421C55CF40C36110511F40C94112C17
:103C40000D36110509F488C40C94E72B0F361105C5
:103C500009F424C50037110511F40C94112C0C94AF
:103C6000E72B0537110509F4F3C60CF08CC00237B9
:103C7000110509F4E6C60337110511F00C94E72B82
:103C800083E898E00E94557260E083E798E00E9424
:103C9000CEF960E08EE598E00E94CEF960E087E51D
:103CA00098E00E94CEF961E08CE498E00E94CEF9A1
:103CB00061E08CE398E00E94CEF960E083E398E055
:103CC0000E94CEF961E089E298E00E94CEF960E0BE
:103CD0008FE198E00E94CEF961E08DE09BE00E94C8
:103CE000CEF960E087E198E00E94CEF960E089E0DB
:103CF00098E00E94CEF961E08BEF97E00E94CEF948
:103D000060E08CEE97E00E94CEF960E08EED97E0E7
:103D10000E94CEF960E088EC97E00E94CEF961E065
:103D200087EB97E00E94CEF961E088EA97E00E9475
:103D3000CEF961E081EA97E00E94CEF961E08CE87B
:103D400097E00E94CEF961E08EE797E00E94CEF9FD
:103D500061E08BE697E00E94CEF960E08EE597E0A7
:103D60000E94CEF961E089E597E00E94CEF961E01A
:103D70008CE497E00E94CEF960E088E397E00E942F
:103D8000CEF90C94112C0637110509F472C60737C9
:103D9000110511F00C94E72B0E9465A70C94112CCF
:103DA000003381E0180711F40C9478280CF082C0DD
:103DB0000D3C110509F4CBC7D4F50B39110509F4F5
:103DC00000C5E4F40D37110509F423C56CF4093777
:103DD000110511F00C94E72B1092690310926803FF
:103DE0000E948DA70C94112C0C38110509F4C4C441
:103DF0000139110509F47FC60C94E72B093C110524
:103E000009F432C754F40E3B110509F4D6C4083C3A
:103E1000110509F4E4C60C94E72B0B3C110509F4D9
:103E200046C70C3C110509F461C70C94E72B023E10
:103E3000110511F40C944F27D4F4033D110509F436
:103E4000AFC75CF40E3C110511F00C94E72B10EB9E
:103E5000E12E1EE0F12E10E08AC70C3D110509F499
:103E6000A2C70D3D110509F4C5C70C94E72B0D320F
:103E7000E1E01E0711F40C94F9276CF4023221E002
:103E8000120711F40C949B270C32114011F40C947E
:103E9000E4270C94E72B0E3281E0180711F40C9400
:103EA000EB280F32114011F00C94E72B0E94358162
:103EB0000C94112C073FE1E01E0711F40C94A62985
:103EC0000CF045C00C3921E0120711F40C94322992
:103ED000DCF40F3581E0180711F40C940C2B3CF442
:103EE0000E35114011F40C94D72A0C94E72B0039AD
:103EF000F1E01F0711F40C942F290A39114011F435
:103F00000C94112C0C94E72B043F31E0130711F4AF
:103F10000C9499296CF40D3991E0190711F40C9463
:103F2000892B0C3A114011F40C943C290C94E72B8A
:103F3000053FF1E01F0711F40C94A029063F114042
:103F400011F00C94E72B0E94B4A70C94112C0B38A1
:103F500033E0130711F40C94972A1CF50B3592E00B
:103F6000190711F40C94B6297CF40C30F2E01F0709
:103F700011F40C94AE290835124011F00C94E72B83
:103F80000E94ED9A0C94112C0C3633E0130711F4B7
:103F90000C94112C0438134011F40C942E2A0C9418
:103FA000E72B073E93E0190711F40C947B2BCCF41C
:103FB0000C38F3E01F0711F40C94C82A003A1340A0
:103FC00011F00C94E72B2091EB0C3091EC0C9091BC
:103FD0007D12926090937D12C9010E9436C10C94AB
:103FE000112C083E33E0130711F40C94AA2B093E60
:103FF000134011F40C94AD2B0C94E72B80E50E9438
:10400000D671882329F00E94A09A6B017C0103C01D
:10401000C12CD12C760183E50E94D671882361F0F2
:104020000E94567120E030E04AE754E40F940C09F6
:104030000F94F9106B017C010E94C19E8091EB0CE2
:104040009091EC0C009721F061E00E9422EC05C0F9
:1040500060E081E996E00E9469EB80915C0C9091B0
:104060005D0C892B19F069E876E002C061E876E022
:1040700020E030E04BEB57E182E00E94D67240E056
:10408000C701B6010E94A1370E94EED60C94112CF4
:104090008091570C84FF02C00C94F82C8091590C2D
:1040A00087FF02C00C94F82C80915A0C837011F099
:1040B0000C94F82C0C94112D8CEB96E00E94557208
:1040C0008AE992E10E94CA798BE1EAE9F2E1DE0134
:1040D000119601900D928A95E1F760E070E0CE01B3
:1040E00001960E948AC8CE0101960E9405728DEA4F
:1040F00096E00E9455720C94112C0E947AC20C9486
:10410000112CE091EB0CF091EC0C8081882329F0CC
:10411000803209F410823196F8CF60E08091EB0C88
:104120009091EC0C0E9486C110928C0B0C94112C77
:1041300083E50E94D671882321F00E9446710E9477
:104140009C8984E50E94D6718823A9F00E9446715B
:104150006B017C010E94F6A9C092560DD092570DBA
:10416000E092580DF092590DCD28CE28CF2819F0A5
:1041700081E08093860E8091790D8823F9F080E0AC
:1041800090E0A0E2B1E489839A83AB83BC831C8E68
:104190001D8E1E8E1F8E18A219A21AA21BA200E04D
:1041A00010E020E0AE014F5F5F4FBE01645E7F4FC5
:1041B000CE0180960E94BE730C94112C0E94223076
:1041C000882381F00E94E6BF0E9411AA87EF9EE03B
:1041D0000E948BBF10925F0C1092600C1092610CC9
:1041E0001092620C61E083EE94E30E9464724BEAE9
:1041F00054E36DEC76E085E00E9411D70E94EED684
:104200000C94112C80917D1283FD02C00C94112C12
:1042100083E50E94D67181110C941C2D0C94112CF5
:1042200083E40E948D718823C1F183EE96E00E94A1
:1042300055728091E113882339F1BE016F5F7F4F82
:104240008EED93E10E9491788E010F5F1F4FF80170
:1042500081918F01882319F00E944630F8CFCE015A
:1042600001960E9408C18091440E882389F080E263
:104270000E94463004E41EE0F80181918F018823FA
:1042800039F00E944630F8CF89ED96E00E945572D1
:104290008AE00E9446300C94112C83E50E94D6716E
:1042A000882309F10E94B09A182F90E0CD970CF066
:1042B0001CE31093D4020E9489D26B017C01212F50
:1042C00030E0A8EEB3E00F943A0FC60ED71EE81EFA
:1042D000F91EC092D002D092D102E092D202F092A6
:1042E000D3020C94112C0E9464BF0C94112C809169
:1042F000EB0C9091EC0C0E9436C10C94112C809127
:104300007D128E7F80937D120C94112C80917D12F2
:1043100083FD02C00C94112C0E940ED68091EB0CF0
:104320009091EC0C0E9494C00C94112C80917D1201
:1043300082FD0E94C19E80917D1283FD02C00C947B
:10434000112C60E080E50E94FD9C182F682F809161
:10435000EB0C9091EC0C0E9486C183E50E94D67113
:10436000882321F00E9446710E949C890E94E6BF2A
:1043700011110C94112C0E9411AA0C94112C0E9462
:10438000C2A97B018C0120E831E541E050E00F94A7
:10439000E60EC9016DE671E00F94550F4B015C010B
:1043A000C801B70120E13EE040E050E00F94E60E86
:1043B000CA01B90128E130E040E050E00F94E60E78
:1043C000762E672EC62ED72E4CE3242E312C412C70
:1043D000512CC801B701A20191010F94E60EF62EEF
:1043E000E72ECA01B901A20191010F94E60ECB019B
:1043F0008E010F5F1F4F8114910499F0EF92FF928D
:104400007F936F936F927F92BF92AF929F928F92A2
:1044100082EF96E09F938F931F930F930F943E0824
:1044200013C0A114B104B1F0EF92FF927F936F9388
:104430006F927F92BF92AF9286EF96E09F938F9399
:104440001F930F930F943E080FB6F894DEBF0FBE74
:10445000CDBF30C0CD2879F0EF92FF927F936F935C
:104460006F927F928AEF96E09F938F931F930F93A3
:104470000F943E08E9CF892B69F0EF92FF927F936A
:104480006F938EEF96E09F938F931F930F930F94EC
:104490003E08DACFEF92FF9282E097E09F938F93EE
:1044A0001F930F930F943E080F900F900F900F9053
:1044B0000F900F9060E0C8010E9422EC0E943B73B5
:1044C000B80186E097E00E9424738AE00E9446309B
:1044D0000C94112C0E94129D0C94112C80E50E94CA
:1044E0008D71882311F40C94112C0E94B09A90E0E5
:1044F0008536910510F084E690E080938C0B0C9447
:10450000112C0E9435AA0C94112C8091390B83FF39
:1045100002C00C94112C0E94C49A87FF02C00C9414
:10452000112C89E40E94D671882311F40C94212D5A
:104530000E94B09A90E01816190614F481E090E0F9
:1045400026E0289FF001299FF00D1124ED59F24F2C
:10455000808191810C942B2D8091390B83FF02C0B7
:104560000C94112C0E94C49AF82E87FF02C00C9460
:10457000112C89E40E94D671082F882311F40C9421
:10458000342D0E94B09A90E01816190614F481E0B8
:1045900090E026E0289FF001299FF00D1124ED59AD
:1045A000F24F8081918110E00C94442D0E94C49AB6
:1045B000182F87FD0AC082EE9AE10E945572812F62
:1045C0000E942E7E8AE00E9446303EA13093DF0298
:1045D0000C94252F80E50E94E1D7F82E81E08F15FD
:1045E00010F40C94112C81E40E948D71882329F021
:1045F00060917005062F10E002C00FEF10E089E413
:104600000E94D671882399F00E94B09A90E0181603
:10461000190614F481E090E026E0289FF001299F1C
:10462000F00D1124ED59F24F0481158108C083E586
:104630000E94D671882319F00E9446718B01EF2DDC
:10464000F0E0E059FA4FB8010F3F110519F010F0F2
:104650006FEF70E060830C94112C80E50E94E1D72D
:10466000823010F00C94112CE82FF0E0E059FA4F52
:1046700010820C94112C8EE40E94D671882311F4C0
:104680000C94112C0E9446716093E70C7093E80C17
:104690008093E90C9093EA0C0C94112C83E50E9412
:1046A0008D71882329F083E50E94E1D78093390B2F
:1046B0000E943B7388E197E00E9455728091390B0C
:1046C000882369F137EBE32E3AE0F32E00E010E0A7
:1046D00020E08091390B90E0A0E0B0E0002E04C013
:1046E000B695A795979587950A94D2F780FF0EC047
:1046F000DD24D394D20E222319F08CE20E9446309E
:10470000F701859194910E9455722D2D0F5F1F4FD7
:1047100092E0E90EF11C05301105D9F6B9CD8BE612
:104720009DE0B4CD83E50E94D671882381F00E947C
:10473000B09A282F30E02D33310524F48093000205
:104740000C94112C8CE3809300020C94112C0E9489
:104750003B73C0900002D12CE12CF12C8FE197E04B
:104760000E9455724AE0C701B6010E944D308AE0AE
:104770000E9446300C94112C8091390B83FF02C0AB
:104780000C94112C89E40E94D671882311F40C94A6
:104790008D2D0E94B09A90E01816190614F481E04D
:1047A00090E026E0289FF001299FF00D1124ED599B
:1047B000F24F628173810C94972D0E94D6860C94DF
:1047C000112C83E50E94D671882311F40C94112CCE
:1047D0000E94B09A182F90E0CD970CF01CE3109334
:1047E000D9020E9489D26B017C01212F30E0A8EE12
:1047F000B3E00F943A0FC60ED71EE81EF91EC09202
:10480000D502D092D602E092D702F092D8020C9450
:10481000112C0E9460990C94112C0E94956A0E94A0
:104820004AAA0E94D29E0E941D3068EE73E080E08A
:1048300090E00E94317260E086E297E00E9469EBAE
:104840000C94112C8091870E8F7D80618093870E50
:104850000C94112C83E50E94D6718823E9F00E9404
:1048600089D26093340C7093350C8093360C9093FE
:10487000370C0E94567120E030E04AE754E40F9470
:104880000C090F94F9106093010270930202809357
:10489000030290930402C5C78091570C84FF02C0A5
:1048A0000C94A62D8091590C87FF02C00C94A62D64
:1048B00080915A0C837011F00C94A62D0C94D32D7A
:1048C00083E50E948D71882309F4ABC70E9489D2C9
:1048D0006093340C7093350C8093360C9093370CA6
:1048E0000E94567120E030E04AE754E40F940C092E
:1048F0000F94F9106093DA027093DB028093DC026C
:104900009093DD028EC70E94C49A87FD8AC790915A
:10491000570C94FD04C09091590C97FF0AC09CE776
:10492000C92E92E0D92E2AE3E22E2BE0F22E10E0DF
:1049300009C090915A0C937091F7682F81E00E9402
:10494000529A6FC7F60181916F010E94D671882338
:1049500009F46DC0133009F063C00E9456714B0119
:104960005C0120E030E040EA51E40F94A60887FFA4
:104970004EC0A501940160915A0B70915B0B809120
:104980005C0B90915D0B0F9480102B013C019B01FF
:10499000AC01609168057091690580916A059091FC
:1049A0006B050F940C0960936805709369058093FB
:1049B0006A0590936B05A301920160916A0B709157
:1049C0006B0B80916C0B90916D0B0F940C096093A5
:1049D0006A0B70936B0B80936C0B90936D0B6091D3
:1049E00054057091550580915605909157050F9487
:1049F000AB08A30192010F940C090F94F910609376
:104A000054057093550580935605909357058092F1
:104A10005A0B90925B0BA0925C0BB0925D0B07C09F
:104A20000E945671F701648B758B868B978B1F5F85
:104A3000F4E0EF0EF11C143009F084CF0E94CC9505
:104A4000F0C60E9426D781E092E10E9448F4E9C6B0
:104A50008091EB0C9091EC0C009741F0FC012081CF
:104A6000222321F060E00E9422ECDBC60E94EED6F9
:104A7000D8C60091EB0C1091EC0C94E0F12C40E0C6
:104A8000915029F1F8018081282F2B7F213421F4C6
:104A900021812133E1F408C08035C9F4F801818116
:104AA00080538A3048F013C0813421F0853421F4DA
:104AB00041E002C0FF24F39498012E5F3F4F89012B
:104AC0002F5F3F4FF80180818032C9F3D9CF411168
:104AD0000E943B73FF2021F086E699E00E94557208
:104AE000C8010E9451319DC6F0926903F09268039B
:104AF0000E948DA796C660E070E083E50E94919ABF
:104B0000823038F00E9437738AE699E00E9455722D
:104B100088C68C01112788E40E94D6718823E1F0B1
:104B20000E948D9A8436910544F00E948D9A863EAB
:104B3000914034F40E948D9A05C084E690E002C052
:104B400085EE91E026E0209FF001219FF00D1124D9
:104B5000ED59F24F9183808382E40E94D6718823BD
:104B6000D9F00E948D9A059744F00E948D9A8D3855
:104B7000910534F40E948D9A05C085E090E002C052
:104B80008CE890E026E0209FF001219FF00D112499
:104B9000ED59F24F9383828386E40E94D671882375
:104BA00009F43FC60E948D9A97FD09C00E948D9A14
:104BB0008F3F910509F034F40E948D9A05C080E082
:104BC00090E002C08FEF90E026E0209FF001219F4F
:104BD000F00D1124ED59F24F9583848322C60E9473
:104BE000C49A182F87FD1DC60091A30E84E40E946D
:104BF000D671882309F4DAC70E9456716B017C01D3
:104C000020E030E0A9010F94A608882339F124E0C0
:104C10001202F0011124E156F14FC082D182E282EA
:104C2000F38220E030E0A90160919F0E7091A00E08
:104C30008091A10E9091A20E0F94A60881110CC034
:104C400080E090E0A0EEBFE380939F0E9093A00ED3
:104C5000A093A10EB093A20E01E0A8C780E08093BC
:104C6000A30E0E94349EDDC50E94C49A87FDD9C55B
:104C70008CE7E82E82E0F82E0AE31BE0F701819131
:104C80007F010E948D71882359F00E9456710F9404
:104C9000F910F80160837183828393830E94859564
:104CA0000C5F1F4FFBE00A341F0741F7BAC50E9493
:104CB000C49A87FDB6C50CE7E02E02E0F02E0AE3A9
:104CC0001BE0F70181917F010E948D71882339F0EB
:104CD0000E945671F80164A375A386A397A30C5F85
:104CE0001F4FFBE00A341F0761F79BC58091580CEA
:104CF00087FD61C78091590C8E7009F05CC74091A7
:104D00006E0B50916F0B6091700B7091710B8CE872
:104D100099E00E9406734091720B5091730B609161
:104D2000740B7091750B80E196E20E9406734091BE
:104D3000760B5091770B6091780B7091790B8AE824
:104D40009AE10E9406738AE00E9446306AC580910B
:104D5000570C827109F075C78091590C8C7809F055
:104D600070C780915A0C837009F06BC75AC588E5EB
:104D7000810F0E948D71882351F00E945671F701B6
:104D80006083718382839383812F0E9403A31F5FBB
:104D9000F4E0EF0EF11C133051F70E94E0A641C57C
:104DA0000E940E9C3EC583E50E94D671882331F097
:104DB0000E948D9A90931C0280931B028091570C45
:104DC0009091580CA091590CB0915A0C892B8A2BB8
:104DD0008B2B09F026C560911B0270911C028CE997
:104DE00099E00E94177385E20E9446308AE00E9493
:104DF000463017C50E94C49AF82E87FD12C583E578
:104E00000E94D6710F2D0F2C000C110B882361F11D
:104E10000E948D9AF801EE0FFF1FEE5AFD4F91830D
:104E20008083000F111F000F111F98012F5E3D4F4F
:104E30007901BC01990F880B990B0F94AD082AE0FA
:104E400037ED43E25CE30F940C09F801EF5AF24F9F
:104E500020813181428153810F940C09F7016083D5
:104E6000718382839383DDC40E943B7385E40E9437
:104E7000463080E38F0D0E944630000F111FF8016D
:104E8000EE5AFD4F6081718180EA99E00E941773AC
:104E900085E20E9446308AE00E944630C2C480E526
:104EA0000E948D71882309F4BCC460E070E080E545
:104EB0000E94919AF82E6FEF7FEF83E50E94919AFE
:104EC0008C010196039708F0ACC4F7FCAAC48F2D9F
:104ED0000E94F82F882339F00E94377388EA99E0FE
:104EE0000E9455729EC40E94C19E60E08F2D0E9458
:104EF00013D20F3FFFEF1F0731F00130110571F0A2
:104F000000E010E00DC08F2D0F94950231E020E0FD
:104F1000892B09F030E0032F122F02C001E010E0CE
:104F20008F2D0F9495028017910709F47AC480E0C1
:104F30000E947231F5CFEAE3EE2EEBE0FE2E10E098
:104F400088E5810F0E94D67181110CC0123069F57D
:104F500083E50E94D671811105C08091590C87FDAF
:104F6000E5C62AC00E94567120E030E040E050ECD7
:104F70000F94A60887FDD5C60E94567120E030E048
:104F800040E050E40F94E61118160CF4C5C60E94D8
:104F90005671F70124893589468957890F940C0980
:104FA0000F94F210812F0E940B721F5FF4E0EF0E3E
:104FB000F11C133029F6D1CF80915A0C837009F07F
:104FC000B5C60E943B732DC464E071E083E50E9486
:104FD0003F9A8C0168EE73E080E50E943F9A893821
:104FE00023E1920710F088E893E1B8010E942EEBCC
:104FF00018C485E40E94E1D7811173C080E50E9446
:105000008D71882351F00E94567160939E0F7093AA
:105010009F0F8093A00F9093A10F89E40E948D7140
:10502000882381F00E9456712CEA35EC47E25EE35A
:105030000F940C096093A20F7093A30F8093A40F99
:105040009093A50F84E40E948D71882381F00E94C3
:1050500056712CEA35EC47E25EE30F9480106093C2
:10506000A60F7093A70F8093A80F9093A90F0E948B
:105070003B7340919E0F50919F0F6091A00F7091D4
:10508000A10F8FEB99E00E9406732CEA35EC47E202
:105090005EE36091A20F7091A30F8091A40F909195
:1050A000A50F0F948010AB01BC018BEB99E00E941F
:1050B00006732CEA35EC47E25EE36091A60F70912F
:1050C000A70F8091A80F9091A90F0F940C09AB0125
:1050D000BC0187EB99E00E9406738AE00E9446308B
:1050E000A0C30E94377383EC99E00E94557299C364
:1050F00080E50E948D71882351F00E945671609363
:10510000930E7093940E8093950E9093960E89E46F
:105110000E948D71882381F00E9456712CEA35EC33
:1051200047E25EE30F940C096093970E7093980E1C
:105130008093990E90939A0E84E40E948D71882337
:1051400081F00E9456712CEA35EC47E25EE30F9441
:10515000801060939B0E70939C0E80939D0E909395
:105160009E0E0E943B734091930E5091940E60915D
:10517000950E7091960E8FEB99E00E9406732CEAC3
:1051800035EC47E25EE36091970E7091980E809146
:10519000990E90919A0E0F948010AB01BC018BEB8D
:1051A00099E00E9406732CEA35EC47E25EE36091D9
:1051B0009B0E70919C0E80919D0E90919E0E0F946F
:1051C0000C09AB01BC0187EB99E00E9406738AE0F1
:1051D0000E94463026C383E50E948D71182F8823D4
:1051E00071F00E9456710F94F21070931602609342
:1051F000150221E0672B09F020E02093820580E56D
:105200000E948D71882359F0209115023091160269
:10521000232B11F00E94FE9B8093820502C3111183
:1052200000C30E943B738EEE99E00E9455728091FC
:105230008205882319F084EF98E202C085ED99E099
:105240000E94557260911502709116028DED99E0E1
:105250000E94177389ED99E00E945572E2C20E9484
:10526000C19EDFC28091570C87FD7BC58091590C90
:10527000867009F076C560C50E948BD78111D1C2B6
:1052800002E715E28CE69FE09DA38CA3FE01319618
:105290001F0179E9C72E75E2D72E7F01F8016591CC
:1052A000759185919491ECA1FDA181909190A1902F
:1052B000B190FDA3ECA3A50194010F94850F2B01E0
:1052C0003C01F701608371838283938320E030E0A7
:1052D00040EA51EC0F94E61187FD0AC020E030E06F
:1052E00040EA51E4C301B2010F94A60818162CF449
:1052F000F601849118160CF454C5F7018190919031
:10530000A190B1907F0120E030E040EA51ECC5016E
:10531000B4010F94E61187FD4EC520E030E040EA6D
:1053200051E4C501B4010F94A60818160CF057C536
:1053300042C50E9437738EE49AE00E94557271C292
:105340000E94B4A780E00E9441AE6BC261E083E599
:105350000E94FD9C8F250E9441AE63C280917D1208
:1053600082FF5FC2806480937D125BC20E94C49AF8
:10537000082F87FD56C285E50E948D718823A9F10B
:10538000E02E002E000CFF080E9456714B015C01BC
:1053900020E030E0A9010F94E61187FF04C0B7FABE
:1053A000B094B7F8B094C70153E0880F991F5A958D
:1053B000E1F79C01265A324F7901F90180829182EE
:1053C000A282B38220E030E04AEF54E4C501B40188
:1053D0000F94E61118164CF480E090E0AAEFB4E4C4
:1053E000F70180839183A283B3838CE40E948D7143
:1053F000882309F416C2002E000C110B0E9456716E
:105400006B017C0120E030E0A9010F94E61187FFD9
:1054100004C0F7FAF094F7F8F09420E030E04AEF97
:1054200054E4C701B6010F94E611980143E0220F3E
:10543000331F4A95E1F7F901E65AF24F18162CF09E
:10544000C482D582E682F782ECC180E090E0AAEFC8
:10545000B4E484839583A683B783E3C1A0908305D6
:10546000B0908405C0908505D09086058BE40E949D
:10547000D671882339F10E9456717B018C0120E09E
:1054800030E0A9010F94E61187FD0AC020E030E06A
:1054900040E251E4B701C8010F94A6081816A4F41D
:1054A0008FE30E9446308BE40E94463087E69AE004
:1054B0000E9455728FE59AE00E9455728CEE95E13C
:1054C0000E945572750186019701A801B501C601B8
:1054D0000F94A608882361F00E94C19EC701D801DD
:1054E0008093830590938405A0938505B0938605EA
:1054F0008091570C9091580CA091590CB0915A0C76
:10550000892B8A2B8B2B09F08CC10E943B73409115
:1055100083055091840560918505709186058BE720
:105520009AE00E9406738AE00E9446307AC13CE706
:10553000E32E32E0F32E10E0F70181917F010E940B
:10554000D671882331F00E948D9ABC01812F0E9470
:1055500027F41F5F143081F782E40E94D6718823FC
:1055600031F00E948D9ABC0184E00E9427F483E50B
:105570000E94D671882309F454C110E00E948D9ACC
:10558000BC01812F0E9427F41F5F1530B9F749C174
:1055900060E070E083E50E94919A8C0160E070E029
:1055A00080E50E94919AB8010E9418F43AC183E5FF
:1055B0000E948D71811106C02CE7E22E22E0F22EAE
:1055C00010E00EC010E00E94B09A682F812F0E9458
:1055D000F7F31F5F1530B9F7EFCF1F5F143071F08D
:1055E000F70181917F010E948D718823B1F30E94A0
:1055F000B09A682F812F0E94F7F3EFCF82E40E94C8
:105600008D71882331F00E94B09A682F84E00E9447
:10561000F7F30E9413F305C183E50E94D671882336
:1056200009F466C00E94B09A823049F1833009F4CF
:105630004BC0813009F05CC09CE7E92E92E0F92E66
:1056400010E0F70181917F010E94D671882341F01B
:105650000E94B09A2FEF4FEF682F812F0E9481F3A5
:105660001F5F143071F782E40E94D671882309F419
:105670003FC00E94B09A2FEF4FEF682F21C08CE7F8
:10568000E82E82E0F82E10E0F70181917F010E9460
:10569000D671882341F00E94B09A2FEF482F6FEF08
:1056A000812F0E9481F31F5F143071F782E40E9402
:1056B000D6718823E9F00E94B09A2FEF482F6FEF40
:1056C00084E00E9481F314C00CE712E0F80181919C
:1056D0008F010E94D67181110E94B09AF2E00038C9
:1056E0001F07A1F782E40E94D67181110E94B09A2F
:1056F0000E9413F396C081E0809333051092CD157C
:1057000060E083E50E94FD9C81118BC00E94F589B9
:1057100088C083E50E948D71882339F00E94FE9B2A
:105720008093620D0E94EB717CC00E943B7386E8FF
:105730009AE00E9455728091620D882319F082E6EA
:1057400096E002C08FE798E00E9455728AE00E94BE
:10575000463067C00E94939764C00E94C2A96D330F
:1057600071058105910520F083EB9AE00E9418FAFB
:105770008FEA9AE00E9418FA84EE80938C0B0E94C4
:10578000E3710E94FDC08BE99AE00E9455728BE59F
:1057900096E190936F0380936E036091170270916E
:1057A00018026F3F2FEF7207E1F12091870B4091B4
:1057B000880B88E596E50E94D93F8FEF9FEF909385
:1057C00018028093170281E08093030E2AC00E9482
:1057D00028D627C000915C0C10915D0C0E9489D2E4
:1057E0006093340C7093350C8093360C9093370C87
:1057F0000023B9F00E943B7384E50E944630B80153
:105800007727072E000C880B990B0E94BA3080E294
:105810000E94463083EC99E00E94557202C00E94BB
:1058200028D63FA1311102C00E94E5898EA1809344
:10583000DF020BC30E94C19E0E9489D26093340C88
:105840007093350C8093360C9093370C80915802EE
:1058500090915902A0915A02B0915B028093E202AA
:105860009093E302A093E402B093E50280911B02BF
:1058700090911C029093E1028093E00284E690E014
:1058800090931C0280931B0281E0809369030E9425
:105890008DA78AE50E948D71F82E88E50E948D7192
:1058A000182F89E50E948D711813A0C0F11611F010
:1058B000012F04C001E011E0FF24F39480916B03F9
:1058C00082FD61C082E50E94D671882309F45BC025
:1058D0000E9456714B015C0120E030E0A9010F9459
:1058E000A608882309F44FC0111103C0002309F44E
:1058F00054C020E030E0A901C501B4010F94860F27
:10590000762E872E982EA92EB090740FC090750F0A
:10591000D090760FE090770F2B2D3C2D4D2D5E2DE6
:105920000F94A60887FD03C0B72C6401EA2C80E021
:1059300090E0A0E8B0E48C8F9D8FAE8FBF8F2FE7F3
:1059400036E948E15BE46B2D7C2D8D2D9E2D0F9467
:10595000A60887FF05C03B2D2C2D9D2D8E2D04C044
:105960003FE726E998E18BE4432F522F692F782FE8
:1059700049835A836B837C83BE01645E7F4FCE0173
:1059800001960E9483A4112319F080E00E9431A6A1
:10599000002319F081E00E9431A6FF2019F082E077
:1059A0000E9431A60E94D2A480916803809369036B
:1059B0008091E2029091E302A091E402B091E502AD
:1059C0008093580290935902A0935A02B0935B02BD
:1059D0008091E0029091E10290931C0280931B025F
:1059E00083E0809356020E94E0A61BCF082F66CF6B
:1059F00088E50E948D718111179889E50E948D714B
:105A0000882311F0169813988AE50E948D718111F0
:105A1000149885E40E948D71882309F402CF1598AB
:105A200000CF60E084EA96E00E9469EB1798169830
:105A3000139814981598F5CE0E9446710E949C897F
:105A4000F0CE83E50E94D671882359F00E945671EA
:105A50000F94F210CB010E94F97D61E080E00E947A
:105A60007C6A0F948C01DDCE83E50E94D671182FDD
:105A7000811105C082E50E94D671882341F10E9400
:105A800056710F94F210CB010E94F97D61E081E024
:105A90000E947C6A60919B0F70919C0F072E000CF6
:105AA000880B990B0F94AD084B015C014090970F48
:105AB0005090980F6090990F70909A0FA3019201E7
:105AC0000F94E611181634F1112359F001E00F94E8
:105AD0008C01002309F4A5CE612F8F2D0E94A07E9A
