:100000000C94CB180C94FC180C94FC180C94FC1851
:100010000C94FC180C94FC180C94FC180C94FC1810
:100020000C94FC180C94FC180C94FC180C94FC1800
:100030000C94FC180C94FC180C94FC180C94FC18F0
:100040000C94FC180C94154D0C94FC180C94FC1892
:100050000C94FC180C94FC180C94A4BE0C94D2457F
:100060000C94FC180C9408430C94FC180C94FC1889
:100070000C94FC180C94FC180C94FC180C94FC18B0
:100080000C94FC180C94FC180C94FC180C94FC18A0
:100090000C94FC180C94FC180C94FC180C94FC1890
:1000A0000C94FC180C94FC180C94FC180C94FC1880
:1000B0000C94FC180C94FC180C94FC180C94FC1870
:1000C0000C94FC180C94FC180C94FC180C94FC1860
:1000D0000C94FC180C94FC180C94FC180C94FC1850
:1000E0000C94FC184C434F433E43424348438643E1
:1000F000534357435D43614365436B436F437343CE
:10010000864379437D438143EE44F344F8440245FA
:100110000C45854516451E45264530453A4544451E
:1001200053455D458545674571457B45DC87E587DA
:10013000EE87F78700881B8828883188098812880D
:10014000084AD73B3BCE016E84BCBFFDC12F3D6C3E
:1001500074319ABD56833DDA3D00C77F11BED9E4A4
:10016000BB4C3E916BAAAABE000000803F05A84C84
:10017000CDB2D44EB93836A9020C50B99186880850
:100180003CA6AAAA2ABE000000803F004E414E496C
:100190004E495459494E46CDCCCC3D0AD7233C1745
:1001A000B7D13877CC2B329595E6241FB14F0A0092
:1001B0000020410000C84200401C4620BCBE4CCA82
:1001C0001B0E5AAEC59D74434F4D4D554E4943418C
:1001D00054494F4E0044525952554E004552524FC9
:1001E000525300494E464F004543484F0020746F1C
:1001F0006F206C6F6E6720657874727573696F6EAF
:100200002070726576656E7465640A0020636F6C99
:100210006420657874727573696F6E20707265768C
:10022000656E7465640A0047322F4733206261644B
:1002300020706172616D65746572730A00536C653C
:1002400065702E2E2E00456E642066696C65206CEC
:100250006973740A00426567696E2066696C65207F
:100260006C6973740A005344207072696E74696E0D
:1002700067206279746520004E6F742053442070AB
:1002800072696E74696E670A0046696C6520646500
:100290006C657465643A0044656C6574696F6E20C2
:1002A0006661696C65642C2046696C653A20006F54
:1002B00070656E206661696C65642C2046696C65AA
:1002C0003A20002569730025696D20256973002592
:1002D00069682025696D20256973002569642025DA
:1002E00069682025696D20256973002569792025B5
:1002F0006964202569682025696D2025697300508F
:1003000072696E742074696D653A200000012530B1
:100310001D0CFF24311CFF17232F1B0AFFFF0403B2
:10032000080702FF222B1A41420338090236212A0C
:100330001928294527444350726F746563746564B6
:100340002050696E0A00452569202573003344203A
:100350005072696E7465722072656164792E00E86E
:1003600001E301DC01D501C7016F66660044454227
:1003700055473A004B494C4C45442E20004D3131F5
:10038000332053006F6B0048656174696E672064A9
:100390006F6E652E0020573A0045256920257300B1
:1003A0003344205072696E7465722072656164799D
:1003B0002E0042656420646F6E652E0020573A005F
:1003C0004265642048656174696E672E003344207D
:1003D0005072696E746572204F66662E00454D45F9
:1003E0005247454E43595F50415253455200434195
:1003F00053455F4C494748545F4252494748544E21
:1004000045535300544F47474C455F4C4947485468
:100410005300534F4654574152455F504F57455232
:10042000004255494C445F50455243454E54004CA0
:100430004556454C494E475F44415441005A5F5030
:10044000524F4245004155544F4C4556454C005083
:1004500052494E545F4A4F420050524F4752455303
:1004600053004155544F5245504F52545F54454DDF
:100470005000564F4C554D45545249430045455048
:10048000524F4D0053455249414C5F584F4E5F58B3
:100490004F4646004649524D574152455F4E414DE9
:1004A000453A4D61726C696E20312E312E3820280C
:1004B000424C41434B42454C542D334420332E345F
:1004C0002E312920534F555243455F434F44455FDA
:1004D00055524C3A68747470733A2F2F6769746878
:1004E00075622E636F6D2F4D61726C696E46697215
:1004F0006D776172652F4D61726C696E2050524F3D
:10050000544F434F4C5F56455253494F4E3A312E4C
:1005100030204D414348494E455F545950453A3388
:1005200044205072696E7465722045585452554487
:1005300045525F434F554E543A3120555549443A40
:1005400063656465326132662D343161322D343732
:1005500034382D396231322D6335356336326633A6
:10056000363766660A002F2F200066696C616D655C
:100570006E743A20007A5F6D696E3A2000795F6D83
:1005800061783A2000785F6D696E3A20005265709C
:100590006F7274696E6720656E6473746F70207318
:1005A00074617475730A0043290A0061626C6564A2
:1005B00020286D696E2074656D702000436F6C6437
:1005C0002065787472756465732061726520004BD4
:1005D00064200023646566696E65202044454641B9
:1005E000554C545F004B69200023646566696E6555
:1005F000202044454641554C545F004B7020002359
:10060000646566696E65202044454641554C545FDB
:1006100000504944204175746F74756E6520666999
:100620006E69736865642120507574207468652054
:100630006C617374204B702C204B6920616E6420B8
:100640004B6420636F6E7374616E74732066726F97
:100650006D2062656C6F7720696E746F20436F6EDA
:1006600066696775726174696F6E2E680A00504919
:1006700044204175746F74756E65206661696C65A0
:1006800064212074696D656F75740A005448455281
:100690004D414C2052554E415741590054686572A6
:1006A0006D616C2052756E61776179004865617487
:1006B000696E67206661696C65640048656174698C
:1006C0006E67206661696C6564005049442041751D
:1006D000746F74756E65206661696C656421205461
:1006E000656D706572617475726520746F6F2068D6
:1006F0006967680A00204B643A2000204B693A2061
:1007000000204B703A20000A20436C6173736963C8
:1007100020504944200A002054753A2000204B758F
:100720003A2000206D61783A2000206D696E3A20F1
:100730000020643A200020626961733A20004F660D
:100740006673657473206170706C696564004572CE
:10075000723A20546F6F206661722100546F6F20CF
:100760006661722066726F6D207265666572656E75
:10077000636520706F696E740A00454550524F4D95
:100780002064697361626C65640A004D3630302004
:10079000486F74656E6420746F6F20636F6C6420A3
:1007A000746F206368616E67652066696C616D6552
:1007B0006E740A00416374697665204578747275B9
:1007C0006465723A2000556E6B6E6F776E20636FB2
:1007D0006D6D616E643A2022004C696E65204E7525
:1007E0006D626572206973206E6F74204C61737442
:1007F000204C696E65204E756D6265722B312C2020
:100800004C617374204C696E653A20004B494C4C26
:1008100045442E200053544F505045442E20005044
:1008200072696E7465722073746F70706564206491
:10083000756520746F206572726F72732E20466921
:100840007820746865206572726F7220616E642012
:10085000757365204D39393920746F207265737452
:100860006172742E202854656D70657261747572A2
:10087000652069732072657365742E20536574203A
:100880006974206166746572207265737461727434
:10089000696E67290A004E6F20436865636B737544
:1008A0006D2077697468206C696E65206E756D6265
:1008B00065722C204C617374204C696E653A20007F
:1008C000636865636B73756D206D69736D617463C7
:1008D000682C204C617374204C696E653A20004D81
:1008E000313130004D333100534420726561642052
:1008F0006572726F720A00446F6E65207072696E65
:1009000074696E672066696C650A0020496E7661BD
:100910006C696420657874727564657220000000EB
:10092000000000000000000000000000AA430000DA
:10093000DC4320BCBE4C526573756D696E672070D8
:1009400072696E74003344205072696E746572204F
:1009500072656164792E00436C69636B20746F204B
:10096000726573756D652E2E2E004E6F206D6F763D
:10097000652E004D31343520533C696E6465783EF8
:10098000206F7574206F662072616E676520283055
:100990002D31290A00205A3A0020593A0020436F8D
:1009A000756E7420583A0020453A00205A3A0020CB
:1009B000593A00583A0000002200250028002B0078
:1009C0002E003100340002010000050108010B0176
:1009D000000020002300260029002C002F003200F8
:1009E0000001000003010601090100000A0B0209D1
:1009F0000C0D0E08070304010000000000000000B9
:100A000000000000000000000000000000000000E6
:100A100000000000000012111000000000000000A3
:100A200000000000000000000000000000000000C6
:100A300024F4D43050C38E20C2A24017828B701190
:100A4000127A910D816CD90AA861E108C75866072E
:100A5000615143061E4B5D05C145A7041A411104AF
:100A6000093D9803713931034036DB026533910249
:100A7000D4305402802E1D02632CEE01752AC5016C
:100A8000B028A001102781018F2564012B244B0180
:100A9000E0223401AC211F018D200D01801FFC00DC
:100AA000841EED00971DDF00B81CD200E61BC600B7
:100AB000201BBC00641AB200B219A8000A19A000D9
:100AC0006A189900D117910040178B00B516840061
:100AD00031167E00B31579003A157300C7146F0004
:100AE00058146A00EE1366008813630025135E0035
:100AF000C7125B006C12570015125400C11151004F
:100B000070114F0021114B00D61049008D10470085
:100B10004610440002104200C00F4000800F3E000B
:100B2000420F3C00060F3B00CB0E3800930E3700FF
:100B30005C0E3500270E3400F30D3200C10D31007C
:100B4000900D3000600D2E00320D2D00050D2C0093
:100B5000D90C2B00AE0C2900850C29005C0C270059
:100B6000350C27000E0C2600E80B2400C40B2400D3
:100B7000A00B23007D0B23005A0B2100390B210011
:100B8000180B2000F80A1F00D90A1E00BB0A1E001D
:100B90009D0A1D00800A1D00630A1C00470A1B00F5
:100BA0002C0A1B00110A1A00F7091A00DD091900A6
:100BB000C4091900AB091900920917007B09180034
:100BC000630917004C0916003609160020091600A3
:100BD0000A091500F5081500E0081400CC081400F7
:100BE000B8081400A4081400900813007D0812002F
:100BF0006B08130058081200460812003408110050
:100C0000230811001208110001081100F00710005C
:100C1000E0071000D0071000C0071000B0070F0059
:100C2000A107100091070E0083070F0074070F0043
:100C300065070E0057070E0049070E003B070D0021
:100C40002E070E0020070D0013070D0006070D00EC
:100C5000F9060C00ED060D00E0060C00D4060C00B1
:100C6000C8060C00BC060C00B0060C00A4060B0065
:100C700099060C008D060B0082060B0077060B0010
:100C80006C060B0061060A0057060B004C060A00B2
:100C900042060A0038060A002E060A0024060A0048
:100CA0001A060A001006090007060A00FD050900D9
:100CB000F4050900EB050900E2050900D905090062
:100CC000D0050900C7050900BE050900B5050800E3
:100CD000AD050800A50509009C050800940508005D
:100CE0008C050800840508007C05080074050800D0
:100CF0006C050700650508005D050700560508003E
:100D00004E050700470507004005080038050700A5
:100D1000310507002A050700230507001C0506000A
:100D2000160507000F050700080506000205070065
:100D3000FB040600F5040700EE040600E8040600C4
:100D4000E2040700DB040600D5040600CF04060019
:100D5000C9040600C3040600BD040600B70406006B
:100D6000B1040500AC040600A6040600A0040500BA
:100D70009B04060095040500900406008A04050003
:100D800085040500800406007A040500750405004A
:100D9000700405006B04050066040500610405008D
:100DA0005C04050057040500520405004D040500CD
:100DB00048040500430405003E0404003A0405000D
:100DC00035040500300404002C0405002704040049
:100DD000230405001E0404001A0404001604050080
:100DE000110404000D0404000904050004040400B7
:100DF00000040400FC030400F8030400F4030400EE
:100E0000F0030400EC030400E8030400E40304001E
:100E1000E0030400DC030400D8030400D40304004E
:100E2000D0030400CC030400C8030300C50303007F
:100E300024F404D9201BC40C5C0E9804C4095F027E
:100E400065077101F405F900FB04B300480487004D
:100E5000C10369005803550003034500BE023A0070
:100E60008402310053022A002902250004022000D6
:100E7000E4011C00C8011900AF011700980114001B
:100E800084011300710110006101100051010E0076
:100E900043010D0036010B002B010B0020010B005C
:100EA000150109000C01090003010800FB000800FE
:100EB000F3000800EB000700E4000600DE00060077
:100EC000D8000600D2000600CC000500C7000500CF
:100ED000C2000500BD000400B9000400B500040014
:100EE000B1000400AD000400A9000400A500030047
:100EF000A20003009F0004009B0003009800030071
:100F00009500020093000300900003008D00020092
:100F10008B000300880002008600020084000300AA
:100F2000810002007F0002007D0002007B000200C1
:100F300079000200770001007600020074000200D0
:100F400072000100710002006F0002006D000100DC
:100F50006C0002006A0001006900020067000100E5
:100F600066000100650001006400020062000100EB
:100F700061000100600001005F0002005D000100EF
:100F80005C0001005B0001005A00010059000100F3
:100F900058000100570001005600010055000100F3
:100FA00054000100530000005300010052000100F2
:100FB00051000100500001004F0001004E000000F0
:100FC0004E0001004D0001004C0001004B000000EC
:100FD0004B0001004A0001004900010048000000E8
:100FE00048000100470001004600000046000100E3
:100FF00045000000450001004400010043000000DE
:1010000043000100420000004200010041000000D6
:1010100041000100400001003F0000003F000100CE
:101020003E0000003E0001003D0000003D000100C8
:101030003C0000003C0000003C0001003B000000C0
:101040003B0001003A0000003A00010039000000B6
:1010500039000100380000003800000038000100AD
:1010600037000000370001003600000036000000A5
:101070003600010035000000350000003500010099
:101080003400000034000000340001003300000090
:101090003300000033000100320000003200000085
:1010A0003200010031000000310000003100010079
:1010B0003000000030000000300001002F00000070
:1010C0002F0000002F0000002F0001002E00000064
:1010D0002E0000002E0001002D0000002D00000059
:1010E0002D0000002D0001002C0000002C0000004D
:1010F0002C0000002C0001002B0000002B00000041
:101100002B0000002B0001002A0000002A00000034
:101110002A0000002A000100290000002900000028
:10112000290000002900000029000100280000001B
:10113000280000002800000028000000280001000E
:101140002700000027000000270000002700000003
:1011500027000100260000002600000026000000F5
:1011600026000000260001002500000025000000E8
:1011700025000000250000002500000025000100DA
:1011800024000000240000002400000024000000CF
:1011900024000100230000002300000023000000C1
:1011A00023000000230000002300000023000100B2
:1011B00022000000220000002200000022000000A7
:1011C0002200000022000100210000002100000098
:1011D000210000002100000021000000210000008B
:1011E000210001002000000020000000200000007D
:1011F000200000002000000020000000200000006F
:10120000200001001F0000001F0000001F00000060
:101210001F0000001F0000001F0000001F00010051
:101220001E0000001E0000001E0000001E00000046
:101230004D383420582059205A2045004B494C4CF9
:1012400045442E2000202D20496E76616C69642073
:101250006578747275646572206E756D6265722052
:10126000210A0000002100240027002A002D003060
:1012700000330001010000040107010A010102100E
:1012800020200808102040102040800201020108A0
:101290000402010102040810204080804020100850
:1012A00004020180040201804020100804020108A9
:1012B0000402010102040810204080010204081009
:1012C00020408005050505070508080808020202F8
:1012D000020A0A08080404040401010101010101D1
:1012E000010303030303030303040707070C0C0CA8
:1012F0000C0C0C0C0C020202020606060606060680
:10130000060B0B0B0B0B0B0B0B000000000000007F
:1013100000000000000000000000000000000000CD
:1013200000000000000000000000000000000000BD
:1013300000000000000000000000000000000000AD
:10134000000000000000000000000000000000009D
:10135000000000000000000000000000000000008D
:10136000000000000000000000000000000000007D
:10137000000000000000000000000000000000006D
:10138000000000000000000000000000000000005D
:10139000000000000000000000000000000000004D
:1013A000000000000000000000000000000000003D
:1013B000000000000000000000000000000000002D
:1013C000000000000000000000000000000000001D
:1013D000000000000000000000000000000000000D
:1013E00000000000000000000000000000000000FD
:1013F00000000000000000000000000000000000ED
:1014000000000000000000000000000000000000DC
:1014100000000000000000000000000000000000CC
:1014200000000000000000000000000000000000BC
:1014300000000000000000000000000000000000AC
:10144000000000000000000000FFFFFFFFFFFFFFA3
:10145000FFFFFFFFFFFFFFFFFFFFFFFFFFFFFFFF9C
:10146000FFFFFFFFFFFFFFFFFF0000000000000085
:101470000000000000000000003FF87C007F00FF3B
:101480009F1FBFF83FFBF0FFFC3FFC7C00FF83FF8A
:101490009F1F3FFC7FFBF0FFFC3FFE7C00FF87FFB0
:1014A0009F3F3FFE7FFBF0FFFC3FFE7C00FF87FF7E
:1014B0009F7E3FFE7FFBF0FFFC3E3E7C01FF87E00E
:1014C0001F7E3E3E7C03F00FC03E3E7C01F7CFC046
:1014D0001FFC3E3E7C03F00FC03FFE7C01F7CFC0F7
:1014E0001FFC3FFC7FF3F00FC03FF87C01F7CFC03B
:1014F0001FF83FF87FF3F00FC03FFC7C03E3EFC021
:101500001FF83FFC7FF3F00FC03E7E7C03FFEFC06F
:101510001FFC3E7E7FF3F00FC03E3E7C03FFEFC01A
:101520001F7C3E3E7C03F00FC03E3E7E07FFE7E09F
:101530001F7E3E3E7C03F80FC03FFE7FF7FFF7FFA4
:101540009F3E3FFE7FFBFF8FC03FFE7FF7C1F7FF4F
:101550009F3F3FFE7FFBFF8FC03FFE7FF7C1F3FF42
:101560009F1F3FFE7FF9FF8FC03FFC3FF7C1F0FF99
:101570009F1FBFF83FF8FF8FC00000000000000071
:10158000000000000000000000FFFFFFFFFFFFFF62
:10159000FFFFFFFFFFFFFFFFFFFFFFFFFFFFFFFF5B
:1015A000FFFFFFFFFFFFFFFFFF0000000000000044
:1015B000000000000000000000000000000000002B
:1015C000000000000000000000000000000000001B
:1015D000000000000000000000000000000000000B
:1015E00000000000000000000000000000000000FB
:1015F00000000000000000000000000000000000EB
:1016000000000000000000000000000000000000DA
:1016100000000000000000000000000000000000CA
:1016200000000000000000000000000000000000BA
:1016300000000000000000000000000000000000AA
:10164000000000000000000000000000000000009A
:10165000000000000000000000000000000000008A
:10166000000000000000000000000000000000007A
:10167000000000000000000000000000000000006A
:10168000000000000000000000000000000000005A
:10169000000000000000000000000000000000004A
:1016A000000000000000000000000000000000003A
:1016B000000000000000000000000000000000002A
:1016C000000000000000000000000000000000001A
:1016D000000000000000000000000000000000000A
:1016E00000000000000000000000000000000000FA
:1016F00000000000000000000000000000000000EA
:101700000000000000000000001FFFFFFFFFFFFFC0
:10171000600000000001FF400000000000FF8000AA
:10172000000000007F83CF00000C303F87FF800067
:101730000C301F867980000C000F8C30C7838C30F2
:10174000E78C30CFC7CC31F38C30DCECEC33B98C88
:1017500030D86C6C33198C30D06C0C33198C30D879
:101760006C0C33198C30DC6C0E3B198C30CF7C0741
:101770009F198C30C77C038F1940000000000002C5
:10178000600000000000061FFFFFFFFFFFF82020A1
:10179000506C616E6E6572427566666572427974F0
:1017A00065733A20002046726565204D656D6F7245
:1017B000793A2000436F6D70696C65643A204A7510
:1017C0006C20313620323031380A00207C204175BF
:1017D00074686F723A20286E6F6E652C206465669F
:1017E00061756C7420636F6E666967290A00323018
:1017F00031372D31322D32352031323A3030002020
:101800004C61737420557064617465643A200031D2
:101810002E312E380A004D61726C696E0020536FB4
:101820006674776172652052657365740A0020578B
:1018300061746368646F672052657365740A002081
:1018400042726F776E206F75742052657365740AEB
:10185000002045787465726E616C20526573657402
:101860000A00506F77657255700A00737461727464
:101870000A006572726F722077726974696E6720F0
:10188000746F2066696C650A00456E6473746F70CE
:101890007320256320256320256320256300205ABB
:1018A0003A0020593A0020583A00656E6473746F0C
:1018B0007073206869743A2000446F6E652073610C
:1018C00076696E672066696C652E0A004D323900B4
:1018D000436172642072656D6F7665640043617266
:1018E0006420696E7365727465640000060900FE09
:1018F0000701920321207FFF07FF07FF000000067A
:1019000000000107070602008080808080008003BD
:101910000202060105A0A00507070600005050F8C6
:1019200050F850500507070600002078A07028F0F6
:1019300020050707060000C0C810204098180507BA
:10194000070600006090A040A8906802030306010B
:1019500004C04080030707060100204080808040CB
:101960002003070706010080402020204080050555
:101970000506000120A870A8200505050600012025
:1019800020F820200203030602FFC0408005010169
:10199000060003F8020202060200C0C005050506A3
:1019A00000010810204080050707060000708888A5
:1019B0008888887003070706010040C04040404007
:1019C000E0050707060000708808708080F80507AA
:1019D00007060000F81020100808F00507070600A9
:1019E0000010305090F81010050707060000F8802E
:1019F000F008088870050707060000708080F088EE
:101A00008870050707060000F80810202020200530
:101A10000707060000708888708888700507070629
:101A2000000070888878080870020505060200C06A
:101A3000C000C0C00206060602FFC0C000C0408051
:101A40000407070600001020408040201005030313
:101A5000060002F800F80407070601008040201085
:101A6000204080050707060000708808102000202D
:101A700005070706000070880868A8A87005070712
:101A8000060000708888F888888805070706000027
:101A9000F08888F08888F0050707060000708880C5
:101AA00080808870050707060000F088888888888D
:101AB000F0050707060000F88080F08080F8050731
:101AC00007060000F88080F0808080050707060088
:101AD00000708880B888887005070706000088882D
:101AE00088F8888888010707060200808080808047
:101AF0008080050707060000381010101090600560
:101B000007070600008890A0C0A090880507070678
:101B10000000808080808080F8050707060000882C
:101B2000D8A8888888880507070600008888C8A87C
:101B3000988888050707060000708888888888705C
:101B4000050707060000F08888F0808080050707F9
:101B500006000070888888A89068050707060000BE
:101B6000F08888F0A090880507070600007880803C
:101B7000700808F0050707060000F8202020202044
:101B80002005070706000088888888888870050770
:101B90000706000088888888885020050707060007
:101BA000008888888888A85005070706000088886C
:101BB0005020508888050707060000888888502034
:101BC0002020050707060000F80810204080F803D1
:101BD0000707060100E08080808080E0050505069B
:101BE00000018040201008030707060100E02020C4
:101BF000202020E005030306000420508805010191
:101C0000060000F8020202060205804005050506EE
:101C1000000070087888780507070600008080B00B
:101C2000C88888F00505050600007080808870056A
:101C300007070600000808689888887805050506E3
:101C400000007088F880700507070600003048E043
:101C5000404040400506060600FF708888780870FE
:101C60000507070600008080B0C88888880107073C
:101C7000060200800080808080800308080601FF43
:101C8000200020202020A0400407070600008080BC
:101C900090A0C0A090030707060100C0404040404C
:101CA00040E0050505060000D0A8A8A8A805050580
:101CB000060000B0C8888888050505060000708801
:101CC0008888700506060600FFF08888F080800589
:101CD00006060600FF7888887808080505050600CE
:101CE00000B0C8808080050505060000708070087F
:101CF000F00407070600004040E040404030050582
:101D00000506000088888898680505050600008893
:101D1000888850200505050600008888A8A8500579
:101D2000050506000088502050880506060600FFBD
:101D3000888888780870050505060000F81020409E
:101D4000F8030707060100204040804040200107BB
:101D500007060200808080808080800307070601DC
:101D6000008040402040408005020206000268904A
:101D7000000000060000627573793A207061757387
:101D8000656420666F7220696E7075740A006275F2
:101D900073793A2070617573656420666F7220757F
:101DA0007365720A00627573793A2070726F6365A9
:101DB0007373696E670A004D363030004B494C4CE6
:101DC00045442E20004B494C4C206361757365647B
:101DD000206279204B494C4C20627574746F6E2FD1
:101DE00070696E0A004B494C4C45442E20004B490B
:101DF0004C4C2063617573656420627920746F6F49
:101E0000206D75636820696E6163746976652074FE
:101E1000696D65202D2063757272656E7420636F25
:101E20006D6D616E643A2000506C6561736520725F
:101E300065736574005052494E5445522048414CD8
:101E4000544544005072696E7465722068616C7408
:101E500065642E206B696C6C28292063616C6C654D
:101E600064210A00656E7175657565696E6720226B
:101E7000007C3C3E5E2B3D3F2F5B5D3B2C2A225C71
:101E80000048617264636F646564204465666175CF
:101E90006C742053657474696E6773204C6F616451
:101EA00065640A00F4010000F4010000F401000080
:101EB000F4010000000016430000164300004842F1
:101EC000000096420000C8422BC7B142B85E9D4355
:101ED0000040EE4320440020490020204D333034A0
:101EE00020500020440020490020204D3330312074
:101EF00050005049442073657474696E67733A0AE0
:101F00000020460020420020480020204D3134357A
:101F10002053004D6174657269616C20686561745D
:101F2000757020706172616D65746572733A0A0034
:101F3000205A0020590020204D32303620580048C9
:101F40006F6D65206F66667365743A0A0020450000
:101F5000205A002059002058002042002054002020
:101F6000204D323035205300416476616E636564E4
:101F70003A20533C6D696E5F666565647261746595
:101F80003E20543C6D696E5F74726176656C5F666D
:101F9000656564726174653E20423C6D696E5F7375
:101FA00065676D656E745F74696D655F75733E20FE
:101FB000583C6D61785F78795F6A65726B3E205A34
:101FC0003C6D61785F7A5F6A65726B3E20453C6D5F
:101FD00061785F655F6A65726B3E0A00205400207D
:101FE000520020204D323034205000416363656C34
:101FF00065726174696F6E2028756E6974732F73D2
:1020000032293A20503C7072696E745F6163636577
:102010006C3E20523C726574726163745F616363ED
:10202000656C3E20543C74726176656C5F616363DD
:10203000656C3E0A00204500205A002059002020EF
:102040004D3230312058004D6178696D756D2041F9
:102050006363656C65726174696F6E2028756E6963
:1020600074732F7332293A0A00204500205A002049
:10207000590020204D3230332058004D6178696D71
:10208000756D206665656472617465732028756E70
:102090006974732F73293A0A00204500205A0020E2
:1020A000590020204D393220580053746570732038
:1020B00070657220756E69743A0A0020204D3230C6
:1020C000302044300A0020204D323030204400209F
:1020D00044697361626C65640A0046696C616D6590
:1020E0006E742073657474696E67733A0020204DB6
:1020F0003134392043203B20556E69747320696E5A
:102100002043656C736975730A00202047323120C3
:102110002020203B20556E69747320696E206D6D00
:102120000A004D6F76652058004D6F766520590086
:102130004D6F7665205A004578747275646572003B
:102140004D6F766520302E316D6D004D6F766520B8
:10215000316D6D004D6F76652031306D6D004D6FC6
:10216000766520617869730045787472756465726C
:10217000004D6F7665205A004D6F76652059004DF1
:102180006F76652058004578747275646572004DED
:102190006F7665205A004D6F76652059004D6F7639
:1021A00065205800507265706172650052657374E5
:1021B0006F7265206661696C736166650046696C63
:1021C000616D656E74004D6F74696F6E0054656D5E
:1021D0007065726174757265004D61696E00507250
:1021E0006568656174205045544720636F6E6600D2
:1021F00050726568656174206E47656E20636F6E0E
:1022000066005049442D44005049442D4400504933
:10221000442D49005049442D49005049442D500057
:102220005049442D50002008204661637400200866
:102230002046616374002008204D6178002008204A
:102240004D6178002008204D6178002008204D69FC
:102250006E002008204D696E002008204D696E0038
:102260004F6666004F6E20004175746F74656D7027
:102270000046616E20737065656420320046616EB1
:1022800020737065656420320046616E207370654E
:10229000656420320046616E20737065656420318C
:1022A0000046616E20737065656420310046616E82
:1022B0002073706565642031004265640042656486
:1022C000004E6F7A7A6C65004E6F7A7A6C650043C7
:1022D0006F6E74726F6C004D3630302042300043A8
:1022E00068616E67652066696C616D656E74004635
:1022F0006C6F7700466C6F770046616E2073706577
:10230000656420320046616E20737065656420321A
:102310000046616E20737065656420320046616E10
:1023200020737065656420310046616E20737065AE
:10233000656420310046616E2073706565642031EC
:102340000042656400426564004E6F7A7A6C6500F5
:102350004E6F7A7A6C6500537065656400537065E2
:102360006564005370656564004D61696E0050726C
:102370006568656174206E47656E20456E64005027
:10238000726568656174206E47656E204265640001
:1023900050726568656174206E47656E00507265A5
:1023A00070617265005072656865617420504554B3
:1023B0004720456E64005072656865617420504521
:1023C000544720426564005072656865617420500E
:1023D0004554470050726570617265004D34323863
:1023E0000050726568656174206E47656E00436FCA
:1023F0006F6C646F776E004368616E676520666915
:102400006C616D656E740044697361626C65207304
:1024100074657070657273004D38340053657420B4
:10242000686F6D65206F66667365747300507265C2
:1024300068656174205045544700486F6D652058A9
:1024400000473238004D6F76652061786973004D22
:1024500061696E0020204E6F7A7A6C653A20002008
:10246000004261636B004D696E696D756D20546546
:102470006D70206973203130302E004865617469B9
:102480006E67206661696C65640045787472756476
:1024900065206D6F726500526573756D6520707291
:1024A000696E7400524553554D45204F5054494F65
:1024B0004E533A0020204E6F7A7A6C653A200063C2
:1024C00068616E6765006F66207468652066696C78
:1024D000616D656E74005761697420666F72207358
:1024E00074617274005052494E5420504155534506
:1024F000440020204E6F7A7A6C653A2000200066F6
:10250000696C616D656E7420756E6C6F61640057E7
:1025100061697420666F72005052494E54205041D8
:10252000555345440020204E6F7A7A6C653A20005E
:102530002000506C6561736520776169742E2E2EC2
:102540000048656174696E67206E6F7A7A6C650009
:102550005052494E54205041555345440020204E7E
:102560006F7A7A6C653A2000200068656174206E8D
:102570006F7A7A6C652E0050726573732062757481
:10258000746F6E20746F005052494E542050415564
:102590005345440020204E6F7A7A6C653A200074CF
:1025A0006F20636F6E74696E75652E2E2E00616EDE
:1025B0006420707265737320627574746F6E004965
:1025C0006E736572742066696C616D656E7400501F
:1025D00052494E54205041555345440020204E6FDF
:1025E0007A7A6C653A2000200066696C616D656ED0
:1025F00074206C6F6164005761697420666F7200AB
:102600005052494E54205041555345440020204ECD
:102610006F7A7A6C653A2000200066696C616D659E
:102620006E742065787472756465005761697420F2
:10263000666F72005052494E5420504155534544E4
:1026400000746F20726573756D6500576169742041
:10265000666F72207072696E74005052494E542039
:102660005041555345440056652D6A65726B0056BE
:10267000652D6A65726B0056652D6A65726B005632
:102680007A2D6A65726B00567A2D6A65726B0056F8
:10269000792D6A65726B0056792D6A65726B0056EA
:1026A000792D6A65726B0056782D6A65726B0056DB
:1026B000782D6A65726B0056782D6A65726B004DD5
:1026C0006F74696F6E004573746570732F6D6D0064
:1026D0004573746570732F6D6D005A7374657073F4
:1026E0002F6D6D005A73746570732F6D6D00597383
:1026F000746570732F6D6D005973746570732F6DF1
:102700006D005873746570732F6D6D005873746528
:1027100070732F6D6D004D6F74696F6E005374652B
:1027200070732F6D6D004A65726B00416363656C59
:1027300065726174696F6E0056656C6F6369747958
:1027400000436F6E74726F6C0046696C2E20446992
:10275000612E0046696C2E204469612E004F66662A
:10276000004F6E20004520696E206D6D3300436F71
:102770006E74726F6C0043616E6E6F7420656E7460
:102780006572207375626469723A2000022E2E0011
:102790004D61696E0025753A25303275002530325D
:1027A000753A253032750025756420253032753A2A
:1027B00025303275005A00590058000920000000E9
:1027C000000000000000000000007FFFE0000000AB
:1027D0000000000000000000007000E000000000A9
:1027E000000000000000000061F860000000000030
:1027F0000000000000000041F82000000000000080
:1028000000000000000040F0200000000000000078
:1028100000000000004060200000000000000000F8
:10282000000000005801A07F8000000000000000B0
:102830004104005C63A0FFC0000000000000002015
:1028400082005EF7A0FFC0000000000000002082B0
:10285000005EF7A0FFC0000000000000004104007F
:102860005C63A07F80000000000000008208005828
:1028700001A07F8000000000000001041000406003
:1028800020FFC00000000000000104100040F02004
:10289000FFC00000000000000082080041F820FF97
:1028A000C00000000000000041040061F8603F002B
:1028B000000000000000000000007000E01E0000AA
:1028C000000000000001FFFF807FFFE00C0000001F
:1028D0000000000001FFFF80000000000000000079
:1028E000000000000000007FFFE00000000000008A
:1028F0000000000000007000E00000000000000088
:102900000000000000630C600000000000000000F8
:1029100000000000470E2000000000000000000042
:102920000000004F0F200000000000000000000029
:1029300000005F0FA0000000000000000000000089
:10294000005E07A07F80000000000000004104003E
:10295000406020FFC0000000000000002082004016
:10296000F020FFC00000000000000020820040F0C6
:1029700020FFC00000000000000041040040602073
:102980007F80000000000000008208005E07A07F3A
:1029900080000000000000010410005F0FA0FFC0D5
:1029A000000000000000010410004F0F20FFC000D5
:1029B000000000000000820800470E20FFC0000059
:1029C0000000000000410400630C603F00000000B4
:1029D000000000000000007000E01E000000000089
:1029E000000001FFFF807FFFE00C000000000000FE
:1029F0000001FFFF8000000000060900FE0000004B
:102A0000000001090008FE0000050808060000405B
:102A1000F0C88888987810050808060000C0F88873
:102A200088888888F80505050600012030F83020E0
:102A30000508080600002070F820202020E0050985
:102A4000090600FF2070A8A8B88888702005090929
:102A50000600FFE080C0B0A8283028280509090634
:102A600000FFF8A88888888888A8F8050A0A060060
:102A7000FE205050505088A8A88870030303060019
:102A80000340A0406175746F25692E67004D323494
:102A9000004D32332025730057726974696E6720C8
:102AA000746F2066696C653A20006F70656E2066F1
:102AB00061696C65642C2046696C653A20006F7012
:102AC000656E206661696C65642C2046696C653AA8
:102AD000200046696C652073656C65637465640AE3
:102AE000002053697A653A200046696C65206F7052
:102AF000656E65643A20006F70656E206661696C72
:102B000065642C2046696C653A20002066696C6516
:102B10003A2000646F696E67006672657368004EE4
:102B20006F772000454E4420535542524F5554492B
:102B30004E450A002220706F73002220706172657A
:102B40006E743A2200535542524F5554494E452017
:102B500043414C4C207461726765743A22004B49C2
:102B60004C4C45442E2000747279696E6720746F56
:102B70002063616C6C207375622D67636F646520E0
:102B800066696C6573207769746820746F6F206D57
:102B9000616E79206C6576656C732E204D415820EE
:102BA0006C6576656C2069733A004572726F723A93
:102BB0000043616E6E6F74206F70656E2073756276
:102BC00064697220006563686F3A0020746F6F203B
:102BD0006C6F6E6720657874727573696F6E2070A4
:102BE000726576656E7465640A0020636F6C64209C
:102BF000657874727573696F6E2070726576656E34
:102C00007465640A001000C90210012C0140012201
:102C10000170011801B0010E01F00104015002FA27
:102C200000B002F0003003E600D003DC009004D2D4
:102C3000007005C800A006BE000008B400B009AAD4
:102C400000D00BA000600E960060118C0000158271
:102C50000020197800C01D6E00A0226400B0275A21
:102C600000902C500000314600E0343C0010383217
:102C700000903A2800603C1E00A03D1400803E0AEF
:102C800000203F00003A004361703A0053657474BD
:102C9000696E672054726176656C20416363656C70
:102CA00065726174696F6E3A200053657474696E61
:102CB00067205265747261637420416363656C655B
:102CC000726174696F6E3A200053657474696E673F
:102CD000205072696E7420416363656C6572617423
:102CE000696F6E3A200053657474696E6720507284
:102CF000696E7420616E642054726176656C204147
:102D00006363656C65726174696F6E3A2000205A66
:102D100000205900580020204D61783A2000205AA8
:102D200000205900580020204D696E3A20004F6E57
:102D300020004F666600536F667420656E6473747E
:102D40006F70733A200020643A0020693A002070C6
:102D50003A0020643A0020693A0020703A004E6F31
:102D60002063617365206C696768740A0000000065
:102D7000000000DC43000000000000484200004862
:102D80004200008040000000005761726E696E676B
:102D90003A20486F6D696E672042756D70204469F6
:102DA0007669736F72203C20310A00020204000031
:102DB000A04000000000000000000000AA43000046
:102DC000DC4320BCBE4CFF01FF486F6D65202573BE
:102DD00025732573206669727374002066697273A7
:102DE000740A005A0059005800486F6D652000535E
:102DF000442063617264206F6B0A006F70656E52CD
:102E00006F6F74206661696C65640A00766F6C751B
:102E10006D652E696E6974206661696C65640A006F
:102E2000534420696E6974206661696C0A004531FB
:102E30003A200045303A20005A3A2000593A200002
:102E4000583A20004D53312C4D53322050696E7347
:102E50000A0002FFFFFFFF00010101016265640A31
:102E6000002C2073797374656D2073746F707065B6
:102E70006421204865617465725F49443A200048C6
:102E8000656174696E67206661696C656400486598
:102E90006174696E67206661696C6564004865618C
:102EA00074696E67206661696C6564004865617469
:102EB000696E67206661696C6564001000C9021064
:102EC00001FF004001F5007001EB00B001E100F0EE
:102ED00001EB005002E100B002D7003003CD00D07A
:102EE00003C3009004B9007005AF00A006A5000060
:102EF000089B00B0099100D00B8700600E74006041
:102F0000116C000015640020195D00C01D5700A061
:102F1000225000B0274900902C420000313B00E0D5
:102F200034350010382E00903A2700603C1E00A077
:102F30003D1400803E0A00203F0000544845524D99
:102F4000414C2052554E4157415900546865726DAD
:102F5000616C2052756E61776179004572723A201A
:102F60004D494E54454D5020424544004572723AF9
:102F7000204D494E54454D50004D494E54454D50FD
:102F800020747269676765726564004572723A20E1
:102F90004D415854454D5020424544004572723AC7
:102FA000204D415854454D50004D415854454D50C9
:102FB0002074726967676572656400202F00204283
:102FC000403A0020403A0042656400426564004295
:102FD0006564004E6F7A7A6C65004E6F7A7A6C6524
:102FE000004E6F7A7A6C650046616E20737065657D
:102FF000640046616E2073706565640046616E20F2
:1030000073706565640054656D7065726174757286
:1030100065005654726176206D696E005654726177
:1030200076206D696E005654726176206D696E006F
:10303000566D696E00566D696E00566D696E00566C
:103040006D6178204500566D6178204500566D61B0
:1030500078204500566D6178205A00566D617820C1
:103060005A00566D6178205A00566D6178205900DB
:10307000566D6178205900566D6178205900566D63
:103080006178205800566D6178205800566D61783F
:103090002058004D6F74696F6E00416D6178204556
:1030A00000416D6178204500416D6178205A0041F2
:1030B0006D6178205A00416D6178205900416D6141
:1030C00078205900416D6178205800416D61782069
:1030D0005800412D74726176656C00412D747261E7
:1030E00076656C00412D7265747261637400412DC8
:1030F0007265747261637400416363656C0041635F
:1031000063656C004D6F74696F6E00526573656E18
:10311000643A20006F6B005072696E7420706175A4
:1031200073656400005072696E742061626F72741E
:103130006564005072696E742066726F6D2053442E
:103140000053746F70207072696E740052657375ED
:103150006D65207072696E74004E6F205344206359
:10316000617264005061757365207072696E7400DD
:10317000436F6E74726F6C0050726570617265009F
:1031800054756E6500496E666F2073637265656E77
:1031900000001BE10AE011241FBECFEFD1E2DEBF29
:1031A000CDBF00E00CBF13E0A0E0B2E0E2EAF0EE39
:1031B00001E00BBF02C007900D92A23AB107D9F708
:1031C00024E1A2EAB3E001C01D92A637B207E1F7FD
:1031D00018E1CAECD8E100E006C021970109802F70
:1031E000FE010E94AFEFC93CD10780E00807A9F7B4
:1031F0000E94A7D90C9440F00C9400002F923F92AB
:103200004F925F926F927F928F929F92AF92BF92F6
:10321000CF92DF92EF92FF920F931F93CF93DF93A2
:10322000CDB7DEB7C35AD1090FB6F894DEBF0FBED3
:10323000CDBF81E090E090932B0B80932A0B80917F
:10324000D7138D3409F488C6843511F40C94B93140
:10325000873411F00C94FB318091D5139091D613E3
:103260008430910509F4B4C554F497FF02C00C945E
:103270001532209148028230910594F52CC08A3590
:10328000910509F4F0C564F48B31910509F4E7C5A3
:103290004C9711F00C9415320E94CCB60C94153258
:1032A0008B35910509F4E3C58C35910511F00C942B
:1032B00015320E94954C34E9232E32E0332E4FE133
:1032C000C42E4FE0D42EE12CF12C00E010E0289623
:1032D0001FAE28970DC621110C941C320C94153288
:1032E000222311F40C94153211E0029709F010E03A
:1032F0000E94AC3C82E50E94F73B882309F45CC144
:103300000E94953B6B017C0140904E0F50904F0FF7
:103310006090500F7090510F8091520F9091530F09
:10332000A091540FB091550F2B968CAF9DAFAEAFBF
:10333000BFAF2B9720912E0F30912F0F4091300F60
:103340005091310F2F962CAF3DAF4EAF5FAF2F97FF
:103350008091320F9091330FA091340FB091350FBF
:103360006B968CAF9DAFAEAFBFAF6B9720E030E0F8
:10337000A901C701B6010E94A7E8882309F40EC578
:10338000A30192012F966CAD7DAD8EAD9FAD2F97B1
:103390000E94A7E8811111C02B962CAD3DAD4EAD1A
:1033A0005FAD2B976B966CAD7DAD8EAD9FAD6B9782
:1033B0000E94A7E8882309F4F1C420E030E0A901C5
:1033C000C701B6010E94A7E8881F8827881F181325
:1033D0000BC020E030E040E85FE3A3962CAF3DAFA8
:1033E0004EAF5FAFA3970AC080E090E0A0E8BFEBCC
:1033F000A3968CAF9DAFAEAFBFAFA397A3019201D1
:103400002F966CAD7DAD8EAD9FAD2F970E94A7EC32
:1034100067966CAF7DAF8EAF9FAF67972B962CAD45
:103420003DAD4EAD5FAD2B976B966CAD7DAD8EAD6A
:103430009FAD6B970E94A7EC6F966CAF7DAF8EAF80
:103440009FAF6F9767962CAD3DAD4EAD5FAD679763
:10345000CA01B9010E940CE94B015C016F962CADC9
:103460003DAD4EAD5FAD6F97CA01B9010E940CE949
:103470009B01AC01C501B4010E94A8EC0E9413EFAE
:1034800063966CAF7DAF8EAF9FAF639720E030E067
:1034900040E05FE30E940CE94B015C01A70196014B
:1034A000C701B6010E940CE96B017C01A5019401E2
:1034B000C501B4010E940CE99B01AC01C701B60132
:1034C0000E94A7EC0E9413EF9B01AC01A3966CAD88
:1034D0007DAD8EAD9FADA3970E940CE94B015C01C1
:1034E0002F962CAD3DAD4EAD5FAD2F97C301B20110
:1034F0000E94A8EC20E030E040E05FE30E940CE98D
:103500006B017C016F966CAD7DAD8EAD9FAD6F97FD
:10351000905863962CAD3DAD4EAD5FAD63970E9464
:1035200084ED9B01AC01C501B4010E940CE99B0133
:10353000AC01C701B6010E94A8ECA30192010E9450
:10354000A7EC6B017C016B962CAD3DAD4EAD5FAD34
:103550006B972B966CAD7DAD8EAD9FAD2B970E947A
:10356000A8EC20E030E040E05FE30E940CE92B0192
:103570003C0163962CAD3DAD4EAD5FAD6397679654
:103580006CAD7DAD8EAD9FAD67970E9484ED9B01C4
:10359000AC01C501B4010E940CE99B01AC01C3015F
:1035A000B2010E94A8EC2B962CAD3DAD4EAD5FADA7
:1035B0002B970E94A7EC14C089E40E94F73B882354
:1035C00029F00E94953B6B017C0103C0C12CD12CDA
:1035D00076018AE40E94F73B8823F9F00E94953B2C
:1035E0006B966CAF7DAF8EAF9FAF6B9720E030E0F6
:1035F000A901C701B6010E94A7E881111EC020E001
:1036000030E0A9016B966CAD7DAD8EAD9FAD6B9733
:103610000E94A7E8811111C0C1C320E030E0A901D8
:10362000C701B6010E94A7E8882309F4B7C36B96C7
:103630001CAE1DAE1EAE1FAE6B97A7019601505873
:103640002B962CAF3DAF4EAF5FAF2B976B968CADEB
:103650009DADAEADBFAD6B97B0582F968CAF9DAF03
:10366000AEAFBFAF2F97CA01B9010E940CE94B0161
:103670005C012F962CAD3DAD4EAD5FAD2F97CA01CD
:10368000B9010E940CE99B01AC01C501B4010E9483
:10369000A8EC0E9413EFE3966CAF7DAF8EAF9FAFA7
:1036A000E39720914E0F30914F0F4091500F509162
:1036B000510F63962CAF3DAF4EAF5FAF6397A7013D
:1036C000960163966CAD7DAD8EAD9FAD63970E9404
:1036D000A8ECA3966CAF7DAF8EAF9FAFA397809100
:1036E000520F9091530FA091540FB091550F6F96B8
:1036F0008CAF9DAFAEAFBFAF6F976B962CAD3DADAE
:103700004EAD5FAD6B97BC01CD010E94A8ECA796B2
:103710006CAF7DAF8EAF9FAFA79720912E0F3091EA
:103720002F0F4091300F5091310FAB962CAF3DAF22
:103730004EAF5FAFAB97A3962CAD3DAD4EAD5FAD39
:10374000A397AB966CAD7DAD8EAD9FADAB970E9450
:10375000A7EC6B017C018091320F9091330FA09107
:10376000340FB091350FAF968CAF9DAFAEAFBFAFFA
:10377000AF97A7962CAD3DAD4EAD5FADA797BC0101
:10378000CD010E94A7EC4B015C012091560F3091B6
:10379000570F4091580F5091590FEB962CAF3DAFFA
:1037A0004EAF5FAFEB976091360F7091370F8091FE
:1037B000380F9091390F0E94A7EC67966CAF7DAFE0
:1037C0008EAF9FAF679780913A0F90913B0FA0917A
:1037D0003C0FB0913D0FE7968CAF9DAFAEAFBFAF42
:1037E000E79720915A0F30915B0F40915C0F5091F9
:1037F0005D0FEF962CAF3DAF4EAF5FAFEF97A701D8
:1038000096012B966CAD7DAD8EAD9FAD2B970E9432
:103810000CE92B013C01A50194012F966CAD7DAD07
:103820008EAD9FAD2F970E940CE99B01AC01C301A7
:10383000B2010E94A8EC2B013C01A50194012B963A
:103840006CAD7DAD8EAD9FAD2B970E940CE94B0109
:103850005C01A70196012F966CAD7DAD8EAD9FAD3D
:103860002F970E940CE99B01AC01C501B4010E9495
:10387000A7ECA30192010E941BED6B017C0120E0EB
:1038800030E0A9010E94A7E887FF0AC02BED3FE0C6
:1038900049EC50E4C701B6010E94A8EC6B017C0121
:1038A000112351F02BED3FE049EC50E4C701B60184
:1038B0000E94A7EC6B017C0120E030E0A901C70168
:1038C000B6010E94A7E8811128C0AB962CAD3DAD92
:1038D0004EAD5FADAB9763966CAD7DAD8EAD9FADDC
:1038E00063970E94A7E8811118C0AF962CAD3DAD3B
:1038F0004EAD5FADAF976F966CAD7DAD8EAD9FADAC
:103900006F970E94A7E8811108C06BEDC62E6FE08B
:10391000D62E69ECE62E60E4F62EE3962CAD3DAD96
:103920004EAD5FADE397C701B6010E940CE99B0164
:10393000AC010E940CE94B015C0167962CAD3DADDA
:103940004EAD5FAD6797CA01B9010E940CE99B01BA
:10395000AC01C501B4010E94A8EC0E9413EF4B0119
:103960005C012FE632E143E85AE30E94A7E887FDB5
:1039700011C2C501B4010E941DEE0E94F1ED1B01B0
:10398000672B19F422242394312CB10180E090E0BC
:103990000E94ABE84B015C019B01AC01C701B60181
:1039A0000E9484ED63966CAF7DAF8EAF9FAF63973F
:1039B000A501940167966CAD7DAD8EAD9FAD679707
:1039C0000E9484EDE3966CAF7DAF8EAF9FAFE3971F
:1039D000EF962CAD3DAD4EAD5FADEF97E7966CAD7C
:1039E0007DAD8EAD9FADE7970E94A7ECA501940138
:1039F0000E9484EDE7966CAF7DAF8EAF9FAFE797E7
:103A000063962CAD3DAD4EAD5FAD6397CA01B90174
:103A10000E940CE920E030E040E05FE30E940CE906
:103A20009B01AC0160E070E080E89FE30E94A7EC9E
:103A3000AB966CAF7DAF8EAF9FAFAB97EB968CAD77
:103A40009DADAEADBFADEB9789879A87AB87BC873D
:103A5000EF962CAD3DAD4EAD5FADEF972D873E8718
:103A60004F87588B6091410270914202072E000CE3
:103A7000880B990B0E94ADE82091430230914402DB
:103A800040914502509146020E940CE92AE037ED30
:103A900043E25CE30E940CE968A379A38AA39BA399
:103AA0000E94C6459B01AC0128533F4F4F4F5F4FCB
:103AB000AF962CAF3DAF4EAF5FAFAF9728964FACF0
:103AC000289729965FAC29972A966FAC2A972B9650
:103AD0007FAC2B9741E050E06D965FAF4EAF6D9796
:103AE00059E164965FAF64976D96AEADBFAD6D97CB
:103AF000A215B30509F43DC10E94E4BB0E94C6456E
:103B0000DC01CB01AF962CAD3DAD4EAD5FADAF97B7
:103B1000821B930BA40BB50BB7FD11C00E94C645C9
:103B20009B01AC0128533F4F4F4F5F4FAF962CAFD7
:103B30003DAF4EAF5FAFAF9780E00E94A563649644
:103B40003FAD6497315064963FAF6497332309F4D7
:103B50004BC0AB962CAD3DAD4EAD5FADAB972F9648
:103B60006CAD7DAD8EAD9FAD2F970E940CE96B01C2
:103B70007C0163962CAD3DAD4EAD5FAD6397B20158
:103B8000C3010E940CE9A70196010E94A8EC7B01E9
:103B90008C01AB962CAD3DAD4EAD5FADAB97B20198
:103BA000C3010E940CE94B015C0163962CAD3DAD55
:103BB0004EAD5FAD63972F966CAD7DAD8EAD9FAD75
:103BC0002F970E940CE99B01AC01C501B4010E9432
:103BD000A7EC2B013C01C701D8012F968CAF9DAFFC
:103BE000AEAFBFAF2F9761C06D964EAD5FAD6D9715
:103BF000BA0180E090E00E94ABE863962CAD3DAD49
:103C00004EAD5FAD63970E940CE94B015C010E94D1
:103C100081ED6B017C01C501B4010E9409EF4B01EC
:103C20005C01A70196012B966CAD7DAD8EAD9FAD6D
:103C30002B970E940CE92B013C01A50194016B9686
:103C40006CAD7DAD8EAD9FAD6B970E940CE99B0175
:103C5000AC01C301B2010E94A8EC2B013C01A501FB
:103C600094012B966CAD7DAD8EAD9FAD2B970E94D0
:103C70000CE94B015C01A70196016B966CAD7DAD23
:103C80008EAD9FAD6B970E940CE99B01AC01C50105
:103C9000B4010E94A7EC2F966CAF7DAF8EAF9FAFA3
:103CA0002F9759E164965FAF64979201A301A396A1
:103CB0006CAD7DAD8EAD9FADA3970E94A8EC6983DE
:103CC0007A838B839C832F962CAD3DAD4EAD5FAD3B
:103CD0002F97A7966CAD7DAD8EAD9FADA7970E9437
:103CE000A8EC6D837E838F839887E3962CAD3DADE2
:103CF0004EAD5FADE39769857A858B859C850E9483
:103D0000A8EC69877A878B879C87E7962CAD3DADB9
:103D10004EAD5FADE7976D857E858F8598890E9452
:103D2000A8EC6D877E878F87988B809132028823DD
:103D300021F0CE0101960E945862E090A9138E01F5
:103D4000005E1F4F9E01235F3F4FAE01475F5F4FF5
:103D5000BE016B5F7F4FCE0101960E94C7D76D9663
:103D60008EAD9FAD6D9701966D969FAF8EAF6D979F
:103D7000BBCEE090A9138E01005E1F4F2AE33FE007
:103D800046E35FE062E37FE08EE29FE00E94C7D7F8
:103D90000E94573D0E94613D0C941532EAEAFBE215
:103DA00084918F010F5F1F4F882321F00E94053EF1
:103DB000F801F6CFE7E2F2E084918F010F5F1F4F29
:103DC000882311F40C9415320E94053EF801F4CFBB
:103DD00080E50E94F73B882329F00E94553B6B0148
:103DE0007C0103C0C12CD12C760183E50E94F73BF6
:103DF000882361F00E94953B20E030E04AE754E4DC
:103E00000E940CE90E94F1ED6B017C010E94954C2F
:103E100080914D02811105C060E08DE392E00E9427
:103E20001F5B0E94613D8091350B9091360BA091F4
:103E3000370BB091380BC80ED91EEA1EFB1E0E942C
:103E4000C645DC01CB018C199D09AE09BF09B7FD40
:103E500002C00C94153280E00E94A563F0CF0E944E
:103E6000723C0C9415321092A6030C94153281E02A
:103E70008093A6030C9415320E94953B4B015C0184
:103E80000330110559F0F701E854F44F20813181D6
:103E9000428153810E94A7EC4B015C01F701E25B78
:103EA000F04F2081318142815381C501B4010E94CC
:103EB000A7EC2B013C012DEB37E346E855EB0E94C4
:103EC000CEEE87FD1DC02DEB37E346E855E3C30179
:103ED000B2010E94A7E818169CF00F5F1F4FF4E094
:103EE000CF0ED11C24E0E20EF11C0430110551F17B
:103EF000F10181911F010E94F73B882371F3BCCF30
:103F00000330110569F480925A0F90925B0FA092D2
:103F10005C0FB0925D0FF1E02896FFAF2897DDCFE0
:103F2000A3019201D6016D917D918D919C910E948A
:103F3000A8ECF6016083718382839383C8010E9499
:103F40001C3ACBCF28963FAD289731110E9474B60A
:103F50000E943A420C9415328091D5139091D61359
:103F60008337910509F468C70CF0BDC08B34910507
:103F700009F4C7C40CF060C08831910509F419C276
:103F800074F58231910509F4AFC684F497FF02C03D
:103F90000C941532823091050CF4A9C1419711F0AF
:103FA0000C9415320E9400390C941532853191051C
:103FB00009F4E4C13CF4449711F00C941532E5E5A2
:103FC000F2E099C18631910509F4DCC1479711F0FF
:103FD0000C941532E091D313F091D413DDC18E31DE
:103FE000910509F441C2C4F48A31910509F4F2C182
:103FF0000CF4EAC18B31910509F4FAC14C9711F028
:104000000C94153240E060E08091D3139091D4136A
:104010000E943D970C9415328032910509F432C309
:104020000CF47CC38A32910509F41EC489349105CD
:1040300009F45AC40C9415328936910509F49AC5CD
:1040400044F58335910509F44AC69CF48D349105F5
:1040500009F45FC40CF459C48135910509F424C6F0
:104060008235910511F00C9415321092A5030C9431
:1040700015328535910509F43BC60CF435C68C35EF
:10408000910509F450C68836910509F446C40C948C
:1040900015328E36910509F497C484F48B36910558
:1040A00009F4EAC50CF4E4C58C36910509F410C591
:1040B0008D36910509F4A2C50C941532803791050F
:1040C00009F40AC50CF493C48137910509F408C5B5
:1040D0008237910511F00C9415320E94954C0E9484
:1040E0003A420C9415328C3241E0940709F4DBC754
:1040F0000CF07DC0883C910509F4BDC7ECF589370B
:10410000910509F4AEC71CF58637910509F4E8C698
:1041100074F48537910511F00C94153260E08091AC
:10412000D3139091D4130E943D5B0C9415328737C2
:10413000910509F414C78837910511F00C941532D4
:1041400081E08093AB108093AA100C9415328139D2
:10415000910509F48CC734F48C38910509F4ECC44A
:104160000C9415328B39910509F421C58E3B9105CC
:1041700009F462C50C9415328E3C910509F487C789
:10418000DCF48B3C910509F47AC74CF4893C910529
:1041900011F00C9415320E940EB30C9415328C3C25
:1041A000910509F470C78D3C910511F00C941532FE
:1041B0000E9419B20C9415328C3D910509F46BC71D
:1041C0004CF4833D910511F00C9415320E940EB110
:1041D0000C9415328D3D910509F461C7823E91051D
:1041E00011F00C9415320E945CB00C9415328C3A8C
:1041F000A1E09A0711F40C94592DCCF58E35E1E02D
:104200009E0711F40C941831ACF48E3221E0920721
:1042100009F451C70CF44BC78F3241E0940709F4FD
:10422000A1C78033914011F00C9415320E940CAF5D
:104230000C9415328336A1E09A0711F40C94A13145
:104240003CF48F35914011F40C944D310C9415329F
:104250008039F1E09F0711F40C94562D8A39914072
:1042600011F00C9415320E94ADAE0C9415328835C5
:1042700032E0930711F40C946E2EECF4853F51E07C
:10428000950711F40C94592E4CF4843F914011F091
:104290000C941532EAEAFBE20C94422E863FE1E0F0
:1042A0009E0711F40C945F2E873F914011F40C94FB
:1042B000622E0C9415328C3823E0920711F40C9482
:1042C000FE304CF48B38934011F00C9415320E9460
:1042D0007CAE0C941532803A53E0950709F411C274
:1042E000873E934011F40C94A4310C9415320E9433
:1042F0006C3D0C94153284918F010F5F1F4F882302
:1043000021F00E94053EF801F6CF1092871310921B
:10431000861340E050E0BA0182E391E10E942BC392
:104320008BE1E2E3F1E1DE01159601900D928A95B1
:10433000E1F780913011909131119C838B8389ED4D
:1043400092E09A83898340E050E0BE016F5F7F4F27
:104350008EE793E00E94FE94CE0101960E942B63AB
:10436000E6E4F2E084918F010F5F1F4F882311F480
:104370000C9415320E94053EF801F4CF0E94C0B3A0
:104380000C9415321092DA101092DB100C94153246
:10439000803209F41082319680818111F9CF40E09A
:1043A00061E08091D3139091D4130E943D970C94B7
:1043B00015328091DB10882319F081E08093DA10A8
:1043C0000E9497B50C9415321092DA100E94B2B682
:1043D0000C9415328091DB10882311F40C94153263
:1043E00083E50E94F73B81110C94D0320C94153276
:1043F0008091DB10882351F1E6E6F2E084918F0191
:104400000F5F1F4F882321F00E94053EF801F6CF71
:1044100060917D1370917E1380917F139091801332
:104420004AE00E940D418FE20E94053E609179139F
:1044300070917A1380917B1390917C134AE00E94D3
:104440000D418AE00E94053E0C941532E8E7F2E047
:1044500084918F010F5F1F4F882311F40C94153244
:104460000E94053EF801F4CF8091DB10882311F4FF
:104470000C9415328CEC92E10E94F8C28CEC92E123
:104480000E94B35E1092D9101092D810E090D3130E
:10449000F090D4138091DB10882311F40C94153222
:1044A0000E946BCF1D8218861C821B8289ED92E0D0
:1044B0009A8389838EE291E190934E1180934D11FE
:1044C000F70180818F3209F068C06FE270E0C701A8
:1044D0000E94FDEF8C010F5F1F4F9E012F5F3F4F2A
:1044E00049010115110509F45EC06FE270E0C801D1
:1044F0000E94FDEF6C01009709F456C008171907D8
:1045000008F052C05C01A01AB10AA501B801CE01A1
:1045100080960E9426F0E0E2F0E0EC0FFD1FEA0D2D
:10452000FB1D10828E01005E1F4FD8018D918D0101
:10453000882319F00E94053EF8CF8AE00E94053ECC
:1045400060914D1170914E116115710511F06C5F04
:104550007F4F21E0AE01405E5F4FCE0105960E9485
:10456000BC5E811112C0BE01605E7F4F8FEA92E097
:104570000E9448D68EE20E94053E8AE00E94053ED7
:10458000C4010E942B630C94153290924E118092BC
:104590004D1186010F5F1F4FA4CF8FE491E19093DF
:1045A0004E1180934D11870160914D1170914E1104
:1045B0006115710511F06C5F7F4F18A21BA222E0FC
:1045C000A801CE0180960E94BC5E811102C0F12C30
:1045D00014C0CE0180960E94D9CE8823C1F361E039
:1045E000CE0180960E94AD5F009789F325EEFC0115
:1045F00020831BA20E94EB6DF82ECE0180960E94B4
:104600003E3DFF2009F1E9E8F2E084917F012FEFC0
:10461000E21AF20A882321F00E94053EF701F5CF45
:10462000D8018D918D01882319F00E94053EF8CFA5
:104630008AE00E94053E10927D1310927E13109224
:104640007F131092801318C0E7E9F2E084917F0194
:10465000BFEFEB1AFB0A882321F00E94053EF70109
:10466000F5CFF80181918F01882319F00E94053E52
:10467000F8CF8EE20E94053ECE0101960E942B6388
:104680000C9415328091DA1081110E94954C809122
:10469000DB10882311F40C94153280E50E94F73B5F
:1046A000882319F00E94863B03C080E50E94C83B26
:1046B000182F482F61E08091D3139091D4130E945A
:1046C0003D9783E50E94F73B882381F00E94653B7C
:1046D000AB01BC0140937D1350937E1360937F1315
:1046E000709380138CEC92E10E942BC38091DB10BD
:1046F000882319F081E08093DA1011110C9415329F
:104700005FCE8091D3139091D41321E02093D910E0
:1047100040E060E00E943D970C9415320E9465D005
:104720002CE3C22ED12CE12CF12CA70196010E9482
:104730006CEC762E672ECA01B901A70196010E9482
:104740006CEC6B017C01CA01B90128E130E040E06A
:1047500050E00E946CEC4B015C01C9016DE671E018
:104760000E946CEF8E010F5F1F4F6115710599F06C
:104770006F927F92DF92CF929F928F929F938F93AF
:104780007F936F938BEE92E09F938F931F930F9382
:104790000E9440E812C00097B1F06F927F92DF92C2
:1047A000CF929F928F929F938F938BED92E09F93E6
:1047B0008F931F930F930E9440E80FB6F894DEBFCB
:1047C0000FBECDBF36C081149104A104B10479F0AD
:1047D0006F927F92DF92CF929F928F928FEC92E0B6
:1047E0009F938F931F930F930E9440E8E6CFC114CD
:1047F000D104E104F10469F06F927F92DF92CF92CD
:1048000087EC92E09F938F931F930F930E9440E851
:10481000D4CF6F927F9283EC92E09F938F931F93FC
:104820000F930E9440E80F900F900F900F900F9001
:104830000F9060E0C8010E943D5BE5ECFBE28491D3
:104840007F01BFEFEB1AFB0A882321F00E94053E8F
:10485000F701F5CFB8018FEF92E00E9448D68AE0C9
:104860000E94053E0C94153283E50E94F73B882395
:1048700011F40C9415320E94753BE82E80E50E94DD
:10488000F73B882341F00E94653B8B0177FF02C014
:104890000C94153202C00DE010E0902FECE0F3E034
:1048A0008BE28E0F2491921729F031968E13FACF56
:1048B0000C94E132EAEAFBE284918F010F5F1F4F13
:1048C000882321F00E94053EF801F6CFE7E3F3E0EC
:1048D00084918F010F5F1F4F882311F40C941532C0
:1048E0000E94053EF801F4CF8091DA1081110C94FA
:1048F000153280E50E94C83B81110C94FF320C9464
:1049000015320E9497B50C9415320E94B2B60C94E1
:1049100015320E9476CF0C94153288E690E00E9402
:10492000734181110C9415328091700B83FF02C08A
:104930000C94153283E50E94F73B882309F440C0AC
:104940000E94953B0E94ECED7093A4136093A31317
:1049500080E00E94C0C10E94953B20E030E048E426
:1049600052E40E94A7E818163CF00E9476CF60E05F
:104970008DE493E00E941F5B0E94953B2091750B94
:104980003091760B4091770B5091780B0E94CEEED0
:104990001816B4F484E093E09F938F938091E20F14
:1049A00090E001969F938F9386E493E09F938F937B
:1049B0001F920E947CB50FB6F894DEBF0FBECDBF2C
:1049C0000E9405E40C9415328EE40E94F73B882384
:1049D00011F40C9415320E94653B6093740F709330
:1049E000750F8093760F9093770F0C94153283E5B3
:1049F0000E94C83B882359F083E50E94F73B882337
:104A000019F00E94753B01C080E08093700BE5ECCB
:104A1000FBE284918F010F5F1F4F882321F00E94DA
:104A2000053EF801F6CFEDE6F3E084918F010F5FCC
:104A30001F4F882321F00E94053EF801F6CF809198
:104A4000700B8823A1F19FE5C92E93E0D92EE12CAC
:104A5000F12C20E08091700B90E00E2C02C0959517
:104A600087950A94E2F780FF17C0BB24B394B20E77
:104A7000222319F08CE20E94053EF6012591349123
:104A8000F901849189010F5F1F4F882321F00E9453
:104A9000053E9801F5CF2B2DFFEFEF1AFF0A32E00C
:104AA000C30ED11C45E0E416F104A1F60CC0E9E602
:104AB000F3E084918F010F5F1F4F882321F00E9444
:104AC000053EF801F6CF8AE00E94053E0C941532AF
:104AD000109293020C94153284E793E00E943E6397
:104AE00083E50E94F73B882369F00E94753B8D3374
:104AF00020F480930D020C9415328CE380930D0208
:104B00000C941532E5ECFBE284918F010F5F1F4F8F
:104B1000882321F00E94053EF801F6CF40910D0256
:104B200050E060E070E08DE793E00E94F8538AE087
:104B30000E94053E0C9415328091700B83FF02C0D9
:104B40000C94153283E50E94F73B882311F40C94F2
:104B500015320E94953B0E94ECED663A710514F007
:104B600065EA70E07093A2136093A1130E9475C16F
:104B70000C94153289E690E00E947341811111C0B6
:104B8000E4E8F3E084918F010F5F1F4F882321F049
:104B90000E94053EF801F6CF0E9418BE8AE00E94EE
:104BA000053E10922B0B10922A0B0C94E13783E5F3
:104BB0000E94F73B882311F40C9415320E94753B38
:104BC000182F8D3308F01CE31093300B0E94C6455C
:104BD0006B017C01212F30E0A8EEB3E00E9498EC3D
:104BE000C60ED71EE81EF91EC0922C0BD0922D0BBC
:104BF000E0922E0BF0922F0B0C9415328DE690E084
:104C00000E94734181110C9415328091700B83FFC7
:104C100002C00C94153283E50E94F73B68968FAF73
:104C2000689781110C940A3382E50E94F73B811149
:104C30000C940A330C9415328091700B83FF02C0E0
:104C40000C94153260E080EC93E00E941F5B83E5DA
:104C50000E94F73B68968FAF689781110C94A5343A
:104C600082E50E94F73B81110C94A5340C94153217
:104C70000E944B3C0C94153280E50E94F73B882340
:104C800041F00E94653B6230710510F00C941532C2
:104C900002C060E070E0660F771FFB01EB55FC4E31
:104CA000118210820C9415320E940BC20E94954C06
:104CB0000E9433631092A6131092A5131092A813AA
:104CC0001092A71368EE73E080E090E00E943B5AD8
:104CD00060E08DEC93E00E941F5B0C94153281E044
:104CE0008093A5030C9415320E94033C0C9415325A
:104CF00083E50E94C83B882311F40C9415320E946E
:104D0000953B20E030E04AE754E40E940CE90E9421
:104D1000F1ED6093390B70933A0B80933B0B9093BA
:104D20003C0B0C941532E4E9CE2EE2E0DE2EFEE5DB
:104D3000EF2EFFE0FF2E10E0D6018D916D010E9455
:104D4000C83B882309F46DC0133009F063C00E948A
:104D5000953B4B015C0120E030E040EA51E40E94C9
:104D6000A7E887FF4EC0A501940160916A0F70917A
:104D70006B0F80916C0F90916D0F0E9484ED2B0151
:104D80003C019B01AC016091A40B7091A50B80913B
:104D9000A60B9091A70B0E940CE96093A40B709353
:104DA000A50B8093A60B9093A70BA3019201609192
:104DB00021107091221080912310909124100E9454
:104DC0000CE960932110709322108093231090932C
:104DD000241060916C1470916D1480916E149091F8
:104DE0006F140E94ABE8A30192010E940CE90E949B
:104DF000F1ED60936C1470936D1480936E14909326
:104E00006F1480926A0F90926B0FA0926C0FB09209
:104E10006D0F07C00E94953BF70160837183828309
:104E200093831F5FF4E0EF0EF11C143009F084CF80
:104E30000E949DD70C941532E4E9F4E084918F012F
:104E40000F5F1F4F882321F00E94053EF801F6CF27
:104E500060E084E894E00E947CB360E08DE794E039
:104E60000E947CB361E082E794E00E947CB361E041
:104E700082E694E00E947CB360E089E594E00E94C1
:104E80007CB361E08FE494E00E947CB360E085E451
:104E900094E00E947CB360E08DE394E00E947CB3D8
:104EA00060E08FE294E00E947CB361E081E294E0F4
:104EB0000E947CB360E082E194E00E947CB360E0F9
:104EC00084E094E00E947CB360E08EEE93E00E9468
:104ED0007CB360E08DED93E00E947CB30C941532BE
:104EE00085E40E94F73B882319F00E94863B03C0AB
:104EF00085E40E94C83B882361F0E5ECFBE28491E5
:104F00008F010F5F1F4F882321F00E94053EF8019B
:104F1000F6CF81E40E94F73B882319F00E94863B7C
:104F200003C081E40E94C83B882361F0E6E6F5E017
:104F300084918F010F5F1F4F882321F00E94053E4F
:104F4000F801F6CF0091D3131091D413D8018D91AD
:104F50008D01882309F4B7CD0E94053EF7CFEDE817
:104F6000F5E084918F010F5F1F4F882321F00E948D
:104F7000053EF801F6CFE5E8F5E084918F010F5F7B
:104F80001F4F882321F00E94053EF801F6CF1E999D
:104F900003C00DEE12E002C002EF12E0F8018191B1
:104FA0008F01882319F00E94053EF8CF8AE00E9405
:104FB000053EEDE7F5E084918F010F5F1F4F8823D9
:104FC00021F00E94053EF801F6CF019B03C00DEED3
:104FD00012E002C002EF12E0D8018D918D0188230A
:104FE00019F00E94053EF8CF8AE00E94053EE5E7F1
:104FF000F5E084918F010F5F1F4F882321F00E94FD
:10500000053EF801F6CF1C9B03C00DEE12E002C076
:1050100002EF12E0F80181918F01882319F00E94BC
:10502000053EF8CF8AE00E94053EEAE6F5E084916D
:105030008F010F5F1F4F882321F00E94053EF8016A
:10504000F6CF379903C00DEE12E002C002EF12E076
:10505000D8018D918D01882309F435CD0E94053E3C
:10506000F7CF1092AB101092AA100C9415320E9438
:105070000C3E0C9415320E9433B30C9415320E94EE
:10508000ECB20C9415320E9483B20C9415320E943B
:10509000ECB10C9415320E9402B10C9415320E94AE
:1050A000B8B00C9415320E9428B00C9415320E94AE
:1050B0008BAF0C94153283E50E94C83B182F8823D0
:1050C00071F00E94953B0E94ECED70932502609375
:1050D000240221E0672B09F020E02093790B80E582
:1050E0000E94C83B882361F0209124023091250260
:1050F000232B11F00E94863B8093790B0C94153280
:1051000011110C941532E5ECFBE284918F010F5FD5
:105110001F4F882321F00E94053EF801F6CF8091B1
:10512000790B811103C06CEF72E002C06FEE72E088
:105130008CEB95E00E9448D6609124027091250284
:105140008BEA95E00E944F54E7EAF5E084918F01E5
:105150000F5F1F4F882311F40C9415320E94053EF7
:10516000F801F4CF85E40E94F73B882321F00E94E8
:10517000653B7B0102C0E12CF12C83E40E94F73BEC
:10518000882341F00E94653BCB57DF4F6883C558A9
:10519000D04006C045E0CB57DF4F4883C558D040CC
:1051A00085E50E94F73B882319F00E94863B03C0E7
:1051B00085E50E94C83BCF56DF4F8883C159D04058
:1051C000F7FC07C0812C912C76E1A72E73E4B72E53
:1051D00006C0812C912C6CE8A62E62E4B62E83E5E5
:1051E0000E94F73B882321F00E94953B4B015C0114
:1051F000E114F10411F41092E20F2896EFAE289713
:105200000E94C6452B013C0128965FAD289757FDAB
:1052100002C004E101C008E6D301C2018C53964FDD
:10522000AF4FBF4F80938A0F90938B0FA0938C0F3B
:10523000B0938D0F61E06E0D623028F45FE0E52ED3
:1052400053E0F52E0BC002E213E0D8018D918D01E1
:10525000882309F438CC0E94053EF7CFF7018191ED
:105260007F01882319F00E94053EF8CF8AE00E9452
:10527000053E0E940BC22896FFAD2897F7FF04C099
:105280008FE78093E10F0AC028962FAD2897E22F71
:10529000220FFF0BE052F04F8FE78083C501B4016E
:1052A0000E94ECED072E000C880B990B0E94ADE8D4
:1052B00060966FAF609764967FAF64976C968FAF80
:1052C0006C97A0969FAFA097202F30E0A8EEB3E098
:1052D0000E9498ECCE56DF4F688379838A839B8344
:1052E000C259D040DC01CB01840D951DA61DB71D10
:1052F000C256DF4F88839983AA83BB83CE59D0409F
:1053000081E080939302C757DF4F488259826A82B7
:105310007B82C958D040CA56DF4F488259826A8280
:105320007B82C659D040C857DF4F1882C858D0403A
:10533000C656DF4F188219821A821B82CA59D04082
:10534000E8961FAEE89790E4EC969FAFEC97ACE13F
:10535000E096AFAFE097B6E4E496BFAFE497C158EC
:10536000DF4F1882CF57D040C058DF4F1882C05847
:10537000D040CF57DF4F1882C158D040CE57DF4FB3
:105380001882C258D040AF961CAE1DAE1EAE1FAEE6
:10539000AF97AB961CAE1DAE1EAE1FAEAB972F9651
:1053A0001CAE1DAE1EAE1FAE2F973FE7C32ED12CF5
:1053B000E12CF12C2FE730E040E050E06B962CAF71
:1053C0003DAF4EAF5FAF6B97C357DF4F1882198267
:1053D0001A821B82CD58D04031E0C957DF4F388345
:1053E000C758D040A5961FAE1EAEA59710E0212C41
:1053F000312C00E028964FAD2897842F440F990B4D
:10540000DC01A052B04FCE55DF4FB983A883C25AFA
:10541000D040880F991F880F991FFC01EB58F44F5B
:10542000CD57DF4FF983E883C358D040CB57DF4FC8
:105430002881C558D040022E000C330BCB57DF4FCC
:1054400039832883C558D04080919302882309F47A
:1054500063C10E94C6454B015C018091DC0F88232B
:1054600009F436C10E94D1C228963FAD289737FF74
:1054700009C01091B40B2090B50B3090B60B009181
:10548000B70B0FC0CD57DF4FA881B981C358D040AB
:105490001C9111962C90119712963C90129713968E
:1054A0000C91212F322D432D502FC158DF4F688191
:1054B000CF57D040C058DF4F7881C058D040CF5729
:1054C000DF4F8881C158D040CE57DF4F9881C258F6
:1054D000D0400E94A7E887FF14C0C158DF4F18834F
:1054E000CF57D040C058DF4F2882C058D040CF5748
:1054F000DF4F3882C158D040CE57DF4F0883C258A3
:10550000D040212F322D432D502FE8966FADE897D4
:10551000EC967FADEC97E0968FADE097E4969FAD6B
:10552000E4970E94CEEE181664F4E8961FAFE89751
:10553000EC962FAEEC97E0963FAEE097E4960FAF77
:10554000E49780918A0F90918B0FA0918C0FB0916E
:105550008D0FA5019401281B390B4A0B5B0B57FDDE
:1055600010C00E9479BBD501C4018C53964FAF4F38
:10557000BF4F80938A0F90938B0FA0938C0FB093A3
:105580008D0FC957DF4F3881C758D04060962FAD77
:105590006097332309F473C064963FAD64976C96AB
:1055A0004FAD6C97A0965FADA097612F722D832DA4
:1055B000902F0E94CEEE18160CF08AC0B501A401FF
:1055C0004419550966097709DB01CA0188589341D6
:1055D000A109B109B7FD7CC06B968CAD9DADAEAD98
:1055E000BFAD6B978C199D09AE09BF092896EFAD29
:1055F0002897B595A79597958795E7FF03C0809362
:10560000E10F07C0CE55DF4FE881F981C25AD04083
:105610008083C357DF4F488359836A837B83CD5888
:10562000D0406096FFAD6097C158DF4FF883CF57E9
:10563000D04064962FAD6497C058DF4F2883C05880
:10564000D0406C963FAD6C97CF57DF4F3883C15831
:10565000D040A0964FADA097CE57DF4F4883C25899
:10566000D040C757DF4F88829982AA82BB82C9582F
:10567000D040C957DF4F1882C758D04029C0649620
:105680003FAD64976C964FAD6C97A0965FADA097B9
:10569000612F722D832D902F0E94A7E887FF18C0DD
:1056A000D501C401C757DF4F288139814A815B8109
:1056B000C958D040821B930BA40BB50BAC01BD01A4
:1056C000485853416109710977FD02C00C940F36A7
:1056D00020E030E040EA51E460966FAD6097649658
:1056E0007FAD64976C968FAD6C97A0969FADA09799
:1056F0000E94A8EC9B01AC01612F722D832D902F8D
:105700000E94CEEE18167CF4EAECF6E084918F014C
:105710000F5F1F4F811103C00E940BC286C60E94FB
:10572000053EF801F3CFD501C401CA56DF4F2881E9
:1057300039814A815B81C659D040821B930BA40BEF
:10574000B50BB7FDB3C00E9418BE8AE00E94053EAB
:10575000D501C4018053984FAF4FBF4FCA56DF4F9A
:1057600088839983AA83BB83C659D040C857DF4F2B
:105770009881C858D040911174C0C656DF4F288117
:1057800039814A815B81CA59D040612F722D832DA6
:10579000902F0E94CEEE18160CF04EC020E030E0A4
:1057A00040EC50E460966FAD609764967FAD64976F
:1057B0006C968FAD6C97A0969FADA0970E94A7ECBA
:1057C0009B01AC01A1E0C857DF4FA883C858D04067
:1057D000612F722D832D902F0E94CEEE18162CF083
:1057E000C857DF4F1882C858D04020E030E040E072
:1057F00050E4612F722D832D902F0E94A8ECC65685
:10580000DF4F688379838A839B83CA59D040CE5601
:10581000DF4F288139814A815B81C259D040280DF0
:10582000391D4A1D5B1DC256DF4F288339834A83C9
:105830005B83CE59D0403AC0D501C401C256DF4F78
:10584000288139814A815B81CE59D040821B930BDC
:10585000A40BB50BB7FD2AC04CEA56E06BEB76E023
:1058600020C020E030E040EA51E460966FAD6097E0
:1058700064967FAD64976C968FAD6C97A0969FAD44
:10588000A0970E94A7EC9B01AC01612F722D832D84
:10589000902F0E94A7E887FF09C04CE856E06CE90A
:1058A00076E028968FAD28970E940DBBD501C401E4
:1058B000880F991FAA1FBB1FC757DF4F2881398147
:1058C0004A815B81C958D040821B930BA40BB50B56
:1058D00084199509A609B70981389F44A241B105E9
:1058E00068F0EEE6F6E084918F010F5F1F4F88238A
:1058F00009F412CF0E94053EF801F5CFA5964EADF2
:105900005FADA597CB57DF4F88819981C558D040AF
:10591000841795070CF0C7C0E1E1F6E084918F0190
:105920000F5F1F4F882321F00E94053EF801F6CF3C
:1059300028969FAD289797FD03C00EE713E002C09D
:1059400000E013E0B8018FEF95E00E9448D62F9653
:105950004CAD5DAD6EAD7FAD2F978BEF95E00E94A6
:1059600032548AE00E94053EB80189EE95E00E941B
:1059700048D6AB964CAD5DAD6EAD7FADAB9785EEC9
:1059800095E00E9432548AE00E94053EB80183ED02
:1059900095E00E9448D6AF964CAD5DAD6EAD7FAD43
:1059A000AF978FEC95E00E9432548AE00E94053E4A
:1059B000CF56DF4FA881C159D040AA2309F435C57D
:1059C0002896BFAD2897B7FF37C02F962CAD3DADB9
:1059D0004EAD5FAD2F972093860F3093870F409386
:1059E000880F5093890F2CEA35EC47E25EE3AB96C3
:1059F0006CAD7DAD8EAD9FADAB970E940CE9609311
:105A0000820F7093830F8093840F9093850F2CEAFD
:105A100035EC47E25EE3AF966CAD7DAD8EAD9FADEC
:105A2000AF970E9484ED60937E0F70937F0F8093F9
:105A3000800F9093810FF9C42F968CAD9DADAEADC4
:105A4000BFAD2F978093550B9093560BA093570B98
:105A5000B093580B2CEA35EC47E25EE3AB966CADA5
:105A60007DAD8EAD9FADAB970E940CE960935D0B51
:105A700070935E0B80935F0B9093600B2CEA35EC78
:105A800047E25EE3AF966CAD7DAD8EAD9FADAF9757
:105A90000E9484ED6093590B70935A0B80935B0BBB
:105AA00090935C0BC2C40E944D5BCECC0E94954C7F
:105AB000BCC40E94D7B58111B8C45DE6852E5DE2F5
:105AC000952EAEE4BFE02996BFAFAEAF2997FE0199
:105AD00031965F0106EC1DE21F01F3E0F00F2C96FA
