:100000000C94C10D0C94C9160C94FA160C942B1771
:100010000C945C170C948D170C94BE170C94EF176E
:100020000C9420180C94EE0D0C94EE0D0C94EE0D27
:100030000C94EE0D0C94998F0C94EE0D0C94EE0D27
:100040000C94EE0D0C9475660C94EE0D0C94EE0D64
:100050000C94EE0D0C94EE0D0C940D6F0C94B813E3
:100060000C94EE0D0C94BB3C0C94EE0D0C94EE0D28
:100070000C94EE0D0C94EE0D0C94EE0D0C94EE0D14
:100080000C94EE0D0C94EE0D0C94EE0D0C94EE0D04
:100090000C94EE0D0C94EE0D0C94EE0D0C94EE0DF4
:1000A0000C94EE0D0C94EE0D0C94EE0D0C94EE0DE4
:1000B0000C94EE0D0C94EE0D0C94EE0D0C94EE0DD4
:1000C0000C94EE0D0C94EE0D0C94EE0D0C94EE0DC4
:1000D0000C94EE0D0C94EE0D0C94EE0D0C94EE0DB4
:1000E0000C94EE0D084AD73B3BCE016E84BCBFFD9D
:1000F000C12F3D6C74319ABD56833DDA3D00C77FF8
:1001000011BED9E4BB4C3E916BAAAABE0000008090
:100110003F05A84CCDB2D44EB93836A9020C50B91F
:10012000918688083CA6AAAA2ABE000000803F004B
:10013000002100240027002A002D00300033000198
:10014000010000040107010A010000220025002827
:10015000002B002E003100340002010000050108D0
:10016000010B01000020002300260029002C002F95
:100170000032000001000003010601090105050528
:1001800005070508080808020202020A0A0808040E
:10019000040404010101010101010103030303033C
:1001A000030303040707070C0C0C0C0C0C0C0C02CB
:1001B00002020206060606060606060B0B0B0B0BD2
:1001C0000B0B0B01021020200808102040102040CB
:1001D000800201020108040201010204081020400B
:1001E0008080402010080402018004020180402029
:1001F0001008040201080402010102040810204052
:100200008001020408102040800000090A02080B47
:100210000C0D0706030401000000000000000000B0
:1002200000000000000000000000000000000000CE
:10023000000000000011100F00000000000000008E
:100240000000000000000000000000000000006549
:1002500063686F3A004572726F723A0053544F50A0
:100260005045442E20005072696E7465722073747C
:100270006F707065642064756520746F206572729C
:100280006F72732E204669782074686520657272DB
:100290006F7220616E6420757365204D3939392085
:1002A000746F20726573746172742E202854656DAA
:1002B000706572617475726520697320726573650B
:1002C000742E2053657420697420616674657220F1
:1002D00072657374617274696E6729004B494C4C86
:1002E00045442E20005072696E7465722068616CFE
:1002F0007465642E206B696C6C28292063616C6CBA
:10030000656421006F6B00526573656E643A20006E
:100310002200556E6B6E6F776E20636F6D6D616E30
:10032000643A2022004368616E67652066696C61EB
:100330006D656E74007A5F6D61783A20007A5F6D4A
:10034000696E3A2000795F6D61783A2000795F6DBF
:10035000696E3A2000785F6D61783A2000785F6DB1
:10036000696E3A20005A3A00593A0020436F756E80
:100370007420583A2000453A005A3A00593A005839
:100380003A004649524D574152455F4E414D453A1C
:100390004D61726C696E2056313B20537072696EEC
:1003A0007465722F6772626C206D6173687570205E
:1003B000666F722067656E36204649524D5741522E
:1003C000455F55524C3A687474703A2F2F666972C3
:1003D0006D776172652E756C74696D616B65722ED7
:1003E000636F6D2050524F544F434F4C5F564552F0
:1003F00053494F4E3A312E30204D414348494E45E6
:100400005F545950453A556C74696D616B65722043
:1004100045585452554445525F434F554E543A3116
:1004200020555549443A30303030303030302D305E
:100430003030302D303030302D303030302D3030C5
:10044000303030303030303030300A00556C746924
:100450006D616B6572204F66662E00556C74696D18
:10046000616B65722052656164792E00426564207B
:10047000646F6E652E0020423A0020453A00543ADF
:10048000004265642048656174696E672E004865A6
:100490006174696E6720646F6E652E0020573A00A4
:1004A00020453A00543A0048656174696E672E2E03
:1004B0002E002042403A0020403A00202F003A000F
:1004C000205400202F0020423A00202F006F6B2084
:1004D000543A002569206D696E2C202569207365CA
:1004E0006300456E642066696C65206C69737400F6
:1004F000426567696E2066696C65206C697374007B
:100500004E6F206D6F76652E00526573756D696E46
:1005100067207072696E74005761697420666F722B
:1005200020757365722E2E2E00536C6565702E2E0D
:100530002E0000004D4300004D4300004843FFFFE4
:10054000FF000000000000000000000000000000AC
:1005500000000000000000000000004D4300004DBE
:1005600043000048430000A0400000A0400000807D
:100570003F256920686F757273202569206D696E4B
:100580007574657300446F6E65207072696E74696E
:100590006E672066696C650053544F505045442E79
:1005A00020005072696E7465722073746F7070658C
:1005B000642064756520746F206572726F72732E8B
:1005C0002046697820746865206572726F722061B8
:1005D0006E6420757365204D39393920746F20722F
:1005E0006573746172742E202854656D7065726134
:1005F000747572652069732072657365742E20535B
:100600006574206974206166746572207265737404
:10061000617274696E6729006F6B004E6F204C69C0
:100620006E65204E756D626572207769746820630F
:100630006865636B73756D2C204C617374204C6915
:100640006E653A20004E6F20436865636B73756D6D
:100650002077697468206C696E65206E756D6265BF
:10066000722C204C617374204C696E653A200063D3
:100670006865636B73756D206D69736D6174636814
:100680002C204C617374204C696E653A20004C69D3
:100690006E65204E756D626572206973206E6F7491
:1006A000204C617374204C696E65204E756D6265D7
:1006B000722B312C204C617374204C696E653A208A
:1006C000004D31313000446F6E6520736176696E84
:1006D000672066696C652E006F6B004D3239002013
:1006E00020506C616E6E6572427566666572427905
:1006F0007465733A20002046726565204D656D6F04
:1007000072793A200044656320313620323031332B
:1007100000436F6D70696C65643A2000284461760F
:10072000696420427261616D2900207C20417574EA
:10073000686F723A200044656320313620323031D0
:10074000332031353A33343A313100204C617374FF
:1007500020557064617465643A2000556C74696D4D
:10076000616B65723A2031332E31322028313135B8
:100770003230305F73696E676C6529004D61726C51
:10078000696E200020536F66747761726520526530
:1007900073657400205761746368646F67205265E5
:1007A000736574002042726F776E206F75742052EB
:1007B00065736574002045787465726E616C2052B3
:1007C0006573657400506F7765725570007374615E
:1007D0007274002200656E717565696E6720220073
:1007E0002200656E717565696E672022007C3C3E53
:1007F0005E2B3D3F2F5B5D3B2C2A225C00656368CE
:100800006F3A0020746F6F206C6F6E67206578748C
:10081000727573696F6E2070726576656E7465644B
:100820000020636F6C6420657874727573696F6EF5
:100830002070726576656E7465640045313A2000FB
:1008400045303A20005A3A2000593A2000583A20C0
:10085000004D53312C4D53322050696E730A0024E1
:10086000F404D9201BC40C5C0E9804C4095F026513
:10087000077101F405F900FB04B30048048700C1C7
:100880000369005803550003034500BE023A008483
:1008900002310053022A002902250004022000E44C
:1008A000011C00C8011900AF011700980114008451
:1008B000011300710110006101100051010E00438D
:1008C000010D0036010B002B010B0020010B001560
:1008D0000109000C01090003010800FB000800F3F6
:1008E000000800EB000700E4000600DE000600D868
:1008F000000600D2000600CC000500C7000500C2BB
:10090000000500BD000400B9000400B5000400B1FA
:10091000000400AD000400A9000400A5000300A22B
:100920000003009F0004009B000300980003009553
:1009300000020093000300900003008D0002008B72
:10094000000300880002008600020084000300818A
:100950000002007F0002007D0002007B000200799F
:1009600000020077000100760002007400020072AD
:10097000000100710002006F0002006D0001006CB8
:100980000002006A000100690002006700010066C1
:1009900000010065000100640002006200010061C6
:1009A000000100600001005F0002005D0001005CCA
:1009B0000001005B0001005A0001005900010058CD
:1009C00000010057000100560001005500010054CD
:1009D00000010053000000530001005200010051CB
:1009E000000100500001004F0001004E0000004EC9
:1009F0000001004D0001004C0001004B0000004BC5
:100A00000001004A000100490001004800000048C0
:100A100000010047000100460000004600010045BB
:100A200000000045000100440001004300000043B5
:100A300000010042000000420001004100000041AE
:100A4000000100400001003F0000003F0001003EA7
:100A50000000003E0001003D0000003D0001003CA0
:100A60000000003C0000003C0001003B0000003B97
:100A70000001003A0000003A00010039000000398E
:100A80000001003800000038000000380001003785
:100A9000000000370001003600000036000000367C
:100AA0000001003500000035000000350001003471
:100AB0000000003400000034000100330000003367
:100AC000000000330001003200000032000000325C
:100AD0000001003100000031000000310001003051
:100AE00000000030000000300001002F0000002F47
:100AF0000000002F0000002F0001002E0000002E3B
:100B00000000002E0001002D0000002D0000002D2F
:100B10000000002D0001002C0000002C0000002C23
:100B20000000002C0001002B0000002B0000002B17
:100B30000000002B0001002A0000002A0000002A0B
:100B40000000002A000100290000002900000029FF
:100B500000000029000000290001002800000028F2
:100B600000000028000000280000002800010027E5
:100B700000000027000000270000002700000027D9
:100B800000010026000000260000002600000026CC
:100B900000000026000100250000002500000025BF
:100BA00000000025000000250000002500010024B1
:100BB00000000024000000240000002400000024A5
:100BC0000001002300000023000000230000002398
:100BD0000000002300000023000000230001002289
:100BE000000000220000002200000022000000227D
:100BF000000000220001002100000021000000216F
:100C00000000002100000021000000210000002160
:100C10000001002000000020000000200000002053
:100C20000000002000000020000000200000002044
:100C30000001001F0000001F0000001F0000001F37
:100C40000000001F0000001F0000001F0001001E28
:100C50000000001E0000001E0000001E0000002416
:100C6000F4D43050C38E20C2A24017828B70111270
:100C70007A910D816CD90AA861E108C758660761AD
:100C80005143061E4B5D05C145A7041A41110409D5
:100C90003D9803713931034036DB0265339102D44C
:100CA000305402802E1D02632CEE01752AC501B05E
:100CB00028A001102781018F2564012B244B01E01E
:100CC000223401AC211F018D200D01801FFC008406
:100CD0001EED00971DDF00B81CD200E61BC60020E9
:100CE0001BBC00641AB200B219A8000A19A0006A5D
:100CF000189900D117910040178B00B51684003168
:100D0000167E00B31579003A157300C7146F0058AA
:100D1000146A00EE1366008813630025135E00C793
:100D2000125B006C12570015125400C11151007073
:100D3000114F0021114B00D61049008D104700467D
:100D400010440002104200C00F4000800F3E0042DD
:100D50000F3C00060F3B00CB0E3800930E37005CB3
:100D60000E3500270E3400F30D3200C10D31009016
:100D70000D3000600D2E00320D2D00050D2C00D918
:100D80000C2B00AE0C2900850C29005C0C270035CB
:100D90000C27000E0C2600E80B2400C40B2400A036
:100DA0000B23007D0B23005A0B2100390B21001867
:100DB0000B2000F80A1F00D90A1E00BB0A1E009D66
:100DC0000A1D00800A1D00630A1C00470A1B002C34
:100DD0000A1B00110A1A00F7091A00DD091900C4DC
:100DE000091900AB091900920917007B0918006363
:100DF0000917004C09160036091600200916000ACA
:100E0000091500F5081500E0081400CC081400B816
:100E1000081400A4081400900813007D0812006B49
:100E20000813005808120046081200340811002365
:100E30000811001208110001081100F0071000E06D
:100E4000071000D0071000C0071000B0070F00A166
:100E500007100091070E0083070F0074070F00654D
:100E6000070E0057070E0049070E003B070D002E26
:100E7000070E0020070D0013070D0006070D00F9EF
:100E8000060C00ED060D00E0060C00D4060C00C8B0
:100E9000060C00BC060C00B0060C00A4060B009962
:100EA000060C008D060B0082060B0077060B006C0B
:100EB000060B0061060A0057060B004C060A0042AA
:100EC000060A0038060A002E060A0024060A001A3E
:100ED000060A001006090007060A00FD050900F4CD
:100EE000050900EB050900E2050900D9050900D054
:100EF000050900C7050900BE050900B5050800ADD4
:100F0000050800A50509009C050800940508008C4B
:100F1000050800840508007C050800740508006CBD
:100F2000050700650508005D050700560508004E29
:100F30000507004705070040050800380507003190
:100F40000507002A050700230507001C05060016F3
:100F50000507000F0507000805060002050700FB4E
:100F6000040600F5040700EE040600E8040600E2AB
:100F7000040700DB040600D5040600CF040600C900
:100F8000040600C3040600BD040600B7040600B151
:100F9000040500AC040600A6040600A00405009B9E
:100FA00004060095040500900406008A04050085E7
:100FB000040500800406007A04050075040500702D
:100FC0000405006B04050066040500610405005C6F
:100FD00004050057040500520405004D04050048AF
:100FE000040500430405003E0404003A04050035EE
:100FF000040500300404002C040500270404002329
:101000000405001E0404001A04040016040500115F
:101010000404000D04040009040500040404000095
:10102000040400FC030400F8030400F4030400F0CB
:10103000030400EC030400E8030400E4030400E0FC
:10104000030400DC030400D8030400D4030400D02C
:10105000030400CC030400C8030300C503030065B8
:1010600063686F3A00656E6473746F7073206869AB
:10107000743A205A00205A3A00656E6473746F7097
:1010800073206869743A20590020593A00656E64EB
:1010900073746F7073206869743A20580020583A4E
:1010A00000656E6473746F7073206869743A200011
:1010B0004572726F723A004572723A204D4158542F
:1010C000454D50204245440054656D706572617411
:1010D000757265206865617465642062656420735B
:1010E00077697463686564206F66662E204D415889
:1010F00054454D502074726967676572656420219C
:1011000021004572723A204D494E54454D50003AE7
:1011100020457874727564657220737769746368AA
:101120006564206F66662E204D494E54454D502013
:101130007472696767657265642021004572723A4E
:10114000204D415854454D50003A204578747275F1
:10115000646572207377697463686564206F66667E
:101160002E204D415854454D502074726967676573
:10117000726564202100202D20496E76616C6964BF
:10118000206578747275646572206E756D62657223
:101190002021006563686F3A0048656174696E6775
:1011A000206661696C656400504944204175746F24
:1011B00074756E652066696E697368656421205078
:1011C000757420746865204B702C204B6920616E0B
:1011D00064204B6420636F6E7374616E7473206956
:1011E0006E746F20436F6E66696775726174696FA4
:1011F0006E2E6800504944204175746F74756E6599
:10120000206661696C6564212074696D656F757411
:101210000020403A006F6B20543A006F6B20423A36
:1012200000504944204175746F74756E6520666185
:10123000696C6564212054656D70657261747572A6
:101240006520746F6F206869676800204B643A20DE
:1012500000204B693A2000204B703A200020436C5C
:10126000617369632050494420002054753A20007E
:10127000204B753A2000206D61783A2000206D697E
:101280006E3A200020643A200020626961733A209F
:10129000004D383420582059205A20450065636895
:1012A0006F3A0043616E6E6F7420656E74657220D4
:1012B0007375626469723A20004D3234004D3233E6
:1012C000202573006175746F25692E670045727261
:1012D0006F723A006572726F722077726974696E0C
:1012E0006720746F2066696C65004E6F74205344EC
:1012F000207072696E74696E67002F00534420700D
:1013000072696E74696E67206279746520002E00C0
:1013100044656C6574696F6E206661696C65642CE8
:101320002046696C653A200046696C652064656CEE
:10133000657465643A002E006F70656E20666169A1
:101340006C65642C2046696C653A2000577269749C
:10135000696E6720746F2066696C653A20002E0004
:101360006F70656E206661696C65642C2046696CDF
:10137000653A20002E006F70656E206661696C65AD
:10138000642C2046696C653A200046696C652073C0
:10139000656C6563746564002053697A653A200062
:1013A00046696C65206F70656E65643A20002E009A
:1013B0006F70656E206661696C65642C2046696C8F
:1013C000653A20004E6F7720667265736820666903
:1013D0006C653A20004E6F7720646F696E672066F7
:1013E000696C653A20002220706F730022207061C2
:1013F00072656E743A2200535542524F5554494E0D
:10140000452043414C4C207461726765743A220058
:10141000747279696E6720746F2063616C6C2073DD
:1014200075622D67636F64652066696C65732077EC
:1014300069746820746F6F206D616E79206C6576B9
:10144000656C732E204D4158206C6576656C206963
:10145000733A0053442063617264206F6B006F70B5
:10146000656E526F6F74206661696C656400766F9B
:101470006C756D652E696E6974206661696C656452
:1014800000534420696E6974206661696C0065636D
:10149000686F3A0048617264636F646564204465F4
:1014A0006661756C742053657474696E6773204C43
:1014B0006F616465640053746F7265642073657452
:1014C00074696E677320726574726965766564000D
:1014D0002044002049002020204D3330312050008E
:1014E0005049442073657474696E67733A00205ADA
:1014F0000020590020204D323036205800486F6DB2
:1015000065206F666673657420286D6D293A00202A
:101510004500205A0020580020420020540020207E
:101520004D323035205300416476616E636564202E
:101530007661726961626C65733A20533D4D696EE4
:1015400020666565647261746520286D6D2F73294E
:101550002C20543D4D696E2074726176656C206656
:101560006565647261746520286D6D2F73292C2068
:10157000423D6D696E696D756D207365676D656E51
:10158000742074696D6520286D73292C20583D6D79
:101590006178696D756D205859206A65726B2028D5
:1015A0006D6D2F73292C20205A3D6D6178696D7502
:1015B0006D205A206A65726B20286D6D2F73292C5F
:1015C0002020453D6D6178696D756D2045206A6507
:1015D000726B20286D6D2F73290020540020204D40
:1015E000323034205300416363656C657261746905
:1015F0006F6E3A20533D616363656C657261746917
:101600006F6E2C20543D7265747261637420616347
:1016100063656C65726174696F6E00204500205AC5
:101620000020590020204D3230312058004D617883
:10163000696D756D20416363656C65726174696F76
:101640006E20286D6D2F7332293A00204500205AF4
:101650000020590020204D3230332058004D617851
:10166000696D756D206665656472617465732028A7
:101670006D6D2F73293A00204500205A0020590033
:1016800020204D39322058005374657073207065E6
:101690007220756E69743A0053657474696E67736D
:1016A0002053746F72656400022D2D3A2D2D002D8C
:1016B0002D2D005344002059000120004E6F20437F
:1016C000617264005072696E742066726F6D20538F
:1016D000440053746F70205072696E7400526573C9
:1016E000756D65205072696E740050617573652068
:1016F0005072696E7400436F6E74726F6C0050723A
:1017000065706172650054756E6500496E666F2084
:1017100073637265656E00052E2E004D61696E0063
:101720004D3234004D3233202573004D383420586B
:101730002059205A2045004669726D7761726520F4
:1017400076657273696F6E00526573746F7265208F
:101750004661696C73616665004C6F6164206D65FC
:101760006D6F72790053746F7265206D656D6F7265
:1017700079004D6F74696F6E0054656D70657261AC
:1017800074757265004D61696E0044656320313681
:1017900020323031332031353A33343A3138003168
:1017A00031353230305F73696E676C6500556C742B
:1017B000696D616B65723A2031332E3132004669B2
:1017C000726D776172652076657273696F6E004520
:1017D00073746570732F6D6D004573746570732F2E
:1017E0006D6D005A73746570732F6D6D005A73744C
:1017F0006570732F6D6D005973746570732F6D6D07
:10180000005973746570732F6D6D00587374657033
:10181000732F6D6D005873746570732F6D6D00417B
:101820002D7265747261637400412D72657472610A
:10183000637400416D6178206500416D61782065B9
:1018400000416D6178207A00416D6178207A004115
:101850006D6178207900416D6178207900416D617A
:1018600078207800416D6178207800565472617656
:10187000206D696E005654726176206D696E005657
:101880006D696E00566D696E00566D617820650059
:10189000566D6178206500566D6178207A00566D2E
:1018A0006178207A00566D6178207900566D6178F4
:1018B000207900566D6178207800566D6178207827
:1018C0000056652D6A65726B0056652D6A65726BF0
:1018D00000567A2D6A65726B00567A2D6A65726BB6
:1018E000005678792D6A65726B005678792D6A6595
:1018F000726B00416363656C00416363656C004318
:101900006F6E74726F6C005072656865617420410F
:10191000425320436F6E66005072656865617420A3
:10192000504C4120436F6E66005049442D43005097
:1019300049442D43005049442D44005049442D440E
:10194000005049442D49005049442D490050494414
:101950002D50005049442D500046616E2073706533
:1019600065640046616E207370656564004E6F7A31
:101970007A6C65004E6F7A7A6C6500436F6E747294
:101980006F6C0053746F7265206D656D6F727900B6
:101990004E6F7A7A6C65004E6F7A7A6C650046619C
:1019A0006E2073706565640046616E2073706565B6
:1019B000640054656D70657261747572650053746E
:1019C0006F7265206D656D6F7279004E6F7A7A6CFB
:1019D00065004E6F7A7A6C650046616E20737065A3
:1019E00065640046616E2073706565640054656DC2
:1019F0007065726174757265004D6F76652041780F
:101A00006973004D38300053776974636820506FF4
:101A1000776572204F6E004D3831005377697463DB
:101A20006820506F776572204F666600436F6F6C59
:101A3000646F776E0050726568656174204142532F
:101A4000005072656865617420504C41004732381F
:101A5000004175746F20486F6D65004D3834004447
:101A6000697361626C652053746570706572730090
:101A70004D61696E004D6F766520302E316D6D00C1
:101A80004D6F766520316D6D004D6F76652031307C
:101A90006D6D005072657061726500457874727585
:101AA000646572004D6F7665205A004D6F76652033
:101AB00059004D6F76652058004D6F76652041784E
:101AC0006973004578747275646572005A00590034
:101AD00058004D363030004368616E676520666996
:101AE0006C616D656E7400466C6F7700466C6F7745
:101AF0000046616E2073706565640046616E2073F8
:101B000070656564004E6F7A7A6C65004E6F7A7A04
:101B10006C65005370656564005370656564004DC5
:101B200061696E00436172642072656D6F766564F1
:101B3000004361726420696E736572746564004964
:101B40004E46494E4954594E414ECDCCCC3D0AD714
:101B5000233C17B7D13877CC2B329595E6241FB1AB
:101B60004F0A000020410000C84200401C4620BC33
:101B7000BE4CCA1B0E5AAEC59D7443194F3DFCC4E2
:101B80003C1911241FBECFEFD1E2DEBFCDBF00E074
:101B90000CBF14E0A0E0B2E0E8E1F4EA01E00BBF22
:101BA00002C007900D92AA36B107D9F71BBE12E109
:101BB000AAE6B4E001C01D92A033B107E1F71BE132
:101BC000C0E8DBE104C02297FE010E94B1D1CA3710
:101BD000D107C9F70E9491CC0C94FFD10C9400005E
:101BE000A0E0B0E0E6EFFDE00C94CED1EC015B01AB
:101BF0006115710519F0FB0191838083F9908F2D98
:101C000090E00E94B5D1892BC9F7FDE2FF1621F4BF
:101C1000F990EE24E39405C02BE2F21609F4F99052
:101C2000EE248E0101501040C8016FE37BE143E0D8
:101C300050E00E948610892B01F58E010E5F1F4F28
:101C4000C80162E47BE145E050E00E948610892BE8
:101C500019F48E01095F1F4FA114B10419F0F501A9
:101C600011830083E0FC04C070E090E080E814C0C1
:101C700070E090E080E86FEF08C1C80167E47BE1A5
:101C800043E050E00E948610892B69F4A114B1044E
:101C900029F470E090E080EC6FE7F7C02296F50140
:101CA000D183C083F6CF8824992440E050E060E0DF
:101CB00070E0EF2DE053EA30A0F5F2E0EF2A8E2D30
:101CC00090E09C0128703070E2FE06C0232B79F56D
:101CD0000894811C911C2BC0232B19F008948108B7
:101CE0009108DB01CA0112E0880F991FAA1FBB1FD0
:101CF0001A95D1F7480F591F6A1F7B1F440F551FB4
:101D0000661F771F4E0F511D611D711D483929E94E
:101D1000520729E9620729E1720748F084E0E82ABE
:101D200006C0EE3F31F4E3FC39C098E0E92AF990AF
:101D3000C0CFE53311F0E53189F529912D3219F441
:101D4000E0E1EE2A05C02B3219F081E090E003C0FB
:101D5000299182E090E0E22FE053EA3018F0C81BAE
:101D6000D90B1CC020E030E0FCE020383F075CF4D9
:101D7000C901880F991F880F991F280F391F220F3B
:101D8000331F2E0F311DE991E053EA3068F3E4FE72
:101D900003C0309521953F4F820E931ECE2CDD243B
:101DA000E1FE07C0A114B10421F02197F501D18310
:101DB000C083CB01BA010E941ACE7B018C01F3E0F3
:101DC000CF22DD2423E0C216D10421F417FB1095A5
:101DD00017F9109557016801C801B70120E030E0FC
:101DE00040E050E00E947ACD882309F44AC097FE73
:101DF0000DC02EE5E22E2BE1F22E909481949108F5
:101E00009394C0E2D0E000E010E012C096E7E92E23
:101E10009BE1F92EF6CFF70125913591459154912B
:101E2000C601B5010E945AD05B016C018C1A9D0A53
:101E30008C169D0684F7D595C7950F5F1F4F06300A
:101E4000110529F08CEF9FEFE80EF91EF1CFC501C7
:101E5000D6017C018D018C2D880F8D2D881F8F3F21
:101E600051F0C601B50120E030E040E050E00E94B2
:101E70007ACD882331F482E290E090932F12809300
:101E80002E127E2D9F2D802F612F272F392F482F27
:101E9000562FB901CA01CDB7DEB7ECE00C94EAD1F8
:101EA0002F923F925F926F927F928F929F92AF920A
:101EB000BF92CF92DF92EF92FF920F931F93CF9337
:101EC000DF938C011B01EA016115710519F0FB011B
:101ED00091838083209749F0CE010297839728F061
:101EE00020E030E040E050E0F6C0F801A1908F0122
:101EF0008A2D90E00E94B5D1892BB9F7FDE2AF168B
:101F000031F4F801A1908F015524539407C0FBE2EE
:101F1000AF1619F4F801A1908F015524209719F0FC
:101F2000C031D105C1F4F0E3AF1679F4F801808136
:101F3000883711F0883549F4F801A1800E5F1F4FF2
:101F4000F2E05F2AC0E1D0E006C0209721F480E3F0
:101F5000A816E9F427C0C830D10531F1C930D10540
:101F600024F4C230D10531F50CC0CA30D10589F056
:101F7000C031D105F9F4C12CD12CE12CB8E0FB2EF5
:101F800028C0C12CD12CE12CA0E4FA2E22C0CAE03A
:101F9000D0E0FCECCF2EFCECDF2EFCECEF2EFCE0D6
:101FA000FF2E17C0C8E0D0E0C12CD12CE12CE0E11D
:101FB000FE2E0FC09E01442737FD4095542F60E050
:101FC00070E080E090E80E9472D1C901DA016C01F2
:101FD0007D0120E030E040E050E060E03E018824F8
:101FE00077FC8094982C70EDB72EBA0CE9E0EB15D5
:101FF00070F48A2D81548A3118F499ECB92E06C0F8
:102000008A2D81568A3150F589EAB82EBA0C8B2D6B
:1020100090E08C179D0714F56F3FE1F0C216D306D0
:10202000E406F506B0F0CA01B901A40193010E94CB
:102030002CD19B01AC012B0D311D411D511D2130B7
:10204000F0E03F07F0E04F07F0E85F0710F461E0D1
:1020500001C06FEFF801A1908F01C5CF21143104A9
:1020600081F0662331F001501040F10111830083AB
:1020700008C051FE1AC002501040F10111830083C4
:1020800014C067FF12C050FC05C02FEF3FEF4FEFA9
:102090005FE704C020E030E040E050E882E290E0FA
:1020A00090932F1280932E1216C050FE08C05095A8
:1020B0004095309521953F4F4F4F5F4F0CC057FFD4
:1020C0000AC082E290E090932F1280932E122FEF9D
:1020D0003FEF4FEF5FE7B901CA01DF91CF911F9149
:1020E0000F91FF90EF90DF90CF90BF90AF909F90B7
:1020F0008F907F906F905F903F902F900895FB019D
:10210000DC0105900D920020E1F70895FB01DC0150
:102110004150504088F08D9181341CF08B350CF487
:10212000805E659161341CF06B350CF4605E861B3B
:10213000611171F3990B0895881BFCCFFB01DC0141
:102140004150504048F005900D920020C9F701C061
:102150001D9241505040E0F70895FB0155915523E1
:10216000A9F0BF01DC014D9145174111E1F759F488
:10217000CD010590002049F04D9140154111C9F362
:10218000FB014111EFCF81E090E001970895FB0141
:10219000DC0104C08D910190801921F44150504020
:1021A000C8F7881B990B0895FB01DC0102C0019060
:1021B0000D9241505040D8F70895FB01DC010D907D
:1021C0000020E9F7119701900D920020E1F70895A2
:1021D000FC018191861721F08823D9F7992708956A
:1021E0003197CF010895FB01DC0101900D92002091
:1021F000E1F70895FB01DC014150504030F08D9132
:102200000190801919F40020B9F7881B990B0895E3
:10221000FB01DC014150504048F001900D9200203C
:10222000C9F701C01D9241505040E0F70895AEE05B
:10223000B0E0EDE1F1E10C94D6D10E891F898EE07A
:102240008C831A8309838FEF9FE79E838D839E0182
:10225000265E3F4FCE010196688D798DA9010E94BF
:102260003B112F813885020F131FF80110822E9623
:10227000E4E00C94F2D1ABE0B0E0E1E4F1E10C94E5
:10228000C8D13C012B015A01FC01178216828381BF
:1022900081FD03C06FEF7FEFC6C19AE0892E1E015A
:1022A0000894211C311CF3012381F20123FD859147
:1022B00023FF81912F01882309F4B2C1853239F4BB
:1022C00023FD859123FF81912F01853229F490E030
:1022D000B3010E942E13E7CF982FFF24EE249924F8
:1022E000FFE1FF15D0F09B3269F09C3228F4903268
:1022F00059F0933291F40EC09D3249F0903369F455
:1023000041E024C052E0F52A84E0F82A28C098E091
:10231000F92A25C0E0E1FE2A22C0F7FC29C0892F56
:1023200080538A3070F4F6FE05C0989C902C1124DE
:10233000980E15C0E89CE02C1124E80EF0E2FF2A6C
:102340000EC09E3229F4F6FC6BC140E4F42A07C0AB
:102350009C3619F450E8F52A02C0983649F4F20187
:1023600023FD959123FF91912F01992309F0B8CF77
:10237000892F8554833018F08052833038F444E03C
:1023800050E0A40EB51E5FE359830FC0933631F0C1
:10239000933779F0933509F056C020C0F50180815C
:1023A000898342E050E0A40EB51E610101E010E017
:1023B00012C0F501C080D180F6FC03C06FEF7FEF43
:1023C00002C0692D70E042E050E0A40EB51EC601C7
:1023D0000E9423138C015FE7F52214C0F501C08031
:1023E000D180F6FC03C06FEF7FEF02C0692D70E073
:1023F00042E050E0A40EB51EC6010E9418138C01E5
:1024000050E8F52AF3FE07C01AC080E290E0B3015D
:102410000E942E13EA948E2D90E008171907A8F356
:102420000EC0F601F7FC8591F7FE81916F0190E0F7
:10243000B3010E942E13E110EA94015010400115DF
:10244000110579F7EAC0943611F0993669F5F7FE6F
:1024500008C0F501208131814281538184E090E000
:102460000AC0F501808191819C01442737FD409588
:10247000542F82E090E0A80EB91E9FE6F92257FF84
:1024800009C050954095309521953F4F4F4F5F4F74
:10249000E0E8FE2ACA01B901A1012AE030E00E9469
:1024A0005A13D82ED21840C0953729F41F2D1F7EFD
:1024B0002AE030E01DC01F2D197F9F3661F0903754
:1024C00020F4983509F0ACC00FC0903739F0983738
:1024D00009F0A6C004C028E030E00AC0106114FD75
:1024E000146020E130E004C014FD166020E132E009
:1024F00017FF08C0F501608171818281938144E0FA
:1025000050E008C0F50180819181BC0180E090E03D
:1025100042E050E0A40EB51EA1010E945A13D82E2D
:10252000D2188FE7F82EF122F6FE0BC05EEFF522EF
:10253000D91438F4F4FE07C0F2FC05C08FEEF8227F
:1025400002C01D2D01C0192DF4FE0DC0FE01ED0DC0
:10255000F11D8081803319F499EEF92208C01F5FC4
:10256000F2FE05C003C08F2D867809F01F5F0F2D86
:10257000F3FC14C0F0FE0FC01E1510F09D2C0BC014
:102580009D2C9E0C911A1E2D06C080E290E0B30196
:102590000E942E131F5F1E15C0F304C01E1510F4F9
:1025A000E11A01C0EE2404FF0FC080E390E0B30104
:1025B0000E942E1302FF1DC001FD03C088E790E0BA
:1025C0000EC088E590E00BC0802F867891F001FF67
:1025D00002C08BE201C080E2F7FC8DE290E0B30123
:1025E0000E942E1306C080E390E0B3010E942E13D8
:1025F0009A94D914C0F3DA94F101ED0DF11D8081A4
:1026000090E0B3010E942E13DD20A9F706C080E2FE
:1026100090E0B3010E942E13EA94EE20C1F743CE5E
:10262000F30166817781CB012B96E2E10C94E4D132
:10263000FC010590615070400110D8F7809590958D
:102640008E0F9F1F0895FC01615070400190011092
:10265000D8F7809590958E0F9F1F08950F931F9325
:10266000CF93DF938C01EB018B8181FF1BC082FF35
:102670000DC02E813F818C819D812817390764F41C
:10268000E881F9810193F983E88306C0E885F9853B
:10269000802F1995892B31F48E819F8101969F831C
:1026A0008E8302C00FEF1FEFC801DF91CF911F9102
:1026B0000F910895FA01AA27283051F1203181F1B4
:1026C000E8946F936E7F6E5F7F4F8F4F9F4FAF4F3A
:1026D000B1E03ED0B4E03CD0670F781F891F9A1F4D
:1026E000A11D680F791F8A1F911DA11D6A0F711D01
:1026F000811D911DA11D20D009F468943F912AE00D
:10270000269F11243019305D3193DEF6CF010895F4
:10271000462F4770405D4193B3E00FD0C9F7F6CF25
:10272000462F4F70405D4A3318F0495D31FD4052ED
:10273000419302D0A9F7EACFB4E0A6959795879583
:1027400077956795BA95C9F7009761057105089562
:102750009B01AC010A2E069457954795379527950E
:10276000BA95C9F7620F731F841F951FA01D0895A6
:102770001F920F920FB60F9211242F933F938F93B6
:102780009F93AF93BF9380916E0490916F04A0913B
:102790007004B0917104309172040196A11DB11DB5
:1027A000232F2D5F2D3720F02D570196A11DB11D30
:1027B0002093720480936E0490936F04A09370042E
:1027C000B093710480916A0490916B04A0916C04A1
:1027D000B0916D040196A11DB11D80936A04909380
:1027E0006B04A0936C04B0936D04BF91AF919F9163
:1027F0008F913F912F910F900FBE0F901F901895C2
:102800008FB7F89420916E0430916F04409170045A
:10281000509171048FBFB901CA0108959B01AC01A9
:102820007FB7F89480916A0490916B04A0916C0436
:10283000B0916D0466B5A89B05C06F3F19F0019675
:10284000A11DB11D7FBFBA2FA92F982F8827860FF2
:10285000911DA11DB11D62E0880F991FAA1FBB1F0A
:102860006A95D1F7BC012DC0FFB7F89480916A0436
:1028700090916B04A0916C04B0916D04E6B5A89B97
:1028800005C0EF3F19F00196A11DB11DFFBFBA2F82
:10289000A92F982F88278E0F911DA11DB11DE2E051
:1028A000880F991FAA1FBB1FEA95D1F7861B970BAC
:1028B000885E9340C8F221503040404050406851FB
:1028C0007C4F211531054105510571F60895019799
:1028D00039F0880F991F880F991F02970197F1F718
:1028E0000895789484B5826084BD84B5816084BD88
:1028F00085B5826085BD85B5816085BDEEE6F0E079
:10290000808181608083E1E8F0E0108280818260D4
:102910008083808181608083E0E8F0E08081816055
:102920008083E1EBF0E0808184608083E0EBF0E085
:10293000808181608083E1E9F0E080818260808332
:10294000808181608083E0E9F0E080818160808324
:10295000E1EAF0E080818260808380818160808311
:10296000E0EAF0E0808181608083E1E2F1E0808153
:1029700082608083808181608083E0E2F1E08081F9
:1029800081608083EAE7F0E08081846080838081D9
:102990008260808380818160808380818068808381
:1029A0001092C10008951F93CF93DF93182FEB016E
:1029B00061E00E94B315209709F4CAC0CF3FD1054A
:1029C00009F4C9C0E12FF0E0E75FFD4F8491893041
:1029D00009F466C08A30B0F48430F1F1853040F4F7
:1029E000823059F1833070F5813009F0AEC020C0DB
:1029F000873009F443C0883008F048C0863009F0B9
:102A0000A4C034C08D3009F478C08E3038F48B30D7
:102A100009F45AC08C3008F066C04CC0803109F40B
:102A200080C0813109F487C08F3009F08EC06FC03B
:102A300084B5806884BDC7BD92C084B5806284BD02
:102A4000C8BD8DC080918000806880938000D09345
:102A50008900C093880083C0809180008062809349
:102A60008000D0938B00C0938A0079C08091B00021
:102A700080688093B000C093B30071C08091B000B3
:102A800080628093B000C093B40069C080919000D0
:102A9000806880939000D0939900C09398005FC0A5
:102AA00080919000806280939000D0939B00C093AF
:102AB0009A0055C080919000886080939000D093D8
:102AC0009D00C0939C004BC08091A00080688093C3
:102AD000A0008091A0008F7B8093A000D093A900DC
:102AE000C093A8003CC08091A00080628093A000A9
:102AF000D093AB00C093AA0032C08091A000886040
:102B00008093A000D093AD00C093AC0028C080910A
:102B10002001806880932001D0932901C09328016F
:102B20001EC080912001806280932001D0932B01F0
:102B3000C0932A0114C080912001886080932001F5
:102B4000D0932D01C0932C010AC0C038D1051CF4CC
:102B5000812F60E002C0812F61E00E946616DF9144
:102B6000CF911F910895CF93DF93482F50E0CA0172
:102B70008D539E4FFC01349143585E4FFA0184916E
:102B8000882369F190E0880F991FFC01E15DFE4FF9
:102B9000A591B491FC01E75BFE4FC591D4916623EA
:102BA00051F42FB7F8948C91932F909589238C939F
:102BB000888189230BC0623061F42FB7F8948C911F
:102BC000932F909589238C938881832B88832FBFA3
:102BD00006C09FB7F8948C91832B8C939FBFDF9195
:102BE000CF910895893009F449C08A30A0F4843027
:102BF00051F1853040F4823079F1833000F5813035
:102C000009F063C026C0873079F1883098F58630A6
:102C100009F05BC025C08D3009F442C08E3028F425
:102C20008B30B1F18C30C0F52DC0803109F442C039
:102C3000813109F445C08F3009F047C037C0809119
:102C400080008F7703C0809180008F7D809380000B
:102C5000089584B58F7702C084B58F7D84BD0895B3
:102C60008091B0008F7703C08091B0008F7D8093FA
:102C7000B0000895809190008F7707C080919000F8
:102C80008F7D03C080919000877F8093900008958E
:102C90008091A0008F7707C08091A0008F7D03C036
:102CA0008091A000877F8093A000089580912001EB
:102CB0008F7703C0809120018F7D8093200108953C
:102CC00080912001877F809320010895FF920F93C8
:102CD0001F93F62E482F50E0CA01875F9D4FFC01DD
:102CE0002491CA018D539E4FFC01149143585E4FAD
:102CF000FA0104910023C9F0222319F0822F0E94C7
:102D0000F215E02FF0E0EE0FFF1FE75BFE4FA591FD
:102D1000B4919FB7F894FF2021F48C9110958123F2
:102D200002C08C91812B8C939FBF1F910F91FF90BC
:102D300008950F931F93482F50E0CA01875F9D4F5E
:102D4000FC012491CA018D539E4FFC01049143580C
:102D50005E4FFA011491112319F420E030E015C000
:102D6000222319F0822F0E94F215812F90E0880F04
:102D7000991F8D599E4FFC01A591B4918C9120E033
:102D800030E0802311F021E030E0C9011F910F9164
:102D900008951F920F920FB60F920BB60F92112447
:102DA0002F933F934F935F936F937F938F939F9353
:102DB000AF93BF93EF93FF93809177049091780442
:102DC000892B29F0E0917704F09178041995FF910F
:102DD000EF91BF91AF919F918F917F916F915F9193
:102DE0004F913F912F910F900BBE0F900FBE0F9000
:102DF0001F9018951F920F920FB60F920BB60F925D
:102E000011242F933F934F935F936F937F938F93EF
:102E10009F93AF93BF93EF93FF9380917904909129
:102E20007A04892B29F0E0917904F0917A041995BC
:102E3000FF91EF91BF91AF919F918F917F916F9192
:102E40005F914F913F912F910F900BBE0F900FBE4E
:102E50000F901F9018951F920F920FB60F920BB6FE
:102E60000F9211242F933F934F935F936F937F9310
:102E70008F939F93AF93BF93EF93FF9380917B04C6
:102E800090917C04892B29F0E0917B04F0917C04E3
:102E90001995FF91EF91BF91AF919F918F917F9184
:102EA0006F915F914F913F912F910F900BBE0F90BB
:102EB0000FBE0F901F9018951F920F920FB60F9292
:102EC0000BB60F9211242F933F934F935F936F9301
:102ED0007F938F939F93AF93BF93EF93FF938091D3
:102EE0007D0490917E04892B29F0E0917D04F0917E
:102EF0007E041995FF91EF91BF91AF919F918F91B2
:102F00007F916F915F914F913F912F910F900BBEE9
:102F10000F900FBE0F901F9018951F920F920FB633
:102F20000F920BB60F9211242F933F934F935F9301
:102F30006F937F938F939F93AF93BF93EF93FF9381
:102F40008091730490917404892B29F0E0917304AB
:102F5000F09174041995FF91EF91BF91AF919F91FA
:102F60008F917F916F915F914F913F912F910F9032
:102F70000BBE0F900FBE0F901F9018951F920F92CF
:102F80000FB60F920BB60F9211242F933F934F93CE
:102F90005F936F937F938F939F93AF93BF93EF93C1
:102FA000FF938091750490917604892B29F0E0912C
:102FB0007504F09176041995FF91EF91BF91AF914F
:102FC0009F918F917F916F915F914F913F912F9141
:102FD0000F900BBE0F900FBE0F901F9018951F9271
:102FE0000F920FB60F920BB60F9211242F933F93AF
:102FF0004F935F936F937F938F939F93AF93BF9301
:10300000EF93FF9380917F0490918004892B29F0A6
:10301000E0917F04F09180041995FF91EF91BF91A9
:10302000AF919F918F917F916F915F914F913F9160
:103030002F910F900BBE0F900FBE0F901F90189501
:103040001F920F920FB60F920BB60F9211242F936F
:103050003F934F935F936F937F938F939F93AF9320
:10306000BF93EF93FF938091810490918204892B09
:1030700029F0E0918104F09182041995FF91EF917C
:10308000BF91AF919F918F917F916F915F914F9180
:103090003F912F910F900BBE0F900FBE0F901F907E
:1030A0001895CF92DF92EF92FF920F931F93CF93D9
:1030B000DF937C016B018A01C0E0D0E00FC0D60134
:1030C0006D916D01D701ED91FC910190F081E02DA2
:1030D000C7011995C80FD91F0150104001151105DE
:1030E00071F7CE01DF91CF911F910F91FF90EF907B
:1030F000DF90CF900895DC01ED91FC910190F0817B
:10310000E02D19950895CF93DF93EC0161157105BA
:1031100019F420E030E00FC0DB010D900020E9F74A
:103120001197A61BB70BE881F9810280F381E02D8E
:10313000AD0119959C01C901DF91CF9108950E94BD
:1031400083180895089580914C07089567707070F2
:10315000E82FF0E0E75FFD4F84918B3028F4883052
:10316000A0F4863090F106C08E30D0F08F508330BE
:1031700060F521C08091B100887F8093B10080917B
:10318000B100862B8093B100089580919100887FD3
:103190008093910080919100862B809391000895F7
:1031A0008091A100887F8093A1008091A100862B4F
:1031B0008093A100089580912101887F809321014F
:1031C00080912101862B8093210108950F931F93F5
:1031D000CF93DF938130910549F46F5F7F4F09F002
:1031E00046C083E894E00E94A88541C0892B09F07D
:1031F0003EC06F5F7F4FD9F583EE93E090934E060C
:1032000080934D0680915406882321F081E596E055
:103210000E943443C9E0D6E003EE13E005C06F9787
:1032200084E0C33DD80751F0198308838F81882338
:10323000B1F3CE0104960E943443F1CF83EE93E0C4
:10324000998388838F81882321F0CE0104960E9480
:10325000344383EE93E09093B3048093B20480915F
:10326000B904882321F086EB94E00E943443DF9177
:10327000CF911F910F91089580E090E06FEF7FEF65
:103280000E94E618089581E090E06FEF7FEF0E94C2
:10329000E61808950E94556E80914C07882309F026
:1032A0003AC081E080934C0780914F07909150077E
:1032B000A0915107B0915207809353079093540700
:1032C000A0935507B0935607E5E5F2E0949108C046
:1032D0008091C00085FFFCCF9093C60031969491F9
:1032E0009923B1F7E6E6F2E0949108C08091C0001E
:1032F00085FFFCCF9093C600319694919923B1F746
:103300008091C00085FFFCCF8AE08093C6008CE5E9
:1033100092E00E9439C50895F8940E94556E159A5E
:1033200010923E07179A10923F07429A1092400758
:10333000A09A8CE060E00E94B315E5E5F2E094917C
:1033400008C08091C00085FFFCCF9093C6003196E5
:1033500094919923B1F7E5EEF2E0949108C0809141
:10336000C00085FFFCCF9093C600319694919923BD
:10337000B1F78091C00085FFFCCF8AE08093C60042
:103380008CED92E00E9448C5809A8898FFCF0E94F9
:1033900000146093570770935807809359079093D0
:1033A0005A07E0918007F0918107EE57F84F80812E
:1033B0008823A9F4E4E0F3E0949108C08091C00070
:1033C00085FFFCCF9093C600319694919923B1F775
:1033D0008091C00085FFFCCF8AE08093C6000895ED
:1033E000EF92FF920F931F930E940014E0905B07EF
:1033F000F0905C0700915D0710915E0720915707E0
:10340000309158074091590750915A07621B730B2E
:10341000840B950BE616F7060807190738F4E11434
:10342000F1040105110511F00E948C1980916303CC
:1034300090916403A0916503B09166030097A10584
:10344000B10559F10E940014209157073091580797
:103450004091590750915A07621B730B840B950BCF
:10346000209163033091640340916503509166039A
:10347000261737074807590780F49091EB10809181
:10348000EC10981751F4159A10923E07179A109263
:103490003F07429A10924007A09A0E9415561F912A
:1034A0000F91FF90EF9008956F927F928F929F926D
:1034B000AF92BF92CF92DF92EF92FF920F931F9342
:1034C000F82E60915F07709160078091610790917D
:1034D000620720916307309164074091650750911E
:1034E00066070E9495CF3B014C0100D000D00DB77C
:1034F0001EB70F5F1F4F60915103709152038827D1
:1035000077FD8095982F0E941CCE20916703309103
:1035100068034091690350916A030E945AD020E0E9
:1035200030E040E752E40E9481CD20E030E048ECFA
:1035300052E40E9481CD5B016C01F80160827182CE
:1035400082829382F48280914107858386E197E0AD
:103550006BE677E04FE557E020E001E032E0E32E54
:103560000E94155080916B0790916C07A0916D0798
:10357000B0916E078093160790931707A0931807D2
:10358000B093190780916F0790917007A091710710
:10359000B091720780931A0790931B07A0931C07A2
:1035A000B0931D078091730790917407A0917507E0
:1035B000B091760780931E0790931F07A093200772
:1035C000B09321078091770790917807A0917907B0
:1035D000B0917A078093220790932307A093240742
:1035E000B09325078DB79EB706960FB6F8949EBF89
:1035F0000FBE8DBF0E940014609357077093580749
:103600008093590790935A071F910F91FF90EF9065
:10361000DF90CF90BF90AF909F908F907F906F90F2
:103620000895CF92DF92EF92FF920F931F930E9423
:10363000001460935707709358078093590790932D
:103640005A0760911607709117078091180790919B
:10365000190720916B0730916C0740916D075091CD
:103660006E070E947ACD882309F07AC060911A070C
:1036700070911B0780911C0790911D0720916F0787
:103680003091700740917107509172070E947ACD76
:10369000882309F065C06091670370916803809189
:1036A000690390916A0320E030E040E752E40E9411
:1036B00081CD7B018C018BE697E06FE677E043E7F5
:1036C00057E027E737E0E1E4CE2EE7E0DE2E0E9468
:1036D000FC5880916B0790916C07A0916D07B09199
:1036E0006E078093160790931707A0931807B0935F
:1036F000190780916F0790917007A0917107B091A1
:10370000720780931A0790931B07A0931C07B0932E
:103710001D078091730790917407A0917507B09170
:10372000760780931E0790931F07A0932007B093FE
:1037300021078091770790917807A0917907B09140
:103740007A078093220790932307A0932407B093CE
:1037500025071F910F91FF90EF90DF90CF90089574
:103760006091510370915203882777FD8095982FBF
:103770000E941CCE20916703309168034091690339
:1037800050916A030E945AD020E030E040E752E4B2
:103790000E9481CD20E030E048EC52E488CF8DE9F2
:1037A00099E00E94463DE7E0F3E0949108C08091E3
:1037B000C00085FFFCCF9093C60031969491992369
:1037C000B1F740914F0750915007609151077091A8
:1037D00052074F5F5F4F6F4F7F4F8DE999E02AE0AF
:1037E00030E00E94073E8091C00085FFFCCF8AE058
:1037F0008093C6000E94C71908952F923F924F925E
:103800005F926F927F928F929F92AF92BF92CF9270
:10381000DF92EF92FF920F931F93DF93CF93CDB779
:10382000DEB728970FB6F894DEBF0FBECDBF9887DE
:103830008F838330910508F056C1FC01E25CFA4F9A
:10384000D4903C01660C771C660C771C93012A5EB1
:10385000384F3A83298380E090E0A0E0B0E0F9019E
:1038600080839183A283B38386E197E06AE177E066
:103870004EE157E022E237E00E94ED53F301EE5CA7
:10388000FA4FE590F590059114916D2D772767FD1E
:103890007095882777FD8095982F0E941CCE1B017C
:1038A0002C0193012559384F3C832B83C801B70164
:1038B00020E030E040EC5FE30E945AD0A201910189
:1038C0000E945AD0AB81BC816D937D938D939C9364
:1038D0001397F301EF5BFC4FFE83ED8360817181F1
:1038E0008281938160936703709368038093690377
:1038F00090936A0320E030E040E752E40E9481CDDB
:103900007B018C018BE697E06FE677E043E757E0B9
:1039100027E737E0A1E4CA2EA7E0DA2E0E94FC5880
:103920000E945A6680E090E0A0E0B0E0E981FA8170
:1039300080839183A283B38386E197E06AE177E095
:103940004EE157E022E237E00E94ED53F301EB59DC
:10395000FA4F85909590A590B490C501B401905808
:10396000A20191010E945AD0AB81BC816D937D93DD
:103970008D939C9313976091670370916803809176
:10398000690390916A0320E030E040E752E40E942E
:1039900081CD7B018C018BE697E06FE677E043E712
:1039A00057E027E737E00E94FC580E945A66C5019D
:1039B000B401A50194010E94A1CCA20191010E9431
:1039C0005AD0EB81FC816083718382839383AD81C4
:1039D000BE816D917D918D919C9120E030E040E021
:1039E0005FE30E945AD060936703709368038093EB
:1039F000690390936A0320E030E040E752E40E94BC
:103A000081CD7B018C018BE697E06FE677E043E7A1
:103A100057E027E737E00E94FC580E945A66F301FE
:103A2000EF5BFA4F6591759185919491F301EA5D91
:103A3000F84FA080B180C280D380A60195010E947A
:103A4000A1CC7B018C01CB01D801E981FA81808373
:103A50009183A283B383F301E35BFA4F6591759180
:103A600085919491F2E38F2EF7E09F2E860C971CA0
:103A7000A60195010E94A1CCD4016D937D938D93F5
:103A80009C931397F301E75AFA4F659175918591CD
:103A90009491E5E5F3E06E0E7F1EA60195010E946C
:103AA000A1CCD3016D937D938D939C931397C70104
:103AB000D801EB81FC8180839183A283B38380E072
:103AC00090E0A0E0B0E08093670390936803A09338
:103AD0006903B0936A030E944865AF81B885A25C10
:103AE000B84F81E08C9328960FB6F894DEBF0FBED6
:103AF000CDBFCF91DF911F910F91FF90EF90DF909D
:103B0000CF90BF90AF909F908F907F906F905F907D
:103B10004F903F902F900895682F2091800730910B
:103B2000810780E690E0AC01249FC001259F900DA5
:103B3000349F900D11248457984F70E00E94E81034
:103B40009C0190938B0780938A0780E0232B09F0D8
:103B500081E00895FC01949108C08091C00085FF28
:103B6000FCCF9093C600319694919923B1F78DE9DB
:103B700099E022E030E00E94173F0895FC01949103
:103B800008C08091C00085FFFCCF9093C60031969D
:103B900094919923B1F78DE999E02AE030E00E94F1
:103BA000E83D089580918A0790918B07019660E027
:103BB00070E04AE050E00E94500F089580918A071B
:103BC00090918B07019660E070E00E94F00D0895DF
:103BD000CF93DF93EC018091410780934E0784E5FA
:103BE0000E948C1D882309F46FC00E94DE1D0E9474
:103BF000EECD262F60934E07662309F465C0EFE4EF
:103C0000F2E0949108C08091C00085FFFCCF9093B2
:103C1000C600319694919923B1F7C936D10599F030
:103C2000CA36D10524F4C836D105F1F50FC0CD361A
:103C3000D10531F0CA3DD105B9F5E0E0F2E031C07F
:103C4000E7E1F2E023C0EEE2F2E015C0E5E4F2E0E5
:103C500007C08091C00085FFFCCF31969093C600CD
:103C600090819923B1F720C08091C00085FFFCCFDF
:103C700031969093C60090819923B1F715C0809139
:103C8000C00085FFFCCF31969093C60090819923A8
:103C9000B1F70AC08091C00085FFFCCF31969093A8
:103CA000C60090819923B1F78DE999E0622F40E039
:103CB00050E00E94F53D8091C00085FFFCCF8AE076
:103CC0008093C60081E001C080E0DF91CF9108952C
:103CD000AF92BF92CF92DF92EF92FF920F931F931A
:103CE000CF93DF9316E1E12E17E0F12ECBE6D7E07C
:103CF00000E010E0F801ED55FC4F80810E948C1D22
:103D0000882339F10E94DE1D5B016C01F801E05F40
:103D1000F84F8081882311F061E002C060917B0739
:103D200070E0882777FD8095982F0E941CCEF701C0
:103D300020813181428153810E945AD09B01AC0184
:103D4000C601B5010E94A1CC688379838A839B83D5
:103D500009C0F70180819181A281B3818883998311
:103D6000AA83BB830F5F1F4F84E090E0E80EF91E2B
:103D700024960430110509F0BDCF86E40E948C1D05
:103D80008823E1F00E94DE1D7B018C0160937C079B
:103D900070937D0780937E0790937F0720E030E04B
:103DA00040E050E00E9488CF181644F4E092670388
:103DB000F09268030093690310936A03DF91CF9137
:103DC0001F910F91FF90EF90DF90CF90BF90AF9039
:103DD00008950E94681E89E40E948C1D882359F072
:103DE0000E94DE1D60935F077093600780936107F8
:103DF000909362070CC080E090E0A0E0B0E0809378
:103E00005F0790936007A0936107B09362078AE40D
:103E10000E948C1D882359F00E94DE1D6093630769
:103E2000709364078093650790936607089580E018
:103E300090E0A0E0B0E08093630790936407A093C4
:103E40006507B093660708952F923F924F925F9255
:103E50006F927F928F929F92AF92BF92CF92DF929A
:103E6000EF92FF920F931F93DF93CF93CDB7DEB7FF
:103E7000EE970FB6F894DEBF0FBECDBF87E40E9469
:103E80008C1D882309F404C40E94DE1D0E94E9CD24
:103E90006430710509F441C06530710554F4623035
:103EA000710541F1633071056CF57723CCF40C9406
:103EB00027356A35710509F496C36B35710534F4FD
:103EC0006C31710511F00C9427356FC06B3571059D
:103ED00009F48DC36C35710511F00C9427358CC332
:103EE00080914C07882331F40E94681E0E94111BA8
:103EF0000C944E3580914C07882321F40E94E91ED2
:103F000081E007C080914C07882339F40E94E91EA4
:103F100080E00E94541A0C944E3589E295E00E948C
:103F200039C580E50E948C1D882321F4EE24FF24EE
:103F3000870106C00E94DE1D0E94EECD7B018C0130
:103F400083E50E948C1D882361F00E94DE1D20E025
:103F500030E04AE754E40E945AD00E94EECD7B0143
:103F60008C010E945A660E9400145B016C01AE0C29
:103F7000BF1CC01ED11E0E9400146093570770938F
:103F800058078093590790935A0706C00E9473728E
:103F90000E94F0190E9413C60E9400146A157B0546
:103FA0008C059D0598F30C942735809167039091BB
:103FB0006803A0916903B0916A0380938607909388
:103FC0008707A0938807B093890780915103909148
:103FD0005203909315078093140784E690E0909322
:103FE0005203809351030E9400146093570770930B
:103FF00058078093590790935A0781E00E944F65B4
:104000008091160790911707A0911807B091190792
:1040100080936B0790936C07A0936D07B0936E0726
:1040200080911A0790911B07A0911C07B0911D0762
:1040300080936F0790937007A0937107B0937207F6
:1040400080911E0790911F07A0912007B091210732
:104050008093730790937407A0937507B0937607C6
:104060008091220790912307A0912407B091250702
:104070008093770790937807A0937907B0937A0796
:1040800080E090E0A0E0B0E0809367039093680345
:10409000A0936903B0936A0388E50E948C1D88236E
:1040A00061F489E50E948C1D882339F48AE50E9419
:1040B0008C1D882311F481E001C080E080936B03A4
:1040C000882361F488E50E948C1D882309F4D4C1FB
:1040D00089E50E948C1D882309F4CEC180E090E020
:1040E000A0E0B0E08093160790931707A0931807FD
:1040F000B093190780931A0790931B07A0931C078E
:10410000B0931D07FEE38F2EF5E09F2EF401E4909F
:1041100086E197E06AE177E04EE157E022E237E09E
:104120000E94ED53E2E3F5E06591759185919491DC
:1041300020E030E040EC5FE30E945AD05B016C016C
:10414000FF24E7FCF0940027F7FC0095102FC8012E
:10415000B7010E941CCE9B01AC01C601B5010E94B3
:104160005AD060936B0770936C0780936D079093A0
:104170006E07E6E3F5E06591759185919491089459
:10418000811C911CF401D49020E030E040EC5FE30E
:104190000E945AD07B018C016D2D772767FD7095A9
:1041A000872F972F0E941CCE9B01AC01C801B7013D
:1041B0000E945AD060936F077093700780937107C5
:1041C0009093720720914103309142034091430341
:1041D000509144032093670330936803409369032D
:1041E00050936A03E0904503F09046030091470323
:1041F00010914803C801B7010E947ACD882344F486
:10420000E0926703F09268030093690310936A03D6
:1042100060916703709168038091690390916A03CC
:1042200020E030E040E752E40E9481CD7B018C0128
:104230008BE697E06FE677E043E757E027E737E064
:10424000E1E4CE2EE7E0DE2E0E94FC580E945A6682
:10425000E1E4F5E0659175918591949120912607AF
:104260003091270740912807509129070E94A1CC3F
:104270006093160770931707809318079093190798
:10428000EDE4F5E065917591859194912091260773
:104290003091270740912807509129070E94A1CC0F
:1042A00060933207709333078093340790933507F8
:1042B000E9E5F5E065917591859194912091260746
:1042C0003091270740912807509129070E94A1CCDF
:1042D000609355037093560380935703909358034C
:1042E000E5E4F5E0659175918591949120912A0717
:1042F00030912B0740912C0750912D070E94A1CCA3
:1043000060931A0770931B0780931C0790931D07F7
:10431000E1E5F5E0659175918591949120912A07E9
:1043200030912B0740912C0750912D070E94A1CC72
:104330006093360770933707809338079093390757
:10434000EDE5F5E0659175918591949120912A07AD
:1043500030912B0740912C0750912D070E94A1CC42
:104360006093590370935A0380935B0390935C03AB
:1043700086E197E06AE177E04EE157E022E237E03C
:104380000E94ED538091160790911707A09118078E
:10439000B091190780936B0790936C07A0936D07FA
:1043A000B0936E0780911A0790911B07A0911C078C
:1043B000B0911D0780936F0790937007A0937107CA
:1043C000B0937207609167037091680380916903ED
:1043D00090916A0320E030E040E752E40E9481CDF2
:1043E0007B018C018BE697E06FE677E043E757E0CF
:1043F00027E737E00E94FC5880E090E0A0E0B0E0C2
:104400008093670390936803A0936903B0936A0352
:104410000E945A660E94486580916B0790916C07D4
:10442000A0916D07B0916E078093160790931707C0
:10443000A0931807B093190780916F0790917007A8
:10444000A0917107B091720780931A0790931B0790
:10445000A0931C07B0931D07809173079091740778
:10446000A0917507B091760780931E0790931F0760
:10447000A0932007B093210780916B03882329F430
:1044800088E50E948C1D882321F080E090E00E9446
:10449000FD1B80916B03882329F489E50E948C1D04
:1044A000882321F081E090E00E94FD1B88E50E94B6
:1044B0008C1D8823D9F00E94D21D611571058105DC
:1044C0009105A1F00E94DE1D20912607309127075B
:1044D00040912807509129070E94A1CC60931607AC
:1044E00070931707809318079093190789E50E9426
:1044F0008C1D8823D9F00E94D21D6115710581059C
:104500009105A1F00E94DE1D20912A0730912B0712
:1045100040912C0750912D070E94A1CC60931A075F
:1045200070931B0780931C0790931D0780916B036A
:10453000882329F48AE50E948C1D882321F082E0DB
:1045400090E00E94FD1B8AE50E948C1D8823D9F013
:104550000E94D21D6115710581059105A1F00E948F
:10456000DE1D20912E0730912F074091300750918A
:1045700031070E94A1CC60931E0770931F078093A0
:1045800020079093210786E197E06AE177E04EE10A
:1045900057E022E237E00E94ED5380918607909128
:1045A0008707A0918807B09189078093670390934C
:1045B0006803A0936903B0936A03809114079091F4
:1045C000150790935203809351030E940014609347
:1045D0005707709358078093590790935A070E9482
:1045E00048650C94273510927B070C94273581E0A1
:1045F00080937B070C94273585E40E948C1D8823CB
:1046000011F40E945A6646E1E42E47E0F42E36E2A9
:10461000C32E37E0D32E00E010E0F801ED55FC4F3B
:1046200080810E948C1D882331F1033061F40E9447
:10463000DE1DF701608371838283938382E297E0BA
:104640000E94CF5318C00E94DE1DF60120813181E7
:10465000428153810E94A1CCF701608371838283E0
:10466000938386E197E06AE177E04EE157E022E24A
:1046700037E00E94ED530F5F1F4F24E030E0E20E61
:10468000F31EC20ED31E0430110539F60C942735E3
:104690008DE40E948C1D882311F40C9449340E94EF
:1046A000DE1D0E94E9CD6D36710509F4ACC56E368C
:1046B00071050CF09CC06E31710509F48FC26F3129
:1046C00071050CF042C06631710509F4EDC1673126
:1046D0007105E4F46131710509F4A6C16231710517
:1046E00034F46230710510F00C9427353EC164310A
:1046F000710509F4A3C1653171050CF0CFC16231B8
:10470000710511F00C9427350C94342C6931710526
:1047100009F4FCC16A31710554F46731710509F47B
:10472000C9C16831710511F00C942735DFC16B31B7
:10473000710509F410C26B3171050CF4EDC16C31D7
:10474000710511F00C9427350CC26335710511F415
:104750000C942F2C6435710514F56A32710509F437
:10476000B3C36B32710554F46F31710509F427C37B
:104770006032710511F00C94273576C261357105F0
:1047800011F40C940C2C6235710514F00C942B2C44
:104790006035710511F00C9427350C94FD2B6836AB
:1047A000710509F4DBC3693671058CF46535710553
:1047B00011F40C948D2C6535710514F40C94342C83
:1047C0006C35710511F00C9427350C94A42C6A36C5
:1047D000710511F40C94C62B6A3671050CF4EFC305
:1047E0006B36710511F00C9427350C94F72B6C3D4A
:1047F000710511F40C9425306D3D71050CF04FC01E
:104800006C38710509F4CAC36D38710524F5653734
:10481000710511F40C943A2D6637710564F4623712
:10482000710511F40C94512D6337710511F00C943E
:1048300027350C942A2D6837710511F40C94452EF8
:104840006937710511F40C94492E6737710511F021
:104850000C94273586C06B3C710511F40C946B2FBA
:104860006C3C71055CF46E3B710509F47CC6693CD7
:10487000710511F00C9427350C94492F6D3C71058E
:1048800011F40C94A92F6D3C710514F40C94892F2C
:104890006E3C710511F00C9427350C94073031E013
:1048A0006039730711F40C94F93141E061397407F0
:1048B0004CF551E06C32750711F40C949B3081E09B
:1048C0006D32780764F46D3D710511F40C94343049
:1048D000623E710511F00C9427350C94433091E041
:1048E0006E32790711F40C94AA31E1E06E327E0742
:1048F00014F40C94D2306F52714011F00C9427359F
:104900000C94B93121E0673F720711F40C94053221
:1049100031E0683F73079CF441E0653F740711F490
:104920000C94FF3151E0663F750714F00C9402328D
:10493000645F714011F00C9427350C94FC3193E0C6
:10494000603A790709F400C2E3E0673E7E0711F49C
:104950000C9432346855724011F00C9427350C9445
:104960000832ECE5F2E00C94542E88E195E00E94C8
:1049700039C580E50E948C1D882321F4EE24FF2494
:10498000870106C00E94DE1D0E94EECD7B018C01D6
:1049900083E50E948C1D882361F00E94DE1D20E0CB
:1049A00030E04AE754E40E945AD00E94EECD7B01E9
:1049B0008C010E945A660E940014609357077093FE
:1049C00058078093590790935A07E114F1040105A1
:1049D000110501F10E9400145B016C01AE0CBF1CBB
:1049E000C01ED11E0E9400146A157B058C059D0512
:1049F000A8F40E94F692882389F40E9473720E94A0
:104A0000F0190E9413C6EECF0E9473720E94F01933
:104A10000E9413C60E94F6928823B1F389E095E0C4
:104A20000E9439C50C94273580E095E00E9439C575
:104A3000159817984298A0980C942735E0EFF4E069
:104A4000949108C08091C00085FFFCCF9093C60070
:104A5000319694919923B1F78091C00085FFFCCFE6
:104A60008AE08093C60083E894E00E945B85E2EED2
:104A7000F4E0949108C08091C00085FFFCCF909332
:104A8000C600319694919923B1F78091C00085FFBB
:104A9000FCCF8AE08093C6000C94273583E894E02D
:104AA0000E94BA800C94273583E894E00E94F27843
:104AB0000C94273580918A0790918B0704966AE2BF
:104AC00070E00E94E810FC01009711F0319710820D
:104AD00060918A0770918B076C5F7F4F83E894E049
:104AE00041E021E00E94D07C0C94273583E894E0DB
:104AF0000E94F6780E940014609344077093450763
:104B000080934607909347070C94273583E894E0F9
:104B10000E94FD780C94273580918604882311F437
:104B20000C94273583E50E948C1D882311F40C9486
:104B300027350E94D21DAB01BC014093060750935C
:104B40000707809308077093090781E596E00E94A4
:104B50001A420C94273583E894E00E94BB7A0C94A7
:104B6000273580918A0790918B0704966AE270E05E
:104B70000E94E8108C01009719F120918007309174
:104B8000810780E690E0AC01249FC001259F900D35
:104B9000349F900D11248457984F6EE470E00E946A
:104BA000E81060E270E00E94E8109C012F5F3F4F28
:104BB00030938B0720938A0701501040F801108230
:104BC00060918A0770918B076C5F7F4F83E894E058
:104BD00040E021E00E94D07C0C942735809186042F
:104BE000882311F40C94273583E894E060E00E9458
:104BF0002A7A80918A0790918B0704966AE270E086
:104C00000E94E8108C01009719F1209180073091E3
:104C1000810780E690E0AC01249FC001259F900DA4
:104C2000349F900D11248457984F6EE470E00E94D9
:104C3000E81060E270E00E94E8109C012F5F3F4F97
:104C400030938B0720938A0701501040F80110829F
:104C500060918A0770918B076C5F7F4F83E894E0C7
:104C60000E94157B0C94273580918504882311F0D0
:104C70000E945A66E0908A07F0908B0724E030E0AB
:104C8000E20EF31EC7016AE270E00E94E8108C0198
:104C9000C70161E270E00E94E810009721F07C01FA
:104CA0000894E11CF11C0115110521F00150104080
:104CB000F801108280E50E948C1D182F80918A07D0
:104CC00090918B07E816F90608F410E080918604AD
:104CD000882311F40C94273521E0212783E894E000
:104CE000B70141E00E94D07C83E50E948C1D88239F
:104CF000B9F080918A0790918B078E159F0580F4FB
:104D00000E94D21DAB01BC014093060750930707D8
:104D1000809308077093090781E596E00E941A4284
:104D200083E894E00E94F678112311F00C94273563
:104D30000E940014609344077093450780934607D0
:104D4000909347070C94273580918A0790918B07A1
:104D500005966AE270E00E94E8108C01009719F154
:104D6000209180073091810780E690E0AC01249F7C
:104D7000C001259F900D349F900D11248457984FAA
:104D80006EE470E00E94E81060E270E00E94E810BB
:104D90009C012F5F3F4F30938B0720938A07015070
:104DA0001040F801108260918A0770918B076B5F49
:104DB0007F4F83E894E00E94B1800C9427350E94D5
:104DC0000014609348077093490780934A079093B3
:104DD0004B07209144073091450740914607509179
:104DE0004707621B730B840B950B28EE33E040E002
:104DF00050E00E9472D1F22EE32ED42EC52E2DB794
:104E00003EB7285030400FB6F8943EBF0FBE2DBFBE
:104E10000DB71EB70F5F1F4FCE018196EDB7FEB7DE
:104E20009283818383ED94E0F801938382836F2DD5
:104E30007E2D842F952F2CE330E040E050E00E943F
:104E400072D1F801358324836F2D7E2D8D2D9C2DFD
:104E50002CE330E040E050E00E9472D1F80177830B
:104E600066830E941711EFE4F2E094912DB73EB7EC
:104E7000285F3F4F0FB6F8943EBF0FBE2DBF08C04E
:104E80008091C00085FFFCCF9093C600319694912D
:104E90009923B1F7FE01B19607C08091C00085FF4C
:104EA000FCCF31969093C60090819923B1F7809101
:104EB000C00085FFFCCF8AE08093C600CE018196BA
:104EC0000E945CC50C94273583E50E948C1D8823C5
:104ED00011F40C9427350E94DE1D0E94E9CD7B0160
:104EE0008C016B0180E50E948C1D882369F0F7FC22
:104EF0000BC03FEFE316F10409F034F40E94DE1D0D
:104F00000E94E9CD8B0102C00DE010E0E7EAF3E07A
:104F1000808191818017910711F40C942735329686
:104F200044E0E731F407A1F70730110529F4D092E6
:104F30004307C092420704C017FF02C00C942735F4
:104F4000802F61E00E94B315802F6C2D0E946616A1
:104F5000802FB6010E94D3140C94273588E690E088
:104F60000E94E81D882311F00C94273583E50E94E8
:104F70008C1D882379F00E94DE1D20914E07022FA0
:104F800010E0000F111F045B1E4E0E94E9CDF801D6
:104F9000718360830E9458700C94273583E50E94CA
:104FA0008C1D882311F40C9427350E94DE1D0E946D
:104FB000E9CD70934F1160934E110C94273589E61B
:104FC00090E00E94E81D882311F00C942735EDEC49
:104FD000F4E0949108C08091C00085FFFCCF9093CD
:104FE000C600319694919923B1F7E0914E07F0E015
:104FF000EE0FFF1FEE0FFF1FEE5AFE4E4081518154
:10500000628173818DE999E021E030E00E94173FD1
:10501000EAECF4E0949108C08091C00085FFFCCFD9
:105020009093C600319694919923B1F7E0914E0781
:10503000F0E0EE0FFF1FE45BFE4E60817181882778
:1050400077FD8095982F0E941CCEAB01BC018DE9A5
:1050500099E021E030E00E94173FE6ECF4E0949103
:1050600008C08091C00085FFFCCF9093C6003196A8
:1050700094919923B1F74091581150915911609131
:105080005A1170915B118DE999E021E030E00E94A6
:10509000173FE3ECF4E0949108C08091C00085FFD5
:1050A000FCCF9093C600319694919923B1F760910B
:1050B0004E1170914F11882777FD8095982F0E948F
:1050C0001CCEAB01BC018DE999E021E030E00E94EB
:1050D000173FE0ECF4E0949108C08091C00085FF98
:1050E000FCCF9093C600319694919923B1F78DE946
:1050F00099E060E070E04AE050E00E943C3EEEEB58
:10510000F4E0949108C08091C00085FFFCCF90939B
:10511000C600319694919923B1F740915211509164
:10512000531160915411709155118DE999E021E06E
:1051300030E00E94173FEBEBF4E0949108C08091BF
:10514000C00085FFFCCF9093C600319694919923BF
:10515000B1F760914C1170914D11882777FD8095C2
:10516000982F0E941CCEAB01BC018DE999E021E093
:1051700030E00E94173FE7EBF4E0949108C0809183
:10518000C00085FFFCCF9093C6003196949199237F
:10519000B1F780914E070E944A6EBC018DE999E0FB
:1051A0004AE050E00E943C3EE2EBF4E0949108C0FB
:1051B0008091C00085FFFCCF9093C60031969491FA
:1051C0009923B1F78FEF9FEF0E944A6EBC018DE9E2
:1051D00099E04AE050E00E943C3EE5E7F2E007C07B
:1051E0008091C00085FFFCCF31969093C6009081DE
:1051F0009923B1F78091C00085FFFCCF8AE08093AE
:10520000C6000C944E358DE690E00E94E81D882380
:1052100011F00C94273587EA94E00E9439C583E5A4
:105220000E948C1D882399F00E94DE1D20914E075C
:10523000022F10E0000F111F045B1E4E0E94E9CDEB
:10524000F8017183608381E08093620316C082E578
:105250000E948C1D882389F00E94DE1D20914E073C
:10526000022F10E0000F111F045B1E4E0E94E9CDBB
:10527000F80171836083109262030E9458700E944B
:1052800000144B015C0120914E07022F10E0109298
:105290004D07000F111FF801E45BFE4E6081718124
:1052A000882777FD8095982F0E941CCE000F111F34
:1052B0000E5A1E4EF80120813181428153810E9495
:1052C00088CF18161CF481E080934D07CC24CA9433
:1052D000DC2C7601E4EAF4E05490E0EAF4E0649037
:1052E000ECE9F4E074905AE0452E30C1952DE4EAE3
:1052F000F4E008C08091C00085FFFCCF9093C60009
:10530000319694919923B1F7E0914E07F0E0EE0FBA
:10531000FF1FEE0FFF1FEE5AFE4E4081518162814A
:1053200073818DE999E021E030E00E94173F962DCE
:10533000E0EAF4E008C08091C00085FFFCCF9093C4
:10534000C600319694919923B1F760914E078DE98B
:1053500099E070E04AE050E00E943C3E972DECE975
:10536000F4E008C08091C00085FFFCCF9093C60098
:10537000319694919923B1F7F7FE03C0E6E7F2E086
:1053800028C00E940014A70196012854344F4F4FA3
:105390005F4F261B370B480B590BCA01B90128EE8A
:1053A00033E040E050E00E9472D18DE999E0BA010B
:1053B000A9012AE030E00E94E83D8091C00085FF0D
:1053C000FCCF0EC08091C00085FFFCCF319690933A
:1053D000C60090819923B1F78091C00085FFFCCF72
:1053E0004092C6000E9400144B015C010E9473723F
:1053F0000E94F0190E9413C6FFEFCF16FFEFDF06E1
:10540000FFEFEF06FFEFFF0609F052C080914D0756
:10541000E0914E07882331F1F0E08F01000F111F5A
:10542000000F111F0E5A1E4EEE0FFF1FE45BFE4EC3
:1054300060817181882777FD8095982F0E941CCE0E
:1054400020E030E040E85FE30E94A0CC9B01AC018B
:10545000F80160817181828193810E9488CF87FFEA
:1054600058C05EC0F0E08F01000F111F000F111F28
:105470000E5A1E4EEE0FFF1FE45BFE4E60817181DF
:10548000882777FD8095982F0E941CCE20E030E081
:1054900040E85FE30E94A1CC9B01AC01F801608170
:1054A0007181828193810E947ACD181694F538C05B
:1054B000F7FC36C0E0914E07F0E08F01000F111F9E
:1054C000000F111F0E5A1E4EEE0FFF1FE45BFE4E23
:1054D00060817181882777FD8095982F0E941CCE6E
:1054E0009B01AC01F80160817181828193810E94EE
:1054F000A0CC0E94E9CD97FF07C09095809570954C
:1055000061957F4F8F4F9F4F6430710581059105E5
:105510003CF00E940014AC01CB01DA016C017D016A
:10552000FFEFCF16FFEFDF06FFEFEF06FFEFFF06FF
:1055300069F0F7FE02C00C942A350E9400146C1921
:105540007D09685B7B4010F00C942A350E940014A2
:10555000681979098A099B09695E73408040904007
:1055600008F0C4CE43CF81E894E00E9439C583E5BA
:105570000E948C1D882361F00E94DE1D0E94E9CDEF
:1055800070934F1160934E1181E0809362030FC0BE
:1055900082E50E948C1D882351F00E94DE1D0E942E
:1055A000E9CD70934F1160934E11109262030E94E7
:1055B00000147B018C0110924D0760914E11709187
:1055C0004F11882777FD8095982F0E941CCE20913F
:1055D00058113091591140915A1150915B110E940C
:1055E00088CF18160CF082C081E080934D077EC0F2
:1055F0000E9400146E197F09800B910B695E734045
:105600008040904008F46BC0E0914107F0E0EE0F5D
:10561000FF1FEE0FFF1FEE5AFE4E40815181628147
:1056200073819B2DEEE7F4E008C08091C00085FFF8
:10563000FCCF9093C600319694919923B1F78DE9F0
:1056400099E022E030E00E94173F9C2DEAE7F4E069
:1056500008C08091C00085FFFCCF9093C6003196B2
:1056600094919923B1F7609141078DE999E070E039
:105670004AE050E00E943C3E9D2DE6E7F4E008C081
:105680008091C00085FFFCCF9093C6003196949125
:105690009923B1F7409158115091591160915A11C5
:1056A00070915B118DE999E021E030E00E94173F95
:1056B000E5E7F2E007C08091C00085FFFCCF31969E
:1056C0009093C60090819923B1F78091C00085FF27
:1056D000FCCFA092C6000E9400147B018C010E94A6
:1056E00073720E94F0190E9413C60BC0EEE7F4E03B
:1056F000B490EAE7F4E0C490E6E7F4E0D4906AE01E
:10570000A62E80914D0720914E1130914F11882384
:10571000A9F0B901882777FD8095982F0E941CCEAB
:10572000209158113091591140915A1150915B11AB
:105730000E9488CF18160CF45BCF18C0B9018827D7
:1057400077FD8095982F0E941CCE209158113091A2
:10575000591140915A1150915B110E947ACD8823C2
:105760002CF480916203882309F442CF8CE694E004
:105770000E9439C50E940014609357077093580720
:105780008093590790935A070C94273583E50E941C
:105790008C1D882321F10E94DE1D20E030E040E0D6
:1057A00050E00E947ACD88231CF460E070E011C0C4
:1057B0000E94DE1D20E030E04FE753E40E9488CFD6
:1057C00018161CF46FEF70E004C00E94DE1D0E94EA
:1057D000E9CD70934307609342070C9427358FEF10
:1057E00090E090934307809342070C9427351092E2
:1057F0004307109242070C942735269A2E98809AD8
:10580000889A81E0809361038BE594E00E9439C51A
:105810000E9413C60C9427350E94556E0E945A664A
:10582000A09A0E946866109243071092420768EEA1
:1058300073E080E090E00E940E140E945A66809A05
:105840008898109261038CE494E00E9439C50E940C
:1058500013C60C942735109213070C94273581E05A
:10586000809313070C94273583E50E948C1D8823B1
:10587000A1F00E94DE1D20E030E04AE754E40E94DF
:105880005AD00E94EECD60936303709364038093BB
:105890006503909366030C94273588E50E948C1D60
:1058A000882311F00C94433589E50E948C1D8823D0
:1058B00011F00C9443358AE50E948C1D882311F069
:1058C0000C94433585E40E948C1D882311F00C94C0
:1058D00043350E945A66A09A0E9468660C94273548
:1058E000159A10923E0789E50E948C1D882319F0B5
:1058F000179A10923F078AE50E948C1D882319F0A1
:10590000429A1092400785E40E948C1D882311F46E
:105910000C942735A09A0C94273583E50E948C1DA2
:105920000E94DE1D20E030E04AE754E40E945AD095
:105930000E94EECD60935B0770935C0780935D07D8
:1059400090935E070C9427355FEB652E5BE0752E18
:105950004FEA242E4BE0342E3BEF432E3BE0532EF8
:1059600088249924F401ED55FC4F80810E948C1D00
:10597000882309F45DC053E0851609F052C00E94E7
:10598000DE1D5B016C0120E030E040EA51E40E9442
:105990007ACD88230CF03FC0F30160817181828150
:1059A0009381A60195010E9481CD7B018C016091BC
:1059B000F30B7091F40B8091F50B9091F60BA8010D
:1059C00097010E945AD06093F30B7093F40B80936D
:1059D000F50B9093F60BF1016081718182819381C7
:1059E000A80197010E945AD0F101608371838283DC
:1059F0009383F20160817181828193810E941ACE2A
:105A0000A80197010E945AD00E94EECDF201608356
:105A1000718382839383F301A082B182C282D38295
:105A200007C00E94DE1DF30160837183828393832C
:105A30000894811C911C24E030E0620E731E220E3B
:105A4000331E420E531E34E08316910409F08ACFB0
:105A50000C942735E2E8F3E0949108C08091C000EF
:105A600085FFFCCF9093C600319694919923B1F7AE
:105A70000C94273580918A0790918B0705966AE2EE
:105A800070E00E94E810FC01009711F0319710823D
:105A900080918A0790918B0705960E945CC50C94B3
:105AA0002735EFE7F3E0949108C08091C00085FFAF
:105AB000FCCF9093C600319694919923B1F7409111
:105AC00016075091170760911807709119078DE913
:105AD00099E022E030E00E94173FECE7F3E0949178
