:100000000C943F190C946A190C946A190C946A198F
:100010000C946A190C946A190C946A190C946A1954
:100020000C946A190C946A190C946A190C946A1944
:100030000C946A190C94EC190C946A190C946A19B2
:100040000C946A190C94D5810C946A190C946A1951
:100050000C946A190C946A190C94A38A0C944B1A88
:100060000C946A190C9448570C946A190C946A19E8
:100070000C946A190C946A190C946A190C946A19F4
:100080000C946A190C946A190C946A190C946A19E4
:100090000C946A190C946A190C946A190C94369D84
:1000A0000C946A190C946A190C946A190C946A19C4
:1000B0000C946A190C946A190C946A190C946A19B4
:1000C0000C946A190C946A190C946A190C946A19A4
:1000D0000C946A190C946A190C946A190C946A1994
:1000E0000C946A19084AD73B3BCE016E84BCBFFD15
:1000F000C12F3D6C74319ABD56833DDA3D00C77FF8
:1001000011BED9E4BB4C3E916BAAAABE0000008090
:100110003F05A84CCDB2D44EB93836A9020C50B91F
:10012000918688083CA6AAAA2ABE000000803F0249
:1001300000002100240027002A002D003000330099
:1001400001010000040107010A010000220025004E
:1001500028002B002E0031003400020100000501B0
:1001600008010B01000020002300260029002C00BC
:100170002F003200000100000301060109010505FE
:100180000505070508080808020202020A0A08080D
:10019000040404040101010101010101030303033B
:1001A00003030303040707070C0C0C0C0C0C0C0CCA
:1001B0000202020206060606060606060B0B0B0BDB
:1001C0000B0B0B0B01021020200808102040102000
:1001D000408002010201080402010102040810200B
:1001E0004080804020100804020180040201804009
:1001F0002010080402010804020101020408102072
:10020000408001020408102040800000090A020812
:100210000B0C0D07060304010000000000000000A5
:1002200000000000000000000000000000000000CE
:1002300000000000000011100F000000000000008E
:1002400000000000000000000000000000000000AE
:100250004D383420582059205A2045006563686F76
:100260003A0043616E6E6F7420656E746572207320
:1002700075626469723A20004D3234004D32332089
:100280002573006175746F25692E67004572726F62
:10029000723A006572726F722077726974696E6764
:1002A00020746F2066696C6500436172642065721A
:1002B000726F723A004E6F74205344207072696EF0
:1002C00074696E67002F005344207072696E746900
:1002D0006E67206279746520002E0044656C657439
:1002E000696F6E206661696C65642C2046696C6577
:1002F0003A200046696C652064656C657465643AF3
:10030000002E006F70656E206661696C65642C203C
:1003100046696C653A200057726974696E6720748B
:100320006F2066696C653A20002E006F70656E2044
:100330006661696C65642C2046696C653A20002E04
:10034000006F70656E206661696C65642C2046697B
:100350006C653A200046696C652073656C65637452
:100360006564002053697A653A200046696C65200F
:100370006F70656E65643A20002E006F70656E20A8
:100380006661696C65642C2046696C653A2000538F
:10039000442063617264206F6B006F70656E526FF2
:1003A0006F74206661696C656400766F6C756D654D
:1003B0002E696E6974206661696C6564005344201F
:1003C000696E6974206661696C006563686F3A00E4
:1003D00048617264636F6465642044656661756C2E
:1003E000742053657474696E6773204C6F61646523
:1003F000640053746F7265642073657474696E670A
:10040000732072657472696576656400204400200B
:1004100049002020204D33303120500050494420E5
:1004200073657474696E67733A00205A002059002E
:1004300020204D323036205800486F6D65206F66A1
:100440006673657420286D6D293A00204500205A96
:100450000020580020420020540020204D3230352A
:10046000205300416476616E636564207661726931
:1004700061626C65733A20533D4D696E2066656517
:10048000647261746520286D6D2F73292C20543D92
:100490004D696E2074726176656C20666565647264
:1004A00061746520286D6D2F73292C20423D6D6984
:1004B0006E696D756D207365676D656E7420746906
:1004C0006D6520286D73292C20583D6D6178696D0C
:1004D000756D205859206A65726B20286D6D2F73D9
:1004E000292C20205A3D6D6178696D756D205A2048
:1004F0006A65726B20286D6D2F73292C2020453D75
:100500006D6178696D756D2045206A65726B202874
:100510006D6D2F73290020540020204D323034207F
:100520005300416363656C65726174696F6E3A2054
:10053000533D616363656C65726174696F6E2C20F5
:10054000543D7265747261637420616363656C65A8
:10055000726174696F6E00204500205A00205900B6
:1005600020204D3230312058004D6178696D756D15
:1005700020416363656C65726174696F6E20286DDC
:100580006D2F7332293A00204500205A002059006F
:1005900020204D3230332058004D6178696D756DE3
:1005A0002066656564726174657320286D6D2F73B4
:1005B000293A00204500205A0020590020204D39BA
:1005C0003220580053746570732070657220756E08
:1005D00069743A0053657474696E67732053746F5D
:1005E000726564006563686F3A004572726F723AB3
:1005F000005072696E7465722073746F70706564F8
:100600002064756520746F206572726F72732E207E
:1006100046697820746865206572726F7220616E19
:100620006420757365204D39393920746F207265E7
:1006300073746172742E202854656D7065726174D4
:100640007572652069732072657365742E20536519
:1006500074206974206166746572207265737461B8
:100660007274696E6729005072696E7465722068D1
:10067000616C7465642E206B696C6C282920636141
:100680006C6C656421006F6B00526573656E643A33
:1006900020002200556E6B6E6F776E20636F6D6D5C
:1006A000616E643A20220020423A300020423A3102
:1006B000006F6B20523A002200556E6B6E6F776EA2
:1006C00020636F6D6D616E643A2022007A5F6D6108
:1006D000783A2000795F6D61783A2000785F6D6923
:1006E0006E3A20005A3A00593A0020436F756E74F2
:1006F00020583A2000453A005A3A00593A00583AF0
:10070000004649524D574152455F4E414D453A4D85
:1007100061726C696E2056313B20537072696E7441
:1007200065722F6772626C206D61736875702066E8
:100730006F722067656E36204649524D57415245CB
:100740005F55524C3A687474703A2F2F6669726D17
:10075000776172652E756C74696D616B65722E635D
:100760006F6D2050524F544F434F4C5F564552537C
:10077000494F4E3A312E30204D414348494E455F56
:10078000545950453A556C74696D616B65722045DA
:10079000585452554445525F434F554E543A310ACE
:1007A0000020423A0020453A00543A0020573A00CF
:1007B00020453A00543A002042403A0020403A0096
:1007C000202F0020423A00202F006F6B20543A0067
:1007D0002569206D696E2C202569207365630045AD
:1007E0006E642066696C65206C697374004265678D
:1007F000696E2066696C65206C6973740000000086
:100800000000006643000066430000000000000096
:100810000000000000000066430000664300006620
:10082000430000664300006643000066430000A0EA
:10083000400000A04000004040FF01012569206801
:100840006F757273202569206D696E75746573000C
:10085000446F6E65207072696E74696E6720666998
:100860006C65005072696E7465722073746F70707D
:1008700065642064756520746F206572726F727391
:100880002E2046697820746865206572726F722028
:10089000616E6420757365204D39393920746F207D
:1008A000726573746172742E202854656D70657260
:1008B00061747572652069732072657365742E208A
:1008C0005365742069742061667465722072657363
:1008D00074617274696E6729006F6B004E6F204CF3
:1008E000696E65204E756D62657220776974682047
:1008F000636865636B73756D2C204C617374204C59
:10090000696E653A20004E6F20436865636B7375AE
:100910006D2077697468206C696E65206E756D62F4
:1009200065722C204C617374204C696E653A20000E
:10093000636865636B73756D206D69736D61746356
:10094000682C204C617374204C696E653A20004C11
:10095000696E65204E756D626572206973206E6FD9
:1009600074204C617374204C696E65204E756D6205
:1009700065722B312C204C617374204C696E653A82
:1009800020004D31313000446F6E6520736176690F
:100990006E672066696C652E006F6B004D32390002
:1009A0002020506C616E6E6572427566666572429B
:1009B000797465733A20002046726565204D656D37
:1009C0006F72793A20004D6172203132203230311D
:1009D0003400436F6D70696C65643A20005665722F
:1009E00073696F6E2031342E303300207C204175C6
:1009F00074686F723A20004D6172203132203230BB
:100A000031342031353A33323A333000204C61737F
:100A10007420557064617465643A2000312E302E64
:100A200030004D61726C696E200020536F667477E0
:100A30006172652052657365740020576174636844
:100A4000646F67205265736574002042726F776E21
:100A5000206F757420526573657400204578746545
:100A6000726E616C20526573657400506F776572A9
:100A70005570007374617274002200656E71756543
:100A8000696E672022002200656E717565696E6768
:100A90002022006563686F3A0020746F6F206C6FCE
:100AA0006E6720657874727573696F6E20707265F9
:100AB00076656E7465640020636F6C64206578747D
:100AC000727573696F6E2070726576656E74656499
:100AD0000000002110422063308440A550C660E72A
:100AE00070088129914AA16BB18CC1ADD1CEE1EFE3
:100AF000F13112100273325222B5529442F772D67B
:100B000062399318837BB35AA3BDD39CC3FFF3DE32
:100B1000E36224433420040114E664C774A44485CA
:100B2000546AA54BB528850995EEE5CFF5ACC58D82
:100B3000D55336722611163006D776F6669556B41A
:100B4000465BB77AA719973887DFF7FEE79DD7BCD2
:100B5000C7C448E5588668A778400861180228236A
:100B600038CCC9EDD98EE9AFF9488969990AA92B22
:100B7000B9F55AD44AB77A966A711A500A333A12BA
:100B80002AFDDBDCCBBFFB9EEB799B588B3BBB1A72
:100B9000ABA66C877CE44CC55C222C033C600C410A
:100BA0001CAEED8FFDECCDCDDD2AAD0BBD688D49C2
:100BB0009D977EB66ED55EF44E133E322E511E705A
:100BC0000E9FFFBEEFDDDFFCCF1BBF3AAF599F7812
:100BD0008F8891A981CAB1EBA10CD12DC14EF16FC3
:100BE000E18010A100C230E3200450254046706728
:100BF00060B9839893FBA3DAB33DC31CD37FE35E54
:100C0000F3B1029012F322D2323542145277625677
:100C100072EAB5CBA5A89589856EF54FE52CD50D63
:100C2000C5E234C324A014810466744764245405C7
:100C300044DBA7FAB79987B8975FE77EF71DC73CF3
:100C4000D7D326F2369106B0165766767615463417
:100C5000564CD96DC90EF92FE9C899E9898AB9AB03
:100C6000A94458654806782768C018E1088238A367
:100C7000287DCB5CDB3FEB1EFBF98BD89BBBAB9A93
:100C8000BB754A545A376A167AF10AD01AB32A92B7
:100C90003A2EFD0FED6CDD4DCDAABD8BADE89DC9A3
:100CA0008D267C076C645C454CA23C832CE01CC107
:100CB0000C1FEF3EFF5DCF7CDF9BAFBABFD98FF833
:100CC0009F176E367E554E745E932EB23ED10EF057
:100CD0001E7C3C3E5E2B3D3F2F5B5D3B2C2A225C05
:100CE0000045313A200045303A20005A3A20005958
:100CF0003A2000583A20004D53312C4D53322050A9
:100D0000696E730A0024F404D9201BC40C5C0E988D
:100D100004C4095F0265077101F405F900FB04B31F
:100D20000048048700C103690058035500030345C8
:100D300000BE023A008402310053022A0029022533
:100D40000004022000E4011C00C8011900AF0117D3
:100D5000009801140084011300710110006101105A
:100D60000051010E0043010D0036010B002B010B59
:100D70000020010B00150109000C01090003010806
:100D800000FB000800F3000800EB000700E4000689
:100D900000DE000600D8000600D2000600CC0005E8
:100DA00000C7000500C2000500BD000400B9000432
:100DB00000B5000400B1000400AD000400A9000467
:100DC00000A5000300A20003009F0004009B000395
:100DD00000980003009500020093000300900003B8
:100DE000008D0002008B00030088000200860002D4
:100DF0000084000300810002007F0002007D0002E9
:100E0000007B0002007900020077000100760002FA
:100E1000007400020072000100710002006F000205
:100E2000006D0001006C0002006A00010069000210
:100E30000067000100660001006500010064000217
:100E4000006200010061000100600001005F00021B
:100E5000005D0001005C0001005B0001005A000120
:100E60000059000100580001005700010056000120
:100E70000055000100540001005300000053000120
:100E8000005200010051000100500001004F00011C
:100E9000004E0000004E0001004D0001004C00011A
:100EA000004B0000004B0001004A00010049000116
:100EB0000048000000480001004700010046000013
:100EC000004600010045000000450001004400010B
:100ED0000043000000430001004200000042000106
:100EE000004100000041000100400001003F0000FF
:100EF000003F0001003E0000003E0001003D0000F8
:100F0000003D0001003C0000003C0000003C0001EE
:100F1000003B0000003B0001003A0000003A0001E5
:100F200000390000003900010038000000380000DE
:100F300000380001003700000037000100360000D3
:100F400000360000003600010035000000350000CA
:100F500000350001003400000034000000340001BE
:100F600000330000003300000033000100320000B5
:100F700000320000003200010031000000310000AA
:100F8000003100010030000000300000003000019E
:100F9000002F0000002F0000002F0000002F000194
:100FA000002E0000002E0000002E0001002D000089
:100FB000002D0000002D0000002D0001002C00007D
:100FC000002C0000002C0000002C0001002B000071
:100FD000002B0000002B0000002B0001002A000065
:100FE000002A0000002A0000002A00010029000059
:100FF000002900000029000000290000002900014C
:101000000028000000280000002800000028000040
:101010000028000100270000002700000027000032
:101020000027000000270001002600000026000025
:101030000026000000260000002600010025000018
:10104000002500000025000000250000002500000C
:1010500000250001002400000024000000240000FE
:1010600000240000002400010023000000230000F1
:1010700000230000002300000023000000230000E4
:1010800000230001002200000022000000220000D6
:1010900000220000002200000022000100210000C8
:1010A00000210000002100000021000000210000BC
:1010B00000210000002100010020000000200000AD
:1010C00000200000002000000020000000200000A0
:1010D0000020000000200001001F0000001F000091
:1010E000001F0000001F0000001F0000001F000084
:1010F000001F0001001E0000001E0000001E000076
:10110000001E00000024F4D43050C38E20C2A24040
:1011100017828B7011127A910D816CD90AA861E146
:1011200008C7586607615143061E4B5D05C145A7B8
:10113000041A411104093D9803713931034036DB2B
:101140000265339102D4305402802E1D02632CEECE
:1011500001752AC501B028A001102781018F2564DF
:10116000012B244B01E0223401AC211F018D200D05
:1011700001801FFC00841EED00971DDF00B81CD20B
:1011800000E61BC600201BBC00641AB200B219A8FE
:10119000000A19A0006A189900D117910040178B16
:1011A00000B516840031167E00B31579003A157328
:1011B00000C7146F0058146A00EE136600881363AA
:1011C0000025135E00C7125B006C12570015125405
:1011D00000C111510070114F0021114B00D6104970
:1011E000008D1047004610440002104200C00F401E
:1011F00000800F3E00420F3C00060F3B00CB0E3834
:1012000000930E37005C0E3500270E3400F30D32CC
:1012100000C10D3100900D3000600D2E00320D2DFB
:1012200000050D2C00D90C2B00AE0C2900850C29D3
:10123000005C0C2700350C27000E0C2600E80B2460
:1012400000C40B2400A00B23007D0B23005A0B21AC
:1012500000390B2100180B2000F80A1F00D90A1EC4
:1012600000BB0A1E009D0A1D00800A1D00630A1CA7
:1012700000470A1B002C0A1B00110A1A00F7091A62
:1012800000DD091900C4091900AB091900920917FA
:10129000007B091800630917004C0916003609166F
:1012A00000200916000A091500F5081500E00814C9
:1012B00000CC081400B8081400A408140090081307
:1012C000007D0812006B081300580812004608122F
:1012D0000034081100230811001208110001081140
:1012E00000F0071000E0071000D0071000C0071042
:1012F00000B0070F00A107100091070E0083070F31
:101300000074070F0065070E0057070E0049070E0F
:10131000003B070D002E070E0020070D0013070DE0
:101320000006070D00F9060C00ED060D00E0060CA6
:1013300000D4060C00C8060C00BC060C00B0060C5D
:1013400000A4060B0099060C008D060B0082060B0C
:101350000077060B006C060B0061060A0057060BAF
:10136000004C060A0042060A0038060A002E060A49
:101370000024060A001A060A001006090007060AD9
:1013800000FD050900F4050900EB050900E2050967
:1013900000D9050900D0050900C7050900BE0509E7
:1013A00000B5050800AD050800A50509009C050865
:1013B00000940508008C050800840508007C0508D9
:1013C00000740508006C050700650508005D050749
:1013D00000560508004E05070047050700400508B0
:1013E0000038050700310507002A05070023050717
:1013F000001C050600160507000F05070008050676
:101400000002050700FB040600F5040700EE0406D1
:1014100000E8040600E2040700DB040600D5040629
:1014200000CF040600C9040600C3040600BD04067C
:1014300000B7040600B1040500AC040600A60406CB
:1014400000A00405009B0406009504050090040616
:10145000008A04050085040500800406007A04055E
:101460000075040500700405006B040500660405A2
:1014700000610405005C04050057040500520405E2
:10148000004D04050048040500430405003E040423
:10149000003A04050035040500300404002C04055E
:1014A0000027040400230405001E0404001A040499
:1014B0000016040500110404000D040400090405CD
:1014C000000404040000040400FC030400F8030406
:1014D00000F4030400F0030400EC030400E8030438
:1014E00000E4030400E0030400DC030400D8030468
:1014F00000D4030400D0030400CC030400C8030399
:1015000000C50303006563686F3A00205A3A002063
:10151000593A0020583A00656E6473746F707320F6
:101520006869743A20004572726F723A0054656DB2
:101530007065726174757265206865617465642098
:10154000626564207377697463686564206F66669A
:101550002E204D415854454D50207472696767657F
:10156000726564202121003A2045787472756465A3
:1015700072207377697463686564206F66662E20D5
:101580004D494E54454D50207472696767657265C8
:10159000642021003A204578747275646572207366
:1015A00077697463686564206F66662E204D4158C4
:1015B00054454D50207472696767657265642021D7
:1015C00000202D20496E76616C6964206578747204
:1015D00075646572206E756D626572202100000071
:1015E0000000300E0100C00E0A00500F1400D00F92
:1015F0001E0060102800E010320070113C00F01155
:1016000046007012500000135A008013640000144A
:101610006E00901478001015820090158C00101642
:1016200096009016A0001017AA009017B40010188A
:10163000BE009018C8001019D2009019DC00101AD2
:10164000E600801AF000001BFA00801B0401F01B6A
:101650000E01701C1801F01C2201601D2C01E01D00
:101660003601501E4001D01E4A01401F5401B01FD8
:101670005E0130206801A020720110217C019021C0
:101680008601002290016026F401902A5802802EE3
:10169000BC0250322003E03584035039E803803C1B
:1016A0004C04504944204175746F74756E65206612
:1016B000696E69736865642120507574207468656B
:1016C000204B702C204B6920616E64204B6420639A
:1016D0006F6E7374616E747320696E746F20436FE4
:1016E0006E66696775726174696F6E2E6800504925
:1016F00044204175746F74756E65206661696C6510
:1017000064212074696D656F75740020403A006F24
:101710006B20543A006F6B20423A005049442041FC
:1017200075746F74756E65206661696C65642120DF
:1017300054656D706572617475726520746F6F2089
:101740006869676800204B643A2000204B693A20A2
:1017500000204B703A200020436C61736963205075
:10176000494420002054753A2000204B753A20004F
:10177000206D61783A2000206D696E3A2000206467
:101780003A200020626961733A20004D41494E546D
:10179000454E414E4345004D4154455249414C0050
:1017A0005052494E54005072696E74696E672077CA
:1017B000697468205553422E2E2E00737570706F19
:1017C000727440756C74696D616B65722E636F6DB8
:1017D00000436F6E746163743A0053616665747997
:1017E00020636972637569740054656D7020736558
:1017F0006E736F72204245440054656D70207365AE
:101800006E736F72004552524F52202D2053544F29
:101810005050454400801506060606FEFEFEFEFCFE
:1018200000000000000000FCFEFEFEFC0000000EB8
:10183000FEFEFEFE0000E0FCFEFEFCE0E00000001C
:10184000CECECE000000C0C0C0C0C0C0800000002E
:1018500000000080C0C0800000000000008080C048
:10186000C0C0C0C0C0C080800000000006FEFEFEF8
:10187000FE0000000080C0C0C0000000000000802A
:1018800080C0C0C080808000000000C0C0C0C00018
:1018900080C0C0C0C08000000000007FFFFFFFFFCD
:1018A00080000000000080FFFFFFFFFF000000003D
:1018B000FFFFFFFF000000FFFFFFFF000000000030
:1018C000FFFFFF00000081F1FFFF3F0F3FFFFCF033
:1018D000F0FCFF3F0F3FFFFEF880000000C1E1F188
:1018E000F17131010183FFFFFFFC000000FFFFFFEA
:1018F000FF000C3EFFFFF7C301000000FCFEFF8766
:1019000003113131333F3F3F1E000001FFFFFFFF56
:1019100007030101010100000000000001030707A7
:101920000F0F0F0F0F0F0F0707070F0F0600000015
:10193000070F0F07000000070F0F0700000000004F
:101940000F0F0F0000060F0F070100000001070F27
:101950000F070100000001070F0F06000003070F2B
:101960000F0E0E060703070F0F07000000070F0FEB
:101970000700000000030F0F0F0600000003070719
:101980000F0E0E0E0E0E0E06000000000F0F0F0FB2
:10199000000000000000008015090909F90101019B
:1019A0000103FE0000000000FE0301010103FE0030
:1019B0001FF101010101FFF01E030101031E10F0E0
:1019C00000FF313131FF00E020202020202060C0C6
:1019D00080000080C060202060C000000000C04087
:1019E00060202020202020206040C080000FF901CE
:1019F000010101FF0080C060202020E00000008085
:101A0000C04060202020604040C08000E0202020B6
:101A100020E0602020202060C0000000FF80000047
:101A200000007FC0808080C07F0000000000FF00B9
:101A300000FF00000000FF01FF00000000FF0101A7
:101A400000FF000000FF00C37A0E0000C070C0005D
:101A5000030E0E0300C070C00001077CC000E3321B
:101A60001A0A0A8ACAFAC67C00000003FE00FF00B8
:101A7000000000FF73C10000083CE68300FE030184
:101A80000078FCEE4A4E4C404040613F03FE0000AF
:101A90000000F80C06020202030000000003060C1E
:101AA0000818101010101010101808181010190F26
:101AB000000F181010180F000F181010180F00004A
:101AC000001F1010101F0F191010180E0300030E26
:101AD000181010180E0300030E181010190F070C21
:101AE000181010111119080C181010180F000F18E9
:101AF0001010180F0001071C101010190F01070C0F
:101B0000081810111111111111190F00001F1010D8
:101B100010101F0000000000002F40000000000017
:101B200000000000000000808080C0E0FEFF191E61
:101B30009898981818181818189E9F991E38F0E051
:101B40000000000000000000000000000000000095
:101B50000000003CFEFFFF99F1E1C3FFFF000063BE
:101B600063636060606060606363630000FFFF7CCC
:101B700038000000000000000000000080C060B0DD
:101B8000D8D81CFCFF3F0F8FCFC7C7C7C6C6C6C675
:101B9000C6C6C6C6C6C6C6C6C6C6C6C6C7C7C4CCDF
:101BA0000C1CF8F870C00000000EFFF92A2B2B283F
:101BB00028FCFFFF0000FFFFFFFFFFFFFFBFB7177D
:101BC000B5BDB500B5B5F717FFBFBFFFFFFFFF00FD
:101BD00000FFFFFCFF0700C0F0FFFFFDDD1D19192E
:101BE0003FFFFF0000FFFFFFFFFFFFFFFBF1FBFBDD
:101BF000EAEEC0EEEAFAF0FAFAFFFFFFFFFF00009C
:101C0000FFFF0F1FF8E00003070F0F1B1819FBFE63
:101C1000FFFFF0E0C0C1E1F1F1F1F1F1F1F1F1F11B
:101C2000F1F1F9F9F9F9F9F9797979F1F010181F69
:101C3000070603030000000000000000F8FFEFDFCC
:101C4000BF7FFFFFFF404143437F212020217FFFD3
:101C5000FFFF3FB091D1DFD050581F1FF0F00000C0
:101C60000000000000000000000003070F1E3D7B85
:101C700077EED1DEDECF4B4B6969686868603F3F25
:101C8000373737353430101018181A1B0F0600007C
:101C9000000000100FFC0E0FCFCFCFCECCCCCCCCA1
:101CA000CCCCDCC0C007707E7F7F7F7F7F7F7F7F53
:101CB0007F7F7F0F017120FFFFFFFFFFFFFFFFFF0F
:101CC000FFFCE000000000000000000000E0FCFF5E
:101CD000FFFFFFFFFFFFFFFFFF000000000000000D
:101CE00000000000000000000000000000000000F4
:101CF000000000FFFFFFFFFFFFFF000000000000EB
:101D000000000000000000000000000000000000D3
:101D100000000000000000000000000000000000C3
:101D20000000000000000000FFFFFFFFFFFFFF7F3B
:101D3000FFFFFFFFFFF8800000000080F0FFFFFFC3
:101D4000FFFF3FFFFFFFFFFFFFFF00000030F8F83D
:101D5000FCFC7E7E7E3E3E3E3E7E7EFEFEFCFCF831
:101D6000E0800000FFFFFFFFFFFFFF000080C0E0FA
:101D7000F0F8FCFEFE7E3E1E0E06C0E0F0F8FCFC15
:101D8000FE7E3E3E3E3E3E7EFEFCFCF8F0C0800005
:101D900000FEFEFEFEFEFEFEFEFFFFFFFFFFFFFF5A
:101DA00000031FFFFFFFFFFFFCE0E0FCFFFFFFFF62
:101DB000FF1F0100FFFFFFFFFFFFFF0000C0E0F07B
:101DC000F0F8F8FC7C7C3C3C3E1E1E1EFFFFFFFF33
:101DD000FFFFFF0000FFFFFFFFFFFFFFFEFFFFFF12
:101DE000FFFFFFFFF1C080000000FFFFFFFFFFFFCC
:101DF000FF3C3C3C3C3C3C3C3C3C3F3F3F3F3F3F4E
:101E000000000000000000000000FFFFFFFFFFFFD8
:101E1000FF00000000073FFFFFFFFFFFFFFFFF3F46
:101E20000700000000FFFFFFFFFFFFFF00003F7FF4
:101E3000FFFFFFFFFCFCF8F8F87C7C3C3EFFFFFF57
:101E4000FFFFFFFF0000FFFFFFFFFFFFFF03010099
:101E50000003071F7FFFFFFFFEFCF0E38F1F3F3FE4
:101E60007F7FFEFCF8F8F0F0F0F8F8FCFC7E7E3C9A
:101E7000300000FEFEFEFEFEFEFEFE43414E4345E8
:101E80004C002073656300206D696E0020686F75DB
:101E9000720020686F75727300000000000000007F
:101EA0005F00000007000700147F147F14242A7FBE
:101EB0002A12231308646236495522500005030094
:101EC00000001C2241000041221C00082A1C2A0894
:101ED00008083E08080050300000080808080800FC
:101EE0006060000020100804023E5149453E004257
:101EF0007F400042615149462141454B311814123F
:101F00007F1027454545393C4A494930017109054B
:101F1000033649494936064949291E00363600002C
:101F20000056360000000814224114141414144101
:101F3000221408000201510906324979413E7E11FE
:101F400011117E7F494949363E414141227F41413D
:101F5000221C7F494949417F090901013E41415104
:101F6000327F0808087F00417F41002040413F0147
:101F70007F081422417F404040407F0204027F7F5F
:101F80000408107F3E4141413E7F090909063E4158
:101F900051215E7F09192946464949493101017F8E
:101FA00001013F4040403F1F2040201F7F2018205C
:101FB0007F631408146303047804036151494543A3
:101FC00000007F4141020408102041417F000004CD
:101FD000020102044040404040000102040020543D
:101FE0005454787F48444438384444442038444466
:101FF000487F3854545418087E0901020814545478
:102000003C7F0804047800447D40002040443D00AB
:10201000007F10284400417F40007C041804787C35
:102020000804047838444444387C14141408081410
:1020300014187C7C080404084854545420043F4479
:1020400040203C4040207C1C2040201C3C40304034
:102050003C44281028440C5050503C4464544C4498
:10206000000836410000007F0000004136080008EB
:10207000082A1C08081C2A08086275696C64706CC0
:102080006174652E006F662061646A757374696E91
:102090006720796F75720074726F75676874207449
:1020A00068652070726F6365737300492077696C8F
:1020B0006C20677569646520796F750043414E43F4
:1020C000454C00434F4E54494E554500473120463C
:1020D0002569205A25692058256920592569004716
:1020E0003238205A302058302059300066726F6DD7
:1020F00020746865206275696C64706C6174652E0B
:102100000061206D696C6C696D6574657220617722
:10211000617900756E74696C20746865206E6F7AE1
:102120007A6C6520697300526F74617465207468FD
:102130006520627574746F6E00342F323100434F26
:102140004E54494E554500434F4E54494E55450057
:10215000473120462569205A3000473120462569FD
:1021600020582569205925690047312046256920D6
:102170005A350066726F6D20746865206275696CEF
:1021800064706C6174652E0069732061206D696CE8
:102190006C696D6574657220617761790073637233
:1021A00065772074696C6C20746865206E6F7A7A2C
:1021B0006C65005475726E206C656674206275697A
:1021C0006C64706C61746500352F323100434F4E82
:1021D00054494E554500473120462569205A300064
:1021E000473120462569205825692059256900472F
:1021F0003120462569205A350066726F6D2074685B
:1022000065206275696C64706C6174652E00697319
:102210002061206D696C6C696D65746572206177F1
:1022200061790073637265772074696C6C207468DF
:1022300065206E6F7A7A6C65005475726E207269D3
:10224000676874206275696C64706C6174650036CF
:102250002F323100434F4E54494E55450074686546
:10226000206275696C64706C617465206C6576655C
:102270006C2E00706170657220746F2066696E65E7
:102280002D74756E65006E6F772075736520612003
:102290007368656574206F660052657065617420AF
:1022A0007468697320737465702C206275740037CC
:1022B0002F323100434F4E54494E5545004731208F
:1022C000462569205A300047312046256920582587
:1022D000692059256900473120462569205A350073
:1022E00062697420726573697374616E63652E0030
:1022F000756E74696C20796F75206665656C2061F8
:10230000006275696C64706C61746520616E642034
:102310006E6F7A7A6C6500536C6964652061207019
:1023200061706572206265747765656E00382F3262
:102330003100434F4E54494E554500434F4E54498A
:102340004E554500746865206C65667420636F7235
:102350006E65722E2E2E0052657065617420746851
:10236000697320666F7200392F323100434F4E542B
:10237000494E55450074686520726967687420632A
:102380006F726E65722E2E2E00526570656174201C
:102390007468697320666F720031302F32310043E8
:1023A0004F4E54494E554500444F4E4500746F20E2
:1023B000696E73657274206D6174657269616C2EEB
:1023C00000746865206E6578742073746570206988
:1023D0007300746865206275696C64706C61746503
:1023E000004E6F772074686174207765206C657685
:1023F000656C65640031312F323100434F4E5449D2
:102400004E5545004731204631323030302058316A
:102410003130205930006D6174657269616C206CD7
:102420006F6164696E67007072696E74686561647B
:102430002068656174696E6720666F7200506C6514
:1024400061736520776169742C0031322F3231005D
:1024500061626F766520746865206172726F772E95
:1024600000796F757220556C74696D616B6572329D
:102470002C0066726F6D2074686520726561722031
:102480006F6600496E73657274206E6577206D61AA
:1024900074657269616C0031332F323100434F4EE5
:1024A00054494E5545004C6F6164696E67206D61FB
:1024B00074657269616C2E2E2E0031342F3231001A
:1024C00066726F6D206E6F7A7A6C652E2E2E006D9F
:1024D0006174657269616C20657869747300507508
:1024E000736820627574746F6E207768656E003152
:1024F000352F323100434F4E54494E554500556CEF
:1025000074696D616B6572322E00696E73657274E9
:10251000656420696E2074686520006D6174657261
:1025200069616C20796F752068617665004E657809
:10253000742C2073656C6563742074686500313693
:102540002F32310052454144590031372F3231008A
:1025500041425300504C41006973207468697320F4
:1025600072696768743F00414253206173206D6156
:1025700074657269616C2C00596F752068617665AD
:102580002063686F73656E0031382F3231004E4F13
:1025900000594553006974206973207573696E672B
:1025A0002E006F66206D6174657269616C006B6EE0
:1025B0006F77732077686174206B696E64004E6F6B
:1025C0007720796F757220556C74696D616B6572D7
:1025D000320031392F323100434F4E54494E554568
:1025E000006D616B652061203344205072696E7408
:1025F000210049276D207265616479206C6574271C
:10260000730032302F32310041524520594F55204E
:1026100052454144593F00746F207072696E7420B6
:1026200069742100616E6420707265737320746830
:102630006520627574746F6E006F6E20746865201B
:1026400053442D636172640053656C65637420614B
:10265000207072696E742066696C650032312F32A9
:1026600031004C45542753205052494E5400526576
:102670006164696E6720636172642E2E2E003231B0
:102680002F323100796F757220556C74696D616BF2
:102690006572322E2E2E00746861742063616D6540
:1026A000207769746800506C6561736520696E738A
:1026B0006572742053442D636172640032312F328D
:1026C0003100697320746869732072696768743FA8
:1026D00000504C41206173206D6174657269616CBA
:1026E0002C00596F7520686176652063686F73658B
:1026F0006E0031382F3231004E4F0059455300479C
:102700003238205A3000627574746F6E20746F20F6
:10271000636F6E74696E756500556C74696D616B7D
:10272000657221205072657373207468650073743C
:102730006172747570206F6620796F7572005765CD
:102740006C636F6D6520746F2074686520666972B4
:10275000737400312F323100434F4E54494E55456A
:1027600000612066697273742072756E2077697AD1
:102770006172642E0077616C6B20796F75207468CC
:10278000726F756768006669727374207374617222
:1027900074757020492077696C6C004265636175BF
:1027A00073652074686973206973207468650032EA
:1027B0002F323100434F4E54494E5545004731208A
:1027C000462569205A256900473238205A3000676B
:1027D0006F696E6720746F20646F20746861742065
:1027E0006E6F772E0061646A7573746D656E7473B5
:1027F0002C20776520617265007765206E656564C1
:1028000020746F20646F20736F6D6500416674657E
:1028100072207472616E73706F72746174696F6E1E
:1028200000332F323100434F4E54494E5545004737
:102830003120462569205A256920582569205925C7
:102840006900473238205830205930004300432F68
:1028500000436C69636B20746F2072657475726ECF
:10286000004275696C64706C6174652074656D708C
:102870002E3A0052455455524E00414456414E4363
:102880004544004255494C442D7C504C4154450030
:102890004731205A343000473238205A300047320E
:1028A00038205A3000473238205830205930004103
:1028B0004456414E43454400746F2064656661751B
:1028C0006C743F0052657365742065766572797427
:1028D00068696E67004E4F00594553005665727324
:1028E000696F6E2031342E3033004D6172203132E9
:1028F00020323031342031353A33333A35370052D3
:10290000657475726E006D6D2F736563004D61782F
:10291000207370656564205A006D6D2F73656300C8
:102920004D61782073706565642059006D6D2F735B
:102930006563004D61782073706565642058006D93
:102940006D2F73656300582F59204A65726B0030F4
:10295000306D6D2F7365635E3200416363656C6536
:10296000726174696F6E004D4F54494F4E006D6D2A
:102970002F736563006D6D2F736563006D6D2F732D
:102980006563006D6D2F736563006D6D2F736563F7
:102990005E32003F3F3F004D617820737065656493
:1029A000205A004D61782073706565642059004D90
:1029B0006178207370656564205800582F59204A4B
:1029C00065726B00416363656C65726174696F6EFB
:1029D000003C2052455455524E006D6D2F73656377
:1029E0000052657472616374207370656564006D74
:1029F0006D0052657472616374206C656E677468F3
:102A00000052455452414354494F4E006D6D2F734F
:102A10006563006D6D003F3F3F00526574726163F6
:102A2000742073706565640052657472616374200C
:102A30006C656E677468003C2052455455524E00D8
:102A40004300432F00436C69636B20746F207265F1
:102A50007475726E00526F7461746520746F2065B6
:102A6000787472756465004E6F7A7A6C652074654F
:102A70006D70657261747572653A004300432F0092
:102A8000436C69636B20746F2072657475726E009D
:102A90004E6F7A7A6C652074656D706572617475BD
:102AA00072653A0025004272696768746E657373D7
:102AB000004C45440025003F3F3F0020476C6F77A6
:102AC000207768656E20646F6E6500204F6E2077FA
:102AD00068696C65207072696E74696E6700204168
:102AE0006C77617973204F66660020416C7761795D
:102AF00073204F6E004272696768746E657373006D
:102B00003C2052455455524E003F3F3F00466163C2
:102B1000746F72792072657365740056657273699B
:102B20006F6E004D6F74696F6E2073657474696E9B
:102B300067730052657472616374696F6E207365A8
:102B40007474696E6773004D6F7665206D6174658E
:102B50007269616C005261697365206275696C64A9
:102B6000706C617465004C6F776572206275696C7A
:102B700064706C61746500486F6D652068656164A0
:102B800000486561747570206275696C64706C6171
:102B9000746500486561747570206E6F7A7A6C6533
:102BA000004C45442073657474696E6773003C2063
:102BB00052455455524E0041425300504C41005230
:102BC000455455524E0053455454494E47530043C3
:102BD00048414E4745004D4154455249414C0053F0
:102BE000656C6563746564206D6174657269616CA0
:102BF0003A004F4B0025004D6174657269616C208D
:102C0000666C6F7700250046616E207370656564A1
:102C1000006D6D004D6174657269616C204469617D
:102C20006D657465720043004275696C64706C6117
:102C300074652054656D702E00430054656D706599
:102C4000726174757265004D4154455249414C00A2
:102C500050524553455453004E657720707265734A
:102C60006574003C2052455455524E002500250005
:102C70006D6D00430043003F3F3F0053746F72652A
:102C80002061732070726573657400466C6F7720E5
:102C9000250046616E004469616D65746572004887
:102CA0006561746564206275696C64706C617465DB
:102CB0000054656D7065726174757265003C2052D8
:102CC000455455524E004D6F6469667920746865AD
:102CD0002073657474696E677300250046616E3AEF
:102CE0002000430043002500466C6F773A006D6D6D
:102CF00000437573746F6D697A65003C20524554CA
:102D000055524E00666F72206D6174657269616C18
:102D10002072656D6F76616C0048656174696E67DD
:102D2000207072696E74686561640047323820589B
:102D30003020593000526576657273696E67206D78
:102D40006174657269616C0052656D6F7665206DA6
:102D50006174657269616C0043414E43454C005299
:102D600045414459004731204625692058256920AE
:102D700059256900473238205830205930006162A7
:102D80006F766520746865206172726F772E0079A6
:102D90006F7572206D616368696E652C0066726F75
:102DA0006D20746865206261636B73696465206F70
:102DB0006600496E73657274206E6577206D61746C
:102DC000657269616C0043414E43454C0052454178
:102DD000445900466F7277617264696E67206D6155
:102DE00074657269616C00636F6D6573206F7574D3
:102DF00020746865206E6F7A7A6C6500576169741B
:102E00002074696C6C206D6174657269616C00433B
:102E1000414E43454C005245414459004D415445B3
:102E20005249414C00250046616E3A200043004360
:102E3000002500466C6F773A006D6D004300432F0C
:102E400000436C69636B20746F2072657475726ED9
:102E5000004E6F7A7A6C652074656D70657261746E
:102E60007572653A00534420434152440047312073
:102E70004631323030302058352059313000473219
:102E800038003B464C41564F523A556C74694743A3
:102E90006F6465003B464C41564F523A556C74691D
:102EA00047436F6465004E6F2066696C65732066EA
:102EB0006F756E6421004F4B004F4B00526561648B
:102EC000696E6720636172642E2E2E00506C6561FE
:102ED000736520696E736572742063617264004E5D
:102EE0006F2053442D4341524421003C2042414332
:102EF0004B003C2052455455524E0066726F6D2077
:102F000074686520736C696365722E0073657474F0
:102F1000696E6720776974682073657474696E6779
:102F2000006F76657272696465206D616368696EB1
:102F30006500546869732066696C652077696C6CFC
:102F40000043414E43454C00434F4E54494E554576
:102F5000004D383400473238004731204631353093
:102F600030204530004739322045256900436F64E1
:102F7000653A0053442D6361726421007265616497
:102F8000696E67004572726F72207768696C6500C0
:102F900052455455524E20544F204D41494E0074D5
:102FA0006865207072696E742E00596F75206361B8
:102FB0006E2072656D6F7665005072696E74206662
:102FC000696E69736865640043004320005072694C
:102FD0006E74657220636F6F6C696E6720646F77C3
:102FE0006E004241434B20544F204D454E550054F6
:102FF000696D65206C6566740054696D65206C654B
:10300000667420756E6B6E6F776E004300430048E8
:10301000656174696E67206275696C64706C617457
:1030200065004300430048656174696E6700507233
:10303000696E74696E673A0041424F5254005455AC
:103040004E450041626F7274207468652070726929
:103050006E743F004E4F005945530025004272697F
:103060006768746E6573730025004D6174657269DD
:10307000616C20666C6F7700250046616E2073706E
:103080006565640025005072696E74207370656513
:1030900064004D3630312058313020593230205ABA
:1030A00030204C3330004D363031205831302059EB
:1030B0003230205A32204C3330004D3630312058D7
:1030C000313020593230205A3230204C33300054C5
:1030D000554E45006D6D2F736563005265747261C6
:1030E0006374207370656564006D6D005265747261
:1030F000616374206C656E67746800524554524178
:103100004354494F4E006D6D2F736563006D6D0024
:103110003F3F3F0052657472616374207370656550
:10312000640052657472616374206C656E677468C4
:10313000003C2052455455524E00250025002500E4
:10314000430043004300430025004C4544204272A5
:10315000696768746E657373005265747261637435
:10316000696F6E004D6174657269616C20666C6F89
:10317000770046616E207370656564004275696C06
:1031800064706C6174652074656D702E0054656D9B
:103190007065726174757265005370656564005086
:1031A000617573696E672E2E2E00526573756D659D
:1031B0000043616E206E6F742070617573650050FE
:1031C00061757365003C2052455455524E00507253
:1031D00065706172696E6720746F207072696E74B9
:1031E0003A0048656174696E672075702E2E2E0056
:1031F00041424F52540054554E45004E6F20696E67
:10320000666F20617661696C61626C65006D006D4E
:10321000004D6174657269616C3A200054696D6596
:103220003A20003B4D4154455249414C3A003B54F1
:10323000494D453A00466F6C64657200494E4649F7
:103240004E4954594E414ECDCCCC3D0AD7233C1764
:10325000B7D13877CC2B329595E6241FB14F0A00B1
:103260000020410000C84200401C4620BCBE4CCAA1
:103270001B0E5AAEC59D74006B30D85766301124B2
:103280001FBECFEFD1E2DEBFCDBF00E00CBF14E028
:10329000A0E0B2E0E4E9F5EC01E00BBF02C007906A
:1032A0000D92A232B107D9F717E1A2E2B4E001C052
:1032B0001D92AA35B107E1F712E3CCE7D2E304C0CF
:1032C0002297FE010E94BAE2C837D107C9F704D09D
:1032D0000C94ADD90C940000CF93DF9332D10E94AF
:1032E000CB54C0E0D0E00E943F542097E1F30E940D
:1032F0000000F9CFCF92DF92EF92FF920F931F93CE
:10330000CF93DF937C016B018A01C0E0D0E00FC056
:10331000D6016D916D01D701ED91FC910190F08185
:10332000E02DC7011995C80FD91F01501040011594
:10333000110571F7CE01DF91CF911F910F91FF9091
:10334000EF90DF90CF9008958230B9F0833028F469
:10335000882351F0813051F50AC0843011F1843056
:10336000E8F0853019F520C010926E000895809124
:103370006F008D7F80936F000895809170008D7F26
:103380008093700081E08093B0008091B100887FCD
:1033900084608093B1001092B30008951092710080
:1033A00008951092720008951092730008951F936B
:1033B000182F80913B03811711F09FEF06C0EFE2B9
:1033C000F1E094918FEF80933B03892FBDDF812F34
:1033D00060E0AAD21F9108951F920F920FB60F922C
:1033E0000BB60F9211242F933F934F935F936F93DC
:1033F0007F938F939F93AF93BF93EF93FF938091AE
:10340000220490912304A0912404B09125040097F4
:10341000A105B10551F1E0912604F09127048081C6
:10342000909128048927808380912204909123041D
:10343000A0912404B0912504181619061A061B063B
:10344000BCF48091220490912304A0912404B091B3
:1034500025040197A109B1098093220490932304C4
:10346000A0932404B093250403C080913B039FDF05
:10347000FF91EF91BF91AF919F918F917F916F914C
:103480005F914F913F912F910F900BBE0F900FBE08
:103490000F901F9018951F920F920FB60F92112444
:1034A0002F933F938F939F93AF93BF9380912D045E
:1034B00090912E04A0912F04B091300430913104EA
:1034C0000196A11DB11D232F2D5F2D3720F02D5703
:1034D0000196A11DB11D2093310480932D0490937A
:1034E0002E04A0932F04B09330048091290490916E
:1034F0002A04A0912B04B0912C040196A11DB11DAA
:103500008093290490932A04A0932B04B0932C0455
:10351000BF91AF919F918F913F912F910F900FBECF
:103520000F901F9018958FB7F89420912D0430912B
:103530002E0440912F04509130048FBFB901CA016D
:103540000895789484B5826084BD84B5816084BD1B
:1035500085B5826085BD85B5816085BDEEE6F0E00C
:10356000808181608083E1E8F0E010828081826068
:103570008083808181608083E0E8F0E080818160E9
:103580008083E1EBF0E0808184608083E0EBF0E019
:10359000808181608083E1E9F0E0808182608083C6
:1035A000808181608083E0E9F0E0808181608083B8
:1035B000E1EAF0E0808182608083808181608083A5
:1035C000E0EAF0E0808181608083E1E2F1E08081E7
:1035D00082608083808181608083E0E2F1E080818D
:1035E00081608083EAE7F0E080818460808380816D
:1035F0008260808380818160808380818068808315
:103600001092C10008951F93CF93DF93182FEB0101
:1036100061E0D7D0209709F4CAC0CF3FD10509F4A3
:10362000C9C0E12FF0E0E65FFD4F8491893009F4D5
:1036300066C08A30B0F48430F1F1853040F48230D5
:1036400059F1833070F5813009F0AEC020C0873069
:1036500009F443C0883008F048C0863009F0A4C09F
:1036600034C08D3009F478C08E3038F48B3009F4D2
:103670005AC08C3008F066C04CC0803109F480C05C
:10368000813109F487C08F3009F08EC06FC084B5D6
:10369000806884BDC7BD91C084B5806284BDC8BD4B
:1036A0008CC080918000806880938000D0938900D6
:1036B000C093880082C080918000806280938000E7
:1036C000D0938B00C0938A0078C08091B00080684E
:1036D0008093B000C093B30070C08091B00080624E
:1036E0008093B000C093B40068C08091900080685F
:1036F00080939000D0939900C09398005EC0809111
:103700009000806280939000D0939B00C0939A00B9
:1037100054C080919000886080939000D0939D0069
:10372000C0939C004AC08091A00080688093A00054
:103730008091A0008F7B8093A000D093A900C093BC
:10374000A8003BC08091A00080628093A000D0932D
:10375000AB00C093AA0031C08091A0008860809324
:10376000A000D093AD00C093AC0027C08091200191
:10377000806880932001D0932901C09328011DC047
:1037800080912001806280932001D0932B01C0930F
:103790002A0113C080912001886080932001D0937A
:1037A0002D01C0932C0109C0C038D1051CF4812F14
:1037B00060E002C0812F61E0B7D0DF91CF911F910F
:1037C0000895CF93DF93482F50E0CA018C539E4F4A
:1037D000FC01349142585E4FFA018491882369F1CB
:1037E00090E0880F991FFC01E05DFE4FA591B49118
:1037F000FC01E65BFE4FC591D491662351F42FB7CF
:10380000F8948C91932F909589238C9388818923A8
:103810000BC0623061F42FB7F8948C91932F909580
:1038200089238C938881832B88832FBF06C09FB701
:10383000F8948C91832B8C939FBFDF91CF91089547
:10384000893009F449C08A30A0F4843051F18530C0
:1038500040F4823079F1833000F5813009F063C0A3
:1038600026C0873079F1883098F5863009F05BC042
:1038700025C08D3009F442C08E3028F48B30B1F170
:103880008C30C0F52DC0803109F442C0813109F47B
:1038900045C08F3009F047C037C0809180008F77D6
:1038A00003C0809180008F7D80938000089584B54F
:1038B0008F7702C084B58F7D84BD08958091B0005C
:1038C0008F7703C08091B0008F7D8093B000089502
:1038D000809190008F7707C0809190008F7D03C00A
:1038E00080919000877F8093900008958091A00040
:1038F0008F7707C08091A0008F7D03C08091A000CA
:10390000877F8093A0000895809120018F7703C066
:10391000809120018F7D8093200108958091200166
:10392000877F809320010895FF920F931F93F62EB7
:10393000482F50E0CA01865F9D4FFC012491CA01C7
:103940008C539E4FFC01149142585E4FFA01049132
:103950000023C1F0222311F0822F72DFE02FF0E06C
:10396000EE0FFF1FE65BFE4FA591B4919FB7F89451
:10397000FF2021F48C911095812302C08C91812B22
:103980008C939FBF1F910F91FF900895AC01DB01B5
:10399000FA0190E02EE28C91803229F0983009F4FF
:1039A00021938C9181939F5F11969B30A1F7108298
:1039B000CA010895FC011282138210AA0895FC0125
:1039C00080A9882319F081E0828313820895CF9320
:1039D000DF93EC01FC01E955FE4F8081882309F457
:1039E00061C081508083DE01AA5ABF4FFE01EB58AF
:1039F000FF4F8BE101900D928150E1F7FE01EC5AEF
:103A0000FF4FCD58DF4F88819981C357D0409183B4
:103A1000808330E0BE0169557E4F3FC0832F90E028
:103A2000AC014F5F5F4FDC01E5E0AA0FBB1FEA95D9
:103A3000E1F7A81BB90BAC0FBD1FFA0125E0EE0F93
:103A4000FF1F2A95E1F7E41BF50BEC0FFD1FAB58A8
:103A5000BF4FEB58FF4F2BE101900D922150E1F742
:103A6000FC0125E0EE0FFF1F2A95E1F7E81BF90B9B
:103A7000EC0FFD1FED58FF4FDA0185E0AA0FBB1FC9
:103A80008A95E1F7A41BB50BAC0FBD1FAD58BF4F16
:103A90008D919C91918380833F5FFB0180813817DA
:103AA00008F4BCCFDF91CF910895FC018AE194E046
:103AB000918380838781882321F0CF0104960C9421
:103AC0004E7308950F931F938C010E94C1810E9431
:103AD000BD80C80180539E4F0E944E73F801128230
:103AE000138280E592E00E9456561F910F9108952F
:103AF000CF92DF92EF92FF920F931F93DF93CF93BA
:103B0000CDB7DEB76F970FB6F894DEBF0FBECDBF4F
:103B10008C016B01075A1F4FD8018C910955104039
:103B2000882321F481E3E82EF12C03C0B2E5EB2ECB
:103B3000F12CE00EF11E8AE194E09A8389831C82C5
:103B40001B8218861D82B7016C5F7F4FCE010596E0
:103B5000A60121E00E94877A882391F5ECE5F2E046
:103B6000949108C08091C00085FFFCCF9093C6005F
:103B7000319694919923B1F7E2E6F2E0949108C06E
:103B80008091C00085FFFCCF9093C6003196949140
:103B90009923B1F709C08091C00085FFFCCF08943C
:103BA000C11CD11C9093C600F6019081992399F70E
:103BB0008091C00085FFFCCF8AE08093C60056C08C
:103BC000F801E955FE4F80818A3008F03EC08F5FD2
:103BD0008083282F30E0C9010197FC01A5E0EE0F9A
:103BE000FF1FAA95E1F7E81BF90BEB58FF4FE00F19
:103BF000F11F21503040AF01415E5F4FBF018BE1AB
:103C0000DB010D90BD01DA010D92AD018150C1F7CC
:103C1000929182913296968F858F7F9721153105EB
:103C200041F7D801AB58BF4FF70134968BE10190B3
:103C30000D928150E1F70D581F4FF701828193815A
:103C4000D8018D939C9303571040D801AA5ABF4FB7
:103C5000FE0135968BE101900D928150E1F70C5AEF
:103C60001F4F8B819C81F80191838083CE01019647
:103C70001CDF6F960FB6F894DEBF0FBECDBFCF919D
:103C8000DF911F910F91FF90EF90DF90CF900895FB
:103C9000EF92FF920F931F938C0190EDE92E91E02C
:103CA000F92EE00EF11EC7010E94FF72C7010E94AB
:103CB0004E73F801108211821F910F91FF90EF90C7
:103CC0000895CF92DF92EF92FF920F931F93CF93BD
:103CD000DF937C016B01DB010D900020E9F78D0182
:103CE00001501040061B170BE0EDF1E0EE0EFF1E39
:103CF000D7011C92E0E3FEEFEE0EFF1ECB016EE457
:103D000070E00E9454DAEC01009731F4F801319729
:103D1000EC0DFD1D86010EC060E270E00E9454DAD9
:103D20008C010F5F1F4FCE016AE270E00E9454DAEF
:103D3000FC0131978DE081838AE082831382C70181
:103D400084539E4FB8010E94817B80ED91E0E80E84
:103D5000F91ED7018C91882319F1ECE8F2E09491D7
:103D600008C08091C00085FFFCCF9093C6003196BB
:103D700094919923B1F7E3E9F2E0949108C080911E
:103D8000C00085FFFCCF9093C60031969491992393
:103D9000B1F78091C00085FFFCCF8AE08093C60018
:103DA000DF91CF911F910F91FF90EF90DF90CF9017
:103DB0000895CF93DF93EC0188A9882309F43DC0CF
:103DC000E7ECF2E0949108C08091C00085FFFCCF41
:103DD0009093C600319694919923B1F7CD50DE4F60
:103DE000488159816A817B81C35FD14085E49AE033
:103DF0002AE030E00E946F58E5ECF2E0949108C0B0
:103E00008091C00085FFFCCF9093C60031969491BD
:103E10009923B1F7C551DE4F488159816A817B8171
:103E2000CB5ED14085E49AE02AE030E00E946F58F2
:103E30008091C00085FFFCCF12C0E5EBF2E09491C9
:103E400008C08091C00085FFFCCF9093C6003196DA
:103E500094919923B1F78091C00085FFFCCF8AE04F
:103E60008093C600C655DE4F68816623E1F0E9EA1B
:103E7000F2E0949108C08091C00085FFFCCF909340
:103E8000C600319694919923B1F785E49AE070E0E9
:103E90004AE050E00E94BE588091C00085FFFCCFF0
:103EA0008AE08093C600DF91CF9108952F923F92D0
:103EB0004F925F926F927F928F929F92AF92BF923A
:103EC000CF92DF92EF92FF920F931F93DF93CF93E6
:103ED000CDB7DEB7AD970FB6F894DEBF0FBECDBF3E
:103EE0005C014B014DA7FC0180A9882309F4E2C1C4
:103EF00030ED432E31E0532E4A0C5B1CC2010E9470
:103F00004E73F501128213821A8A1D8A198A188A41
:103F10008AE194E09F878E8720E5C22ED12CCA0CBF
:103F2000DB1C81E390E0A80EB91EF601B182A082ED
:103F30008FEC9FEFA80EB91EF40180818F3209F03B
:103F40008DC0C4016FE270E00E9454DA7C010894D5
:103F5000E11CF11C3E010894611C711C160178C023
:103F6000C7016FE270E00E9454DA6C01009709F417
:103F700083C0E816F90608F07FC08C010E191F09EE
:103F8000C301B701A8010E9474DA060D171DF801DC
:103F90001082F30107C08091C00085FFFCCF3196ED
:103FA0009093C60090819923B1F78091C00085FF5E
:103FB000FCCFFAE0F093C600F101608171816115D8
:103FC000710519F460E070E002C06C5F7F4FCE01B4
:103FD0004296A30121E00E94877A882371F5EBE7DE
:103FE000F3E0949108C08091C00085FFFCCF9093CE
:103FF000C600319694919923B1F7FE01319607C01E
:104000008091C00085FFFCCF31969093C6009081CF
:104010009923B1F7E9E7F3E0949108C08091C000DB
:1040200085FFFCCF9093C600319694919923B1F708
:104030008091C00085FFFCCF37C18EE090E08C0FEF
:104040009D1FF1019183808376010894E11CF11C8E
:1040500092E0E916F10408F083CF0BC0E2E5F0E04E
:10406000AE0EBF1EF601B182A0828EEA9FEFA80EAF
:10407000B91E082DF92C01C00E2DF501E05BFF4F94
:104080009DA5992309F4ADC0608171816115710509
:1040900019F460E070E002C06C5F7F4FC201402FF6
:1040A0005F2D21E00E94877A882309F46AC0E1EE3F
:1040B000F1E0AE0EBF1EF501408151816281738136
:1040C0008AE090E0A80EB91EF50140835183628317
:1040D000738385E19EEFA80EB91EEBE6F3E09491A1
:1040E00008C08091C00085FFFCCF9093C600319638
:1040F00094919923B1F7802F9F2D9C01F90107C05E
:104100008091C00085FFFCCF31969093C6009081CE
:104110009923B1F7E3E6F3E0949108C08091C000E1
:1041200085FFFCCF9093C600319694919923B1F707
:1041300085E49AE02AE030E00E946F588091C00048
:1041400085FFFCCF8AE08093C600E3EFF1E0AE0E7E
:10415000BF1EF5011082118212821382E5E5F3E0A1
:10416000949108C08091C00085FFFCCF9093C60059
:10417000319694919923B1F78091C00085FFFCCFCF
:1041800093C0E1E4F3E0949108C08091C00085FF02
:10419000FCCF9093C600319694919923B1F7802F6C
:1041A0009F2D9C01F90107C08091C00085FFFCCFC5
:1041B00031969093C60090819923B1F7EFE3F3E035
:1041C000949108C08091C00085FFFCCF9093C600F9
:1041D000319694919923B1F78091C00085FFFCCF6F
:1041E00063C0608171816115710519F460E070E050
:1041F00002C06C5F7F4FC201402F5F2D26E50E94F9
:10420000877A882381F5EBE2F3E0949108C08091EE
:10421000C00085FFFCCF9093C600319694919923FE
:10422000B1F7802F9F2D9C01F90107C08091C0003C
:1042300085FFFCCF31969093C60090819923B1F70A
:10424000E9E2F3E0949108C08091C00085FFFCCFC3
:104250009093C600319694919923B1F78091C00054
:1042600085FFFCCF21C081E0F5018083E7E1F3E029
:10427000949108C08091C00085FFFCCF9093C60048
:10428000319694919923B1F7F40107C08091C00051
:1042900085FFFCCF31969093C60090819923B1F7AA
:1042A0008091C00085FFFCCF8AE08093C600CE01DC
:1042B0000E96FBDBAD960FB6F894DEBF0FBECDBFFA
:1042C000CF91DF911F910F91FF90EF90DF90CF90F2
:1042D000BF90AF909F908F907F906F905F904F9026
:1042E0003F902F900895FC0181E08183CF0140E051
:1042F000DDCD2F923F924F925F926F927F928F927D
:104300009F92AF92BF92CF92DF92EF92FF920F9364
:104310001F93DF93CF93CDB7DEB7AC970FB6F8946A
:10432000DEBF0FBECDBF5C014B01FC0180A988231D
:1043300009F438C1C50180539E4F0E944E73F501A8
:10434000128213821A8A1D8A198A188A8AE194E0D5
:104350009F878E8750E5C52ED12CCA0CDB1C21E32C
:1043600030E0A20EB31EF601B182A0822FEC3FEF27
:10437000A20EB31EF40180818F3209F090C0C401F7
:104380006FE270E00E9454DA7C010894E11CF11C99
:104390003E010894611C711C260142E1242E312C3F
:1043A0002C0E3D1E77C0C7016FE270E00E9454DA08
:1043B0006C01009709F481C0E816F90608F07DC089
:1043C0008C010E191F09C301B701A8010E9474DAFC
:1043D000060D171DF8011082F30107C08091C0007F
:1043E00085FFFCCF31969093C60090819923B1F759
:1043F0008091C00085FFFCCFFAE0F093C600F20187
:10440000608171816115710519F460E070E002C08E
:104410006C5F7F4FC101A30121E00E94877A88234E
:1044200071F5E3E0F3E0949108C08091C00085FF4E
:10443000FCCF9093C600319694919923B1F7FE0179
:10444000319607C08091C00085FFFCCF31969093D4
:10445000C60090819923B1F7E1E0F3E0949108C0A0
:104460008091C00085FFFCCF9093C6003196949157
:104470009923B1F78091C00085FFFCCF8DC02EE05D
:1044800030E02C0F3D1FF201318320837601089428
:10449000E11CF11CE114F10409F085CF0BC082E5A9
:1044A00090E0A80EB91EF601B182A0822EEA3FEF7D
:1044B000A20EB31ED82C092D02C0DE2C0F2D80E5D4
:1044C00090E0A80EB91EF5018081918120EB3FEFAD
:1044D000A20EB31E009719F480E090E001C004968C
:1044E0006D2D702F0E94537B882339F1E3EFF2E0AA
:1044F000949108C08091C00085FFFCCF9093C600C6
:10450000319694919923B1F78D2D902F9C01F9014B
:1045100007C08091C00085FFFCCF31969093C60004
:1045200090819923B1F783EF91E0A80EB91EF501B0
:10453000108211821282138232C0EBEDF2E094916C
:1045400008C08091C00085FFFCCF9093C6003196D3
:1045500094919923B1F78D2D902F9C01F90107C0FB
:104560008091C00085FFFCCF31969093C60090816A
:104570009923B1F7E9EDF2E0949108C08091C00071
:1045800085FFFCCF9093C600319694919923B1F7A3
:104590008091C00085FFFCCF8AE08093C600CE01E9
:1045A0000E9683DAAC960FB6F894DEBF0FBECDBF81
:1045B000CF91DF911F910F91FF90EF90DF90CF90FF
:1045C000BF90AF909F908F907F906F905F904F9033
:1045D0003F902F900895EF92FF920F931F93CF93E8
:1045E000DF938C01FC0110AA80AD882321F0C80163
:1045F000C5960E944E7369EAE62E61E0F62EE00E43
:10460000F11EC70160E045E30E942271882309F58D
:10461000ECE5F2E0949108C08091C00085FFFCCFEA
:104620009093C600319694919923B1F7EDEBF3E0A6
:10463000949108C08091C00085FFFCCF9093C60084
:10464000319694919923B1F78091C00085FFFCCFFA
:104650007DC0E801C255DE4FCE01B70141E00E94A6
:104660001E7C882341F5CE01B70140E00E941E7CEC
:10467000882309F5ECE8F2E0949108C08091C0002D
:1046800085FFFCCF9093C600319694919923B1F7A2
:10469000EAEAF3E0949108C08091C00085FFFCCF66
:1046A0009093C600319694919923B1F78091C00000
:1046B00085FFFCCF4BC0C801C596BE010E94257680
:1046C000882309F5ECE8F2E0949108C08091C000DD
:1046D00085FFFCCF9093C600319694919923B1F752
:1046E000EAE9F3E0949108C08091C00085FFFCCF17
:1046F0009093C600319694919923B1F78091C000B0
:1047000085FFFCCF23C081E0F80180ABECE5F2E04F
:10471000949108C08091C00085FFFCCF9093C600A3
:10472000319694919923B1F7EFE8F3E0949108C0A2
:104730008091C00085FFFCCF9093C6003196949184
:104740009923B1F78091C00085FFFCCF8AE0809368
:10475000C600D801AA5ABF4FF801F5968BE1019027
:104760000D928150E1F7F80183A994A90C5A1F4FCB
:10477000F8019183808304551040C801C196005B05
:104780001F4FF80191838083DF91CF911F910F918B
:10479000FF90EF9008952F923F924F925F926F9209
:1047A0007F929F92AF92BF92CF92DF92EF92FF9251
:1047B0000F931F93DF93CF93CDB7DEB7CC55D04087
:1047C0000FB6F894DEBF0FBECDBF6C01662311F5A6
:1047D00027EF31E0C20ED31ED6018C91E9E0FEEF47
:1047E000CE0EDF1E882309F4E7C02FEE31E0C20EA3
:1047F000D31ED601ED90FD900D911C91E1E1FEEFED
:10480000CE0EDF1E0E94931AE616F7060807190758
:1048100008F4D2C027EF31E0C20ED31ED6011C929D
:10482000E9E0FEEFCE0EDF1ED601D0968C918823F4
:1048300039F4C601D0DEF60180A9882309F4BCC092
:1048400000D000D0EDB7FEB731967E010894E11C90
:10485000F11CADB7BEB71296FC92EE92119783E8A9
:1048600092E093838283D6019E968D919C919F972F
:10487000958384830E94A3DA8701EDB7FEB736964D
:104880000FB6F894FEBF0FBEEDBF570108C0D801A8
:104890008C9190E00E94B8D9F80181938F01F501C5
:1048A00001900020E9F73197EA19FB09802F8E1952
:1048B0008E176CF3A5E3AA2EB12CAC0CBD1CC50160
:1048C00040E050E060E070E00E9435729924FDE322
:1048D000EF2EF12CEC0EFD1E2E010894411C511CF4
:1048E000EFE16E2E712C6C0E7D1E7CE7272E72E0A0
:1048F000372E42C0D8018C9190E00E94B8D9F801BF
:1049000081938F01F70101900020E9F73197EE19AB
:10491000FF09802F8E198E176CF327968FAD27977E
:104920008E3751F1C701B20145E050E00E9466DACE
:10493000009711F500D000D0EDB7FEB73196ADB7B6
:10494000BEB712967C926E92119733822282558264
:1049500044820E94A3DAEDB7FEB736960FB6F894FC
:10496000FEBF0FBEEDBFC3010E94CF5688E792E0A5
:104970000E94565699249394C501B70140E050E037
:104980000E944475181614F48701BCCF992041F495
:104990008FEF9FEFD6019F969C938E939E9706C0B4
:1049A000F60186A597A5019697A786A72AEA31E082
:1049B000C20ED31ED6011C92C45ADF4F0FB6F89414
:1049C000DEBF0FBECDBFCF91DF911F910F91FF9042
:1049D000EF90DF90CF90BF90AF909F907F906F90BF
:1049E0005F904F903F902F9008952F923F924F925B
:1049F0005F926F927F928F929F92AF92BF92CF926F
:104A0000DF92EF92FF920F931F93DF93CF93CDB777
:104A1000DEB7CD58D0400FB6F894DEBF0FBECDBF85
:104A20008C013B016A0184E090E0C80ED91EF801B8
:104A30007296C757DF4FF983E883C958D040C80141
:104A40000596C957DF4F99838883C758D040CA5706
:104A5000DF4F1882C658D04036E6E32EF12CEC0E1C
:104A6000FD1E28EF822E21E0922E800E911E99EFDE
:104A7000A92E91E0B92EA00EB11E8EE0282E312C69
:104A80002C0E3D1EB7E44B2E512C4C0E5D1EF20138
:104A90003496C557DF4FF983E883CB58D040ECE517
:104AA000F2E08491C357DF4F8883CD58D04021C1B5
:104AB000F7018385282F30E0A901487150704031FB
:104AC000510509F024C1F4019081913009F41FC10E
:104AD000923009F41CC1CE010196B7010E94C61C98
:104AE0001E86F3018081882329F4C10160E072E011
:104AF0000E9449DAC101B3010E9449DAC101BE0135
:104B00006F5F7F4F0E9449DAC10160E072E00E944E
:104B100049DA1CA61FA61BA61AA68AE194E099A74B
:104B200088A7CE018C96B601AE014F5F5F4F21E0A2
:104B30000E94877A882309F03EC0F401808188238F
:104B4000D1F5C357DF4F9881CD58D040ECE5F2E066
:104B500008C08091C00085FFFCCF9093C6003196BD
:104B600094919923B1F7E2E0F2E007C08091C00090
:104B700085FFFCCF31969093C60090819923B1F7C1
:104B80008091C00085FFFCCFFAE0F093C600FE01E3
:104B9000319607C08091C00085FFFCCF319690937D
:104BA000C60090819923B1F78091C00085FFFCCFAA
:104BB0008AE08093C600C557DF4FA881B981CB58E2
:104BC000D040FE01BC968BE101900D928150E1F73F
:104BD0008AA59BA5F201938382838AE194E0918365
:104BE0008083C801B101A20100DFC2010E94551DEE
:104BF000CE0188960E94551D7CC0953E09F479C06F
:104C00009E3209F476C09F3509F473C0F801928989
:104C1000992331F09E3209F46CC09F3509F469C0C4
:104C200023FD67C080E04031510509F481E0F801BF
:104C300085A7882349F4F7018085873409F059C096
:104C400081858E3709F455C0C957DF4F8881998116
:104C5000C758D040B7010E94C61CF4018081882348
:104C600029F5F30107C08091C00085FFFCCF319684
:104C70009093C60090819923B1F7C957DF4FE8811F
:104C8000F981C758D04007C08091C00085FFFCCF94
:104C900031969093C60090819923B1F78091C0001E
:104CA00085FFFCCFFAE0F093C60023C0813039F4D1
:104CB000F501808191810196918380831AC08230B1
:104CC000C1F4CA57DF4FF881C658D0402F2F30E0CB
:104CD000F5018081918128173907F1F0CA57DF4F1C
:104CE000F881C658D040FF5FCA57DF4FF883C658D7
:104CF000D040C601B701C757DF4F48815981C95815
:104D0000D0400E94447518160CF4D2CE05C0F701AD
:104D10009081992309F071CFC357DF4F0FB6F894F4
:104D2000DEBF0FBECDBFCF91DF911F910F91FF90DE
:104D3000EF90DF90CF90BF90AF909F908F907F903B
:104D40006F905F904F903F902F900895EF92FF9259
:104D50000F931F93DF93CF93CDB7DEB76F970FB647
:104D6000F894DEBF0FBECDBF7C018C01005B1F4FEE
:104D70008E5A9F4FF8019183808328EF31E0E20E35
:104D8000F31E21E0F70121937F011182108227E0B9
:104D90003EEFE20EF31E049640E050E060E070E06B
:104DA0000E943572F80120813181DE011596F901EA
:104DB00034968BE101900D928150E1F7F9018281E7
:104DC00093819C838B838AE194E09A838983C701D2
:104DD00065E172E08E010F5F1F4FA80106DEC8017A
:104DE0000E94551DF701E750FE4F808191816F961B
:104DF0000FB6F894DEBF0FBECDBFCF91DF911F91EC
:104E00000F91FF90EF900895EF92FF920F931F93F1
:104E1000DF93CF93CDB7DEB76F970FB6F894DEBFB1
:104E20000FBECDBF7C018C01005B1F4F8E5A9F4F80
:104E3000F8019183808328EF31E0E20EF31E22E037
:104E4000F701208328E03EEFE20EF31EF701E75062
:104E5000FE4F60831182049640E050E060E070E015
:104E60000E943572F80120813181DE011596F90129
:104E700034968BE101900D928150E1F7F901828126
:104E800093819C838B838AE194E09A838983C70111
:104E900065E172E08E010F5F1F4FA801A6DDC8011A
:104EA0000E94551D6F960FB6F894DEBF0FBECDBFA2
:104EB000CF91DF911F910F91FF90EF900895EF92A6
:104EC000FF920F931F93DF93CF93CDB7DEB76F970A
:104ED0000FB6F894DEBF0FBECDBF7C0188EF91E026
:104EE000E80EF91EF701108288E09EEFE80EF91E29
:104EF00087010B5C1F4FC80140E050E060E070E0AC
:104F00000E943572DE011596F8018BE101900D9239
:104F10008150E1F7F70183A994A99C838B838AE1EF
:104F200094E09A838983C70165E172E08E010F5F87
:104F30001F4FA8015ADDC8010E94551D6F960FB67C
:104F4000F894DEBF0FBECDBFCF91DF911F910F91BF
:104F5000FF90EF9008950F931F93CF93DF93DC01A1
:104F6000D5961C92D597D8961C92D897D4961C9219
:104F70001E92D3978AE194E0D2969C938E93D19718
:104F8000AA5ABF4F1C9213961C92A955B040FD011E
:104F9000EE5AFF4FAC5ABF4F11961C921E92A45569
:104FA000B04091838083ED01CF58DF4FFE0120E0B8
:104FB00030E0482F1482178213821282408391833B
:104FC000215E3F4F7F9681E02633380799F7A6553B
:104FD000BE4F89E18C9313961C9258961C921B9697
:104FE0001C9213961C92A35DB140FD01E453FE4F49
:104FF000A253BE4F11961C921E92408391835D96E0
:105000001D921D921D921C92139718961D921D922F
:105010001D921C921397A35FB14012961C92129797
:1050200013961C921397D0961C92D0971C921196AF
:105030001C9211978D0101511E4FF80110821182AF
:1050400012821382A955BE4F1C92FE01C901119212
:105050000197E9F7A05BBF4F81E08C93A75FB14058
:105060009F961C921E929E970E94931A68577C4EA0
:105070008F4F9F4FF8016083718382839383DF9109
:10508000CF911F910F910895DF93CF93CDB7DEB7E6
:10509000E0970FB6F894DEBF0FBECDBFDE011196CC
:1050A000EAECF3E080E101900D928150E1F7DE013E
:1050B0005196EAEBF3E080E101900D928150E1F727
:1050C000DE019196EAEAF3E080E101900D928150D1
:1050D000E1F789819A81AB81BC8180935A0A9093D0
:1050E0005B0AA0935C0AB0935D0A89899A89AB89AF
:1050F000BC8980934A0A90934B0AA0934C0AB093C0
:105100004D0A89A19AA1ABA1BCA180936E0A90938C
:105110006F0AA093700AB093710A8D819E81AF814E
:10512000B88580935E0A90935F0AA093600AB0935B
:10513000610A8D899E89AF89B88D80934E0A9093BC
:105140004F0AA093500AB093510A8DA19EA1AFA11E
:10515000B8A58093720A9093730AA093740AB093CF
:10516000750A89859A85AB85BC858093620A909380
:10517000630AA093640AB093650A898D9A8DAB8DFA
:10518000BC8D8093520A9093530AA093540AB09313
:10519000550A89A59AA5ABA5BCA58093760A9093DC
:1051A000770AA093780AB093790A8D859E85AF859A
:1051B000B8898093660A9093670AA093680AB093AF
:1051C000690A8D8D9E8DAF8DB8A18093560A9093FC
:1051D000570AA093580AB093590A8DA59EA5AFA56A
:1051E000B8A980937A0A90937B0AA0937C0AB09323
:1051F0007D0A0E94205D80E090E8ABE3B5E48093F7
:10520000820A9093830AA093840AB093850A8093BC
:10521000860A9093870AA093880AB093890A20E0AF
:1052200030E040E050E020937E0A30937F0A4093C4
:10523000800A5093810A80E29EE4A0E0B0E080936F
:10524000460A9093470AA093480AB093490A2093CC
:10525000960A3093970A4093980A5093990A80E0EF
:1052600090E0A0EAB1E480938A0A90938B0AA0931D
:105270008C0AB0938D0A8DEC9CECACECBEE3809371
:105280008E0A90938F0AA093900AB093910A80E0BF
:1052900090E0A0EAB0E48093920A9093930AA093DE
:1052A000940AB093950A20934D0630934E0640938E
:1052B0004F06509350062093490630934A06409378
:1052C0004B0650934C062093450630934606409378
:1052D00047065093480686E696E6A2E4B1E480933A
:1052E000850390938603A0938703B093880360E0BF
:1052F00070E080E89FE30E94E489609389037093E3
:105300008A0380938B0390938C036BE774E184E1B1
:1053100092E40E94F08960938D0370938E038093D2
:105320008F03909390030E94D88880E090E0A0E8DB
:10533000BFE38093910390939203A0939303B09360
:10534000940384E195E090937B0380937A03909398
:105350007D0380937C0382EE94E090937F0380939F
:105360007E0384E68093A9031092691280E090E0A6
:10537000A0E9B0E480935D0390935E03A0935F0384
:10538000B093600380E090E8ABEBB4E480936103FA
:1053900090936203A0936303B0936403EAECF3E099
:1053A000949108C08091C00085FFFCCF9093C60007
:1053B000319694919923B1F7E0EDF3E0949108C010
:1053C0008091C00085FFFCCF9093C60031969491E8
:1053D0009923B1F78091C00085FFFCCF8AE08093CC
:1053E000C600E0960FB6F894DEBF0FBECDBFCF91DA
:1053F000DF910895CF93DF93CAECD3E0FE0194913F
:1054000008C08091C00085FFFCCF9093C600319604
:1054100094919923B1F7E4ECF5E0949108C0809160
:10542000C00085FFFCCF9093C600319694919923DC
:10543000B1F78091C00085FFFCCF8AE08093C60061
:10544000FE019491EAECF3E008C08091C00085FF72
:10545000FCCF9093C600319694919923B1F7409177
:105460005A0A50915B0A60915C0A70915D0A8CEB5C
:1054700095E00E949F3440915E0A50915F0A6091CE
:10548000600A7091610A89EB95E00E949F34409117
:10549000620A5091630A6091640A7091650A86EB12
:1054A00095E00E949F344091660A5091670A60918E
:1054B000680A7091690A83EB95E00E949F34E6E1E7
:1054C000F2E007C08091C00085FFFCCF3196909339
:1054D000C60090819923B1F78091C00085FFFCCF71
:1054E0008AE08093C600FE019491EAECF3E008C0E4
:1054F0008091C00085FFFCCF9093C60031969491B7
:105500009923B1F7E9E9F5E0949108C08091C000D2
:1055100085FFFCCF9093C600319694919923B1F703
:105520008091C00085FFFCCF8AE08093C600FE0119
:105530009491EAECF3E008C08091C00085FFFCCFB5
:105540009093C600319694919923B1F740914A0AFD
:1055500050914B0A60914C0A70914D0A80E995E098
:105560000E949F3440914E0A50914F0A6091500A18
:105570007091510A8DE895E00E949F344091520A43
:105580005091530A6091540A7091550A8AE895E047
:105590000E949F344091560A5091570A6091580AD0
:1055A0007091590A87E895E00E949F34E6E1F2E0A5
:1055B00007C08091C00085FFFCCF31969093C60054
:1055C00090819923B1F78091C00085FFFCCF8AE0DC
:1055D0008093C600FE019491EAECF3E008C080914C
:1055E000C00085FFFCCF9093C6003196949199231B
:1055F000B1F7E9E6F5E0949108C08091C00085FF1D
:10560000FCCF9093C600319694919923B1F7809185
:10561000C00085FFFCCF8AE08093C600FE01949114
:10562000EAECF3E008C08091C00085FFFCCF9093C6
:10563000C600319694919923B1F740916E0A50912A
:105640006F0A6091700A7091710A80E695E00E947D
:10565000B2344091720A5091730A6091740A709149
:10566000750A8DE595E00E94B2344091760A50911A
:10567000770A6091780A7091790A8AE595E00E942C
:10568000B23440917A0A50917B0A60917C0A709101
:105690007D0A87E595E00E94B234E6E1F2E007C0BA
:1056A0008091C00085FFFCCF31969093C600908119
:1056B0009923B1F78091C00085FFFCCF8AE08093E9
:1056C000C600FE019491EAECF3E008C08091C000AE
:1056D00085FFFCCF9093C600319694919923B1F742
:1056E000E2E2F5E0949108C08091C00085FFFCCF14
:1056F0009093C600319694919923B1F78091C000A0
:1057000085FFFCCF8AE08093C600FE019491EAEC0D
:10571000F3E008C08091C00085FFFCCF9093C600E5
:10572000319694919923B1F74091820A5091830A5E
:105730006091840A7091850A89E195E00E949F3406
:105740004091860A5091870A6091880A7091890A6F
:1057500086E195E00E949F34E6E1F2E007C0809187
:10576000C00085FFFCCF31969093C60090819923AD
:10577000B1F78091C00085FFFCCF8AE08093C6001E
:10578000FE019491EAECF3E008C08091C00085FF2F
:10579000FCCF9093C600319694919923B1F7E3E63C
:1057A000F4E0949108C08091C00085FFFCCF9093F5
:1057B000C600319694919923B1F78091C00085FF7E
:1057C000FCCF8AE08093C600FE019491EAECF3E0FE
:1057D00008C08091C00085FFFCCF9093C600319631
:1057E00094919923B1F740917E0A50917F0A60917C
:1057F000800A7091810A8AE594E00E949F3440916A
:10580000960A5091970A6091980A7091990A87E5D3
:1058100094E00E949F344091460A5091470A60915B
:10582000480A7091490A84E594E00E94B23440919C
:105830008A0A50918B0A60918C0A70918D0A81E5D9
:1058400094E00E949F3440918E0A50918F0A60919B
:10585000900A7091910A8EE494E00E949F344091E6
:10586000920A5091930A6091940A7091950A8BE480
:1058700094E00E949F34E6E1F2E007C08091C0000E
:1058800085FFFCCF31969093C60090819923B1F7A4
:105890008091C00085FFFCCF8AE08093C600FE01A6
:1058A0009491EAECF3E008C08091C00085FFFCCF42
:1058B0009093C600319694919923B1F7E9E3F4E00F
:1058C000949108C08091C00085FFFCCF9093C600E2
:1058D000319694919923B1F78091C00085FFFCCF58
:1058E0008AE08093C600FE019491EAECF3E008C0E0
:1058F0008091C00085FFFCCF9093C60031969491B3
:105900009923B1F7409145065091460660914706AC
:105910007091480680E394E00E949F3440914906CC
:1059200050914A0660914B0670914C068DE294E0CE
:105930000E949F3440914D0650914E0660914F0653
:10594000709150068AE294E0FAD7E6E1F2E007C0EF
:105950008091C00085FFFCCF31969093C600908166
:105960009923B1F78091C00085FFFCCF8AE0809336
:10597000C600FE019491EAECF3E008C08091C000FB
:1059800085FFFCCF9093C600319694919923B1F78F
:10599000ECE1F4E0949108C08091C00085FFFCCF59
:1059A0009093C600319694919923B1F78091C000ED
:1059B00085FFFCCF8AE08093C600FE019491EAEC5B
:1059C000F3E008C08091C00085FFFCCF9093C60033
:1059D000319694919923B1F74091850350918603B4
:1059E000609187037091880382E194E0A8D7609169
:1059F000890370918A0380918B0390918C030E949C
:105A0000EA89AB01BC018FE094E099D760918D03E6
:105A100070918E0380918F03909190030E94F6897C
:105A2000AB01BC018CE094E08AD7E6E1F2E007C06C
:105A30008091C00085FFFCCF31969093C600908185
:105A40009923B1F78091C00085FFFCCF8AE0809355
:105A5000C600DF91CF910895EF92FF921F93CF93ED
:105A6000DF93EC017B01142F888199810E943DE135
:105A7000F70181937F0188819981019699838883B9
:105A8000115091F7DF91CF911F91FF90EF90089502
:105A9000EF92FF920F931F93DF93CF93CDB7DEB7B3
:105AA00066970FB6F894DEBF0FBECDBF84E690E0D8
:105AB0009A8389838091170290911802A09119020C
:105AC000B0911A028B8B9C8BAD8BBE8B8E01015FCC
:105AD0001F4F7E010894E11CF11CC701B80144E08E
