:100000000C947A280C94A7280C94A7280C94A72861
:100010000C94A7280C94A7280C94A7280C94A72824
:100020000C94A7280C94A7280C94A7280C94A72814
:100030000C94A7280C94C1FF0C94A7280C94A72813
:100040000C94A7280C9411310C94A7280C94A72881
:100050000C94A7280C94A7280C94EAE40C9418FE9E
:100060000C94A7280C9420A10C94A7280C94A728E2
:100070000C94A7280C94A7280C94A7280C94A728C4
:100080000C94A7280C94A7280C94A7280C94A728B4
:100090000C94A7280C94A7280C94A7280C947CF403
:1000A0000C94A7280C94A7280C94A7280C94A72894
:1000B0000C94A7280C94A7280C94A7280C94A72884
:1000C0000C94A7280C94A7280C94A7280C94A72874
:1000D0000C94A7280C94A7280C94A7280C94A72864
:1000E0000C94A728084AD73B3BCE016E84BCBFFDC9
:1000F000C12F3D6C74319ABD56833DDA3D00C77FF8
:1001000011BED9E4BB4C3E916BAAAABE0000008090
:100110003F05A84CCDB2D44EB93836A9020C50B91F
:10012000918688083CA6AAAA2ABE000000803F4506
:10013000313A200045303A20005A3A2000593A20FE
:1001400000583A20004D53312C4D53322050696EE7
:10015000730A0024F404D9201BC40C5C0E9804C458
:10016000095F0265077101F405F900FB04B300485B
:10017000048700C10369005803550003034500BE0E
:10018000023A008402310053022A002902250004A9
:10019000022000E4011C00C8011900AF01170098FB
:1001A000011400840113007101100061011000515D
:1001B000010E0043010D0036010B002B010B002046
:1001C000010B00150109000C01090003010800FBE7
:1001D000000800F3000800EB000700E4000600DE62
:1001E000000600D8000600D2000600CC000500C7BB
:1001F000000500C2000500BD000400B9000400B500
:10020000000400B1000400AD000400A9000400A532
:10021000000300A20003009F0004009B000300985D
:100220000003009500020093000300900003008D7E
:100230000002008B00030088000200860002008498
:10024000000300810002007F0002007D0002007BAD
:1002500000020079000200770001007600020074BD
:1002600000020072000100710002006F0002006DC8
:100270000001006C0002006A0001006900020067D2
:1002800000010066000100650001006400020062D8
:1002900000010061000100600001005F0002005DDC
:1002A0000001005C0001005B0001005A00010059E0
:1002B00000010058000100570001005600010055E0
:1002C00000010054000100530000005300010052DF
:1002D00000010051000100500001004F0001004EDC
:1002E0000000004E0001004D0001004C0001004BD9
:1002F0000000004B0001004A0001004900010048D5
:1003000000000048000100470001004600000046D0
:1003100000010045000000450001004400010043C9
:1003200000000043000100420000004200010041C3
:1003300000000041000100400001003F0000003FBC
:100340000001003E0000003E0001003D0000003DB5
:100350000001003C0000003C0000003C0001003BAC
:100360000000003B0001003A0000003A00010039A3
:10037000000000390001003800000038000000389B
:100380000001003700000037000100360000003691
:100390000000003600010035000000350000003587
:1003A000000100340000003400000034000100337C
:1003B0000000003300000033000100320000003272
:1003C0000000003200010031000000310000003167
:1003D0000001003000000030000000300001002F5C
:1003E0000000002F0000002F0000002F0001002E51
:1003F0000000002E0000002E0001002D0000002D46
:100400000000002D0000002D0001002C0000002C39
:100410000000002C0000002C0001002B0000002B2D
:100420000000002B0000002B0001002A0000002A21
:100430000000002A0000002A000100290000002915
:100440000000002900000029000000290001002808
:1004500000000028000000280000002800000028FC
:1004600000010027000000270000002700000027EF
:1004700000000027000100260000002600000026E2
:1004800000000026000000260001002500000025D5
:1004900000000025000000250000002500000025C8
:1004A00000010024000000240000002400000024BB
:1004B00000000024000100230000002300000023AE
:1004C00000000023000000230000002300000023A0
:1004D0000001002200000022000000220000002293
:1004E0000000002200000022000100210000002185
:1004F0000000002100000021000000210000002178
:100500000000002100010020000000200000002069
:10051000000000200000002000000020000000205B
:10052000000000200001001F0000001F0000001F4D
:100530000000001F0000001F0000001F0000001F3F
:100540000001001E0000001E0000001E0000001E32
:1005500000000024F4D43050C38E20C2A240178281
:100560008B7011127A910D816CD90AA861E108C7CC
:10057000586607615143061E4B5D05C145A7041A25
:10058000411104093D9803713931034036DB02659E
:10059000339102D4305402802E1D02632CEE01757B
:1005A0002AC501B028A001102781018F2564012BE5
:1005B000244B01E0223401AC211F018D200D01806C
:1005C0001FFC00841EED00971DDF00B81CD200E662
:1005D0001BC600201BBC00641AB200B219A8000A96
:1005E00019A0006A189900D117910040178B00B527
:1005F00016840031167E00B31579003A157300C7D2
:10060000146F0058146A00EE136600881363002507
:10061000135E00C7125B006C12570015125400C124
:1006200011510070114F0021114B00D61049008D5F
:100630001047004610440002104200C00F400080E6
:100640000F3E00420F3C00060F3B00CB0E380093DC
:100650000E37005C0E3500270E3400F30D3200C15A
:100660000D3100900D3000600D2E00320D2D000573
:100670000D2C00D90C2B00AE0C2900850C29005C38
:100680000C2700350C27000E0C2600E80B2400C4B4
:100690000B2400A00B23007D0B23005A0B210039F3
:1006A0000B2100180B2000F80A1F00D90A1E00BBFE
:1006B0000A1E009D0A1D00800A1D00630A1C0047D7
:1006C0000A1B002C0A1B00110A1A00F7091A00DD88
:1006D000091900C4091900AB091900920917007B18
:1006E000091800630917004C091600360916002086
:1006F0000916000A091500F5081500E0081400CCD9
:10070000081400B8081400A4081400900813007D11
:100710000812006B08130058081200460812003433
:10072000081100230811001208110001081100F03F
:10073000071000E0071000D0071000C0071000B03D
:10074000070F00A107100091070E0083070F007428
:10075000070F0065070E0057070E0049070E003B04
:10076000070D002E070E0020070D0013070D0006D1
:10077000070D00F9060C00ED060D00E0060C00D494
:10078000060C00C8060C00BC060C00B0060C00A449
:10079000060B0099060C008D060B0082060B0077F5
:1007A000060B006C060B0061060A0057060B004C96
:1007B000060A0042060A0038060A002E060A00242D
:1007C000060A001A060A001006090007060A00FDBC
:1007D000050900F4050900EB050900E2050900D947
:1007E000050900D0050900C7050900BE050900B5C7
:1007F000050800AD050800A50509009C0508009442
:100800000508008C050800840508007C05080074B4
:100810000508006C050700650508005D0507005622
:100820000508004E05070047050700400508003889
:10083000050700310507002A050700230507001CEE
:10084000050600160507000F05070008050600024B
:10085000050700FB040600F5040700EE040600E8A7
:10086000040600E2040700DB040600D5040600CFFE
:10087000040600C9040600C3040600BD040600B750
:10088000040600B1040500AC040600A6040600A09E
:100890000405009B04060095040500900406008AE8
:1008A00004050085040500800406007A040500752F
:1008B000040500700405006B040500660405006172
:1008C0000405005C04050057040500520405004DB2
:1008D00004050048040500430405003E0404003AF2
:1008E00004050035040500300404002C040500272D
:1008F000040400230405001E0404001A0404001666
:10090000040500110404000D04040009040500049A
:1009100004040000040400FC030400F8030400F4D1
:10092000030400F0030400EC030400E8030400E403
:10093000030400E0030400DC030400D8030400D433
:10094000030400D0030400CC030400C8030300C563
:100950000303006563686F3A00656E6473746F70BB
:1009600073206869743A205A00205A3A00656E6410
:1009700073746F7073206869743A20590020593A73
:1009800000656E6473746F7073206869743A2058E0
:100990000020583A00656E6473746F707320686944
:1009A000743A20006563686F3A0020746F6F206CA2
:1009B0006F6E6720657874727573696F6E207072E0
:1009C0006576656E7465640020636F6C642065787D
:1009D00074727573696F6E2070726576656E74657A
:1009E00064007C3C3E5E2B3D3F2F5B5D3B2C2A220E
:1009F0005C0000060900FE06018902FE20FFFE07DA
:100A0000FE06FE0000000600070106060602008042
:100A10008080800080030303060103A0A0A00507D7
:100A2000070600FF5050F850F8505005090906001D
:100A3000FE2070A8A07028A870200608080600FFF5
:100A400040A84810204854080507070600FF60909A
:100A5000906098906801030306020380808002077B
:100A6000070602FF40808080808040020707060260
:100A7000FF8040404040408005050506000088504A
:100A8000F850880505050600002020F82020020403
:100A9000040602FEC0404080050101060002F80283
:100AA0000202060200C0C004060606010010102063
:100AB00040808004060606010060909090906003DC
:100AC000060606010040C0404040E004060606015C
:100AD000006090102040F0040606060100F020603F
:100AE0001010E005060606000010305090F81004C3
:100AF0000606060100F080E01010E004060606017C
:100B0000006080E0909060040606060100F010107E
:100B1000204040040606060100609060909060044A
:100B2000060606010060909070106002050506023E
:100B300000C0C000C0C00207070602FEC0C000C05F
:100B40004040800505050600001860806018050318
:100B500003060001F800F8050505060000C030088E
:100B600030C0040707060100609010604000400597
:100B700006060600007090A8B08070050606060004
:100B800000205088F88888050606060000F088F0E6
:100B90008888F0040606060100609080809060045A
:100BA0000606060100E090909090E004060606011B
:100BB00000F080E08080F0040606060100F080E08E
:100BC000808080040606060100609080B09060047A
:100BD00006060601009090F090909003060606012C
:100BE00000E040404040E0050606060000381010D6
:100BF00010906004060606010090A0C0A09090042A
:100C000006060601008080808080F005060606004A
:100C10000088D8A8A8888804060606010090D0B0ED
:100C200090909005060606000070888888887004F9
:100C30000606060100E09090E080800407070601A8
:100C4000FF609090D0B06010040606060100E090AE
:100C500090E09090040606060100609040209060AD
:100C6000050606060000F8202020202004060606BF
:100C7000010090909090906004060606010090900C
:100C800090F060600506060600008888A8A8D8884D
:100C90000506060600008850202050880506060636
:100CA0000000888850202020040606060100F0106D
:100CB000204080F0030606060100E080808080E08E
:100CC0000406060601008080402010100306060678
:100CD0000100E020202020E005030306000320504F
:100CE000880501010600FEF80202020602048040A7
:100CF00004040406010070909070040606060100CA
:100D00008080E09090E00404040601007080807010
:100D1000040606060100101070909070040404068A
:100D2000010060B0C070040606060100205040E0DB
:100D300040400406060601FE6090907010600406B4
:100D4000060601008080E0909090030606060100F0
:100D50004000C04040E00308080601FE200060207B
:100D60002020A0400406060601008080A0C0A090BC
:100D7000030606060100C040404040E005040406AA
:100D80000000D0A8A888040404060100E090909018
:100D9000040404060100609090600406060601FE4B
:100DA000E09090E080800406060601FE709090704E
:100DB0001010040404060100A0D08080040404067E
:100DC000010070C030E00406060601004040E0402B
:100DD000502004040406010090909070040404065E
:100DE00001009090606005040406000088A8A850E7
:100DF000040404060100906060900406060601FEEB
:100E0000909090709060040404060100F02040F07F
:100E100003070706010020404080404020010707EB
:100E20000602FF8080808080808003070706010023
:100E30008040402040408004020206010350A0FF91
:100E4000FFFFFFFFFFFFFFFFFFFFFFFFFFFFFFFFB2
:100E5000FFFFFFFFFFFFFFFFFFFFFFFFFFFFFFFFA2
:100E600000000006000701060606020080008080E0
:100E700080800406060601FF2070A0A070200507F0
:100E8000070600FF304840F04040F8050505060021
:100E900000A8508850A80506060600008850F820D3
:100EA000F8200107070602FF808080008080800410
:100EB00007070601FF708060906010E003010106E3
:100EC0000105A0060707060000788494A49484789E
:100ED00003050506010160A06000E00505050600A8
:100EE000002850A05028040303060100F01010044D
:100EF0000101060102F00607070600007884B4A489
:100F0000A48478040101060105F00403030601022C
:100F10006090600507070600FF2020F8202000F8F9
:100F200003050506010140A02040E0030505060178
:100F300001C0204020C002020206020440800405D5
:100F4000050601FF9090B0D08005060606000078E7
:100F5000E8E8682828010101060202800202020670
:100F600002FE408003050506010140C04040E00349
:100F7000050506010140A04000E00505050600004A
:100F8000A0502850A00508080600FF40C04050703F
:100F90003078100508080600FF40C040506808106F
:100FA000380508080600FFC0204030F030781004F3
:100FB00007070601002000206080906005070706F3
:100FC00000004020205070888805070706000010A8
:100FD0002020507088880507070600002050205008
:100FE0007088880507070600002850205070888800
:100FF0000507070600005000205070888805070785
:101000000600002050205070888805060606000063
:1010100078A0F0A0A0B80408080601FE60908080C7
:10102000906020400407070601004020F080E08027
:10103000F00407070601002040F080E080F004077C
:10104000070601002050F080E080F0040707060149
:10105000005000F080E080F00307070601008040A8
:10106000E0404040E00307070601002040E0404028
:1010700040E003070706010040A0E0404040E003D5
:101080000707060100A000E0404040E00506060614
:1010900000007048E848487004070706010050A0A7
:1010A00090D0B09090040707060100402060909017
:1010B0009060040707060100204060909090600453
:1010C0000707060100205060909090600407070613
:1010D000010050A060909090600407070601005046
:1010E0000060909090600505050600008850205033
:1010F000880408080601FF1070B0B0D0D0E080046A
:1011000007070601004020909090906004070706B2
:101110000100204090909090600407070601002095
:101120005090909090600407070601005000909046
:1011300090906005070706000010208850202020AE
:1011400004060606010080E09090E0800406060692
:1011500001006090A0A090A00407070601004020B5
:101160000070909070040707060100204000709006
:1011700090700407070601002050007090907004E2
:10118000070706010050A000709090700406060644
:101190000100500070909070040707060100205075
:1011A000207090907005040406000070A8B07804C8
:1011B00006060601FE7080807020400407070601C5
:1011C0000040200060B0C070040707060100204006
:1011D0000060B0C07004070706010020500060B036
:1011E000C070040606060100500060B0C07003071E
:1011F00007060100804000C04040E00307070601E9
:1012000000204000C04040E003070706010040A066
:1012100000C04040E0030606060100A000C04040B8
:10122000E00407070601003060107090906004072A
:101230000706010050A000E0909090040707060107
:1012400000402000609090600407070601002040E5
:101250000060909060040707060100205000609035
:10126000906004070706010050A0006090906004A1
:101270000606060100500060909060050505060016
:10128000002000F8002004040406010070B0D0E043
:1012900004070706010040200090909070040707A3
:1012A000060100204000909090700407070601009E
:1012B00020500090909070040606060100500090A7
:1012C0009090700409090601FE20400090909070F3
:1012D00090600408080601FE8080E09090E0808025
:1012E0000408080601FE500090909070906000067F
:1012F0000900FE070199032B20FFFE08FE07FE00F0
:101300000000060000010707060200808080808040
:101310000080030303060104A0A0A0050707060040
:10132000005050F850F85050050707060000207094
:10133000A07028702005070706000048A85020501C
:10134000A89005070706000040A0A040A8906801EB
:101350000303060204808080030707060100204083
:101360008080804020030707060100804020202065
:1013700040800505050600018850F85088050505E0
:101380000600012020F820200303030601FF60402F
:1013900080050101060003F80303030601FF40E096
:1013A0004005070706000008081020408080050758
:1013B000070600002050888888502005070706008F
:1013C000002060A0202020F8050707060000708894
:1013D00008304080F8050707060000F808103008BC
:1013E000887005070706000010305090F8101005AF
:1013F0000707060000F880B0C808887005070706D0
:101400000000304080B0C88870050707060000F86B
:1014100008101020404005070706000070888870FB
:1014200088887005070706000070889868081060B3
:101430000307070601FF40E0400040E040030707C4
:101440000601FF40E04000604080040707060100FD
:1014500010204080402010050303060002F800F829
:101460000407070601008040201020408005070780
:1014700006000070881020200020050707060000E5
:10148000708898A8B0807005070706000020508873
:1014900088F88888050707060000F0484870484823
:1014A000F0050707060000708880808088700507B7
:1014B00007060000F04848484848F00507070600BE
:1014C00000F88080F08080F8050707060000F880AB
:1014D00080F0808080050707060000708880809873
:1014E0008870050707060000888888F888888803C0
:1014F0000707060100E04040404040E005070706BE
:1015000000003810101010906005070706000088D2
:1015100090A0C0A09088050707060000808080800A
:101520008080F80507070600008888D8A888888882
:101530000507070600008888C8A898888805070757
:1015400006000070888888888870050707060000F4
:10155000F08888F08080800508080600FF70888881
:101560008888A87008050707060000F08888F0A0A2
:10157000908805070706000070888070088870054D
:101580000707060000F82020202020200507070676
:10159000000088888888888870050707060000880A
:1015A000888850505020050707060000888888A8C2
:1015B000A8D888050707060000888850205088882A
:1015C000050707060000888850202020200507070F
:1015D000060000F80810204080F803070706010005
:1015E000E08080808080E005070706000080804062
:1015F00020100808030707060100E0202020202013
:10160000E00503030600042050880501010600FFE1
:10161000F802020206020680400505050600007079
:10162000087888780507070600008080B0C888C859
:10163000B00505050600007088808870050707065C
:10164000000008086898889868050505060000707D
:1016500088F88070050707060000304840F04040D9
:10166000400507070600FE78888878088870050717
:10167000070600008080B0C8888888030707060135
:10168000004000C0404040E00409090601FE10008F
:1016900030101010909060050707060000808088C9
:1016A00090E09088030707060100C040404040409A
:1016B000E0050505060000D0A8A8A88805050506D0
:1016C0000000B0C888888805050506000070888875
:1016D00088700507070600FEB0C888C8B08080057E
:1016E00007070600FE68988898680808050505063B
:1016F0000000B0C88080800505050600007080707D
:1017000008F00507070600004040F040404830055B
:10171000050506000088888898680505050600000C
:1017200088885050200505050600008888A8A85024
:1017300005050506000088502050880507070600AB
:10174000FE88889868088870050505060000F8106E
:101750002040F8040707060100304020C020403038
:1017600001070706020080808080808080040707D0
:10177000060100C02040304020C0050303060004DD
:1017800048A89000000001000000000001000000D7
:101790000000010000000000010000000000010046
:1017A0000000000001000000000001000000000037
:1017B0000100000000000100000000000100000026
:1017C0000000010000000000010000000000010016
:1017D0000000000001000000000001000000000007
:1017E00001000000000001000000000001000000F6
:1017F00000000100000000000100000000000100E6
:1018000000000000010000000000010000000000D6
:1018100001000000000001000000000001000000C5
:1018200000000100000000000100000000000100B5
:1018300000000000010000000000010000000000A6
:10184000010000000000010000000000060000018F
:101850000707060200800080808080800507070659
:1018600000FF2078A0A0A078200507070600003020
:101870004840E04048B005050506000088705070FB
:10188000880508080600FF88885020F820202001DD
:101890000707060200808080008080800508080617
:1018A00000FF7080E09048380870030101060107CE
:1018B000A00507070600007088A8C8A8887004065D
:1018C000060601017090B05000F006050506000004
:1018D0002448904824040202060102F01004010189
:1018E000060103F00507070600007088E8C8C888ED
:1018F00070050101060007F803030306010440A078
:10190000400506060600002020F82020F804050502
:1019100006010360902040F0040505060103E01075
:101920006010E0020202060206408005060606007C
:10193000FF888888C8B08005070706000078E8E8B7
:10194000682828280101010602038002020206021B
:10195000FE408003050506010340C04040E0040648
:10196000060601016090906000F006050506000083
:1019700090482448900609090600FF40C04040E412
:101980000C143C040609090600FF40C04040E8145E
:1019900004081C0509090600FFC0204020C81828BB
:1019A0007808050707060000200020204088700501
:1019B00008080600004020708888F8888805080814
:1019C0000600001020708888F8888805080806003E
:1019D000002050708888F8888805080806000048AC
:1019E000B0708888F88888050808060000500070E4
:1019F0008888F888880508080600002050708888C4
:101A0000F888880607070600003C50909CF0909CE0
:101A10000509090600FE70888080808870204005D6
:101A2000080806000040F88080F08080F80508086B
:101A300006000010F88080F08080F8050808060095
:101A40000020F88080F08080F8050808060000502B
:101A5000F88080F08080F80308080601008040E0EC
:101A600040404040E00308080601002040E04040BC
:101A70004040E003080806010040A0E0404040402C
:101A8000E0030808060100A000E040404040E005F7
:101A90000707060000F04848E84848F0050808062F
:101AA0000000285088C8A898888805080806000003
:101AB000402070888888887005080806000010207B
:101AC0007088888888700508080600002050708893
:101AD0008888887005080806000028507088888863
:101AE0008870050808060000500070888888887093
:101AF00005050506000088502050880507070600E8
:101B000000709898A8C8C870050808060000402012
:101B10008888888888700508080600001020888852
:101B2000888888700508080600002050008888888A
:101B3000887005080806000050008888888888702A
:101B4000050808060000102088885020202005077E
:101B50000706000080F088F08080800507070600F7
:101B600000708890A09088B005080806000040200A
:101B700000700878887805080806000010200070BA
:101B8000087888780508080600002050007008785A
:101B900088780508080600002850007008788878C2
:101BA00005070706000050007008788878050808C7
:101BB0000600002050207008788878060505060089
:101BC0000078147C907C0507070600FE70888088EA
:101BD0007020400508080600004020007088F8804A
:101BE000700508080600001020007088F880700555
:101BF00008080600002050007088F880700507076C
:101C000006000050007088F8807003080806010084
:101C1000804000C0404040E00308080601004080CA
:101C200000C0404040E003080806010040A000C09A
:101C3000404040E0060A0A0600FEA4A800FC84809A
:101C4000808084FC060A0A0600FE549400FC84048A
:101C5000040484FC050808060000285000B0C88869
:101C60008888050808060000402000708888887071
:101C7000040A0A0602FE3040809090909090909066
:101C8000040A0A0600FEC020109090909090909058
:101C9000060707060001448C8C8480403C06070739
:101CA00006000188C4C4840408F005050506000187
:101CB0002000F8002005080806000040F0C88888C9
:101CC000987810050808060000E0F8888888888859
:101CD000F80505050600012030F830200508080643
:101CE00000002070F820202020E00509090600FFF0
:101CF0002070A8A8B8888850200509090600FFE0D0
:101D000080C0B0A8A83028280509090600FFF8A857
:101D10008888888888A8F8050A0A0600FE2050509E
:101D2000505088A8A8887000000000000000000043
:101D30000000007FFFE00000000000000000000045
:101D400000007000E0000000000000000000000043
:101D500000630C60000000000000000000000000B4
:101D6000470E200000000000000000000000004FAF
:101D70000F200000000000000000000000005F0FC6
:101D8000A00000000000000000000000005E07A0AE
:101D90007F80003FC0003FC000410400406020FB46
:101DA000C00079E00079E00020820040F020F3C01C
:101DB0000076E00076E00020820040F020EBC000DA
:101DC0007EE0007EE0004104004060207B80003D1A
:101DD000C00039C0008208005E07A07B80003BC0C5
:101DE000003EC0010410005F0FA0FBC00077E000C0
:101DF00076E0010410004F0F20FBC00070E0007976
:101E0000E000820800470E20FFC0007FE0007FE076
:101E100000410400630C603F00001F80001F800031
:101E20000000007000E01E00000F00000F0001FF26
:101E3000FF807FFFE00C0000060000060001FFFFAE
:101E40008000000000000000000000000000000012
:101E50007FFFE000000000000000000000000070B4
:101E600000E000000000000000000000000061F839
:101E70006000000000000000000000000041F820A9
:101E800000000000000000000000000040F0200002
:101E90000000000000000000000000406020000082
:101EA000000000000000000000005801A07F80003A
:101EB0003FC0003FC0004104005C63A0FBC000794C
:101EC000E00079E0002082005EF7A0F3C00076E039
:101ED0000076E0002082005EF7A0EBC0007EE0000C
:101EE0007EE0004104005C63A07B80003DC00039BF
:101EF000C0008208005801A07B80003BC0003EC0AB
:101F000001041000406020FBC00077E00076E00193
:101F100004100040F020FBC00070E00079E0008277
:101F2000080041F820FFC0007FE0007FE00041048E
:101F30000061F8603F00001F80001F80000000006B
:101F40007000E01E00000F00000F0001FFFF807F07
:101F5000FFE00C0000060000060001FFFF8000000B
:101F6000005900B02000B02000B02000B02000B028
:101F70002000B020002D2D3A2D2D004E6F20436102
:101F80007264005072696E742066726F6D205344E3
:101F90000053746F70205072696E740052657375CF
:101FA0006D65205072696E740050617573652050C4
:101FB00072696E7400436F6E74726F6C005072655C
:101FC000706172650054756E6500496E666F2073AE
:101FD000637265656E00F92E2E004D61696E004DCD
:101FE0003234004D3233202573004D3834205820D0
:101FF00059205A204500526573746F7265204661FE
:10200000696C73616665004C6F6164206D656D6F0E
:1020100072790053746F7265206D656D6F7279000F
:102020004C434420636F6E7472617374004D6F741F
:10203000696F6E0054656D706572617475726500CC
:102040004D61696E00436F6E747261737400453147
:10205000737470732F6D6D004531737470732F6DD1
:102060006D004573746570732F6D6D0045737465F5
:1020700070732F6D6D005A73746570732F6D6D00E2
:102080005A73746570732F6D6D0059737465707336
:102090002F6D6D005973746570732F6D6D005873DB
:1020A000746570732F6D6D005873746570732F6D48
:1020B0006D00412D7265747261637400412D72650B
:1020C000747261637400416D6178206500416D61D7
:1020D00078206500416D6178207A00416D6178203B
:1020E0007A00416D6178207900416D617820790036
:1020F000416D6178207800416D61782078005654F8
:10210000726176206D696E005654726176206D6939
:102110006E00566D696E00566D696E00566D617881
:10212000206500566D6178206500566D6178207AD3
:1021300000566D6178207A00566D617820790056DE
:102140006D6178207900566D6178207800566D6158
:102150007820780056652D6A65726B0056652D6A89
:1021600065726B00567A2D6A65726B00567A2D6A1D
:1021700065726B005678792D6A65726B00567879B6
:102180002D6A65726B00416363656C004163636532
:102190006C005A204F6666736574005A204F66665D
:1021A00073657400436F6E74726F6C005072656873
:1021B0006561742041425320436F6E660050726522
:1021C0006865617420504C4120436F6E6600504931
:1021D000442D43005049442D43005049442D4400B0
:1021E0005049442D44005049442D49005049442D44
:1021F00049005049442D50005049442D50002002C0
:10220000204661637400200220466163740020024E
:10221000204D6178002002204D6178002002204D81
:10222000696E002002204D696E004F6666004F6E99
:1022300020004F6666004F6E20004175746F746514
:102240006D700046616E2073706565640046616E56
:102250002073706565640042656400426564004EE9
:102260006F7A7A6C6532004E6F7A7A6C6532004E06
:102270006F7A7A6C65004E6F7A7A6C6500436F6E88
:1022800074726F6C0053746F7265206D656D6F7240
:10229000790042656400426564004E6F7A7A6C652D
:1022A000004E6F7A7A6C650046616E2073706565CA
:1022B000640046616E2073706565640054656D70DE
:1022C000657261747572650053746F7265206D6517
:1022D0006D6F72790042656400426564004E6F7AEA
:1022E0007A6C65004E6F7A7A6C650046616E207379
:1022F000706565640046616E2073706565640054A6
:10230000656D7065726174757265004D6F766520DC
:1023100041786973004D38300053776974636820E1
:10232000506F776572204F6E004D383100537769DA
:1023300074636820506F776572204F666600436F44
:102340006F6C646F776E00507265686561742041D0
:102350004253005072656865617420504C410047DB
:102360003238004175746F20486F6D65004D383408
:102370000044697361626C652053746570706572A6
:1023800073004D61696E004D6F766520302E316DA2
:102390006D004D6F766520316D6D004D6F76652057
:1023A00031306D6D005072657061726500457874F2
:1023B0007275646572004D6F7665205A004D6F76B8
:1023C000652059004D6F76652058004D6F76652069
:1023D00041786973004578747275646572005A00BB
:1023E000590058004D363030004368616E676520F3
:1023F00066696C616D656E7400466C6F7700466C43
:102400006F770046616E2073706565640046616E8B
:102410002073706565640042656400426564004E27
:102420006F7A7A6C6532004E6F7A7A6C6532004E44
:102430006F7A7A6C65004E6F7A7A6C6500537065BE
:102440006564005370656564004D61696E004361A9
:1024500072642072656D6F766564004361726420FA
:10246000696E73657274656400000000000000000E
:10247000000000000000000000000000000000005C
:102480000000000000000000000000000C00000040
:10249000000000000C00000000000000120000001E
:1024A00000000000230000000000000021000000E8
:1024B000000000004C800000000000005E80000072
:1024C000000000009240000000000000A140000059
:1024D0000000000121200000000000027F900000A9
:1024E000000000020010000000000007FFF80000DC
:1024F00000000004000800000000000800040000C4
:1025000000000008000600000000001000020000AB
:10251000000000301E010000000000207F8100004C
:1025200000000041FFE0800000000043FCF080005C
:10253000000000873B7840000000018EDBFC60005B
:102540000000010FEBCC20000000021FEDB61000D0
:102550000000021FDEB6100000000439CD7F080025
:1025600000000436E0FF08000000087EC0BB8400C5
:102570000000187F005D86000000107FC0ED820023
:102580000000203CC07301000000203B337F0100AD
:102590000000701BE77E03800000C81DEEDE04C053
:1025A0000000880FDEDC04400001240FDF3C09201E
:1025B00000012607DBF8192000027203E7F01390F0
:1025C00000025101FFE02290000489007F8024482E
:1025D000000904801E004824000BFE400000DFF4C8
:1025E0000010004000008002001FFFFFFFFFFFFE01
:1025F00000000000000000000000000000000000DB
:102600000000000000000000001022103C3C0E1FE3
:1026100000102210042211040010221008221104BC
:1026200000102210083C1104001022101022110486
:102630000010221020221104001E1C1E3C3C0E041F
:10264000000000000000000000000000000000008A
:10265000000000000000000000000000000000007A
:10266000000000000000000000000000000000006A
:10267000000000000000000000000000000000005A
:10268000000000000000000000000000000000004A
:10269000000000000000000000000000000000003A
:1026A000000000000000006563686F3A0048617236
:1026B00064636F6465642044656661756C7420535F
:1026C000657474696E6773204C6F61646564005350
:1026D000746F7265642073657474696E67732072B9
:1026E00065747269657665640020440020490020A5
:1026F00020204D3330312050005049442073657400
:1027000074696E67733A00205A0020590020204DEA
:10271000323036205800486F6D65206F66667365ED
:102720007420286D6D293A00204500205A00205859
:102730000020420020540020204D3230352053002C
:10274000416476616E636564207661726961626C72
:1027500065733A20533D4D696E206665656472610C
:10276000746520286D6D2F73292C20543D4D696EA2
:102770002074726176656C2066656564726174654B
:1027800020286D6D2F73292C20423D6D696E696D77
:10279000756D207365676D656E742074696D652055
:1027A000286D73292C20583D6D6178696D756D20F9
:1027B0005859206A65726B20286D6D2F73292C2063
:1027C000205A3D6D6178696D756D205A206A657279
:1027D0006B20286D6D2F73292C2020453D6D61786D
:1027E000696D756D2045206A65726B20286D6D2FAF
:1027F00073290020540020204D32303420530041F2
:102800006363656C65726174696F6E3A20533D61F4
:102810006363656C65726174696F6E2C20543D72E0
:1028200065747261637420616363656C6572617461
:10283000696F6E00204500205A0020590020204D6D
:102840003230312058004D6178696D756D204163DB
:1028500063656C65726174696F6E20286D6D2F738E
:1028600032293A00204500205A0020590020204DEE
:102870003230332058004D6178696D756D20666582
:102880006564726174657320286D6D2F73293A0039
:1028900020453100204500205A0020590020204DBD
:1028A000393220580053746570732070657220753A
:1028B0006E69743A0053657474696E67732053745B
:1028C0006F726564006563686F3A004572726F727B
:1028D0003A0053544F505045442E20005072696EB8
:1028E0007465722073746F70706564206475652000
:1028F000746F206572726F72732E2046697820742F
:102900006865206572726F7220616E6420757365F0
:10291000204D39393920746F207265737461727477
:102920002E202854656D706572617475726520691A
:10293000732072657365742E20536574206974204A
:1029400061667465722072657374617274696E6712
:1029500029004B494C4C45442E20005072696E743E
:1029600065722068616C7465642E206B696C6C28DC
:10297000292063616C6C656421006F6B0052657384
:10298000656E643A20002200556E6B6E6F776E2084
:10299000636F6D6D616E643A2022004368616E67FB
:1029A000652066696C616D656E74006C636420639C
:1029B0006F6E74726173742076616C75653A200075
:1029C000486F74656E64206F6666736574733A0051
:1029D0007A5F6D696E3A2000795F6D696E3A20000A
:1029E000785F6D696E3A20005A3A00593A002043E8
:1029F0006F756E7420583A2000453A005A3A0059D3
:102A00003A00583A004649524D574152455F4E41AF
:102A10004D453A4D61726C696E2056313B205370C2
:102A200072696E7465722F6772626C206D61736873
:102A3000757020666F722067656E36204649524D6C
:102A4000574152455F55524C3A687474703A2F2F73
:102A50007777772E6D656E64656C2D706172747317
:102A60002E636F6D2050524F544F434F4C5F56456D
:102A70005253494F4E3A312E30204D414348494E32
:102A8000455F545950453A54415A2045585452557F
:102A90004445525F434F554E543A322055554944B0
:102AA0003A30303030303030302D303030302D3022
:102AB0003030302D303030302D303030303030301C
:102AC00030303030300A0054415A204F66662E00B4
:102AD00054415A2052656164792E00426564206435
:102AE0006F6E652E0020423A0020453A00543A00AD
:102AF0004265642048656174696E672E00486561AF
:102B000074696E6720646F6E652E0020573A00204E
:102B1000453A00543A0048656174696E672E2E2E5E
:102B2000002042403A0020403A00202F003A002086
:102B30005400202F0020423A00202F006F6B2054B9
:102B40003A002569206D696E2C2025692073656324
:102B500000456E642066696C65206C697374004280
:102B60006567696E2066696C65206C697374004ED8
:102B70006F206D6F76652E00526573756D696E6797
:102B8000207072696E74005761697420666F7220DC
:102B9000757365722E2E2E00536C6565702E2E2E69
:102BA00000000095430080894300007A43FFFFFF47
:102BB0000000000000000000000000000000000015
:102BC00000000000000000000000954300808943E1
:102BD00000007A430000A0400000A04000008040B8
:102BE000256920686F757273202569206D696E757F
:102BF00074657300446F6E65207072696E74696EDF
:102C0000672066696C650053544F505045442E2030
:102C1000005072696E7465722073746F70706564B1
:102C20002064756520746F206572726F72732E2038
:102C300046697820746865206572726F7220616ED3
:102C40006420757365204D39393920746F207265A1
:102C500073746172742E202854656D70657261748E
:102C60007572652069732072657365742E205365D3
:102C70007420697420616674657220726573746172
:102C80007274696E6729006F6B004E6F204C696E1D
:102C900065204E756D62657220776974682063687F
:102CA00065636B73756D2C204C617374204C696E79
:102CB000653A20004E6F20436865636B73756D2025
:102CC00077697468206C696E65206E756D626572D7
:102CD0002C204C617374204C696E653A2000636847
:102CE00065636B73756D206D69736D617463682CBA
:102CF000204C617374204C696E653A20004C696EFB
:102D000065204E756D626572206973206E6F742048
:102D10004C617374204C696E65204E756D626572EE
:102D20002B312C204C617374204C696E653A200065
:102D30004D31313000446F6E6520736176696E6786
:102D40002066696C652E006F6B004D3239002020C3
:102D5000506C616E6E65724275666665724279741A
:102D600065733A20002046726565204D656D6F726F
:102D7000793A200046656220323720323031350002
:102D8000436F6D70696C65643A200028416C657012
:102D900068204F626A656374732C20496E632C202F
:102DA00054415A2020636F6E6669672900207C2099
:102DB000417574686F723A20004665622032372090
:102DC000323031352031373A35333A333100204C07
:102DD00061737420557064617465643A2000312E0B
:102DE000302E30004D61726C696E200020536F668A
:102DF0007477617265205265736574002057617441
:102E00006368646F67205265736574002042726F57
:102E1000776E206F75742052657365740020457855
:102E20007465726E616C20526573657400506F77C3
:102E300065725570007374617274002200656E7162
:102E40007565696E672022002200656E717565697F
:102E50006E672022004D383420582059205A2045D2
:102E6000006563686F3A0043616E6E6F7420656E33
:102E7000746572207375626469723A20004D323451
:102E8000004D3233202573006175746F25692E67FC
:102E9000004572726F723A006572726F72207772BB
:102EA0006974696E6720746F2066696C65004E6F87
:102EB00074205344207072696E74696E67002F002D
:102EC0005344207072696E74696E6720627974650C
:102ED00020002E0044656C6574696F6E2066616920
:102EE0006C65642C2046696C653A200046696C6507
:102EF0002064656C657465643A002E006F70656EC1
:102F0000206661696C65642C2046696C653A200016
:102F100057726974696E6720746F2066696C653AD0
:102F200020002E006F70656E206661696C65642CF0
:102F30002046696C653A20002E006F70656E206631
:102F400061696C65642C2046696C653A20004669AD
:102F50006C652073656C6563746564002053697AE1
:102F6000653A200046696C65206F70656E65643A4D
:102F700020002E006F70656E206661696C65642CA0
:102F80002046696C653A20004E6F77206672657343
:102F9000682066696C653A20004E6F7720646F691F
:102FA0006E672066696C653A20002220706F73009E
:102FB0002220706172656E743A2200535542524F5E
:102FC0005554494E452043414C4C2074617267650D
:102FD000743A2200747279696E6720746F2063619D
:102FE0006C6C207375622D67636F64652066696C15
:102FF0006573207769746820746F6F206D616E79D6
:10300000206C6576656C732E204D4158206C65767A
:10301000656C2069733A0053442063617264206FC9
:103020006B006F70656E526F6F74206661696C65BE
:103030006400766F6C756D652E696E6974206661CB
:10304000696C656400534420696E69742066616927
:103050006C004572726F723A004572723A204D41AF
:103060005854454D50204245440054656D7065727A
:103070006174757265206865617465642062656459
:10308000207377697463686564206F66662E204DCF
:10309000415854454D502074726967676572656484
:1030A000202121004572723A204D494E54454D5021
:1030B000003A20457874727564657220737769747C
:1030C00063686564206F66662E204D494E54454DF9
:1030D00050207472696767657265642021004572CB
:1030E000723A204D415854454D50003A204578746D
:1030F0007275646572207377697463686564206FA4
:1031000066662E204D415854454D502074726967B3
:103110006765726564202100202D20496E76616C00
:103120006964206578747275646572206E756D626D
:1031300065722021001000AD0330016A0150022B9E
:103140000170030A019004F500B005E500D006D82F
:1031500000F007CE001009C500300ABE00500BB7C2
:1031600000700CB100900DAB00B00EA600D00FA205
:1031700000F0109D00101299003013950050149229
:103180000070158E0090168B00B0178700D0188441
:1031900000F0198100101B7E00301C7B00501D794F
:1031A00000701E7600901F7300B0207000D0216E5A
:1031B00000F0226B00102469003025660050266361
:1031C000007027610090285E00B0295C00D02A5969
:1031D00000F02B5600102D5400302E5100502F4E71
:1031E0000070304B0090314800B0324500D033427F
:1031F00000F0343E0010363B003037370050383393
:103200000070392E00903A2900B03B2300D03C1BBF
:1032100000F03D1100103F0100F03F000050494414
:10322000204175746F74756E652066696E69736888
:103230006564212050757420746865204B702C20C3
:103240004B6920616E64204B6420636F6E73746100
:103250006E747320696E746F20436F6E6669677554
:10326000726174696F6E2E68005049442041757414
:103270006F74756E65206661696C65642120746980
:103280006D656F75740020403A006F6B20543A00F2
:103290006F6B20423A00504944204175746F747539
:1032A0006E65206661696C6564212054656D70658A
:1032B00072617475726520746F6F20686967680049
:1032C000204B643A2000204B693A2000204B703A92
:1032D000200020436C617369632050494420002022
:1032E00054753A2000204B753A2000206D61783AE1
:1032F0002000206D696E3A200020643A2000206290
:103300006961733A2000000A1400FC0D024A049916
:1033100020FFFC10FC0DFC0000000A0010020D0D47
:103320000A0400C0C0C0C0C0C0C0C0C0C000C0C08F
:103330000604040A0209CCCCCC48090B160A010188
:103340001B001B001B007F80360036003600FF008C
:103350006C006C006C00080D0D0A0100187EDBD8B3
:10336000D8D87E1B1B1BDB7E18090C180A010073C2
:1033700000DB00DE0076000C000C0018001800379F
:10338000003D806D806700090D1A0A010038006C4D
:10339000006C006C00780030007000D800CD80C751
:1033A00000C600EF0079800205050A0408C0C0C00D
:1033B000C080050D0D0A030018306060C0C0C0C099
:1033C000C060603018050D0D0A0200C06030301872
:1033D00018181818303060C00807070A010366661D
:1033E0003CFF3C66660807070A0103181818FF1817
:1033F00018180403030A03FF7070E00801010A01B2
:1034000006FF0303030A0400E0E0E0070C0C0A02D5
:103410000006060C0C181830306060C0C0080D0D96
:103420000A0100183C6666C3C3C3C3C366663C1882
:10343000080D0D0A0100183878D81818181818182F
:103440001818FF080D0D0A01003C66C3C3030306EC
:103450001C3060C0C0FF080D0D0A01003C66C3C3EC
:1034600003061C0603C3C3663C080D0D0A010002D7
:10347000060E1E3666C6C6FF06060606080D0D0AAF
:103480000100FFC0C0C0C0DCE6030303C3663C0804
:103490000D0D0A01003C66C2C0C0DCE6C3C3C3C355
:1034A000663C080D0D0A0100FF030306060C0C180C
:1034B0001830306060080D0D0A01003C66C3C3C3BC
:1034C000663C66C3C3C3663C080D0D0A01003C663A
:1034D000C3C3C3C3673B030343663C0308080A0432
:1034E00000E0E000000000E0E00409090A03FF70CA
:1034F00070000000007070E0070D0D0A0100020668
:103500000C183060C06030180C06020806060A016C
:1035100003FF00000000FF070D0D0A020080C060DD
:1035200030180C060C183060C080080D0D0A010020
:103530003C66C3C3C3060C181818001818080D0DF4
:103540000A01003C66C3CFDFDBDBDBDECCC0633EC1
:10355000080D0D0A0100183C6666C3C3C3FFC3C350
:10356000C3C3C3080D0D0A0100F8CCC6C6C6CCFC07
:10357000C6C3C3C3C6FC080D0D0A01003C66C3C028
:10358000C0C0C0C0C0C0C3663C080D0D0A0100FC2D
:10359000C6C3C3C3C3C3C3C3C3C3C6FC080D0D0A9C
:1035A0000100FFC0C0C0C0C0FCC0C0C0C0C0FF0898
:1035B0000D0D0A0100FFC0C0C0C0C0FCC0C0C0C02B
:1035C000C0C0080D0D0A01003C66C3C0C0C0CFC317
:1035D000C3C3C3673D080D0D0A0100C3C3C3C3C302
:1035E000C3FFC3C3C3C3C3C3080D0D0A0100FF1843
:1035F00018181818181818181818FF090D1A0A01A1
:10360000001F8006000600060006000600060006F1
:10361000000600C600C6006C003800080D0D0A0147
:1036200000C3C3C6C6CCCCF8CCCCC6C6C3C3080D39
:103630000D0A0100C0C0C0C0C0C0C0C0C0C0C0C072
:10364000FF080D0D0A0100C3C3E7E7FFDBDBDBDB8F
:10365000C3C3C3C3080D0D0A0100C3E3E3F3F3DBE7
:10366000DBCFCFC7C7C3C3080D0D0A01003C66C33B
:10367000C3C3C3C3C3C3C3C3663C080D0D0A010063
:10368000FCC6C3C3C3C3C6FCC0C0C0C0C0080E0EC6
:103690000A01FF3C66C3C3C3C3C3C3C3DBCF663EDB
:1036A00003080D0D0A0100FCC6C3C3C3C3C6FCCC8E
:1036B000C6C6C3C3080D0D0A01003C66C3C0C06086
:1036C0003C060303C3663C080D0D0A0100FF1818F1
:1036D00018181818181818181818080D0D0A0100CD
:1036E000C3C3C3C3C3C3C3C3C3C3C3663C080D0DB5
:1036F0000A0100C3C3C3C36666663C3C3C18181885
:10370000080D0D0A0100C3C3C3C3C3DBDBDBDBE76A
:10371000E7C3C3080D0D0A0100C3C366663C3C182D
:103720003C3C6666C3C3080D0D0A0100C3C3666650
:103730003C3C18181818181818080D0D0A0100FF3D
:103740000303060C0C18303060C0C0FF060D0D0AD4
:103750000200FCC0C0C0C0C0C0C0C0C0C0C0FC0728
:103760000C0C0A0200C0C06060303018180C0C0647
:1037700006060D0D0A0200FC0C0C0C0C0C0C0C0CBB
:103780000C0C0CFC0804040A0109183C66C309016E
:10379000020A01FFFF800403030A030AC060300825
:1037A00008080A01003E63037FC3C3C37D080D0DF3
:1037B0000A0100C0C0C0C0C0DCE6C3C3C3C3E6DCAE
:1037C0000808080A01003E63C0C0C0C0633E080D7F
:1037D0000D0A010003030303033B67C3C3C3C367AD
:1037E0003B0808080A01003C66C3FFC0C0633E08EE
:1037F0000D0D0A01001E33333030FC3030303030D4
:103800003030080C0C0A01FC7DC7C6C6C67CC07EE1
:10381000C3C3C37E080D0D0A0100C0C0C0C0C0DC18
:10382000E6C3C3C3C3C3C3080B0B0A0100181800C7
:1038300078181818181818FF070F0F0A02FC060648
:10384000001E06060606060606C6C6C67C080D0D40
:103850000A0100C0C0C0C0C0C6CCD8F0F8CCC6C3F6
:10386000080D0D0A010078181818181818181818DB
:103870001818FF0808080A0100B6FFDBDBDBDBDBFA
:10388000DB0808080A0100DCE6C3C3C3C3C3C308DE
:1038900008080A01003C66C3C3C3C3663C080C0C9D
:1038A0000A01FCDCE6C3C3C3C3E6DCC0C0C0C00879
:1038B0000C0C0A01FC3B67C3C3C3C3673B03030390
:1038C000030808080A0100DE736060606060600839
:1038D00008080A01007EC3C07E0303C37E080B0BE9
:1038E0000A0100303030FC3030303030331E0808F0
:1038F000080A0100C3C3C3C3C3C3673B0808080A5F
:103900000100C3C366663C3C18180808080A010099
:10391000C3C3C3DBDBDBFF660808080A0100C3661C
:103920003C18183C66C3080C0C0A01FCC3C3C3C393
:10393000C3C3673B03C3663C0708080A0200FE06D0
:103940000C183060C0FE080D0D0A01000F18181881
:103950001818F018181818180F020D0D0A0400C0D6
:10396000C0C0C0C0C0C0C0C0C0C0C0C0080D0D0A2B
:103970000100F018181818180F1818181818F0085F
:1039800003030A010A73DBCEFFFFFFFFFFFFFFFF08
:10399000FFFFFFFFFFFFFFFFFFFFFFFFFFFFFFFF37
:1039A000FFFFFFFFFFFFFFFFFF0000000A00100204
:1039B0000D0D0A0400C0C000C0C0C0C0C0C0C0C05F
:1039C000C0C0070C0C0A010018183C66C2C0C0C277
:1039D000663C1818090C180A01001E003300330059
:1039E00030003000FC00300030003000F800AD80C6
:1039F000E7000909120A00018080DD807F00630072
:103A0000630063007F00DD808080080B0B0A0100EB
:103A100081C3663C7E187E18181818020D0D0A0422
:103A200000C0C0C0C0C0000000C0C0C0C0C0080D01
:103A30000D0A01003C66C66078CC66331E066366DC
:103A40003C0602020A020BCCCC080B0B0A01003C1C
:103A500066C3BDA5A1A5BDC3663C0809090A01044A
:103A60003E43037FC3C37D00FF090B160A00000419
:103A7000800D801B0036006C00D8006C0036001BE7
:103A8000000D8004800804040A0104FFFF030306FC
:103A900001010A0206FC080B0B0A01003C66C3BDCB
:103AA000A5BDA9ADC3663C0801010A010DFF0606CC
:103AB000060A02073078CCCC78300807070A0102E2
:103AC0001818FF181800FF0507070A020670D81813
:103AD0003060C0F80507070A020670D8183018D8F9
:103AE000700403030A030A3060C0070A0A0A01FDD2
:103AF000C6C6C6C6C6EEFAC0C0C0080D0D0A010093
:103B00007FFFFBFBFB7B1B1B1B1B1B1B1B03030305
:103B10000A0405E0E0E00504040A02FC3018D8704D
:103B20000407070A020660E060606060F0070909A8
:103B30000A0104386CC6C6C66C3800FE090B160AAA
:103B400001009000D8006C0036001B000D801B00A7
:103B500036006C00D8009000080C0C0A010140C02F
:103B60004142E40812264A9E0202080C0C0A010196
:103B700040C04142E40816294182040F080C0C0A97
:103B80000101E0106112E40812264A9F0202080DAA
:103B90000D0A01001818001818183060C3C3C36656
:103BA0003C080F0F0A010060301800183C66C3C3C0
:103BB000C3FFC3C3C3C3080F0F0A0100060C1800DC
:103BC000183C66C3C3C3FFC3C3C3C3080F0F0A01B6
:103BD00000183C6600183C66C3C3C3FFC3C3C3C31D
:103BE000080F0F0A0100327E4C00183C66C3C3C3A5
:103BF000FFC3C3C3C3080F0F0A0100666600183C69
:103C00006666C3C3C3FFC3C3C3C30810100A010061
:103C10003C66663C00183C66C3C3C3FFC3C3C3C352
:103C2000080D0D0A01001F3C6C6CCCCCFFCCCCCC39
:103C3000CCCCCF0811110A01FC3C66C3C0C0C0C087
:103C4000C0C0C0C3663C180C6C38080F0F0A0100D6
:103C500060301800FFC0C0C0C0FCC0C0C0C0FF08BA
:103C60000F0F0A01000C183000FFC0C0C0C0FCC01C
:103C7000C0C0C0FF080F0F0A0100183C6600FFC05B
:103C8000C0C0C0FCC0C0C0C0FF080F0F0A01006662
:103C9000660000FFC0C0C0C0FCC0C0C0C0FF060FAF
:103CA0000F0A020060301800FC3030303030303005
:103CB0003030FC060F0F0A020018306000FC303074
:103CC00030303030303030FC060F0F0A02003078D0
:103CD000CC00FC303030303030303030FC060F0F4C
:103CE0000A0200CCCC00FC30303030303030303084
:103CF00030FC090D1A0A00007E00630061806180BB
:103D000061806180F9806180618061806180630091
:103D10007E00080F0F0A0100327E4C00C3E3F3F36C
:103D2000DBDBCFCFC7C3C3080F0F0A010030180C6D
:103D3000003C66C3C3C3C3C3C3C3663C080F0F0ABA
:103D400001000C1830003C66C3C3C3C3C3C3C366C1
:103D50003C080F0F0A0100183C66003C66C3C3C351
:103D6000C3C3C3C3663C080F0F0A0100327E4C0078
:103D70003C66C3C3C3C3C3C3C3663C080F0F0A0179
:103D8000006666003C66C3C3C3C3C3C3C3C3663C0B
:103D90000708080A010082C66C38386CC682080F12
:103DA0000F0A01FF013E66C7C7CBCBCBD3D3D3E30A
:103DB000667C80080F0F0A010030180C00C3C3C3D3
:103DC000C3C3C3C3C3C3663C080F0F0A01000C186A
:103DD0003000C3C3C3C3C3C3C3C3C3663C080F0F10
:103DE0000A0100183C6600C3C3C3C3C3C3C3C3C333
:103DF000663C080F0F0A0100666600C3C3C3C3C355
:103E0000C3C3C3C3C3663C080F0F0A01000C1830BC
:103E100000C3C366663C3C1818181818070D0D0A35
:103E20000200C0C0C0FCC6C6C6C6C6FCC0C0C00832
:103E30000D0D0A01001C36636366EC6C66636363F8
:103E4000666C080C0C0A010030180C007EC3037F5E
:103E5000C3C3C37D080C0C0A01000C1830007EC3DC
:103E6000037FC3C3C37D080C0C0A0100183C660025
:103E70007EC3037FC3C3C37D080C0C0A0100327EDE
:103E80004C007EC3037FC3C3C37D080B0B0A010034
:103E90006666007EC3037FC3C3C37D080D0D0A01A0
:103EA000003C66663C007EC3037FC3C3C37D080835
:103EB000080A0100769B1B1E78D8D96E080C0C0AE4
:103EC00001FC3E63C0C0C0C0633E180C6C38080CD7
:103ED0000C0A0100603018003C66C3FFC0C0633E9E
:103EE000080C0C0A0100060C18003C66C3FFC0C099
:103EF000633E080C0C0A0100183C66003C66C3FFD8
:103F0000C0C0633E080B0B0A01006666003C66C336
:103F1000FFC0C0633E080C0C0A0100603018007836
:103F2000181818181818FF080C0C0A01000C183083
:103F30000078181818181818FF080C0C0A01001837
:103F40003C660078181818181818FF080B0B0A019F
:103F50000066660078181818181818FF080D0D0A62
:103F6000010088D87070D88C3E67C3C3C3663C0814
:103F70000C0C0A0100327E4C00DCE6C3C3C3C3C391
:103F8000C3080C0C0A0100603018003C66C3C3C3B0
:103F9000C3663C080C0C0A0100060C18003C66C302
:103FA000C3C3C3663C080C0C0A0100183C66003C05
:103FB00066C3C3C3C3663C080C0C0A0100327E4CC6
:103FC000003C66C3C3C3C3663C080B0B0A01006612
:103FD00066003C66C3C3C3C3663C080A0A0A010103
:103FE00018180000FFFF00001818080A0A0A01FF4D
:103FF000013E66CBCBD3D3667C80080C0C0A010053
:1040000030180C00C3C3C3C3C3C3673B080C0C0AFE
:104010000100060C1800C3C3C3C3C3C3673B080C2D
:104020000C0A0100183C6600C3C3C3C3C3C3673B8B
:10403000080B0B0A0100666600C3C3C3C3C3C36792
:104040003B0810100A01FC0C183000C3C3C3C3C3E3
:10405000C3673B03C3663C0711110A02FCC0C0C022
:10406000C0C0C0F8CCC6C6C6CCF8C0C0C0C0080F1F
:104070000F0A01FC666600C3C3C3C3C3C3673B0327
:10408000C3663C01050800FF060121023520FFFF41
:1040900007FF06FF090050221656808080800080AE
:1040A000153353A0A0A00257575050F850F8505065
:1040B0000257572070A07028702013355580A040FB
:1040C000A02002475740A0A040A0A0502513538035
:1040D0008080122656408080808040122656804084
:1040E000404040800245559060F060900255552058
:1040F00020F82020113353604080044151F01133E7
:104100005340E04002465610102040808012365640
:1041100040A0A0A0A04012365640C0404040E0025F
:1041200046566090106080F0024656F02060109075
:10413000600246562060A0F02020024656F080E043
:104140001090600246566080E0909060024656F003
:1041500010202040400246566090609090600246D9
:1041600056609090701060122555C0C000C0C011FC
:104170003656606000604080123656204080804095
:1041800020034353F000F012365680402020408038
:1041900012365640A020400040015858304898A898
:1041A000A8904030024656609090F090900246569B
:1041B000E090E09090E0024656609080809060022F
:1041C0004656E090909090E0024656F080E0808065
:1041D000F0024656F080E080808002465660908073
:1041E000B090600246569090F0909090123656E053
:1041F00040404040E002465670202020A040024649
:104200005690A0C0A0A0900246568080808080F08A
:1042100002465690F0F090909002465690D0F0B042
:10422000B090024656609090909060024656E090A2
:1042300090E08080014757609090D0B060100246B7
:1042400056E09090E090900246566090402090603A
:10425000123656E0404040404002465690909090C2
:104260009060024656909090906060024656909002
:1042700090F0F090024656909060609090025656F2
:10428000888850202020024656F010204080F012EE
:104290003656E080808080E00246568080402010C4
:1042A00010123656E020202020E016325240A001A5
:1042B0004151F01622528040024454709090700296
:1042C00046568080E09090E0123454608080600216
:1042D000465610107090907002445460B0C0600256
:1042E0004656205040E040400145556090701060B7
:1042F0000246568080E09090901236564000C040B2
:1043000040E01137572000202020A0400246568070
:104310008090E09090123656C040404040E00254F9
:1043200054D0A8A8A8024454E0909090024454604D
:10433000909060014555E090E08080014555709077
:10434000701010024454A0D0808012345460C020F9
:10435000C00246564040E0405020024454909090A5
:1043600070123454A0A0A04002545488A8A850024F
:104370004454906060900145559090709060024464
:1043800054F02040F0024757304020C020403022F7
:104390001656808080808080024757C02040304081
:1043A00020C006425250A0FFFFFFFFFFFFFFFFFFAC
:1043B000FFFFFFFFFFFFFFFFFFFFFFFFFFFFFFFF0D
:1043C000FFFFFFFFFFFFFFFF09005022165680008E
:1043D000808080800146562070A0A0702002465642
:1043E0002050E04050A00255558870507088025609
:1043F000568850F820F8202217578080800080804F
:10440000800247577080E0907010E0173151A00291
:10441000565670A8C8C8A87014355560A06000E052
:1044200003435350A050123353E02020143151E085
:1044300002565670E8D8E8D870173151E01533535A
:1044400040A04012355540E04000E014355540A0F2
:104450002040E0143555C020C020C01622524080B4
:10446000014555909090E08002565678E8E868281B
:104470002824115180112252408014355540C040EB
:1044800040E014355540A04000E0034353A050A045
:10449000024757808080A060F0200247578080A0AC
:1044A000D010207002475780408060A0F020123664
:1044B0005640004080A04002475740206090F09056
:1044C0009002475720406090F090900247576090CC
:1044D0006090F0909002475750A06090F09090024A
:1044E000475790006090F09090024757609060901E
:1044F000F0909002465670A0A0F0A0B0014757601F
:104500009080809060400247574020F080E080F02B
:104510000247572040F080E080F00247576090F05B
:1045200080E080F00247579000F080E080F0123782
:10453000578040E0404040E01237572040E0404084
:1045400040E012375740A0E0404040E0123757A00B
:1045500000E0404040E00256567048E8484870028B
:10456000475750A090D0B09090024757402060909D
:1045700090906002475720406090909060024757AB
:104580006090609090906002475750A0609090902B
:104590006002475790006090909060123353A040A3
:1045A000A002465670B0B0D0D0E0024757402090ED
:1045B0009090906002475720409090909060024702
:1045C0005760909090909060024757900090909024
:1045D00090600257571020885020202002465680B5
:1045E000E09090E0800246566090A0A090A0024724
:1045F0005740200070909070024757204000709004
:1046000090700247572050007090907002475750AA
:10461000A00070909070024656500070909070020A
:10462000475760906070909070025454F068B07872
:10463000113555608080604002475740200060B0CF
:10464000C06002475720400060B0C060024757601A
:10465000900060B0C060024656500060B0C060126A
:104660003757804000C04040E0123757204000C01C
:104670004040E012375740A000C04040E01236569C
:10468000A000C04040E0024757A040A010709060DA
:1046900002475750A000E0909090024757402000FA
:1046A0006090906002475720400060909060024701
:1046B000576090006090906002475750A000609053
:1046C0009060024656900060909060123555400010
:1046D000E0004002445470B0D0E002475740200050
:1046E0009090907002475720400090909070024741
:1046F0005760900090909070024656900090909075
:104700007001485820400090907090600147578099
:1047100080E090E08080014757900090907090601A
:1047200001070D00FE09015F02CF20FFFE0BFE0A0C
:10473000FE0D00703219798080808080808000803A
:10474000283373A0A0A01357775050F850F850505A
:104750001357772078A07028F02002697944A44884
:104760001010204894880267776090906094887455
:1047700038137380808022397920404080808040C7
:10478000402022397980404020202040408004652C
:10479000754830FC30481455752020F8202011430E
:1047A00073706080165171F821337340E0401259E4
:1047B00079080810102040408080026979304884D0
:1047C0008484848448301259792060A020202020DD
:1047D00020F80269797884840408304080FC0269FA
:1047E00079FC0408103804048478026979081828D0
:1047F000488888FC0808026979FC8080B8C40404F1
:10480000847802697938408080B8C48484780269E9
:1048100079FC0408101020204040026979788484D3
:104820008478848484780269797884848C7404041C
:10483000087021387840E040000040E0401148789E
:10484000207020000070608012597908102040808C
:1048500040201008046474FC0000FC125979804068
:1048600020100810204080026979788484040810A0
:104870001000100269797884849CA4AC948078023A
:1048800069793048848484FC848484026979F8449A
:10489000444478444444F802697978848080808074
:1048A000808478026979F844444444444444F802DA
:1048B0006979FC808080F0808080FC026979FC80CE
:1048C0008080F08080808002697978848080809CFC
:1048D000848C7402697984848484FC848484841242
:1048E0005979F820202020202020F80269791C081E
:1048F00008080808088870026979848890A0C0A018
:104900009088840269798080808080808080FC0229
:10491000697984CCCCB4B484848484026979848435
:10492000C4A4948C84848402697978848484848483
:10493000848478026979F8848484F8808080800196
:104940006A7A788484848484A4947804026979F8E7
:10495000848484F8A090888402697978848080783F
:1049600004048478125979F8202020202020202067
:104970000269798484848484848484780269798453
:10498000848448484830303002697984848484B40F
:10499000B4CCCC8402697984844848304848848403
:1049A000125979888850502020202020026979FCF3
:1049B00004081030204080FC114B7BF08080808008
:1049C0008080808080F012597980804040201010D3
:1049D0000808114B7BF0101010101010101010F080
:1049E000185373205088016171FC2A2272804002A2
:1049F000667678047C848C74026979808080B8C47F
:104A00008484C4B802667678848080847802697968
:104A1000040404748C84848C740266767884FC802C
:104A2000847802697938444040F040404040006852
:104A3000787488887080788478026979808080B8FA
:104A4000C48484848412587820006020202020F8B8
:104A5000105A7A08001808080808888870026979CE
:104A60008080808890E0908884125979602020208E
:104A700020202020F8125676D0A8A8A8A888026680
:104A800076B8C48484848402667678848484847846
:104A9000006878B8C484C4B8808080006878748C5A
:104AA000848C74040404026676B84440404040029A
:104AB00066767884601884780268784040F04040D8
:104AC000404438026676848484848C7412567688D6
:104AD00088885050201256768888A8A8A850026668
:104AE000768448303048840068788484848C7404E8
:104AF0008478026676FC08102040FC115B7B38400D
:104B0000404020C020404040383219798080808069
:104B10008080808080115B7BE010101020182010B6
:104B20001010E018537348A890FFFFFFFFFFFFFF2E
:104B3000FFFFFFFFFFFFFFFFFFFFFFFFFFFFFFFF85
:104B4000FFFFFFFFFFFFFFFFFFFF0D00703219792E
:104B50008000808080808080801358782070A8A09A
:104B6000A0A8702002697938444040E0404044B831
:104B7000036676847848487884025979888850504A
:104B8000F820F82020321979808080800080808091
:104B900080124A7A60908060909060109060194214
:104BA0007290900269797884B4A4A4A4B48478142F
:104BB0005777700878887800F8036777142850A032
:104BC000502814145373F80808164171F0026979DB
:104BD0007884B4ACACB4AC84781A5171F8174474CE
:104BE000609090601357772020F8202000F8163648
:104BF0007640A0204080E0163676E0204020A0409D
:104C00002A2272408001677784848484CCB4800235
:104C100069797CE8E8E86828282828262171C020DE
:104C20002272408016367640C0404040E0154676FD
:104C30006090906000F0036777A05028142850A07F
:104C4000026A7A40C0404044EC14141C04026A7AA0
:104C500040C0404048F40408101C026A7AE020403A
:104C600020A44C14141C04026979200020204080E8
:104C7000848478026A7A20100030488484FC84841A
:104C8000026A7A10200030488484FC8484026A7AA4
:104C900030480030488484FC8484026A7A64980036
:104CA00030488484FC8484026A7A4848003048840E
:104CB00084FC8484026A7A30483030488484FC84DE
:104CC000840269795CA0A0A0B8E0A0A0BC006B7BC6
:104CD0007884808080808084781020026A7A201016
:104CE00000FC8080F08080FC026A7A102000FC804A
:104CF00080F08080FC026A7A304800FC8080F0807E
:104D000080FC026A7A484800FC8080F08080FC12B7
:104D10005A7A402000F82020202020F8125A7A20C9
:104D20004000F82020202020F8125A7A205000F865
:104D30002020202020F8125A7A888800F82020208D
:104D40002020F8026979F8444444E4444444F802D9
:104D50006A7A64980084C4A4A4948C84026A7A2039
:104D6000100078848484848478026A7A1020007821
:104D7000848484848478026A7A30480078848484C5
:104D8000848478026A7A649800788484848484783D
:104D9000026A7A484800788484848484780366763A
:104DA000844830304884016B7B04788C9494A4A4AC
:104DB000A4C47880026A7A20100084848484848465
:104DC00078026A7A10200084848484848478026A59
:104DD0007A30480084848484848478026A7A4848DB
:104DE0000084848484848478125A7A10200088880D
:104DF000502020202002697980F8848484F8808003
:104E000080125979609090A0A0908888B00269794A
:104E100020100078047C848C74026979102000785A
:104E2000047C848C7402697930480078047C848C1A
:104E30007402697964980078047C848C74026979BE
:104E400048480078047C848C74026A7A30483000C8
:104E500078047C848C7402667668147C9094680074
:104E60006878788480808478102002697920100026
:104E70007884FC8084780269791020007884FC8032
:104E800084780269793048007884FC8084780269EB
:104E9000794848007884FC80847812597940200051
:104EA0006020202020F81259792040006020202026
:104EB00020F81259796090006020202020F81259C3
:104EC000799090006020202020F8026A7A483050C3
:104ED00008788484848478026979649800B8C484EA
:104EE0008484840269792010007884848484780220
:104EF0006979102000788484848478026979304844
:104F00000078848484847802697964980078848441
:104F1000848478026979484800788484848478138A
:104F20005777202000F800202001687804788C94BE
:104F3000A4C47880026979201000848484848C74ED
:104F4000026979102000848484848C740269793029
:104F50004800848484848C7402697948480084847D
:104F600084848C74006B7B1020008484848C740493
:104F70008478006A7A8080B8C48484C4B880800051
:104F80006B7B4848008484848C74048478000021FE
:104F900000240027002A002D00300033000101000A
:104FA00000040107010A0100002200250028002B4F
:104FB000002E003100340002010000050108010B41
:104FC00001000020002300260029002C002F0032C1
:104FD00000000100000301060109010505050507A0
:104FE0000508080808020202020A0A080804040464
:104FF0000401010101010101010303030303030390
:1050000003040707070C0C0C0C0C0C0C0C0202021E
:105010000206060606060606060B0B0B0B0B0B0B11
:105020000B010210202008081020401020408002B0
:1050300001020108040201010204081020408080DE
:105040004020100804020180040201804020100862
:10505000040201080402010102040810204080013A
:10506000020408102040800000090A02080B0C0D01
:10507000070603040100000000000000000000001B
:105080000000000000000000000000000000000020
:1050900000000011100F00000000000000000000E0
:1050A0000000000000000000000000000002494E67
:1050B00046494E4954594E414ECDCCCC3D0AD7239A
:1050C0003C17B7D13877CC2B329595E6241FB14FDA
:1050D0000A000020410000C84200401C4620BCBE1F
:1050E0004CCA1B0E5AAEC59D7400509AB4A1A5AD12
:1050F000EBF3A0AD11241FBECFEFD1E2DEBFCDBFD9
:1051000000E00CBF14E0A0E0B2E0E2E1F1E102E077
:105110000BBF02C007900D92A03DB107D9F71BBE8F
:1051200016E1A0EDB4E001C01D92A332B107E1F792
:1051300010E5C2EFD0E504C02297FE010F942F08BE
:10514000CA3ED107C9F70F940F030D947D080C9444
:105150000000A0E0B0E0EFEAF8E20D944C08EC01AA
:105160005B016115710519F0FB0191838083F99052
:105170008F2D90E00F943308892BC9F7FDE2FF16BD
:1051800021F4F990EE24E39405C02BE2F21609F421
:10519000F990EE248E0101501040C8016EEA70E5CE
:1051A00043E050E072D2892BF9F48E010E5F1F4F5D
:1051B000C80161EB70E545E050E067D2892B19F436
:1051C0008E01095F1F4FA114B10419F0F50111837D
:1051D0000083E0FC04C070E090E080E813C070E061
:1051E00090E080E86FEF07C1C80166EB70E543E02F
:1051F00050E04BD2892B69F4A114B10429F470E07A
:1052000090E080EC6FE7F7C02296F501D183C08370
:10521000F6CF8824992440E050E060E070E0EF2D64
:10522000E053EA30A0F5F2E0EF2A8E2D90E09C01E9
:1052300028703070E2FE06C0232B79F50894811C9B
:10524000911C2BC0232B19F0089481089108DB01D5
:10525000CA0112E0880F991FAA1FBB1F1A95D1F728
:10526000480F591F6A1F7B1F440F551F661F771F6A
:105270004E0F511D611D711D483929E9520729E959
:10528000620729E1720748F084E0E82A06C0EE3F91
:1052900031F4E3FC39C098E0E92AF990C0CFE53356
:1052A00011F0E53189F529912D3219F4E0E1EE2A6A
:1052B00005C02B3219F081E090E003C0299182E013
:1052C00090E0E22FE053EA3018F0C81BD90B1CC065
:1052D00020E030E0FCE020383F075CF4C901880F93
:1052E000991F880F991F280F391F220F331F2E0F68
:1052F000311DE991E053EA3068F3E4FE03C03095D4
:1053000021953F4F820E931ECE2CDD24E1FE07C077
:10531000A114B10421F02197F501D183C083CB0101
:10532000BA010F9498047B018C01F3E0CF22DD24B5
:1053300023E0C216D10421F417FB109517F910953C
:1053400057016801C801B70120E030E040E050E0BB
:105350000F94F803882309F44AC097FE0DC02DEC82
:10536000E22E20E5F22E9094819491089394C0E26D
:10537000D0E000E010E012C095EEE92E90E5F92EA5
:10538000F6CFF7012591359145915491C601B501AC
:105390000F94D8065B016C018C1A9D0A8C169D0631
:1053A00084F7D595C7950F5F1F4F0630110529F07B
:1053B0008CEF9FEFE80EF91EF1CFC501D6017C01FD
:1053C0008D018C2D880F8D2D881F8F3F51F0C601C8
:1053D000B50120E030E040E050E00F94F80388236E
:1053E00031F482E290E090932216809321167E2D74
:1053F0009F2D802F612F272F392F482F562FB9012E
:10540000CA01CDB7DEB7ECE00D9468082F923F9249
:105410005F926F927F928F929F92AF92BF92CF9244
:10542000DF92EF92FF920F931F93CF93DF938C0144
:105430001B01EA016115710519F0FB01918380835D
:10544000209749F0CE010297839728F020E030E0C2
:1054500040E050E0F6C0F801A1908F018A2D90E065
:105460000F943308892BB9F7FDE2AF1631F4F80138
:10547000A1908F015524539407C0FBE2AF1619F495
:10548000F801A1908F015524209719F0C031D10562
:10549000C1F4F0E3AF1679F4F8018081883711F098
:1054A000883549F4F801A1800E5F1F4FF2E05F2AB2
:1054B000C0E1D0E006C0209721F480E3A816E9F40B
:1054C00027C0C830D10531F1C930D10524F4C2302C
:1054D000D10531F50CC0CA30D10589F0C031D105F4
:1054E000F9F4C12CD12CE12CB8E0FB2E28C0C12C42
:1054F000D12CE12CA0E4FA2E22C0CAE0D0E0FCECD2
:10550000CF2EFCECDF2EFCECEF2EFCE0FF2E17C0C4
:10551000C8E0D0E0C12CD12CE12CE0E1FE2E0FC080
:105520009E01442737FD4095542F60E070E080E0F5
:1055300090E80F94F007C901DA016C017D0120E0C9
:1055400030E040E050E060E03E01882477FC809449
:10555000982C70EDB72EBA0CE9E0EB1570F48A2D9B
:1055600081548A3118F499ECB92E06C08A2D8156DF
:105570008A3150F589EAB82EBA0C8B2D90E08C1741
:105580009D0714F56F3FE1F0C216D306E406F50659
:10559000B0F0CA01B901A40193010F94AA079B01BD
:1055A000AC012B0D311D411D511D2130F0E03F0795
:1055B000F0E04F07F0E85F0710F461E001C06FEF23
:1055C000F801A1908F01C5CF2114310481F0662329
:1055D00031F001501040F1011183008308C051FEE9
:1055E0001AC002501040F1011183008314C067FFFC
:1055F00012C050FC05C02FEF3FEF4FEF5FE704C034
:1056000020E030E040E050E882E290E09093221603
:105610008093211616C050FE08C0509540953095D5
:1056200021953F4F4F4F5F4F0CC057FF0AC082E29A
:1056300090E090932216809321162FEF3FEF4FEFCB
:105640005FE7B901CA01DF91CF911F910F91FF90E0
:10565000EF90DF90CF90BF90AF909F908F907F9012
:105660006F905F903F902F900895FB01DC010590B3
:105670000D920020E1F70895FC0105900020E9F764
:10568000809590958E0F9F1F0895FB01DC0141507E
:10569000504088F08D9181341CF08B350CF4805E85
:1056A000659161341CF06B350CF4605E861B6111F2
:1056B00071F3990B0895881BFCCFFB01DC0141506D
:1056C000504048F005900D920020C9F701C01D928E
:1056D00041505040E0F70895FB0155915523A9F042
:1056E000BF01DC014D9145174111E1F759F4CD019E
:1056F0000590002049F04D9140154111C9F3FB017F
:105700004111EFCF81E090E001970895FB01DC01AA
:1057100004C08D910190801921F441505040C8F788
:10572000881B990B0895FB01DC0102C001900D92CA
:1057300041505040D8F70895FB01DC010D90002046
:10574000E9F7119701900D920020E1F70895FC010F
:105750008191861721F08823D9F7992708953197E9
:10576000CF010895FB01DC0101900D920020E1F7CB
:105770000895FB01DC014150504030F08D910190C3
:10578000801919F40020B9F7881B990B0895FB01C3
:10579000DC014150504048F001900D920020C9F7C3
:1057A00001C01D9241505040E0F70895AEE0B0E0D6
:1057B000ECEDFBE20D9454080E891F898EE08C837A
:1057C0001A8309838FEF9FE79E838D839E01265E58
:1057D0003F4FCE010196688D798DA9010AD02F81A6
:1057E0003885020F131FF80110822E96E4E00D9405
:1057F0007008ABE0B0E0EFEFFBE20D9446083C012F
:105800002B015A01FC0117821682838181FD03C09E
:105810006FEF7FEFB9C19AE0892E1E010894211C19
:10582000311CF3012381F20123FD859123FF819136
:105830002F01882309F4A5C1853239F423FD859110
:1058400023FF81912F01853221F490E0B301B7D17C
:10585000E8CF982FFF24EE249924FFE1FF15D0F024
:105860009B3269F09C3228F4903259F0933291F4D3
:105870000EC09D3249F0903369F441E024C052E0FB
:10588000F52A84E0F82A28C098E0F92A25C0E0E14A
:10589000FE2A22C0F7FC29C0892F80538A3070F479
:1058A000F6FE05C0989C902C1124980E15C0E89C1B
:1058B000E02C1124E80EF0E2FF2A0EC09E3229F4FB
:1058C000F6FC5FC140E4F42A07C09C3619F450E8A6
:1058D000F52A02C0983649F4F20123FD959123FF81
:1058E00091912F01992309F0B8CF892F85548330E6
:1058F00018F08052833038F444E050E0A40EB51E16
:105900005FE359830FC0933631F0933779F09335C5
:1059100009F052C01FC0F5018081898342E050E048
:10592000A40EB51E610101E010E011C0F501C080B8
:10593000D180F6FC03C06FEF7FEF02C0692D70E0ED
:1059400042E050E0A40EB51EC6012ED18C015FE7E7
:10595000F52213C0F501C080D180F6FC03C06FEFC3
:105960007FEF02C0692D70E042E050E0A40EB51E4A
:10597000C6010FD18C0150E8F52AF3FE06C018C00D
:1059800080E290E0B3011BD1EA948E2D90E00817DD
:105990001907B0F30DC0F601F7FC8591F7FE819170
:1059A0006F0190E0B3010BD1E110EA940150104077
:1059B0000115110581F7E2C0943611F0993661F5B1
:1059C000F7FE08C0F501208131814281538184E0D6
:1059D00090E00AC0F501808191819C01442737FD48
:1059E0004095542F82E090E0A80EB91E9FE6F92260
:1059F00057FF09C050954095309521953F4F4F4F27
:105A00005F4FE0E8FE2ACA01B901A1012AE030E0B7
:105A100002D1D82ED2183FC0953729F41F2D1F7EF2
:105A20002AE030E01DC01F2D197F9F3661F09037AE
:105A300020F4983509F0A5C00FC0903739F0983799
:105A400009F09FC004C028E030E00AC0106114FDD6
:105A5000146020E130E004C014FD166020E132E063
:105A600017FF08C0F501608171818281938144E054
:105A700050E008C0F50180819181BC0180E090E098
:105A800042E050E0A40EB51EA101C5D0D82ED21818
:105A90008FE7F82EF122F6FE0BC05EEFF522D91447
:105AA00038F4F4FE07C0F2FC05C08FEEF82202C005
:105AB0001D2D01C0192DF4FE0DC0FE01ED0DF11DCF
:105AC0008081803319F499EEF92208C01F5FF2FE3D
:105AD00005C003C08F2D867809F01F5F0F2DF3FCE2
